{
  "address": "0x9d7ac680729B94894662246EffA8e9F589fA1fe1",
  "abi": [
    {
      "anonymous": false,
      "inputs": [
        {
          "indexed": true,
          "internalType": "bytes32",
          "name": "code",
          "type": "bytes32"
        },
        {
          "indexed": true,
          "internalType": "address",
          "name": "referrer",
          "type": "address"
        }
      ],
      "name": "AddressAdded",
      "type": "event"
    },
    {
      "anonymous": false,
      "inputs": [
        {
          "indexed": true,
          "internalType": "address",
          "name": "previousOwner",
          "type": "address"
        },
        {
          "indexed": true,
          "internalType": "address",
          "name": "newOwner",
          "type": "address"
        }
      ],
      "name": "OwnershipTransferred",
      "type": "event"
    },
    {
      "anonymous": false,
      "inputs": [
        {
          "indexed": true,
          "internalType": "string",
          "name": "code",
          "type": "string"
        },
        {
          "indexed": true,
          "internalType": "address",
          "name": "referrer",
          "type": "address"
        }
      ],
      "name": "ReferralCodeAdded",
      "type": "event"
    },
    {
      "anonymous": false,
      "inputs": [
        {
          "indexed": true,
          "internalType": "address",
          "name": "",
          "type": "address"
        }
      ],
      "name": "WithdrawalDispersed",
      "type": "event"
    },
    {
      "inputs": [
        {
          "internalType": "uint256",
          "name": "numReferrals",
          "type": "uint256"
        }
      ],
      "name": "_rewardPct",
      "outputs": [
        {
          "internalType": "uint256",
          "name": "",
          "type": "uint256"
        }
      ],
      "stateMutability": "pure",
      "type": "function"
    },
    {
      "inputs": [
        {
          "internalType": "address",
          "name": "controller",
          "type": "address"
        }
      ],
      "name": "addController",
      "outputs": [],
      "stateMutability": "nonpayable",
      "type": "function"
    },
    {
      "inputs": [],
      "name": "balance",
      "outputs": [
        {
          "internalType": "uint256",
          "name": "",
          "type": "uint256"
        }
      ],
      "stateMutability": "view",
      "type": "function"
    },
    {
      "inputs": [
        {
          "internalType": "address",
          "name": "",
          "type": "address"
        }
      ],
      "name": "codes",
      "outputs": [
        {
          "internalType": "string",
          "name": "",
          "type": "string"
        }
      ],
      "stateMutability": "view",
      "type": "function"
    },
    {
      "inputs": [
        {
          "internalType": "bytes32",
          "name": "",
          "type": "bytes32"
        }
      ],
      "name": "commitments",
      "outputs": [
        {
          "internalType": "uint256",
          "name": "",
          "type": "uint256"
        }
      ],
      "stateMutability": "view",
      "type": "function"
    },
    {
      "inputs": [
        {
          "internalType": "address",
          "name": "",
          "type": "address"
        }
      ],
      "name": "controllers",
      "outputs": [
        {
          "internalType": "bool",
          "name": "",
          "type": "bool"
        }
      ],
      "stateMutability": "view",
      "type": "function"
    },
    {
      "inputs": [
        {
          "internalType": "address[]",
          "name": "tokenAddresses",
          "type": "address[]"
        }
      ],
      "name": "createSnapshot",
      "outputs": [],
      "stateMutability": "nonpayable",
      "type": "function"
    },
    {
      "inputs": [
        {
          "internalType": "bytes32",
          "name": "",
          "type": "bytes32"
        }
      ],
      "name": "expirydates",
      "outputs": [
        {
          "internalType": "uint256",
          "name": "",
          "type": "uint256"
        }
      ],
      "stateMutability": "view",
      "type": "function"
    },
    {
      "inputs": [
        {
          "internalType": "address",
          "name": "owner",
          "type": "address"
        }
      ],
      "name": "getCode",
      "outputs": [
        {
          "internalType": "string",
          "name": "",
          "type": "string"
        }
      ],
      "stateMutability": "nonpayable",
      "type": "function"
    },
    {
      "inputs": [],
      "name": "getCodes",
      "outputs": [
        {
          "internalType": "uint256",
          "name": "",
          "type": "uint256"
        }
      ],
      "stateMutability": "view",
      "type": "function"
    },
    {
      "inputs": [],
      "name": "getSnapshotEarnings",
      "outputs": [
        {
          "internalType": "uint256",
          "name": "",
          "type": "uint256"
        }
      ],
      "stateMutability": "view",
      "type": "function"
    },
    {
      "inputs": [],
      "name": "getUntracked",
      "outputs": [
        {
          "internalType": "uint256",
          "name": "",
          "type": "uint256"
        }
      ],
      "stateMutability": "view",
      "type": "function"
    },
    {
      "inputs": [
        {
          "internalType": "address",
          "name": "",
          "type": "address"
        }
      ],
      "name": "nativeEarnings",
      "outputs": [
        {
          "internalType": "uint256",
          "name": "",
          "type": "uint256"
        }
      ],
      "stateMutability": "view",
      "type": "function"
    },
    {
      "inputs": [],
      "name": "owner",
      "outputs": [
        {
          "internalType": "address",
          "name": "",
          "type": "address"
        }
      ],
      "stateMutability": "view",
      "type": "function"
    },
    {
      "inputs": [
        {
          "internalType": "uint256",
          "name": "",
          "type": "uint256"
        }
      ],
      "name": "referralCodes",
      "outputs": [
        {
          "internalType": "bytes32",
          "name": "",
          "type": "bytes32"
        }
      ],
      "stateMutability": "view",
      "type": "function"
    },
    {
      "inputs": [
        {
          "internalType": "address",
          "name": "",
          "type": "address"
        },
        {
          "internalType": "uint256",
          "name": "",
          "type": "uint256"
        }
      ],
      "name": "referrals",
      "outputs": [
        {
          "internalType": "bytes32",
          "name": "",
          "type": "bytes32"
        }
      ],
      "stateMutability": "view",
      "type": "function"
    },
    {
      "inputs": [
        {
          "internalType": "bytes32",
          "name": "",
          "type": "bytes32"
        }
      ],
      "name": "referredBy",
      "outputs": [
        {
          "internalType": "string",
          "name": "",
          "type": "string"
        }
      ],
      "stateMutability": "view",
      "type": "function"
    },
    {
      "inputs": [
        {
          "internalType": "bytes32",
          "name": "",
          "type": "bytes32"
        }
      ],
      "name": "referrees",
      "outputs": [
        {
          "internalType": "address",
          "name": "",
          "type": "address"
        }
      ],
      "stateMutability": "view",
      "type": "function"
    },
    {
      "inputs": [],
      "name": "renounceOwnership",
      "outputs": [],
      "stateMutability": "nonpayable",
      "type": "function"
    },
    {
      "inputs": [
        {
          "internalType": "string",
          "name": "code",
          "type": "string"
        },
        {
          "internalType": "address",
          "name": "who",
          "type": "address"
        }
      ],
      "name": "setCode",
      "outputs": [
        {
          "internalType": "bool",
          "name": "",
          "type": "bool"
        }
      ],
      "stateMutability": "nonpayable",
      "type": "function"
    },
    {
      "inputs": [
        {
          "internalType": "bytes32",
          "name": "code",
          "type": "bytes32"
        },
        {
          "internalType": "address",
          "name": "who",
          "type": "address"
        },
        {
          "internalType": "uint256",
          "name": "duration",
          "type": "uint256"
        }
      ],
      "name": "setReferree",
      "outputs": [],
      "stateMutability": "nonpayable",
      "type": "function"
    },
    {
      "inputs": [
        {
          "internalType": "uint256",
          "name": "amount",
          "type": "uint256"
        },
        {
          "internalType": "address",
          "name": "receiver",
          "type": "address"
        },
        {
          "internalType": "string",
          "name": "referree",
          "type": "string"
        }
      ],
      "name": "settlement",
      "outputs": [],
      "stateMutability": "payable",
      "type": "function"
    },
    {
      "inputs": [
        {
          "internalType": "uint256",
          "name": "amount",
          "type": "uint256"
        },
        {
          "internalType": "address",
          "name": "receiver",
          "type": "address"
        },
        {
          "internalType": "string",
          "name": "referree",
          "type": "string"
        }
      ],
      "name": "settlementCard",
      "outputs": [],
      "stateMutability": "nonpayable",
      "type": "function"
    },
    {
      "inputs": [
        {
          "internalType": "string",
          "name": "referree",
          "type": "string"
        },
        {
          "internalType": "string",
          "name": "name",
          "type": "string"
        },
        {
          "internalType": "address",
          "name": "owner",
          "type": "address"
        },
        {
          "internalType": "uint256",
          "name": "amount",
          "type": "uint256"
        },
        {
          "internalType": "address",
          "name": "receiver",
          "type": "address"
        }
      ],
      "name": "settlementRegister",
      "outputs": [],
      "stateMutability": "payable",
      "type": "function"
    },
    {
      "inputs": [
        {
          "internalType": "string",
          "name": "referree",
          "type": "string"
        },
        {
          "internalType": "string",
          "name": "name",
          "type": "string"
        },
        {
          "internalType": "address",
          "name": "owner",
          "type": "address"
        },
        {
          "internalType": "uint256",
          "name": "amount",
          "type": "uint256"
        },
        {
          "internalType": "address",
          "name": "receiver",
          "type": "address"
        }
      ],
      "name": "settlementRegisterWithCard",
      "outputs": [],
      "stateMutability": "nonpayable",
      "type": "function"
    },
    {
      "inputs": [
        {
          "internalType": "string",
          "name": "referree",
          "type": "string"
        },
        {
          "internalType": "string",
          "name": "name",
          "type": "string"
        },
        {
          "internalType": "address",
          "name": "owner",
          "type": "address"
        },
        {
          "internalType": "uint256",
          "name": "amount",
          "type": "uint256"
        },
        {
          "internalType": "address",
          "name": "tokenAddress",
          "type": "address"
        }
      ],
      "name": "settlementRegisterWithToken",
      "outputs": [],
      "stateMutability": "nonpayable",
      "type": "function"
    },
    {
      "inputs": [
        {
          "internalType": "uint256",
          "name": "amount",
          "type": "uint256"
        },
        {
          "internalType": "address",
          "name": "receiver",
          "type": "address"
        },
        {
          "internalType": "address",
          "name": "tokenAddress",
          "type": "address"
        },
        {
          "internalType": "string",
          "name": "referree",
          "type": "string"
        }
      ],
      "name": "settlementWithToken",
      "outputs": [],
      "stateMutability": "nonpayable",
      "type": "function"
    },
    {
      "inputs": [
        {
          "internalType": "address",
          "name": "",
          "type": "address"
        }
      ],
      "name": "snapshotNativeEarnings",
      "outputs": [
        {
          "internalType": "uint256",
          "name": "",
          "type": "uint256"
        }
      ],
      "stateMutability": "view",
      "type": "function"
    },
    {
      "inputs": [
        {
          "internalType": "address",
          "name": "",
          "type": "address"
        },
        {
          "internalType": "address",
          "name": "",
          "type": "address"
        }
      ],
      "name": "snapshotTokenEarnings",
      "outputs": [
        {
          "internalType": "uint256",
          "name": "",
          "type": "uint256"
        }
      ],
      "stateMutability": "view",
      "type": "function"
    },
    {
      "inputs": [],
      "name": "snapshotUntrackedEarnings",
      "outputs": [
        {
          "internalType": "uint256",
          "name": "",
          "type": "uint256"
        }
      ],
      "stateMutability": "view",
      "type": "function"
    },
    {
      "inputs": [
        {
          "internalType": "address",
          "name": "tokenAddress",
          "type": "address"
        }
      ],
      "name": "tokenBalance",
      "outputs": [
        {
          "internalType": "uint256",
          "name": "",
          "type": "uint256"
        }
      ],
      "stateMutability": "view",
      "type": "function"
    },
    {
      "inputs": [
        {
          "internalType": "address",
          "name": "",
          "type": "address"
        },
        {
          "internalType": "address",
          "name": "",
          "type": "address"
        }
      ],
      "name": "tokenEarnings",
      "outputs": [
        {
          "internalType": "uint256",
          "name": "",
          "type": "uint256"
        }
      ],
      "stateMutability": "view",
      "type": "function"
    },
    {
      "inputs": [
        {
          "internalType": "address",
          "name": "referrer",
          "type": "address"
        }
      ],
      "name": "totalNativeEarnings",
      "outputs": [
        {
          "internalType": "uint256",
          "name": "",
          "type": "uint256"
        }
      ],
      "stateMutability": "view",
      "type": "function"
    },
    {
      "inputs": [
        {
          "internalType": "address",
          "name": "referrer",
          "type": "address"
        }
      ],
      "name": "totalReferrals",
      "outputs": [
        {
          "internalType": "uint256",
          "name": "",
          "type": "uint256"
        }
      ],
      "stateMutability": "view",
      "type": "function"
    },
    {
      "inputs": [
        {
          "internalType": "address",
          "name": "referrer",
          "type": "address"
        },
        {
          "internalType": "address",
          "name": "tokenAddress",
          "type": "address"
        }
      ],
      "name": "totalTokenEarnings",
      "outputs": [
        {
          "internalType": "uint256",
          "name": "",
          "type": "uint256"
        }
      ],
      "stateMutability": "view",
      "type": "function"
    },
    {
      "inputs": [],
      "name": "trackedNativeEarnings",
      "outputs": [
        {
          "internalType": "uint256",
          "name": "",
          "type": "uint256"
        }
      ],
      "stateMutability": "view",
      "type": "function"
    },
    {
      "inputs": [
        {
          "internalType": "address",
          "name": "",
          "type": "address"
        }
      ],
      "name": "trackedTokenEarnings",
      "outputs": [
        {
          "internalType": "uint256",
          "name": "",
          "type": "uint256"
        }
      ],
      "stateMutability": "view",
      "type": "function"
    },
    {
      "inputs": [
        {
          "internalType": "address",
          "name": "newOwner",
          "type": "address"
        }
      ],
      "name": "transferOwnership",
      "outputs": [],
      "stateMutability": "nonpayable",
      "type": "function"
    },
    {
      "inputs": [],
      "name": "untrackedEarnings",
      "outputs": [
        {
          "internalType": "uint256",
          "name": "",
          "type": "uint256"
        }
      ],
      "stateMutability": "view",
      "type": "function"
    },
    {
      "inputs": [
        {
          "internalType": "bytes32",
          "name": "code",
          "type": "bytes32"
        },
        {
          "internalType": "uint256",
          "name": "newExpiry",
          "type": "uint256"
        }
      ],
      "name": "updateReferralCode",
      "outputs": [],
      "stateMutability": "nonpayable",
      "type": "function"
    },
    {
      "inputs": [
        {
          "internalType": "uint256",
          "name": "batch",
          "type": "uint256"
        },
        {
          "internalType": "uint256",
          "name": "start",
          "type": "uint256"
        }
      ],
      "name": "withdrawAllNativeEarnings",
      "outputs": [],
      "stateMutability": "nonpayable",
      "type": "function"
    },
    {
      "inputs": [
        {
          "internalType": "address[]",
          "name": "tokenAddresses",
          "type": "address[]"
        },
        {
          "internalType": "uint256",
          "name": "batch",
          "type": "uint256"
        },
        {
          "internalType": "uint256",
          "name": "start",
          "type": "uint256"
        }
      ],
      "name": "withdrawAllTokenEarnings",
      "outputs": [],
      "stateMutability": "nonpayable",
      "type": "function"
    }
  ],
  "transactionHash": "0xb22942dbf88d96a09a0289ce6d069fb185ad5e521f86ce7fd3687b0f828fea67",
  "args": [],
  "numDeployments": 1,
  "solcInputHash": "641fe55219cbf54be63cb73e050a297b",
  "bytecode": "0x608060405234801561001057600080fd5b5061001a3361001f565b61006f565b600080546001600160a01b038381166001600160a01b0319831681178455604051919092169283917f8be0079c531659141344cd1fd0a4f28419497f9722a3daafe3b4186f6b6457e09190a35050565b612f8e806200007f6000396000f3fe6080604052600436106102d15760003560e01c8063a7fc7a0711610179578063d184befa116100d6578063e697b5d81161008a578063eedc966a11610064578063eedc966a14610872578063f2fde38b14610892578063ff8f3947146108b257600080fd5b8063e697b5d814610809578063e858db0814610829578063edaf9f6e1461083c57600080fd5b8063d7397f22116100bb578063d7397f221461078b578063da8c229e146107a1578063dbbb1968146107d157600080fd5b8063d184befa1461073e578063d488ac121461075e57600080fd5b8063c210401b1161012d578063c62c7b7711610112578063c62c7b77146106b6578063c70ad00c146106cb578063d0da6144146106f857600080fd5b8063c210401b1461068b578063c29fb0f1146106a157600080fd5b8063b35569dd1161015e578063b35569dd14610622578063b69ef8a814610642578063c08d52af1461065557600080fd5b8063a7fc7a07146105e2578063afbcb2691461060257600080fd5b8063715018a61161023257806386662df7116101e65780638da5cb5b116101c05780638da5cb5b1461058557806395a885c2146105b75780639c31e6ea146105cc57600080fd5b806386662df714610525578063898c6495146105455780638b07795b1461056557600080fd5b80637e105ce2116102175780637e105ce2146104ab578063830ecef8146104cb578063839df945146104f857600080fd5b8063715018a6146104835780637d31266a1461049857600080fd5b80633ba96fdf116102895780635d5d2dec1161026e5780635d5d2dec1461040d578063668c91c81461044357806368ae80e31461046357600080fd5b80633ba96fdf146103c057806344430b69146103ed57600080fd5b80631f8e2271116102ba5780631f8e22711461035157806320447f0b14610373578063338bc9701461039357600080fd5b80630814cdc1146102d657806314723fae14610321575b600080fd5b3480156102e257600080fd5b5061030e6102f136600461282b565b600e60209081526000928352604080842090915290825290205481565b6040519081526020015b60405180910390f35b34801561032d57600080fd5b5061034161033c366004612915565b6108d2565b6040519015158152602001610318565b34801561035d57600080fd5b5061037161036c36600461295a565b610b00565b005b34801561037f57600080fd5b5061037161038e366004612a0b565b610d71565b34801561039f57600080fd5b506103b36103ae366004612a40565b610eb2565b6040516103189190612a7d565b3480156103cc57600080fd5b5061030e6103db366004612ab0565b600d6020526000908152604090205481565b3480156103f957600080fd5b5061030e610408366004612a40565b610f4c565b34801561041957600080fd5b5061030e610428366004612ab0565b6001600160a01b031660009081526007602052604090205490565b34801561044f57600080fd5b5061037161045e366004612ad2565b610f86565b34801561046f57600080fd5b5061037161047e366004612b29565b611083565b34801561048f57600080fd5b506103716111f7565b6103716104a6366004612b77565b61120b565b3480156104b757600080fd5b506103b36104c6366004612ab0565b6114cd565b3480156104d757600080fd5b5061030e6104e6366004612ab0565b60106020526000908152604090205481565b34801561050457600080fd5b5061030e610513366004612a40565b60026020526000908152604090205481565b34801561053157600080fd5b50610371610540366004612c06565b6115cd565b34801561055157600080fd5b50610371610560366004612b77565b6117fd565b34801561057157600080fd5b50610371610580366004612c06565b611a0a565b34801561059157600080fd5b506000546001600160a01b03165b6040516001600160a01b039091168152602001610318565b3480156105c357600080fd5b50600c5461030e565b3480156105d857600080fd5b5061030e600b5481565b3480156105ee57600080fd5b506103716105fd366004612ab0565b611aa4565b34801561060e57600080fd5b5061030e61061d366004612a40565b611b29565b34801561062e57600080fd5b506103b361063d366004612ab0565b611b4a565b34801561064e57600080fd5b504761030e565b34801561066157600080fd5b5061030e610670366004612ab0565b6001600160a01b031660009081526005602052604090205490565b34801561069757600080fd5b5061030e600c5481565b3480156106ad57600080fd5b50600a5461030e565b3480156106c257600080fd5b50600b5461030e565b3480156106d757600080fd5b5061030e6106e6366004612ab0565b60076020526000908152604090205481565b34801561070457600080fd5b5061030e61071336600461282b565b6001600160a01b03918216600090815260086020908152604080832093909416825291909152205490565b34801561074a57600080fd5b50610371610759366004612c28565b611b63565b34801561076a57600080fd5b5061030e610779366004612a40565b60046020526000908152604090205481565b34801561079757600080fd5b5061030e600f5481565b3480156107ad57600080fd5b506103416107bc366004612ab0565b60016020526000908152604090205460ff1681565b3480156107dd57600080fd5b5061030e6107ec36600461282b565b600860209081526000928352604080842090915290825290205481565b34801561081557600080fd5b5061030e610824366004612c90565b611c8b565b610371610837366004612ad2565b611cbc565b34801561084857600080fd5b5061059f610857366004612a40565b6003602052600090815260409020546001600160a01b031681565b34801561087e57600080fd5b5061030e61088d366004612ab0565b611e57565b34801561089e57600080fd5b506103716108ad366004612ab0565b611edb565b3480156108be57600080fd5b506103716108cd366004612b77565b611f6b565b3360009081526001602052604081205460ff16806108fa57506000546001600160a01b031633145b61094b5760405162461bcd60e51b815260206004820152601960248201527f4e6f74206120636f6e74726f6c6c6572206f72206f776e65720000000000000060448201526064015b60405180910390fd5b604080516020808201909252600090528351908401207f3a2db9fe7908dcc36d81824d2338fc3f1aff49ac357dd8c4840527fba27a5b90016109cf5760405162461bcd60e51b815260206004820152601560248201527f496e76616c696420726566657272616c20636f646500000000000000000000006044820152606401610942565b6001600160a01b038216610a255760405162461bcd60e51b815260206004820152601860248201527f496e76616c6964207265666572726565206164647265737300000000000000006044820152606401610942565b60408051602080820183526000918290526001600160a01b03851682526009905281902090517fc5d2460186f7233c927e7db2dcc703c0e500b653ca82273b7bfad8045d85a47091610a7691612cf4565b604051809103902003610af6576001600160a01b0382166000908152600960205260409020610aa58482612db0565b50816001600160a01b031683604051610abe9190612e70565b604051908190038120907fe5fb09aae44383aed04b99edfbef76217ca18cec7835309c47b0c49dda25964a90600090a3506001610afa565b5060005b92915050565b3360009081526001602052604090205460ff1680610b2857506000546001600160a01b031633145b610b745760405162461bcd60e51b815260206004820152601960248201527f4e6f74206120636f6e74726f6c6c6572206f72206f776e6572000000000000006044820152606401610942565b82610bc15760405162461bcd60e51b815260206004820152601560248201527f496e76616c696420726566657272616c20636f646500000000000000000000006044820152606401610942565b6001600160a01b038216610c175760405162461bcd60e51b815260206004820152601860248201527f496e76616c6964207265666572726565206164647265737300000000000000006044820152606401610942565b6000838152600360205260409020546001600160a01b031615610c7c5760405162461bcd60e51b815260206004820181905260248201527f526566657272616c20636f646520616c726561647920726567697374657265646044820152606401610942565b6000838152600360205260409020546001600160a01b03168015610ccd5760408051600080825260208083018085526001600160a01b038616835260059091529290209051610ccb92906127af565b505b6000848152600360209081526040808320805473ffffffffffffffffffffffffffffffffffffffff19166001600160a01b038816908117909155600a8054600181019091557fc65a7bb8d6351c1cf70c95a316cc6a92839c986682d98bc35f958f4883f9d2a801889055600490925280832085905551909186917f3eb532562a19423f49e2e3b30790b23d00c625f3ee37c7359d03688bf7111f6c9190a350505050565b610d79612176565b600b54600c5560005b600a54811015610dea576000600a8281548110610da157610da1612e8c565b60009182526020808320909101548252600381526040808320546001600160a01b031683526007825280832054600d909252909120555080610de281612eb8565b915050610d82565b5060005b8151811015610eae576000828281518110610e0b57610e0b612e8c565b6020026020010151905060005b600a54811015610e99576000600a8281548110610e3757610e37612e8c565b60009182526020808320909101548252600381526040808320546001600160a01b039081168085526008845282852091881680865291845282852054908552600e84528285209185529252909120555080610e9181612eb8565b915050610e18565b50508080610ea690612eb8565b915050610dee565b5050565b60066020526000908152604090208054610ecb90612cba565b80601f0160208091040260200160405190810160405280929190818152602001828054610ef790612cba565b8015610f445780601f10610f1957610100808354040283529160200191610f44565b820191906000526020600020905b815481529060010190602001808311610f2757829003601f168201915b505050505081565b600060148210610f5e57506019919050565b600f8210610f6e57506014919050565b60028210610f7e5750600f919050565b506000919050565b3360009081526001602052604090205460ff1680610fae57506000546001600160a01b031633145b610ffa5760405162461bcd60e51b815260206004820152601960248201527f4e6f74206120636f6e74726f6c6c6572206f72206f776e6572000000000000006044820152606401610942565b42600460008380519060200120815260200190815260200160002054111561107e576001600160a01b0382166110725760405162461bcd60e51b815260206004820152601860248201527f496e76616c6964207265636569766572206164647265737300000000000000006044820152606401610942565b61107e828460016121d0565b505050565b61108b612176565b825160005b818110156111f05760008582815181106110ac576110ac612e8c565b6020026020010151905060008490505b858110156111e6576000600a82815481106110d9576110d9612e8c565b9060005260206000200154905060046000828152602001908152602001600020544210156111dd576000818152600360209081526040808320546001600160a01b03908116808552600e84528285209188168552925290912054806111805760405162461bcd60e51b815260206004820152601760248201527f4e6f206561726e696e677320746f2077697468647261770000000000000000006044820152606401610942565b80156111da5761119a6001600160a01b0386168383612363565b6001600160a01b038083166000818152600e60209081526040808320948a1680845294825280832083905592825260088152828220938252929092528120555b50505b506001016110bc565b5050600101611090565b5050505050565b6111ff612176565b61120960006123e3565b565b3360009081526001602052604090205460ff168061123357506000546001600160a01b031633145b61127f5760405162461bcd60e51b815260206004820152601960248201527f4e6f74206120636f6e74726f6c6c6572206f72206f776e6572000000000000006044820152606401610942565b6001600160a01b038116158015906112a95750826001600160a01b0316816001600160a01b031614155b6112f55760405162461bcd60e51b815260206004820152601860248201527f496e76616c6964207265636569766572206164647265737300000000000000006044820152606401610942565b426004600087805190602001208152602001908152602001600020541115611422576000805b6001600160a01b0383166000908152600560205260409020548110156113a457858051906020012060056000856001600160a01b03166001600160a01b03168152602001908152602001600020828154811061137957611379612e8c565b90600052602060002001540361139257600191506113a4565b8061139c81612eb8565b91505061131b565b50801515600003611410576001600160a01b03821660009081526005602090815260408083208851898401908120825460018101845592865284862090920191909155885190208352600690915290206113fe8782612db0565b5061140b828460006121d0565b61141c565b61141c828460006121d0565b506111f0565b600080546040516001600160a01b039091169084908381818185875af1925050503d806000811461146f576040519150601f19603f3d011682016040523d82523d6000602084013e611474565b606091505b50509050806114c55760405162461bcd60e51b815260206004820152601760248201527f5061796d656e7420746f206f776e6572206661696c65640000000000000000006044820152606401610942565b505050505050565b60606001600160a01b0382166115255760405162461bcd60e51b815260206004820152600f60248201527f496e76616c6964204164647265737300000000000000000000000000000000006044820152606401610942565b6001600160a01b0382166000908152600960205260409020805461154890612cba565b80601f016020809104026020016040519081016040528092919081815260200182805461157490612cba565b80156115c15780601f10611596576101008083540402835291602001916115c1565b820191906000526020600020905b8154815290600101906020018083116115a457829003601f168201915b50505050509050919050565b6115d5612176565b805b82811015611720576000600a84815481106115f4576115f4612e8c565b906000526020600020015490506004600082815260200190815260200160002054421015611717576000818152600360209081526040808320546001600160a01b0316808452600d909252909120548015611714576000826001600160a01b03168260405160006040518083038185875af1925050503d8060008114611696576040519150601f19603f3d011682016040523d82523d6000602084013e61169b565b606091505b50509050806116ec5760405162461bcd60e51b815260206004820152600e60248201527f5061796d656e74206661696c65640000000000000000000000000000000000006044820152606401610942565b506001600160a01b0382166000908152600760209081526040808320839055600d9091528120555b50505b506001016115d7565b504780156117cd57600080546040516001600160a01b039091169083908381818185875af1925050503d8060008114611775576040519150601f19603f3d011682016040523d82523d6000602084013e61177a565b606091505b50509050806117cb5760405162461bcd60e51b815260206004820152601860248201527f5472616e7366657220746f206f776e6572206661696c656400000000000000006044820152606401610942565b505b60405133907f8139efc425db5c04b6dd4e0df2e2ae5d44350cfb145cfbfc83bf39abbc2591ee90600090a2505050565b3360009081526001602052604090205460ff168061182557506000546001600160a01b031633145b6118715760405162461bcd60e51b815260206004820152601960248201527f4e6f74206120636f6e74726f6c6c6572206f72206f776e6572000000000000006044820152606401610942565b6001600160a01b0381161580159061189b5750826001600160a01b0316816001600160a01b031614155b6118e75760405162461bcd60e51b815260206004820152601860248201527f496e76616c6964207265636569766572206164647265737300000000000000006044820152606401610942565b4260046000878051906020012081526020019081526020016000205411156111f0576000805b6001600160a01b03831660009081526005602052604090205481101561199257858051906020012060056000856001600160a01b03166001600160a01b03168152602001908152602001600020828154811061196b5761196b612e8c565b90600052602060002001540361198057600191505b8061198a81612eb8565b91505061190d565b508015156000036119fe576001600160a01b03821660009081526005602090815260408083208851898401908120825460018101845592865284862090920191909155885190208352600690915290206119ec8782612db0565b506119f9828460016121d0565b6114c5565b6114c5828460016121d0565b3360009081526001602052604090205460ff1680611a3257506000546001600160a01b031633145b611a7e5760405162461bcd60e51b815260206004820152601960248201527f4e6f74206120636f6e74726f6c6c6572206f72206f776e6572000000000000006044820152606401610942565b60008281526004602052604090205415610eae5760009182526004602052604090912055565b611aac612176565b6001600160a01b038116611b025760405162461bcd60e51b815260206004820152601a60248201527f496e76616c696420636f6e74726f6c6c657220616464726573730000000000006044820152606401610942565b6001600160a01b03166000908152600160208190526040909120805460ff19169091179055565b600a8181548110611b3957600080fd5b600091825260209091200154905081565b60096020526000908152604090208054610ecb90612cba565b3360009081526001602052604090205460ff1680611b8b57506000546001600160a01b031633145b611bd75760405162461bcd60e51b815260206004820152601960248201527f4e6f74206120636f6e74726f6c6c6572206f72206f776e6572000000000000006044820152606401610942565b426004600083805190602001208152602001908152602001600020541115611c5f576001600160a01b038316611c4f5760405162461bcd60e51b815260206004820152601860248201527f496e76616c6964207265636569766572206164647265737300000000000000006044820152606401610942565b611c5a838386612440565b611c85565b611c85611c746000546001600160a01b031690565b6001600160a01b0384169086612363565b50505050565b60056020528160005260406000208181548110611ca757600080fd5b90600052602060002001600091509150505481565b3360009081526001602052604090205460ff1680611ce457506000546001600160a01b031633145b611d305760405162461bcd60e51b815260206004820152601960248201527f4e6f74206120636f6e74726f6c6c6572206f72206f776e6572000000000000006044820152606401610942565b426004600083805190602001208152602001908152602001600020541115611db4576001600160a01b038216611da85760405162461bcd60e51b815260206004820152601860248201527f496e76616c6964207265636569766572206164647265737300000000000000006044820152606401610942565b61107e828460006121d0565b600080546040516001600160a01b039091169085908381818185875af1925050503d8060008114611e01576040519150601f19603f3d011682016040523d82523d6000602084013e611e06565b606091505b5050905080611c855760405162461bcd60e51b815260206004820152601760248201527f5061796d656e7420746f206f776e6572206661696c65640000000000000000006044820152606401610942565b6040517f70a082310000000000000000000000000000000000000000000000000000000081523060048201526000906001600160a01b038316906370a0823190602401602060405180830381865afa158015611eb7573d6000803e3d6000fd5b505050506040513d601f19601f82011682018060405250810190610afa9190612ed1565b611ee3612176565b6001600160a01b038116611f5f5760405162461bcd60e51b815260206004820152602660248201527f4f776e61626c653a206e6577206f776e657220697320746865207a65726f206160448201527f64647265737300000000000000000000000000000000000000000000000000006064820152608401610942565b611f68816123e3565b50565b3360009081526001602052604090205460ff1680611f9357506000546001600160a01b031633145b611fdf5760405162461bcd60e51b815260206004820152601960248201527f4e6f74206120636f6e74726f6c6c6572206f72206f776e6572000000000000006044820152606401610942565b4260046000878051906020012081526020019081526020016000205411156121505784516020808701919091206000908152600390915260409020546001600160a01b031680158015906120455750836001600160a01b0316816001600160a01b031614155b1561141c576000805b6001600160a01b0383166000908152600560205260409020548110156120d357868051906020012060056000856001600160a01b03166001600160a01b0316815260200190815260200160002082815481106120ac576120ac612e8c565b9060005260206000200154036120c157600191505b806120cb81612eb8565b91505061204e565b5080151560000361213e576001600160a01b038216600090815260056020908152604080832089518a84019081208254600181018455928652848620909201919091558951902083526006909152902061212d8882612db0565b50612139828486612440565b612149565b612149828486612440565b50506111f0565b6111f06121656000546001600160a01b031690565b6001600160a01b0383169084612363565b6000546001600160a01b031633146112095760405162461bcd60e51b815260206004820181905260248201527f4f776e61626c653a2063616c6c6572206973206e6f7420746865206f776e65726044820152606401610942565b6001600160a01b038316600090815260056020819052604090912054601991116121f85750601e5b8161232b5760646122098285612eea565b6122139190612f01565b6001600160a01b0385166000908152600760205260408120805490919061223b908490612f23565b90915550600090506001600160a01b03851660646122598487612eea565b6122639190612f01565b604051600081818185875af1925050503d806000811461229f576040519150601f19603f3d011682016040523d82523d6000602084013e6122a4565b606091505b50509050806122f55760405162461bcd60e51b815260206004820152601b60248201527f5472616e7366657220746f207265636569766572206661696c656400000000006044820152606401610942565b6040516001600160a01b038616907f8139efc425db5c04b6dd4e0df2e2ae5d44350cfb145cfbfc83bf39abbc2591ee90600090a2505b8115611c8557606461233d8285612eea565b6123479190612f01565b600b60008282546123589190612f23565b909155505050505050565b604080516001600160a01b038416602482015260448082018490528251808303909101815260649091019091526020810180517bffffffffffffffffffffffffffffffffffffffffffffffffffffffff167fa9059cbb0000000000000000000000000000000000000000000000000000000017905261107e908490612520565b600080546001600160a01b0383811673ffffffffffffffffffffffffffffffffffffffff19831681178455604051919092169283917f8be0079c531659141344cd1fd0a4f28419497f9722a3daafe3b4186f6b6457e09190a35050565b6001600160a01b038316600090815260056020819052604090912054601991116124685750601e5b60646124748284612eea565b61247e9190612f01565b6001600160a01b038086166000908152600860209081526040808320938816835292905290812080549091906124b5908490612f23565b909155506124e690508460646124cb8486612eea565b6124d59190612f01565b6001600160a01b0386169190612363565b6040516001600160a01b038516907f8139efc425db5c04b6dd4e0df2e2ae5d44350cfb145cfbfc83bf39abbc2591ee90600090a250505050565b6000612575826040518060400160405280602081526020017f5361666545524332303a206c6f772d6c6576656c2063616c6c206661696c6564815250856001600160a01b03166126089092919063ffffffff16565b90508051600014806125965750808060200190518101906125969190612f36565b61107e5760405162461bcd60e51b815260206004820152602a60248201527f5361666545524332303a204552433230206f7065726174696f6e20646964206e60448201527f6f742073756363656564000000000000000000000000000000000000000000006064820152608401610942565b6060612617848460008561261f565b949350505050565b6060824710156126975760405162461bcd60e51b815260206004820152602660248201527f416464726573733a20696e73756666696369656e742062616c616e636520666f60448201527f722063616c6c00000000000000000000000000000000000000000000000000006064820152608401610942565b600080866001600160a01b031685876040516126b39190612e70565b60006040518083038185875af1925050503d80600081146126f0576040519150601f19603f3d011682016040523d82523d6000602084013e6126f5565b606091505b509150915061270687838387612711565b979650505050505050565b60608315612780578251600003612779576001600160a01b0385163b6127795760405162461bcd60e51b815260206004820152601d60248201527f416464726573733a2063616c6c20746f206e6f6e2d636f6e74726163740000006044820152606401610942565b5081612617565b61261783838151156127955781518083602001fd5b8060405162461bcd60e51b81526004016109429190612a7d565b8280548282559060005260206000209081019282156127ea579160200282015b828111156127ea5782518255916020019190600101906127cf565b506127f69291506127fa565b5090565b5b808211156127f657600081556001016127fb565b80356001600160a01b038116811461282657600080fd5b919050565b6000806040838503121561283e57600080fd5b6128478361280f565b91506128556020840161280f565b90509250929050565b634e487b7160e01b600052604160045260246000fd5b604051601f8201601f1916810167ffffffffffffffff8111828210171561289d5761289d61285e565b604052919050565b600082601f8301126128b657600080fd5b813567ffffffffffffffff8111156128d0576128d061285e565b6128e3601f8201601f1916602001612874565b8181528460208386010111156128f857600080fd5b816020850160208301376000918101602001919091529392505050565b6000806040838503121561292857600080fd5b823567ffffffffffffffff81111561293f57600080fd5b61294b858286016128a5565b9250506128556020840161280f565b60008060006060848603121561296f57600080fd5b8335925061297f6020850161280f565b9150604084013590509250925092565b600082601f8301126129a057600080fd5b8135602067ffffffffffffffff8211156129bc576129bc61285e565b8160051b6129cb828201612874565b92835284810182019282810190878511156129e557600080fd5b83870192505b84831015612706576129fc8361280f565b825291830191908301906129eb565b600060208284031215612a1d57600080fd5b813567ffffffffffffffff811115612a3457600080fd5b6126178482850161298f565b600060208284031215612a5257600080fd5b5035919050565b60005b83811015612a74578181015183820152602001612a5c565b50506000910152565b6020815260008251806020840152612a9c816040850160208701612a59565b601f01601f19169190910160400192915050565b600060208284031215612ac257600080fd5b612acb8261280f565b9392505050565b600080600060608486031215612ae757600080fd5b83359250612af76020850161280f565b9150604084013567ffffffffffffffff811115612b1357600080fd5b612b1f868287016128a5565b9150509250925092565b600080600060608486031215612b3e57600080fd5b833567ffffffffffffffff811115612b5557600080fd5b612b618682870161298f565b9660208601359650604090950135949350505050565b600080600080600060a08688031215612b8f57600080fd5b853567ffffffffffffffff80821115612ba757600080fd5b612bb389838a016128a5565b96506020880135915080821115612bc957600080fd5b50612bd6888289016128a5565b945050612be56040870161280f565b925060608601359150612bfa6080870161280f565b90509295509295909350565b60008060408385031215612c1957600080fd5b50508035926020909101359150565b60008060008060808587031215612c3e57600080fd5b84359350612c4e6020860161280f565b9250612c5c6040860161280f565b9150606085013567ffffffffffffffff811115612c7857600080fd5b612c84878288016128a5565b91505092959194509250565b60008060408385031215612ca357600080fd5b612cac8361280f565b946020939093013593505050565b600181811c90821680612cce57607f821691505b602082108103612cee57634e487b7160e01b600052602260045260246000fd5b50919050565b6000808354612d0281612cba565b60018281168015612d1a5760018114612d2f57612d5e565b60ff1984168752821515830287019450612d5e565b8760005260208060002060005b85811015612d555781548a820152908401908201612d3c565b50505082870194505b50929695505050505050565b601f82111561107e57600081815260208120601f850160051c81016020861015612d915750805b601f850160051c820191505b818110156114c557828155600101612d9d565b815167ffffffffffffffff811115612dca57612dca61285e565b612dde81612dd88454612cba565b84612d6a565b602080601f831160018114612e135760008415612dfb5750858301515b600019600386901b1c1916600185901b1785556114c5565b600085815260208120601f198616915b82811015612e4257888601518255948401946001909101908401612e23565b5085821015612e605787850151600019600388901b60f8161c191681555b5050505050600190811b01905550565b60008251612e82818460208701612a59565b9190910192915050565b634e487b7160e01b600052603260045260246000fd5b634e487b7160e01b600052601160045260246000fd5b600060018201612eca57612eca612ea2565b5060010190565b600060208284031215612ee357600080fd5b5051919050565b8082028115828204841417610afa57610afa612ea2565b600082612f1e57634e487b7160e01b600052601260045260246000fd5b500490565b80820180821115610afa57610afa612ea2565b600060208284031215612f4857600080fd5b81518015158114612acb57600080fdfea2646970667358221220d75df28fc637d4dc6e96d84a3fb616758a5f51076451c9cfe1c409616df2895a64736f6c63430008110033",
  "devdoc": {
    "kind": "dev",
    "methods": {
      "owner()": {
        "details": "Returns the address of the current owner."
      },
      "renounceOwnership()": {
        "details": "Leaves the contract without owner. It will not be possible to call `onlyOwner` functions. Can only be called by the current owner. NOTE: Renouncing ownership will leave the contract without an owner, thereby disabling any functionality that is only available to the owner."
      },
      "transferOwnership(address)": {
        "details": "Transfers ownership of the contract to a new account (`newOwner`). Can only be called by the current owner."
      }
    },
    "version": 1
  },
  "userdoc": {
    "kind": "user",
    "methods": {
      "setReferree(bytes32,address,uint256)": {
        "notice": "Only your controller or admin should be able to call this!"
      }
    },
    "version": 1
  },
  "storageLayout": {
    "storage": [
      {
        "astId": 53,
        "contract": "contracts/ethregistrar/ReferralController.sol:ReferralController",
        "label": "_owner",
        "offset": 0,
        "slot": "0",
        "type": "t_address"
      },
      {
        "astId": 7344,
        "contract": "contracts/ethregistrar/ReferralController.sol:ReferralController",
        "label": "controllers",
        "offset": 0,
        "slot": "1",
        "type": "t_mapping(t_address,t_bool)"
      },
      {
        "astId": 7348,
        "contract": "contracts/ethregistrar/ReferralController.sol:ReferralController",
        "label": "commitments",
        "offset": 0,
        "slot": "2",
        "type": "t_mapping(t_bytes32,t_uint256)"
      },
      {
        "astId": 7352,
        "contract": "contracts/ethregistrar/ReferralController.sol:ReferralController",
        "label": "referrees",
        "offset": 0,
        "slot": "3",
        "type": "t_mapping(t_bytes32,t_address)"
      },
      {
        "astId": 7356,
        "contract": "contracts/ethregistrar/ReferralController.sol:ReferralController",
        "label": "expirydates",
        "offset": 0,
        "slot": "4",
        "type": "t_mapping(t_bytes32,t_uint256)"
      },
      {
        "astId": 7361,
        "contract": "contracts/ethregistrar/ReferralController.sol:ReferralController",
        "label": "referrals",
        "offset": 0,
        "slot": "5",
        "type": "t_mapping(t_address,t_array(t_bytes32)dyn_storage)"
      },
      {
        "astId": 7365,
        "contract": "contracts/ethregistrar/ReferralController.sol:ReferralController",
        "label": "referredBy",
        "offset": 0,
        "slot": "6",
        "type": "t_mapping(t_bytes32,t_string_storage)"
      },
      {
        "astId": 7369,
        "contract": "contracts/ethregistrar/ReferralController.sol:ReferralController",
        "label": "nativeEarnings",
        "offset": 0,
        "slot": "7",
        "type": "t_mapping(t_address,t_uint256)"
      },
      {
        "astId": 7375,
        "contract": "contracts/ethregistrar/ReferralController.sol:ReferralController",
        "label": "tokenEarnings",
        "offset": 0,
        "slot": "8",
        "type": "t_mapping(t_address,t_mapping(t_address,t_uint256))"
      },
      {
        "astId": 7379,
        "contract": "contracts/ethregistrar/ReferralController.sol:ReferralController",
        "label": "codes",
        "offset": 0,
        "slot": "9",
        "type": "t_mapping(t_address,t_string_storage)"
      },
      {
        "astId": 7382,
        "contract": "contracts/ethregistrar/ReferralController.sol:ReferralController",
        "label": "referralCodes",
        "offset": 0,
        "slot": "10",
        "type": "t_array(t_bytes32)dyn_storage"
      },
      {
        "astId": 7384,
        "contract": "contracts/ethregistrar/ReferralController.sol:ReferralController",
        "label": "untrackedEarnings",
        "offset": 0,
        "slot": "11",
        "type": "t_uint256"
      },
      {
        "astId": 7386,
        "contract": "contracts/ethregistrar/ReferralController.sol:ReferralController",
        "label": "snapshotUntrackedEarnings",
        "offset": 0,
        "slot": "12",
        "type": "t_uint256"
      },
      {
        "astId": 7390,
        "contract": "contracts/ethregistrar/ReferralController.sol:ReferralController",
        "label": "snapshotNativeEarnings",
        "offset": 0,
        "slot": "13",
        "type": "t_mapping(t_address,t_uint256)"
      },
      {
        "astId": 7396,
        "contract": "contracts/ethregistrar/ReferralController.sol:ReferralController",
        "label": "snapshotTokenEarnings",
        "offset": 0,
        "slot": "14",
        "type": "t_mapping(t_address,t_mapping(t_address,t_uint256))"
      },
      {
        "astId": 7398,
        "contract": "contracts/ethregistrar/ReferralController.sol:ReferralController",
        "label": "trackedNativeEarnings",
        "offset": 0,
        "slot": "15",
        "type": "t_uint256"
      },
      {
        "astId": 7402,
        "contract": "contracts/ethregistrar/ReferralController.sol:ReferralController",
        "label": "trackedTokenEarnings",
        "offset": 0,
        "slot": "16",
        "type": "t_mapping(t_address,t_uint256)"
      }
    ],
    "types": {
      "t_address": {
        "encoding": "inplace",
        "label": "address",
        "numberOfBytes": "20"
      },
      "t_array(t_bytes32)dyn_storage": {
        "base": "t_bytes32",
        "encoding": "dynamic_array",
        "label": "bytes32[]",
        "numberOfBytes": "32"
      },
      "t_bool": {
        "encoding": "inplace",
        "label": "bool",
        "numberOfBytes": "1"
      },
      "t_bytes32": {
        "encoding": "inplace",
        "label": "bytes32",
        "numberOfBytes": "32"
      },
      "t_mapping(t_address,t_array(t_bytes32)dyn_storage)": {
        "encoding": "mapping",
        "key": "t_address",
        "label": "mapping(address => bytes32[])",
        "numberOfBytes": "32",
        "value": "t_array(t_bytes32)dyn_storage"
      },
      "t_mapping(t_address,t_bool)": {
        "encoding": "mapping",
        "key": "t_address",
        "label": "mapping(address => bool)",
        "numberOfBytes": "32",
        "value": "t_bool"
      },
      "t_mapping(t_address,t_mapping(t_address,t_uint256))": {
        "encoding": "mapping",
        "key": "t_address",
        "label": "mapping(address => mapping(address => uint256))",
        "numberOfBytes": "32",
        "value": "t_mapping(t_address,t_uint256)"
      },
      "t_mapping(t_address,t_string_storage)": {
        "encoding": "mapping",
        "key": "t_address",
        "label": "mapping(address => string)",
        "numberOfBytes": "32",
        "value": "t_string_storage"
      },
      "t_mapping(t_address,t_uint256)": {
        "encoding": "mapping",
        "key": "t_address",
        "label": "mapping(address => uint256)",
        "numberOfBytes": "32",
        "value": "t_uint256"
      },
      "t_mapping(t_bytes32,t_address)": {
        "encoding": "mapping",
        "key": "t_bytes32",
        "label": "mapping(bytes32 => address)",
        "numberOfBytes": "32",
        "value": "t_address"
      },
      "t_mapping(t_bytes32,t_string_storage)": {
        "encoding": "mapping",
        "key": "t_bytes32",
        "label": "mapping(bytes32 => string)",
        "numberOfBytes": "32",
        "value": "t_string_storage"
      },
      "t_mapping(t_bytes32,t_uint256)": {
        "encoding": "mapping",
        "key": "t_bytes32",
        "label": "mapping(bytes32 => uint256)",
        "numberOfBytes": "32",
        "value": "t_uint256"
      },
      "t_string_storage": {
        "encoding": "bytes",
        "label": "string",
        "numberOfBytes": "32"
      },
      "t_uint256": {
        "encoding": "inplace",
        "label": "uint256",
        "numberOfBytes": "32"
      }
    }
  }
}