{
  "address": "0x04f2658e6AdD33fbae65c888B7f339efB7041525",
  "abi": [
    {
      "inputs": [],
      "stateMutability": "nonpayable",
      "type": "constructor"
    },
    {
      "anonymous": false,
      "inputs": [
        {
          "indexed": false,
          "internalType": "address",
          "name": "token",
          "type": "address"
        },
        {
          "indexed": false,
          "internalType": "address",
          "name": "to",
          "type": "address"
        },
        {
          "indexed": false,
          "internalType": "uint256",
          "name": "amount",
          "type": "uint256"
        }
      ],
      "name": "EmergencyWithdraw",
      "type": "event"
    },
    {
      "anonymous": false,
      "inputs": [
        {
          "indexed": true,
          "internalType": "address",
          "name": "previousOwner",
          "type": "address"
        },
        {
          "indexed": true,
          "internalType": "address",
          "name": "newOwner",
          "type": "address"
        }
      ],
      "name": "OwnershipTransferred",
      "type": "event"
    },
    {
      "anonymous": false,
      "inputs": [
        {
          "indexed": false,
          "internalType": "uint256",
          "name": "count",
          "type": "uint256"
        }
      ],
      "name": "PointsBatchUpdated",
      "type": "event"
    },
    {
      "anonymous": false,
      "inputs": [
        {
          "indexed": false,
          "internalType": "uint256",
          "name": "newCap",
          "type": "uint256"
        }
      ],
      "name": "PointsCapUpdated",
      "type": "event"
    },
    {
      "anonymous": false,
      "inputs": [
        {
          "indexed": true,
          "internalType": "address",
          "name": "user",
          "type": "address"
        },
        {
          "indexed": false,
          "internalType": "uint256",
          "name": "added",
          "type": "uint256"
        },
        {
          "indexed": false,
          "internalType": "uint256",
          "name": "newBalance",
          "type": "uint256"
        }
      ],
      "name": "PointsUpdated",
      "type": "event"
    },
    {
      "anonymous": false,
      "inputs": [
        {
          "indexed": true,
          "internalType": "address",
          "name": "token",
          "type": "address"
        },
        {
          "indexed": false,
          "internalType": "uint256",
          "name": "totalAmount",
          "type": "uint256"
        }
      ],
      "name": "TokensDistributed",
      "type": "event"
    },
    {
      "inputs": [
        {
          "internalType": "address[]",
          "name": "users",
          "type": "address[]"
        },
        {
          "internalType": "uint256[]",
          "name": "addPoints",
          "type": "uint256[]"
        }
      ],
      "name": "batchUpdatePoints",
      "outputs": [],
      "stateMutability": "nonpayable",
      "type": "function"
    },
    {
      "inputs": [
        {
          "internalType": "address",
          "name": "",
          "type": "address"
        }
      ],
      "name": "controllers",
      "outputs": [
        {
          "internalType": "bool",
          "name": "",
          "type": "bool"
        }
      ],
      "stateMutability": "view",
      "type": "function"
    },
    {
      "inputs": [
        {
          "internalType": "address",
          "name": "token",
          "type": "address"
        },
        {
          "internalType": "uint256",
          "name": "amount",
          "type": "uint256"
        }
      ],
      "name": "distributeERC20",
      "outputs": [],
      "stateMutability": "nonpayable",
      "type": "function"
    },
    {
      "inputs": [
        {
          "internalType": "address payable",
          "name": "to",
          "type": "address"
        },
        {
          "internalType": "uint256",
          "name": "amount",
          "type": "uint256"
        }
      ],
      "name": "emergencyWithdrawBNB",
      "outputs": [],
      "stateMutability": "nonpayable",
      "type": "function"
    },
    {
      "inputs": [
        {
          "internalType": "address",
          "name": "token",
          "type": "address"
        },
        {
          "internalType": "address",
          "name": "to",
          "type": "address"
        },
        {
          "internalType": "uint256",
          "name": "amount",
          "type": "uint256"
        }
      ],
      "name": "emergencyWithdrawERC20",
      "outputs": [],
      "stateMutability": "nonpayable",
      "type": "function"
    },
    {
      "inputs": [
        {
          "internalType": "address[]",
          "name": "users",
          "type": "address[]"
        }
      ],
      "name": "getAllUserPoints",
      "outputs": [
        {
          "internalType": "uint256[]",
          "name": "",
          "type": "uint256[]"
        }
      ],
      "stateMutability": "view",
      "type": "function"
    },
    {
      "inputs": [],
      "name": "getAllUsers",
      "outputs": [
        {
          "internalType": "address[]",
          "name": "",
          "type": "address[]"
        }
      ],
      "stateMutability": "view",
      "type": "function"
    },
    {
      "inputs": [],
      "name": "getTotalPoints",
      "outputs": [
        {
          "internalType": "uint256",
          "name": "",
          "type": "uint256"
        }
      ],
      "stateMutability": "view",
      "type": "function"
    },
    {
      "inputs": [
        {
          "internalType": "address",
          "name": "user",
          "type": "address"
        }
      ],
      "name": "getUserPoints",
      "outputs": [
        {
          "internalType": "uint256",
          "name": "",
          "type": "uint256"
        }
      ],
      "stateMutability": "view",
      "type": "function"
    },
    {
      "inputs": [],
      "name": "owner",
      "outputs": [
        {
          "internalType": "address",
          "name": "",
          "type": "address"
        }
      ],
      "stateMutability": "view",
      "type": "function"
    },
    {
      "inputs": [],
      "name": "pointsCap",
      "outputs": [
        {
          "internalType": "uint256",
          "name": "",
          "type": "uint256"
        }
      ],
      "stateMutability": "view",
      "type": "function"
    },
    {
      "inputs": [],
      "name": "renounceOwnership",
      "outputs": [],
      "stateMutability": "nonpayable",
      "type": "function"
    },
    {
      "inputs": [
        {
          "internalType": "address",
          "name": "controller",
          "type": "address"
        }
      ],
      "name": "setController",
      "outputs": [],
      "stateMutability": "nonpayable",
      "type": "function"
    },
    {
      "inputs": [
        {
          "internalType": "uint256",
          "name": "newCap",
          "type": "uint256"
        }
      ],
      "name": "setPointsCap",
      "outputs": [],
      "stateMutability": "nonpayable",
      "type": "function"
    },
    {
      "inputs": [],
      "name": "totalPoints",
      "outputs": [
        {
          "internalType": "uint256",
          "name": "",
          "type": "uint256"
        }
      ],
      "stateMutability": "view",
      "type": "function"
    },
    {
      "inputs": [
        {
          "internalType": "address",
          "name": "newOwner",
          "type": "address"
        }
      ],
      "name": "transferOwnership",
      "outputs": [],
      "stateMutability": "nonpayable",
      "type": "function"
    },
    {
      "inputs": [
        {
          "internalType": "address",
          "name": "user",
          "type": "address"
        },
        {
          "internalType": "uint256",
          "name": "addPoints",
          "type": "uint256"
        }
      ],
      "name": "updatePoints",
      "outputs": [],
      "stateMutability": "nonpayable",
      "type": "function"
    },
    {
      "stateMutability": "payable",
      "type": "receive"
    }
  ],
  "transactionHash": "0x124b7f2a84b8fdfbccbcafde5a0b74c9c709bfd7a8721f15a6b2968a00d0343b",
  "args": [],
  "numDeployments": 1,
  "solcInputHash": "396d5ff16ea0b6a71fd5b8119169e4dd",
  "bytecode": "0x6080604052620f424060075534801561001757600080fd5b506100213361002a565b6001805561007a565b600080546001600160a01b038381166001600160a01b0319831681178455604051919092169283917f8be0079c531659141344cd1fd0a4f28419497f9722a3daafe3b4186f6b6457e09190a35050565b6117e0806100896000396000f3fe6080604052600436106101125760003560e01c80638d01713c116100a5578063a0ea0dd611610074578063da8c229e11610059578063da8c229e14610313578063e2842d7914610353578063f2fde38b1461037557600080fd5b8063a0ea0dd6146102bd578063aeefe31f146102dd57600080fd5b80638d01713c146102205780638da5cb5b1461024057806392eefe9b146102685780639eb9a106146102a757600080fd5b806353fd75b4116100e157806353fd75b4146101b557806355b8fb81146101d5578063567142be146101f5578063715018a61461020b57600080fd5b806320f3c95c1461011e5780632af07424146101405780632af6e28e14610160578063326bfcc11461019657600080fd5b3661011957005b600080fd5b34801561012a57600080fd5b5061013e610139366004611417565b610395565b005b34801561014c57600080fd5b5061013e61015b366004611445565b6103d8565b34801561016c57600080fd5b5061018061017b3660046114bd565b610628565b60405161018d91906114ff565b60405180910390f35b3480156101a257600080fd5b506005545b60405190815260200161018d565b3480156101c157600080fd5b5061013e6101d0366004611445565b610701565b3480156101e157600080fd5b5061013e6101f0366004611543565b610980565b34801561020157600080fd5b506101a760055481565b34801561021757600080fd5b5061013e610a2c565b34801561022c57600080fd5b5061013e61023b366004611584565b610a40565b34801561024c57600080fd5b506000546040516001600160a01b03909116815260200161018d565b34801561027457600080fd5b5061013e6102833660046115f0565b6001600160a01b03166000908152600660205260409020805460ff19166001179055565b3480156102b357600080fd5b506101a760075481565b3480156102c957600080fd5b5061013e6102d8366004611445565b610dd0565b3480156102e957600080fd5b506101a76102f83660046115f0565b6001600160a01b031660009081526002602052604090205490565b34801561031f57600080fd5b5061034361032e3660046115f0565b60066020526000908152604090205460ff1681565b604051901515815260200161018d565b34801561035f57600080fd5b50610368610f01565b60405161018d9190611614565b34801561038157600080fd5b5061013e6103903660046115f0565b610f63565b61039d610ff3565b60078190556040518181527f2db095cc5f26411c2ac3ae9b3781fbc41fa1f9e5af162dfdc77eb134906fcea09060200160405180910390a150565b3360009081526006602052604090205460ff1615156001146104415760405162461bcd60e51b815260206004820152601060248201527f4e6f74206120436f6e74726f6c6c65720000000000000000000000000000000060448201526064015b60405180910390fd5b6001600160a01b0382166104825760405162461bcd60e51b81526020600482015260086024820152673130b21030b2323960c11b6044820152606401610438565b600081116104d25760405162461bcd60e51b815260206004820152600b60248201527f7a65726f20706f696e74730000000000000000000000000000000000000000006044820152606401610438565b600754816005546104e3919061166b565b11610624576001600160a01b03821660009081526002602052604090205461050b828261166b565b6001600160a01b0384166000908152600260205260408120919091556005805484929061053990849061166b565b90915550506001600160a01b03831660009081526003602052604090205460ff166105d1576001600160a01b0383166000818152600360205260408120805460ff191660019081179091556004805491820181559091527f8a35acfbc15ff81a39ae7d344fd709f28e8600b4aa8c65c6b64bfe7fe36bd19b01805473ffffffffffffffffffffffffffffffffffffffff191690911790555b6001600160a01b038316600081815260026020908152604091829020548251868152918201527feceb10b266995afd3009502df537b0421b7f635dd268f4b0a74b99a87be65213910160405180910390a2505b5050565b606060008267ffffffffffffffff8111156106455761064561167e565b60405190808252806020026020018201604052801561066e578160200160208202803683370190505b50905060005b838110156106f7576002600086868481811061069257610692611694565b90506020020160208101906106a791906115f0565b6001600160a01b03166001600160a01b03168152602001908152602001600020548282815181106106da576106da611694565b6020908102919091010152806106ef816116aa565b915050610674565b5090505b92915050565b610709610ff3565b61071161104d565b600081116107615760405162461bcd60e51b815260206004820152600b60248201527f7a65726f20616d6f756e740000000000000000000000000000000000000000006044820152606401610438565b6000600554116107b35760405162461bcd60e51b815260206004820152600960248201527f6e6f20706f696e747300000000000000000000000000000000000000000000006044820152606401610438565b6040517f70a0823100000000000000000000000000000000000000000000000000000000815230600482015282906000906001600160a01b038316906370a0823190602401602060405180830381865afa158015610815573d6000803e3d6000fd5b505050506040513d601f19601f8201168201806040525081019061083991906116c3565b90508281101561088b5760405162461bcd60e51b815260206004820152601d60248201527f696e73756666696369656e7420636f6e74726163742062616c616e63650000006044820152606401610438565b60045460005b81811015610930576000600482815481106108ae576108ae611694565b60009182526020808320909101546001600160a01b031680835260029091526040822054909250908190036108e457505061091e565b6005546000906108f4838a6116dc565b6108fe91906116f3565b9050801561091a5761091a6001600160a01b03881684836110a6565b5050505b80610928816116aa565b915050610891565b50846001600160a01b03167f16b0da2ffcb90c6723317bd637d9aad7f04711f42bbe0ac0918ebe10f1f9001c8560405161096c91815260200190565b60405180910390a250505061062460018055565b610988610ff3565b6001600160a01b0382166109c75760405162461bcd60e51b815260206004820152600660248201526562616420746f60d01b6044820152606401610438565b6109db6001600160a01b03841683836110a6565b604080516001600160a01b038086168252841660208201529081018290527ff24ef89f38eadc1bde50701ad6e4d6d11a2dc24f7cf834a486991f3883328504906060015b60405180910390a1505050565b610a34610ff3565b610a3e600061112b565b565b3360009081526006602052604090205460ff161515600114610aa45760405162461bcd60e51b815260206004820152601060248201527f4e6f74206120436f6e74726f6c6c6572000000000000000000000000000000006044820152606401610438565b828114610af35760405162461bcd60e51b815260206004820152600c60248201527f6c656e206d69736d6174636800000000000000000000000000000000000000006044820152606401610438565b826000805b82811015610d7d576000878783818110610b1457610b14611694565b9050602002016020810190610b2991906115f0565b90506000868684818110610b3f57610b3f611694565b60200291909101359150506001600160a01b038216610b8b5760405162461bcd60e51b81526020600482015260086024820152673130b21030b2323960c11b6044820152606401610438565b60008111610bdb5760405162461bcd60e51b815260206004820152600b60248201527f7a65726f20706f696e74730000000000000000000000000000000000000000006044820152606401610438565b6007548185600554610bed919061166b565b610bf7919061166b565b1115610c455760405162461bcd60e51b815260206004820152600c60248201527f63617020657863656564656400000000000000000000000000000000000000006044820152606401610438565b6001600160a01b038216600090815260026020526040902054610c68828261166b565b6001600160a01b03841660009081526002602090815260408083209390935560039052205460ff16610d07576001600160a01b0383166000818152600360205260408120805460ff191660019081179091556004805491820181559091527f8a35acfbc15ff81a39ae7d344fd709f28e8600b4aa8c65c6b64bfe7fe36bd19b01805473ffffffffffffffffffffffffffffffffffffffff191690911790555b610d11828661166b565b6001600160a01b0384166000818152600260209081526040918290205482518781529182015292975090917feceb10b266995afd3009502df537b0421b7f635dd268f4b0a74b99a87be65213910160405180910390a25050508080610d75906116aa565b915050610af8565b508060056000828254610d90919061166b565b90915550506040518281527f3cf167dbb9176cb650ec9982de2c631ee3cbb1c3e92a7dc0d85d3c9a2cc4d5479060200160405180910390a1505050505050565b610dd8610ff3565b6001600160a01b038216610e175760405162461bcd60e51b815260206004820152600660248201526562616420746f60d01b6044820152606401610438565b6000826001600160a01b03168260405160006040518083038185875af1925050503d8060008114610e64576040519150601f19603f3d011682016040523d82523d6000602084013e610e69565b606091505b5050905080610eba5760405162461bcd60e51b815260206004820152600f60248201527f7472616e73666572206661696c656400000000000000000000000000000000006044820152606401610438565b60408051600081526001600160a01b03851660208201529081018390527ff24ef89f38eadc1bde50701ad6e4d6d11a2dc24f7cf834a486991f388332850490606001610a1f565b60606004805480602002602001604051908101604052809291908181526020018280548015610f5957602002820191906000526020600020905b81546001600160a01b03168152600190910190602001808311610f3b575b5050505050905090565b610f6b610ff3565b6001600160a01b038116610fe75760405162461bcd60e51b815260206004820152602660248201527f4f776e61626c653a206e6577206f776e657220697320746865207a65726f206160448201527f64647265737300000000000000000000000000000000000000000000000000006064820152608401610438565b610ff08161112b565b50565b6000546001600160a01b03163314610a3e5760405162461bcd60e51b815260206004820181905260248201527f4f776e61626c653a2063616c6c6572206973206e6f7420746865206f776e65726044820152606401610438565b60026001540361109f5760405162461bcd60e51b815260206004820152601f60248201527f5265656e7472616e637947756172643a207265656e7472616e742063616c6c006044820152606401610438565b6002600155565b604080516001600160a01b038416602482015260448082018490528251808303909101815260649091019091526020810180517bffffffffffffffffffffffffffffffffffffffffffffffffffffffff167fa9059cbb00000000000000000000000000000000000000000000000000000000179052611126908490611188565b505050565b600080546001600160a01b0383811673ffffffffffffffffffffffffffffffffffffffff19831681178455604051919092169283917f8be0079c531659141344cd1fd0a4f28419497f9722a3daafe3b4186f6b6457e09190a35050565b60006111dd826040518060400160405280602081526020017f5361666545524332303a206c6f772d6c6576656c2063616c6c206661696c6564815250856001600160a01b03166112709092919063ffffffff16565b90508051600014806111fe5750808060200190518101906111fe9190611715565b6111265760405162461bcd60e51b815260206004820152602a60248201527f5361666545524332303a204552433230206f7065726174696f6e20646964206e60448201527f6f742073756363656564000000000000000000000000000000000000000000006064820152608401610438565b606061127f8484600085611287565b949350505050565b6060824710156112ff5760405162461bcd60e51b815260206004820152602660248201527f416464726573733a20696e73756666696369656e742062616c616e636520666f60448201527f722063616c6c00000000000000000000000000000000000000000000000000006064820152608401610438565b600080866001600160a01b0316858760405161131b919061175b565b60006040518083038185875af1925050503d8060008114611358576040519150601f19603f3d011682016040523d82523d6000602084013e61135d565b606091505b509150915061136e87838387611379565b979650505050505050565b606083156113e85782516000036113e1576001600160a01b0385163b6113e15760405162461bcd60e51b815260206004820152601d60248201527f416464726573733a2063616c6c20746f206e6f6e2d636f6e74726163740000006044820152606401610438565b508161127f565b61127f83838151156113fd5781518083602001fd5b8060405162461bcd60e51b81526004016104389190611777565b60006020828403121561142957600080fd5b5035919050565b6001600160a01b0381168114610ff057600080fd5b6000806040838503121561145857600080fd5b823561146381611430565b946020939093013593505050565b60008083601f84011261148357600080fd5b50813567ffffffffffffffff81111561149b57600080fd5b6020830191508360208260051b85010111156114b657600080fd5b9250929050565b600080602083850312156114d057600080fd5b823567ffffffffffffffff8111156114e757600080fd5b6114f385828601611471565b90969095509350505050565b6020808252825182820181905260009190848201906040850190845b818110156115375783518352928401929184019160010161151b565b50909695505050505050565b60008060006060848603121561155857600080fd5b833561156381611430565b9250602084013561157381611430565b929592945050506040919091013590565b6000806000806040858703121561159a57600080fd5b843567ffffffffffffffff808211156115b257600080fd5b6115be88838901611471565b909650945060208701359150808211156115d757600080fd5b506115e487828801611471565b95989497509550505050565b60006020828403121561160257600080fd5b813561160d81611430565b9392505050565b6020808252825182820181905260009190848201906040850190845b818110156115375783516001600160a01b031683529284019291840191600101611630565b634e487b7160e01b600052601160045260246000fd5b808201808211156106fb576106fb611655565b634e487b7160e01b600052604160045260246000fd5b634e487b7160e01b600052603260045260246000fd5b6000600182016116bc576116bc611655565b5060010190565b6000602082840312156116d557600080fd5b5051919050565b80820281158282048414176106fb576106fb611655565b60008261171057634e487b7160e01b600052601260045260246000fd5b500490565b60006020828403121561172757600080fd5b8151801515811461160d57600080fd5b60005b8381101561175257818101518382015260200161173a565b50506000910152565b6000825161176d818460208701611737565b9190910192915050565b6020815260008251806020840152611796816040850160208701611737565b601f01601f1916919091016040019291505056fea2646970667358221220b17fcc83356637a0c4bd4b9ecfb2150fde331814c61a49741ad606ecce7d104164736f6c63430008110033",
  "devdoc": {
    "kind": "dev",
    "methods": {
      "distributeERC20(address,uint256)": {
        "details": "This loops over minters[] and will fail/gas out if minters array is huge. Use Merkle airdrop for large lists (recommended)."
      },
      "owner()": {
        "details": "Returns the address of the current owner."
      },
      "renounceOwnership()": {
        "details": "Leaves the contract without owner. It will not be possible to call `onlyOwner` functions. Can only be called by the current owner. NOTE: Renouncing ownership will leave the contract without an owner, thereby disabling any functionality that is only available to the owner."
      },
      "transferOwnership(address)": {
        "details": "Transfers ownership of the contract to a new account (`newOwner`). Can only be called by the current owner."
      }
    },
    "version": 1
  },
  "userdoc": {
    "kind": "user",
    "methods": {
      "batchUpdatePoints(address[],uint256[])": {
        "notice": "batch update (addresses[] and points[] must match length)"
      },
      "distributeERC20(address,uint256)": {
        "notice": "distribute `amount` of `token` to all recorded minters proportionally to their points."
      },
      "emergencyWithdrawBNB(address,uint256)": {
        "notice": "withdraw native balance"
      },
      "emergencyWithdrawERC20(address,address,uint256)": {
        "notice": "withdraw any ERC20 accidentally sent to contract (owner only)"
      },
      "updatePoints(address,uint256)": {
        "notice": "update points for a single user"
      }
    },
    "version": 1
  },
  "storageLayout": {
    "storage": [
      {
        "astId": 53,
        "contract": "contracts/ethregistrar/Airdrop.sol:Airdrop",
        "label": "_owner",
        "offset": 0,
        "slot": "0",
        "type": "t_address"
      },
      {
        "astId": 169,
        "contract": "contracts/ethregistrar/Airdrop.sol:Airdrop",
        "label": "_status",
        "offset": 0,
        "slot": "1",
        "type": "t_uint256"
      },
      {
        "astId": 3529,
        "contract": "contracts/ethregistrar/Airdrop.sol:Airdrop",
        "label": "points",
        "offset": 0,
        "slot": "2",
        "type": "t_mapping(t_address,t_uint256)"
      },
      {
        "astId": 3533,
        "contract": "contracts/ethregistrar/Airdrop.sol:Airdrop",
        "label": "isMinter",
        "offset": 0,
        "slot": "3",
        "type": "t_mapping(t_address,t_bool)"
      },
      {
        "astId": 3536,
        "contract": "contracts/ethregistrar/Airdrop.sol:Airdrop",
        "label": "minters",
        "offset": 0,
        "slot": "4",
        "type": "t_array(t_address)dyn_storage"
      },
      {
        "astId": 3538,
        "contract": "contracts/ethregistrar/Airdrop.sol:Airdrop",
        "label": "totalPoints",
        "offset": 0,
        "slot": "5",
        "type": "t_uint256"
      },
      {
        "astId": 3542,
        "contract": "contracts/ethregistrar/Airdrop.sol:Airdrop",
        "label": "controllers",
        "offset": 0,
        "slot": "6",
        "type": "t_mapping(t_address,t_bool)"
      },
      {
        "astId": 3545,
        "contract": "contracts/ethregistrar/Airdrop.sol:Airdrop",
        "label": "pointsCap",
        "offset": 0,
        "slot": "7",
        "type": "t_uint256"
      }
    ],
    "types": {
      "t_address": {
        "encoding": "inplace",
        "label": "address",
        "numberOfBytes": "20"
      },
      "t_array(t_address)dyn_storage": {
        "base": "t_address",
        "encoding": "dynamic_array",
        "label": "address[]",
        "numberOfBytes": "32"
      },
      "t_bool": {
        "encoding": "inplace",
        "label": "bool",
        "numberOfBytes": "1"
      },
      "t_mapping(t_address,t_bool)": {
        "encoding": "mapping",
        "key": "t_address",
        "label": "mapping(address => bool)",
        "numberOfBytes": "32",
        "value": "t_bool"
      },
      "t_mapping(t_address,t_uint256)": {
        "encoding": "mapping",
        "key": "t_address",
        "label": "mapping(address => uint256)",
        "numberOfBytes": "32",
        "value": "t_uint256"
      },
      "t_uint256": {
        "encoding": "inplace",
        "label": "uint256",
        "numberOfBytes": "32"
      }
    }
  }
}