{
  "address": "0xBC6932F08f07f47F78285249d1A4937C99b4A955",
  "abi": [
    {
      "inputs": [
        {
          "internalType": "contract BaseRegistrarImplementation",
          "name": "_base",
          "type": "address"
        },
        {
          "internalType": "contract TokenPriceOracle",
          "name": "_prices",
          "type": "address"
        },
        {
          "internalType": "uint256",
          "name": "_minCommitmentAge",
          "type": "uint256"
        },
        {
          "internalType": "uint256",
          "name": "_maxCommitmentAge",
          "type": "uint256"
        },
        {
          "internalType": "contract ReverseRegistrar",
          "name": "_reverseRegistrar",
          "type": "address"
        },
        {
          "internalType": "contract INameWrapper",
          "name": "_nameWrapper",
          "type": "address"
        },
        {
          "internalType": "contract ENS",
          "name": "_ens",
          "type": "address"
        },
        {
          "internalType": "contract ReferralController",
          "name": "_referralController",
          "type": "address"
        }
      ],
      "stateMutability": "nonpayable",
      "type": "constructor"
    },
    {
      "inputs": [
        {
          "internalType": "bytes32",
          "name": "commitment",
          "type": "bytes32"
        }
      ],
      "name": "CommitmentTooNew",
      "type": "error"
    },
    {
      "inputs": [
        {
          "internalType": "bytes32",
          "name": "commitment",
          "type": "bytes32"
        }
      ],
      "name": "CommitmentTooOld",
      "type": "error"
    },
    {
      "inputs": [
        {
          "internalType": "uint256",
          "name": "duration",
          "type": "uint256"
        }
      ],
      "name": "DurationTooShort",
      "type": "error"
    },
    {
      "inputs": [],
      "name": "InsufficientValue",
      "type": "error"
    },
    {
      "inputs": [],
      "name": "MaxCommitmentAgeTooHigh",
      "type": "error"
    },
    {
      "inputs": [],
      "name": "MaxCommitmentAgeTooLow",
      "type": "error"
    },
    {
      "inputs": [
        {
          "internalType": "string",
          "name": "name",
          "type": "string"
        }
      ],
      "name": "NameNotAvailable",
      "type": "error"
    },
    {
      "inputs": [],
      "name": "ResolverRequiredWhenDataSupplied",
      "type": "error"
    },
    {
      "inputs": [
        {
          "internalType": "bytes32",
          "name": "commitment",
          "type": "bytes32"
        }
      ],
      "name": "UnexpiredCommitmentExists",
      "type": "error"
    },
    {
      "anonymous": false,
      "inputs": [
        {
          "indexed": false,
          "internalType": "string",
          "name": "name",
          "type": "string"
        },
        {
          "indexed": true,
          "internalType": "bytes32",
          "name": "label",
          "type": "bytes32"
        },
        {
          "indexed": true,
          "internalType": "address",
          "name": "owner",
          "type": "address"
        },
        {
          "indexed": false,
          "internalType": "uint256",
          "name": "baseCost",
          "type": "uint256"
        },
        {
          "indexed": false,
          "internalType": "uint256",
          "name": "premium",
          "type": "uint256"
        },
        {
          "indexed": false,
          "internalType": "uint256",
          "name": "expires",
          "type": "uint256"
        }
      ],
      "name": "NameRegistered",
      "type": "event"
    },
    {
      "anonymous": false,
      "inputs": [
        {
          "indexed": false,
          "internalType": "string",
          "name": "name",
          "type": "string"
        },
        {
          "indexed": true,
          "internalType": "bytes32",
          "name": "label",
          "type": "bytes32"
        },
        {
          "indexed": false,
          "internalType": "uint256",
          "name": "cost",
          "type": "uint256"
        },
        {
          "indexed": false,
          "internalType": "uint256",
          "name": "expires",
          "type": "uint256"
        }
      ],
      "name": "NameRenewed",
      "type": "event"
    },
    {
      "anonymous": false,
      "inputs": [
        {
          "indexed": true,
          "internalType": "address",
          "name": "previousOwner",
          "type": "address"
        },
        {
          "indexed": true,
          "internalType": "address",
          "name": "newOwner",
          "type": "address"
        }
      ],
      "name": "OwnershipTransferred",
      "type": "event"
    },
    {
      "inputs": [],
      "name": "MIN_REGISTRATION_DURATION",
      "outputs": [
        {
          "internalType": "uint256",
          "name": "",
          "type": "uint256"
        }
      ],
      "stateMutability": "view",
      "type": "function"
    },
    {
      "inputs": [],
      "name": "airdrop",
      "outputs": [
        {
          "internalType": "contract Airdrop",
          "name": "",
          "type": "address"
        }
      ],
      "stateMutability": "view",
      "type": "function"
    },
    {
      "inputs": [
        {
          "internalType": "string",
          "name": "name",
          "type": "string"
        }
      ],
      "name": "available",
      "outputs": [
        {
          "internalType": "bool",
          "name": "",
          "type": "bool"
        }
      ],
      "stateMutability": "view",
      "type": "function"
    },
    {
      "inputs": [],
      "name": "backendWallet",
      "outputs": [
        {
          "internalType": "address",
          "name": "",
          "type": "address"
        }
      ],
      "stateMutability": "view",
      "type": "function"
    },
    {
      "inputs": [
        {
          "internalType": "bytes32",
          "name": "commitment",
          "type": "bytes32"
        }
      ],
      "name": "commit",
      "outputs": [],
      "stateMutability": "nonpayable",
      "type": "function"
    },
    {
      "inputs": [
        {
          "internalType": "bytes32",
          "name": "",
          "type": "bytes32"
        }
      ],
      "name": "commitments",
      "outputs": [
        {
          "internalType": "uint256",
          "name": "",
          "type": "uint256"
        }
      ],
      "stateMutability": "view",
      "type": "function"
    },
    {
      "inputs": [
        {
          "internalType": "bool",
          "name": "enabled",
          "type": "bool"
        }
      ],
      "name": "controlAirdrop",
      "outputs": [],
      "stateMutability": "nonpayable",
      "type": "function"
    },
    {
      "inputs": [],
      "name": "getMints",
      "outputs": [
        {
          "internalType": "uint256",
          "name": "",
          "type": "uint256"
        }
      ],
      "stateMutability": "view",
      "type": "function"
    },
    {
      "inputs": [],
      "name": "infoFi",
      "outputs": [
        {
          "internalType": "address",
          "name": "",
          "type": "address"
        }
      ],
      "stateMutability": "view",
      "type": "function"
    },
    {
      "inputs": [
        {
          "internalType": "string",
          "name": "name",
          "type": "string"
        },
        {
          "internalType": "address",
          "name": "owner",
          "type": "address"
        },
        {
          "internalType": "uint256",
          "name": "duration",
          "type": "uint256"
        },
        {
          "internalType": "bytes32",
          "name": "secret",
          "type": "bytes32"
        },
        {
          "internalType": "address",
          "name": "resolver",
          "type": "address"
        },
        {
          "internalType": "bytes[]",
          "name": "data",
          "type": "bytes[]"
        },
        {
          "internalType": "bool",
          "name": "reverseRecord",
          "type": "bool"
        },
        {
          "internalType": "uint16",
          "name": "ownerControlledFuses",
          "type": "uint16"
        },
        {
          "internalType": "bool",
          "name": "lifetime",
          "type": "bool"
        }
      ],
      "name": "makeCommitment",
      "outputs": [
        {
          "internalType": "bytes32",
          "name": "",
          "type": "bytes32"
        }
      ],
      "stateMutability": "pure",
      "type": "function"
    },
    {
      "inputs": [],
      "name": "maxCommitmentAge",
      "outputs": [
        {
          "internalType": "uint256",
          "name": "",
          "type": "uint256"
        }
      ],
      "stateMutability": "view",
      "type": "function"
    },
    {
      "inputs": [],
      "name": "minCommitmentAge",
      "outputs": [
        {
          "internalType": "uint256",
          "name": "",
          "type": "uint256"
        }
      ],
      "stateMutability": "view",
      "type": "function"
    },
    {
      "inputs": [],
      "name": "mints",
      "outputs": [
        {
          "internalType": "uint256",
          "name": "",
          "type": "uint256"
        }
      ],
      "stateMutability": "view",
      "type": "function"
    },
    {
      "inputs": [],
      "name": "nameWrapper",
      "outputs": [
        {
          "internalType": "contract INameWrapper",
          "name": "",
          "type": "address"
        }
      ],
      "stateMutability": "view",
      "type": "function"
    },
    {
      "inputs": [],
      "name": "owner",
      "outputs": [
        {
          "internalType": "address",
          "name": "",
          "type": "address"
        }
      ],
      "stateMutability": "view",
      "type": "function"
    },
    {
      "inputs": [],
      "name": "prices",
      "outputs": [
        {
          "internalType": "contract TokenPriceOracle",
          "name": "",
          "type": "address"
        }
      ],
      "stateMutability": "view",
      "type": "function"
    },
    {
      "inputs": [
        {
          "internalType": "address",
          "name": "_token",
          "type": "address"
        },
        {
          "internalType": "address",
          "name": "_to",
          "type": "address"
        },
        {
          "internalType": "uint256",
          "name": "_amount",
          "type": "uint256"
        }
      ],
      "name": "recoverFunds",
      "outputs": [],
      "stateMutability": "nonpayable",
      "type": "function"
    },
    {
      "inputs": [],
      "name": "referralController",
      "outputs": [
        {
          "internalType": "contract ReferralController",
          "name": "",
          "type": "address"
        }
      ],
      "stateMutability": "view",
      "type": "function"
    },
    {
      "inputs": [
        {
          "internalType": "string",
          "name": "name",
          "type": "string"
        },
        {
          "internalType": "address",
          "name": "owner",
          "type": "address"
        },
        {
          "internalType": "uint256",
          "name": "duration",
          "type": "uint256"
        },
        {
          "internalType": "bytes32",
          "name": "secret",
          "type": "bytes32"
        },
        {
          "internalType": "address",
          "name": "resolver",
          "type": "address"
        },
        {
          "internalType": "bytes[]",
          "name": "data",
          "type": "bytes[]"
        },
        {
          "internalType": "bool",
          "name": "reverseRecord",
          "type": "bool"
        },
        {
          "internalType": "uint16",
          "name": "ownerControlledFuses",
          "type": "uint16"
        },
        {
          "internalType": "bool",
          "name": "lifetime",
          "type": "bool"
        },
        {
          "internalType": "string",
          "name": "referree",
          "type": "string"
        }
      ],
      "name": "register",
      "outputs": [],
      "stateMutability": "payable",
      "type": "function"
    },
    {
      "inputs": [
        {
          "internalType": "string",
          "name": "name",
          "type": "string"
        },
        {
          "internalType": "address",
          "name": "owner",
          "type": "address"
        },
        {
          "internalType": "uint256",
          "name": "duration",
          "type": "uint256"
        },
        {
          "internalType": "bytes32",
          "name": "secret",
          "type": "bytes32"
        },
        {
          "internalType": "address",
          "name": "resolver",
          "type": "address"
        },
        {
          "internalType": "bytes[]",
          "name": "data",
          "type": "bytes[]"
        },
        {
          "internalType": "bool",
          "name": "reverseRecord",
          "type": "bool"
        },
        {
          "internalType": "uint16",
          "name": "ownerControlledFuses",
          "type": "uint16"
        },
        {
          "internalType": "bool",
          "name": "lifetime",
          "type": "bool"
        },
        {
          "internalType": "string",
          "name": "referree",
          "type": "string"
        }
      ],
      "name": "registerWithCard",
      "outputs": [],
      "stateMutability": "nonpayable",
      "type": "function"
    },
    {
      "inputs": [
        {
          "components": [
            {
              "internalType": "string",
              "name": "name",
              "type": "string"
            },
            {
              "internalType": "address",
              "name": "owner",
              "type": "address"
            },
            {
              "internalType": "uint256",
              "name": "duration",
              "type": "uint256"
            },
            {
              "internalType": "bytes32",
              "name": "secret",
              "type": "bytes32"
            },
            {
              "internalType": "address",
              "name": "resolver",
              "type": "address"
            },
            {
              "internalType": "bytes[]",
              "name": "data",
              "type": "bytes[]"
            },
            {
              "internalType": "bool",
              "name": "reverseRecord",
              "type": "bool"
            },
            {
              "internalType": "uint16",
              "name": "ownerControlledFuses",
              "type": "uint16"
            }
          ],
          "internalType": "struct IETHRegistrarController.RegisterParams",
          "name": "registerParams",
          "type": "tuple"
        },
        {
          "internalType": "address",
          "name": "tokenAddress",
          "type": "address"
        },
        {
          "internalType": "bool",
          "name": "lifetime",
          "type": "bool"
        },
        {
          "internalType": "string",
          "name": "referree",
          "type": "string"
        }
      ],
      "name": "registerWithToken",
      "outputs": [],
      "stateMutability": "nonpayable",
      "type": "function"
    },
    {
      "inputs": [
        {
          "internalType": "address",
          "name": "tokenAddress",
          "type": "address"
        }
      ],
      "name": "removeToken",
      "outputs": [],
      "stateMutability": "nonpayable",
      "type": "function"
    },
    {
      "inputs": [
        {
          "internalType": "string",
          "name": "name",
          "type": "string"
        },
        {
          "internalType": "uint256",
          "name": "duration",
          "type": "uint256"
        },
        {
          "internalType": "bool",
          "name": "lifetime",
          "type": "bool"
        }
      ],
      "name": "renew",
      "outputs": [],
      "stateMutability": "payable",
      "type": "function"
    },
    {
      "inputs": [
        {
          "internalType": "string",
          "name": "name",
          "type": "string"
        },
        {
          "internalType": "uint256",
          "name": "duration",
          "type": "uint256"
        },
        {
          "internalType": "bool",
          "name": "lifetime",
          "type": "bool"
        }
      ],
      "name": "renewCard",
      "outputs": [],
      "stateMutability": "nonpayable",
      "type": "function"
    },
    {
      "inputs": [
        {
          "internalType": "string",
          "name": "name",
          "type": "string"
        },
        {
          "internalType": "uint256",
          "name": "duration",
          "type": "uint256"
        },
        {
          "internalType": "address",
          "name": "tokenAddress",
          "type": "address"
        },
        {
          "internalType": "bool",
          "name": "lifetime",
          "type": "bool"
        }
      ],
      "name": "renewTokens",
      "outputs": [],
      "stateMutability": "nonpayable",
      "type": "function"
    },
    {
      "inputs": [],
      "name": "renounceOwnership",
      "outputs": [],
      "stateMutability": "nonpayable",
      "type": "function"
    },
    {
      "inputs": [
        {
          "internalType": "string",
          "name": "name",
          "type": "string"
        },
        {
          "internalType": "uint256",
          "name": "duration",
          "type": "uint256"
        },
        {
          "internalType": "bool",
          "name": "lifetime",
          "type": "bool"
        }
      ],
      "name": "rentPrice",
      "outputs": [
        {
          "components": [
            {
              "internalType": "uint256",
              "name": "base",
              "type": "uint256"
            },
            {
              "internalType": "uint256",
              "name": "premium",
              "type": "uint256"
            }
          ],
          "internalType": "struct IPriceOracle.Price",
          "name": "price",
          "type": "tuple"
        }
      ],
      "stateMutability": "view",
      "type": "function"
    },
    {
      "inputs": [
        {
          "internalType": "string",
          "name": "name",
          "type": "string"
        },
        {
          "internalType": "uint256",
          "name": "duration",
          "type": "uint256"
        },
        {
          "internalType": "string",
          "name": "token",
          "type": "string"
        },
        {
          "internalType": "bool",
          "name": "lifetime",
          "type": "bool"
        }
      ],
      "name": "rentPriceToken",
      "outputs": [
        {
          "components": [
            {
              "internalType": "uint256",
              "name": "base",
              "type": "uint256"
            },
            {
              "internalType": "uint256",
              "name": "premium",
              "type": "uint256"
            }
          ],
          "internalType": "struct IPriceOracle.Price",
          "name": "price",
          "type": "tuple"
        }
      ],
      "stateMutability": "view",
      "type": "function"
    },
    {
      "inputs": [],
      "name": "resetInfoFi",
      "outputs": [],
      "stateMutability": "payable",
      "type": "function"
    },
    {
      "inputs": [],
      "name": "reverseRegistrar",
      "outputs": [
        {
          "internalType": "contract ReverseRegistrar",
          "name": "",
          "type": "address"
        }
      ],
      "stateMutability": "view",
      "type": "function"
    },
    {
      "inputs": [
        {
          "internalType": "contract Airdrop",
          "name": "_airdrop",
          "type": "address"
        }
      ],
      "name": "setAirdrop",
      "outputs": [],
      "stateMutability": "nonpayable",
      "type": "function"
    },
    {
      "inputs": [
        {
          "internalType": "address",
          "name": "wallet",
          "type": "address"
        }
      ],
      "name": "setBackend",
      "outputs": [],
      "stateMutability": "nonpayable",
      "type": "function"
    },
    {
      "inputs": [
        {
          "internalType": "address",
          "name": "_infoFi",
          "type": "address"
        }
      ],
      "name": "setInfoFi",
      "outputs": [],
      "stateMutability": "nonpayable",
      "type": "function"
    },
    {
      "inputs": [
        {
          "internalType": "address",
          "name": "oracle",
          "type": "address"
        }
      ],
      "name": "setOracle",
      "outputs": [],
      "stateMutability": "nonpayable",
      "type": "function"
    },
    {
      "inputs": [
        {
          "internalType": "address",
          "name": "referral",
          "type": "address"
        }
      ],
      "name": "setReferral",
      "outputs": [],
      "stateMutability": "nonpayable",
      "type": "function"
    },
    {
      "inputs": [
        {
          "components": [
            {
              "internalType": "string",
              "name": "token",
              "type": "string"
            },
            {
              "internalType": "address",
              "name": "tokenAddress",
              "type": "address"
            }
          ],
          "internalType": "struct ETHRegistrarController.Token",
          "name": "token",
          "type": "tuple"
        },
        {
          "internalType": "address",
          "name": "tokenAddress",
          "type": "address"
        }
      ],
      "name": "setToken",
      "outputs": [],
      "stateMutability": "nonpayable",
      "type": "function"
    },
    {
      "inputs": [
        {
          "internalType": "bytes4",
          "name": "interfaceID",
          "type": "bytes4"
        }
      ],
      "name": "supportsInterface",
      "outputs": [
        {
          "internalType": "bool",
          "name": "",
          "type": "bool"
        }
      ],
      "stateMutability": "pure",
      "type": "function"
    },
    {
      "inputs": [
        {
          "internalType": "address",
          "name": "newOwner",
          "type": "address"
        }
      ],
      "name": "transferOwnership",
      "outputs": [],
      "stateMutability": "nonpayable",
      "type": "function"
    },
    {
      "inputs": [],
      "name": "untrackedInfoFi",
      "outputs": [
        {
          "internalType": "uint256",
          "name": "",
          "type": "uint256"
        }
      ],
      "stateMutability": "view",
      "type": "function"
    },
    {
      "inputs": [],
      "name": "useAirdrop",
      "outputs": [
        {
          "internalType": "bool",
          "name": "",
          "type": "bool"
        }
      ],
      "stateMutability": "view",
      "type": "function"
    },
    {
      "inputs": [
        {
          "internalType": "string",
          "name": "name",
          "type": "string"
        }
      ],
      "name": "valid",
      "outputs": [
        {
          "internalType": "bool",
          "name": "",
          "type": "bool"
        }
      ],
      "stateMutability": "pure",
      "type": "function"
    },
    {
      "inputs": [
        {
          "internalType": "address",
          "name": "",
          "type": "address"
        }
      ],
      "name": "verifiedTokens",
      "outputs": [
        {
          "internalType": "string",
          "name": "token",
          "type": "string"
        },
        {
          "internalType": "address",
          "name": "tokenAddress",
          "type": "address"
        }
      ],
      "stateMutability": "view",
      "type": "function"
    },
    {
      "inputs": [],
      "name": "withdraw",
      "outputs": [],
      "stateMutability": "nonpayable",
      "type": "function"
    },
    {
      "inputs": [
        {
          "internalType": "address",
          "name": "tokenAddress",
          "type": "address"
        }
      ],
      "name": "withdrawTokens",
      "outputs": [],
      "stateMutability": "nonpayable",
      "type": "function"
    }
  ],
  "transactionHash": "0x9b3348d7bdee4898c5ede850c9c36795b845570deedc5a1b650c89382317bdd9",
  "args": [
    "0x4c797EbaA64Cc7f1bD2a82A36bEE5Cf335D1830c",
    "0xfED2c38240B911f6c5b7a773B901F2245AF4fc2e",
    "60",
    "86400",
    "0x1D0831eA9486Fada3887a737E8d6f8C6Ad72a125",
    "0xbf4B53F867dfE5A78Cf268AfBfC1f334044e61ae",
    "0xa886B8897814193f99A88701d70b31b4a8E27a1E",
    "0x9fd7Bb7d8A6B3EF32C5435896aE5478aF80F6F2D"
  ],
  "numDeployments": 1,
  "solcInputHash": "55e65826f9c6a9e0d63ddb1c3bbe6c7b",
  "bytecode": "0x6101206040523480156200001257600080fd5b506040516200531b3803806200531b833981016040819052620000359162000242565b81336200004281620001d9565b6040516302571be360e01b81527f91d1777781884d03a6757a803996e38de2a42967fb37eeaca72729271025a9e260048201526000906001600160a01b038416906302571be390602401602060405180830381865afa158015620000aa573d6000803e3d6000fd5b505050506040513d601f19601f82011682018060405250810190620000d09190620002ec565b604051630f41a04d60e11b81526001600160a01b03848116600483015291925090821690631e83409a906024016020604051808303816000875af11580156200011d573d6000803e3d6000fd5b505050506040513d601f19601f8201168201806040525081019062000143919062000313565b5050505085851162000168576040516307cb550760e31b815260040160405180910390fd5b428511156200018a57604051630b4319e560e21b815260040160405180910390fd5b6001600160a01b03978816608052600180549789166001600160a01b031998891617905560a0959095525060c092909252841660e052831661010052600280549190931691161790556200032d565b600080546001600160a01b038381166001600160a01b0319831681178455604051919092169283917f8be0079c531659141344cd1fd0a4f28419497f9722a3daafe3b4186f6b6457e09190a35050565b6001600160a01b03811681146200023f57600080fd5b50565b600080600080600080600080610100898b0312156200026057600080fd5b88516200026d8162000229565b60208a0151909850620002808162000229565b8097505060408901519550606089015194506080890151620002a28162000229565b60a08a0151909450620002b58162000229565b60c08a0151909350620002c88162000229565b60e08a0151909250620002db8162000229565b809150509295985092959890939650565b600060208284031215620002ff57600080fd5b81516200030c8162000229565b9392505050565b6000602082840312156200032657600080fd5b5051919050565b60805160a05160c05160e05161010051614f55620003c66000396000818161077c01528181610b6c0152818161100b0152818161155a01528181612034015281816125450152612e0c0152600081816105cf01526135860152600081816107e601528181612a0d01526133a5015260008181610675015261332e015260008181611afc01528181611cb301526129520152614f556000f3fe6080604052600436106102e75760003560e01c80638086985311610184578063a680baaf116100d6578063d3419bf31161008a578063f14fcbc811610064578063f14fcbc81461085e578063f2fde38b1461087e578063fbd50fa01461089e57600080fd5b8063d3419bf314610808578063da7fc24f14610828578063dfc7379d1461084857600080fd5b8063aeb8ce9b116100bb578063aeb8ce9b1461079e578063c53c0ec1146107be578063ce1e09c0146107d457600080fd5b8063a680baaf1461074a578063a8e5fbc01461076a57600080fd5b80638da5cb5b116101385780639e5914da116101125780639e5914da146106ea578063a0e3aef11461070a578063a31bc89a1461072a57600080fd5b80638da5cb5b146106975780639791c097146106b55780639dbd768e146106d557600080fd5b806388cccc091161016957806388cccc091461062c5780638a95b09f1461064c5780638d839ffe1461066357600080fd5b806380869853146105bd578063839df945146105f157600080fd5b80635baef98e1161023d578063715018a6116101f15780637adbf973116101cb5780637adbf9731461055d5780637c665bf51461057d5780637eb9a50b1461059d57600080fd5b8063715018a61461050857806372820dbc1461051d578063786d96a11461053d57600080fd5b80635fa7b584116102225780635fa7b5841461048c57806367547287146104ac5780636cfc51e2146104cd57600080fd5b80635baef98e1461044c5780635d3590d51461046c57600080fd5b80633884d6351161029f57806349df728c1161027957806349df728c146103f95780634ba694bd146104195780634be2b2ec1461043957600080fd5b80633884d6351461038c5780633c3a7d35146103c45780633ccfd60b146103e457600080fd5b80631baaaffe116102d05780631baaaffe1461032b57806323ed462e14610359578063330386b61461036c57600080fd5b806301ffc9a7146102ec578063094f716d14610321575b600080fd5b3480156102f857600080fd5b5061030c610307366004613f01565b6108be565b60405190151581526020015b60405180910390f35b610329610927565b005b34801561033757600080fd5b5061034b610346366004613f50565b610a2f565b604051610318929190613fbd565b6103296103673660046141f1565b610adc565b34801561037857600080fd5b506103296103873660046142e2565b610e5e565b34801561039857600080fd5b506008546103ac906001600160a01b031681565b6040516001600160a01b039091168152602001610318565b3480156103d057600080fd5b506103296103df366004614348565b610e9f565b3480156103f057600080fd5b506103296112fa565b34801561040557600080fd5b50610329610414366004613f50565b6113a0565b34801561042557600080fd5b506002546103ac906001600160a01b031681565b610329610447366004614348565b61142e565b34801561045857600080fd5b50610329610467366004613f50565b61196d565b34801561047857600080fd5b506103296104873660046143a7565b611997565b34801561049857600080fd5b506103296104a7366004613f50565b611a18565b3480156104b857600080fd5b5060085461030c90600160a01b900460ff1681565b3480156104d957600080fd5b506104ed6104e83660046143e8565b611a58565b60408051825181526020928301519281019290925201610318565b34801561051457600080fd5b50610329611bd1565b34801561052957600080fd5b50610329610538366004613f50565b611be5565b34801561054957600080fd5b506104ed610558366004614443565b611c0f565b34801561056957600080fd5b50610329610578366004613f50565b611d8b565b34801561058957600080fd5b506103296105983660046144b8565b611db5565b3480156105a957600080fd5b506103296105b83660046145e8565b612353565b3480156105c957600080fd5b506103ac7f000000000000000000000000000000000000000000000000000000000000000081565b3480156105fd57600080fd5b5061061e61060c366004614680565b60046020526000908152604090205481565b604051908152602001610318565b34801561063857600080fd5b506003546103ac906001600160a01b031681565b34801561065857600080fd5b5061061e6224ea0081565b34801561066f57600080fd5b5061061e7f000000000000000000000000000000000000000000000000000000000000000081565b3480156106a357600080fd5b506000546001600160a01b03166103ac565b3480156106c157600080fd5b5061030c6106d0366004614699565b6123b2565b3480156106e157600080fd5b5060095461061e565b3480156106f657600080fd5b50610329610705366004613f50565b6123c7565b34801561071657600080fd5b5061061e6107253660046146ce565b6123f1565b34801561073657600080fd5b506103296107453660046141f1565b612491565b34801561075657600080fd5b506005546103ac906001600160a01b031681565b34801561077657600080fd5b506103ac7f000000000000000000000000000000000000000000000000000000000000000081565b3480156107aa57600080fd5b5061030c6107b9366004614699565b612909565b3480156107ca57600080fd5b5061061e60065481565b3480156107e057600080fd5b5061061e7f000000000000000000000000000000000000000000000000000000000000000081565b34801561081457600080fd5b506001546103ac906001600160a01b031681565b34801561083457600080fd5b50610329610843366004613f50565b6129cc565b34801561085457600080fd5b5061061e60095481565b34801561086a57600080fd5b50610329610879366004614680565b6129f6565b34801561088a57600080fd5b50610329610899366004613f50565b612a7f565b3480156108aa57600080fd5b506103296108b93660046147a1565b612b0c565b60006001600160e01b031982167f01ffc9a700000000000000000000000000000000000000000000000000000000148061092157506001600160e01b031982167f0439cc7600000000000000000000000000000000000000000000000000000000145b92915050565b61092f6131ac565b600034116109845760405162461bcd60e51b815260206004820152601f60248201527f4d7573742073656e642076616c756520746f20726573657420696e666f46690060448201526064015b60405180910390fd5b6003546040516000916001600160a01b03169034908381818185875af1925050503d80600081146109d1576040519150601f19603f3d011682016040523d82523d6000602084013e6109d6565b606091505b5050905080610a275760405162461bcd60e51b815260206004820152601860248201527f5061796d656e7420746f20696e666f4669206661696c65640000000000000000604482015260640161097b565b506000600655565b600760205260009081526040902080548190610a4a90614815565b80601f0160208091040260200160405190810160405280929190818152602001828054610a7690614815565b8015610ac35780601f10610a9857610100808354040283529160200191610ac3565b820191906000526020600020905b815481529060010190602001808311610aa657829003601f168201915b505050600190930154919250506001600160a01b031682565b8115610aeb57640757b12c0097505b610af78a898b85613206565b6000610b048b8a85611a58565b60208101518151919250610b1791614865565b341015610b375760405163044044a560e21b815260040160405180910390fd5b610b528b8a610b4d8e8e8e8e8e8e8e8e8e6123f1565b613317565b604051635200a4c160e11b81526000906001600160a01b037f0000000000000000000000000000000000000000000000000000000000000000169063a401498290610ba9908f908f908f908e908c90600401614878565b6020604051808303816000875af1158015610bc8573d6000803e3d6000fd5b505050506040513d601f19601f82011682018060405250810190610bec91906148c0565b875190915015610c0857610c08888d80519060200120896134a4565b8515610d2157610c198c8933613584565b6000600260009054906101000a90046001600160a01b03166001600160a01b03166314723fae8e8e6040518363ffffffff1660e01b8152600401610c5e929190613fbd565b6020604051808303816000875af1158015610c7d573d6000803e3d6000fd5b505050506040513d601f19601f82011682018060405250810190610ca191906148d9565b90508015610d1f576002548d5160208f0120604051631f8e227160e01b815260048101919091526001600160a01b038e811660248301526044820185905290911690631f8e227190606401600060405180830381600087803b158015610d0657600080fd5b505af1158015610d1a573d6000803e3d6000fd5b505050505b505b8a6001600160a01b03168c805190602001207f69e37f151eb98a09618ddaa80c8cfaf1ce5996867c489f45b555b412271ebf278e8560000151866020015186604051610d7094939291906148f6565b60405180910390a360208201518251610d899190614865565b341115610e4457602082015182516000913391610da69190614865565b610db09034614925565b604051600081818185875af1925050503d8060008114610dec576040519150601f19603f3d011682016040523d82523d6000602084013e610df1565b606091505b5050905080610e425760405162461bcd60e51b815260206004820152600d60248201527f526566756e64206661696c656400000000000000000000000000000000000000604482015260640161097b565b505b610e5082848e8e613638565b505050505050505050505050565b610e666131ac565b60088054911515600160a01b027fffffffffffffffffffffff00ffffffffffffffffffffffffffffffffffffffff909216919091179055565b6005546001600160a01b03163314610ef95760405162461bcd60e51b815260206004820152600b60248201527f4e6f74204261636b656e64000000000000000000000000000000000000000000604482015260640161097b565b8015610f0857640757b12c0091505b60008484604051610f1a929190614938565b604080519182900382206020601f880181900481028401810190925286835292508291600091610f6991908990899081908401838280828437600092019190915250899250889150611a589050565b600254604051630338bc9760e41b8152600481018690529192506000916001600160a01b039091169063338bc97090602401600060405180830381865afa158015610fb8573d6000803e3d6000fd5b505050506040513d6000823e601f3d908101601f19168201604052610fe09190810190614978565b60405163c475abff60e01b815260048101859052602481018890529091506000906001600160a01b037f0000000000000000000000000000000000000000000000000000000000000000169063c475abff906044016020604051808303816000875af1158015611054573d6000803e3d6000fd5b505050506040513d601f19601f8201168201806040525081019061107891906148c0565b6002546040519192506001600160a01b031690638b07795b9061109e908c908c90614938565b60405190819003812060e083901b6001600160e01b0319168252600482015260248101849052604401600060405180830381600087803b1580156110e157600080fd5b505af11580156110f5573d6000803e3d6000fd5b50505050847f3da24c024582931cfaf8267d8ed24d13a82a8068d5bd337d30ec45cea4e506ae8a8a86600001518560405161113394939291906149c1565b60405180910390a2600254825160208401206040516376d7cfb760e11b815260048101919091526000916001600160a01b03169063edaf9f6e90602401602060405180830381865afa15801561118d573d6000803e3d6000fd5b505050506040513d601f19601f820116820180604052508101906111b19190614a01565b6001600160a01b0316146112b157600254825160208401206040516376d7cfb760e11b815260048101919091526000916001600160a01b03169063edaf9f6e90602401602060405180830381865afa158015611211573d6000803e3d6000fd5b505050506040513d601f19601f820116820180604052508101906112359190614a01565b600254602086015186519293506001600160a01b039091169163668c91c89161125d91614865565b83866040518463ffffffff1660e01b815260040161127d93929190614a1e565b600060405180830381600087803b15801561129757600080fd5b505af11580156112ab573d6000803e3d6000fd5b50505050505b602083015183516064916112c491614865565b6112cf906023614a46565b6112d99190614a5d565b600660008282546112ea9190614865565b9091555050505050505050505050565b600080546040516001600160a01b039091169047908381818185875af1925050503d8060008114611347576040519150601f19603f3d011682016040523d82523d6000602084013e61134c565b606091505b505090508061139d5760405162461bcd60e51b815260206004820152600f60248201527f5472616e73666572206661696c65640000000000000000000000000000000000604482015260640161097b565b50565b61139d6113b56000546001600160a01b031690565b6040516370a0823160e01b81523060048201526001600160a01b038416906370a0823190602401602060405180830381865afa1580156113f9573d6000803e3d6000fd5b505050506040513d601f19601f8201168201806040525081019061141d91906148c0565b6001600160a01b0384169190613812565b801561143d57640757b12c0091505b6000848460405161144f929190614938565b604080519182900382206020601f88018190048102840181019092528683529250829160009161149e91908990899081908401838280828437600092019190915250899250889150611a589050565b600254604051630338bc9760e41b8152600481018690529192506000916001600160a01b039091169063338bc97090602401600060405180830381865afa1580156114ed573d6000803e3d6000fd5b505050506040513d6000823e601f3d908101601f191682016040526115159190810190614978565b825190915034101561153a5760405163044044a560e21b815260040160405180910390fd5b60405163c475abff60e01b815260048101849052602481018790526000907f00000000000000000000000000000000000000000000000000000000000000006001600160a01b03169063c475abff906044016020604051808303816000875af11580156115ab573d6000803e3d6000fd5b505050506040513d601f19601f820116820180604052508101906115cf91906148c0565b6002546040519192506001600160a01b031690638b07795b906115f5908c908c90614938565b60405190819003812060e083901b6001600160e01b0319168252600482015260248101849052604401600060405180830381600087803b15801561163857600080fd5b505af115801561164c573d6000803e3d6000fd5b505050508260000151341115611701578251600090339061166d9034614925565b604051600081818185875af1925050503d80600081146116a9576040519150601f19603f3d011682016040523d82523d6000602084013e6116ae565b606091505b50509050806116ff5760405162461bcd60e51b815260206004820152600d60248201527f526566756e64204661696c656400000000000000000000000000000000000000604482015260640161097b565b505b847f3da24c024582931cfaf8267d8ed24d13a82a8068d5bd337d30ec45cea4e506ae8a8a348560405161173794939291906149c1565b60405180910390a2600254825160208401206040516376d7cfb760e11b815260048101919091526000916001600160a01b03169063edaf9f6e90602401602060405180830381865afa158015611791573d6000803e3d6000fd5b505050506040513d601f19601f820116820180604052508101906117b59190614a01565b6001600160a01b03161461196257600254825160208401206040516376d7cfb760e11b815260048101919091526000916001600160a01b03169063edaf9f6e90602401602060405180830381865afa158015611815573d6000803e3d6000fd5b505050506040513d601f19601f820116820180604052508101906118399190614a01565b60025460405163c08d52af60e01b81526001600160a01b0380841660048301529293506000929091169063c08d52af90602401602060405180830381865afa158015611889573d6000803e3d6000fd5b505050506040513d601f19601f820116820180604052508101906118ad91906148c0565b90506019600582106118bd5750601e5b600254602087015187516001600160a01b039092169163e858db089160649185916118e791614865565b6118f19190614a46565b6118fb9190614a5d565b6020890151895161190c9190614865565b86896040518563ffffffff1660e01b815260040161192c93929190614a1e565b6000604051808303818588803b15801561194557600080fd5b505af1158015611959573d6000803e3d6000fd5b50505050505050505b505050505050505050565b6119756131ac565b600380546001600160a01b0319166001600160a01b0392909216919091179055565b61199f6131ac565b60405163a9059cbb60e01b81526001600160a01b0383811660048301526024820183905284169063a9059cbb906044016020604051808303816000875af11580156119ee573d6000803e3d6000fd5b505050506040513d601f19601f82011682018060405250810190611a1291906148d9565b50505050565b611a206131ac565b6001600160a01b038116600090815260076020526040812090611a438282613eb3565b5060010180546001600160a01b031916905550565b6040805180820190915260008082526020820152821580611a7c57506224ea008310155b611ac85760405162461bcd60e51b815260206004820152601060248201527f496e76616c6964206475726174696f6e00000000000000000000000000000000604482015260640161097b565b83516020850120600154604051636b727d4360e11b8152600481018390526001600160a01b0391821691638416a3749188917f0000000000000000000000000000000000000000000000000000000000000000169063d6e4fa8690602401602060405180830381865afa158015611b43573d6000803e3d6000fd5b505050506040513d601f19601f82011682018060405250810190611b6791906148c0565b87876040518563ffffffff1660e01b8152600401611b889493929190614a7f565b6040805180830381865afa158015611ba4573d6000803e3d6000fd5b505050506040513d601f19601f82011682018060405250810190611bc89190614ab0565b95945050505050565b611bd96131ac565b611be3600061388a565b565b611bed6131ac565b600880546001600160a01b0319166001600160a01b0392909216919091179055565b6040805180820190915260008082526020820152831580611c3357506224ea008410155b611c7f5760405162461bcd60e51b815260206004820152601060248201527f496e76616c6964206475726174696f6e00000000000000000000000000000000604482015260640161097b565b84516020860120600154604051636b727d4360e11b8152600481018390526001600160a01b0391821691638361401d9189917f0000000000000000000000000000000000000000000000000000000000000000169063d6e4fa8690602401602060405180830381865afa158015611cfa573d6000803e3d6000fd5b505050506040513d601f19601f82011682018060405250810190611d1e91906148c0565b8888886040518663ffffffff1660e01b8152600401611d41959493929190614ae2565b6040805180830381865afa158015611d5d573d6000803e3d6000fd5b505050506040513d601f19601f82011682018060405250810190611d819190614ab0565b9695505050505050565b611d936131ac565b600180546001600160a01b0319166001600160a01b0392909216919091179055565b6001600160a01b0383811660009081526007602052604090206001015416611e1f5760405162461bcd60e51b815260206004820152601060248201527f556e616363657074656420546f6b656e00000000000000000000000000000000604482015260640161097b565b611e3784600001518560400151866020015185613206565b6001600160a01b0383166000908152600760205260408082208151808301909252805482908290611e6790614815565b80601f0160208091040260200160405190810160405280929190818152602001828054611e9390614815565b8015611ee05780601f10611eb557610100808354040283529160200191611ee0565b820191906000526020600020905b815481529060010190602001808311611ec357829003601f168201915b5050509183525050600191909101546001600160a01b031660209091015290508215611f1257640757b12c0060408601525b611f5085600001518660400151610b4d886000015189602001518a604001518b606001518c608001518d60a001518e60c001518f60e001518e6123f1565b6000611f6a86600001518760400151846000015187611c0f565b60208101518151919250611f7d91614865565b6040516370a0823160e01b81523360048201526001600160a01b038716906370a0823190602401602060405180830381865afa158015611fc1573d6000803e3d6000fd5b505050506040513d601f19601f82011682018060405250810190611fe591906148c0565b10156120045760405163044044a560e21b815260040160405180910390fd5b8551602087015160408089015160808a015160e08b01519251635200a4c160e11b81526000956001600160a01b037f0000000000000000000000000000000000000000000000000000000000000000169563a40149829561206b9592949193600401614878565b6020604051808303816000875af115801561208a573d6000803e3d6000fd5b505050506040513d601f19601f820116820180604052508101906120ae91906148c0565b90506120d287600001518860a0015189602001518a608001518b60c00151866138da565b6120dc8683613a15565b86602001516001600160a01b03168760000151805190602001207f69e37f151eb98a09618ddaa80c8cfaf1ce5996867c489f45b555b412271ebf278960000151856000015186602001518660405161213794939291906148f6565b60405180910390a3600254845160208601206040516376d7cfb760e11b815260048101919091526000916001600160a01b03169063edaf9f6e90602401602060405180830381865afa158015612191573d6000803e3d6000fd5b505050506040513d601f19601f820116820180604052508101906121b59190614a01565b60025460405163c08d52af60e01b81526001600160a01b0380841660048301529293506000929091169063c08d52af90602401602060405180830381865afa158015612205573d6000803e3d6000fd5b505050506040513d601f19601f8201168201806040525081019061222991906148c0565b604080516020808201909252600090528751908801209091507fc5d2460186f7233c927e7db2dcc703c0e500b653ca82273b7bfad8045d85a47014611962576019600582106122765750601e5b600254602086015186516122c1926001600160a01b031691606491859161229c91614865565b6122a69190614a46565b6122b09190614a5d565b6001600160a01b038c169190613812565b6002548a516020808d01519088015188516001600160a01b039094169363ff8f3947938c93909290916122f49190614865565b8e6040518663ffffffff1660e01b8152600401612315959493929190614b28565b600060405180830381600087803b15801561232f57600080fd5b505af1158015612343573d6000803e3d6000fd5b5050505050505050505050505050565b61235b6131ac565b6001600160a01b0381166000908152600760205260409020825183919081906123849082614bbe565b5060209190910151600190910180546001600160a01b0319166001600160a01b039092169190911790555050565b600060026123bf83613a44565b101592915050565b6123cf6131ac565b600280546001600160a01b0319166001600160a01b0392909216919091179055565b885160208a01208451600091901580159061241357506001600160a01b038716155b1561244a576040517fd3f605c400000000000000000000000000000000000000000000000000000000815260040160405180910390fd5b808a8a8a8a8a8a8a8a60405160200161246b99989796959493929190614cd3565b604051602081830303815290604052805190602001209150509998505050505050505050565b81156124a057640757b12c0097505b6005546001600160a01b031633146124fa5760405162461bcd60e51b815260206004820152600b60248201527f4e6f74204261636b656e64000000000000000000000000000000000000000000604482015260640161097b565b6125068a898b85613206565b60006125138b8a85611a58565b905061252b8b8a610b4d8e8e8e8e8e8e8e8e8e6123f1565b604051635200a4c160e11b81526000906001600160a01b037f0000000000000000000000000000000000000000000000000000000000000000169063a401498290612582908f908f908f908e908c90600401614878565b6020604051808303816000875af11580156125a1573d6000803e3d6000fd5b505050506040513d601f19601f820116820180604052508101906125c591906148c0565b8751909150156125e1576125e1888d80519060200120896134a4565b85156126fa576125f28c898d613584565b6000600260009054906101000a90046001600160a01b03166001600160a01b03166314723fae8e8e6040518363ffffffff1660e01b8152600401612637929190613fbd565b6020604051808303816000875af1158015612656573d6000803e3d6000fd5b505050506040513d601f19601f8201168201806040525081019061267a91906148d9565b905080156126f8576002548d5160208f0120604051631f8e227160e01b815260048101919091526001600160a01b038e811660248301526044820185905290911690631f8e227190606401600060405180830381600087803b1580156126df57600080fd5b505af11580156126f3573d6000803e3d6000fd5b505050505b505b8a6001600160a01b03168c805190602001207f69e37f151eb98a09618ddaa80c8cfaf1ce5996867c489f45b555b412271ebf278e856000015186602001518660405161274994939291906148f6565b60405180910390a36103e860095411156128a357600254835160208501206040516376d7cfb760e11b815260048101919091526000916001600160a01b03169063edaf9f6e90602401602060405180830381865afa1580156127af573d6000803e3d6000fd5b505050506040513d601f19601f820116820180604052508101906127d39190614a01565b604080516020808201909252600090528551908601209091507fc5d2460186f7233c927e7db2dcc703c0e500b653ca82273b7bfad8045d85a470146128a157600260009054906101000a90046001600160a01b03166001600160a01b031663898c6495858f8f8760200151886000015161284d9190614865565b866040518663ffffffff1660e01b815260040161286e959493929190614b28565b600060405180830381600087803b15801561288857600080fd5b505af115801561289c573d6000803e3d6000fd5b505050505b505b602082015182516064916128b691614865565b6128c1906023614a46565b6128cb9190614a5d565b600660008282546128dc9190614865565b925050819055506001600960008282546128f69190614865565b9091555050505050505050505050505050565b8051602082012060009061291c836123b2565b80156129c557506040517f96e494e8000000000000000000000000000000000000000000000000000000008152600481018290527f00000000000000000000000000000000000000000000000000000000000000006001600160a01b0316906396e494e890602401602060405180830381865afa1580156129a1573d6000803e3d6000fd5b505050506040513d601f19601f820116820180604052508101906129c591906148d9565b9392505050565b6129d46131ac565b600580546001600160a01b0319166001600160a01b0392909216919091179055565b6000818152600460205260409020544290612a32907f000000000000000000000000000000000000000000000000000000000000000090614865565b10612a6c576040517f0a059d710000000000000000000000000000000000000000000000000000000081526004810182905260240161097b565b6000908152600460205260409020429055565b612a876131ac565b6001600160a01b038116612b035760405162461bcd60e51b815260206004820152602660248201527f4f776e61626c653a206e6577206f776e657220697320746865207a65726f206160448201527f6464726573730000000000000000000000000000000000000000000000000000606482015260840161097b565b61139d8161388a565b8015612b1b57640757b12c0092505b6001600160a01b0382811660009081526007602052604090206001015416612b855760405162461bcd60e51b815260206004820152601060248201527f556e616363657074656420546f6b656e00000000000000000000000000000000604482015260640161097b565b6001600160a01b0382166000908152600760205260408082208151808301909252805482908290612bb590614815565b80601f0160208091040260200160405190810160405280929190818152602001828054612be190614815565b8015612c2e5780601f10612c0357610100808354040283529160200191612c2e565b820191906000526020600020905b815481529060010190602001808311612c1157829003601f168201915b5050509183525050600191909101546001600160a01b0316602090910152604051909150600090612c629088908890614938565b604051908190038120600254630338bc9760e41b83526004830182905290925082916000916001600160a01b03169063338bc97090602401600060405180830381865afa158015612cb7573d6000803e3d6000fd5b505050506040513d6000823e601f3d908101601f19168201604052612cdf9190810190614978565b90506000612d278a8a8080601f0160208091040260200160405190810160405280939291908181526020018383808284376000920191909152505088518c9250905089611c0f565b60208101518151919250612d3a91614865565b6040516370a0823160e01b81523360048201526001600160a01b038916906370a0823190602401602060405180830381865afa158015612d7e573d6000803e3d6000fd5b505050506040513d601f19601f82011682018060405250810190612da291906148c0565b1015612dc15760405163044044a560e21b815260040160405180910390fd5b612dec333083602001518460000151612dda9190614865565b6001600160a01b038b16929190613bd3565b60405163c475abff60e01b815260048101849052602481018990526000907f00000000000000000000000000000000000000000000000000000000000000006001600160a01b03169063c475abff906044016020604051808303816000875af1158015612e5d573d6000803e3d6000fd5b505050506040513d601f19601f82011682018060405250810190612e8191906148c0565b6002546040519192506001600160a01b031690638b07795b90612ea7908e908e90614938565b60405190819003812060e083901b6001600160e01b0319168252600482015260248101849052604401600060405180830381600087803b158015612eea57600080fd5b505af1158015612efe573d6000803e3d6000fd5b50505050847f3da24c024582931cfaf8267d8ed24d13a82a8068d5bd337d30ec45cea4e506ae8c8c85602001518660000151612f3a9190614865565b85604051612f4b94939291906149c1565b60405180910390a2600254835160208501206040516376d7cfb760e11b815260048101919091526000916001600160a01b03169063edaf9f6e90602401602060405180830381865afa158015612fa5573d6000803e3d6000fd5b505050506040513d601f19601f82011682018060405250810190612fc99190614a01565b6001600160a01b03161461319f57600254835160208501206040516376d7cfb760e11b815260048101919091526000916001600160a01b03169063edaf9f6e90602401602060405180830381865afa158015613029573d6000803e3d6000fd5b505050506040513d601f19601f8201168201806040525081019061304d9190614a01565b60025460405163c08d52af60e01b81526001600160a01b0380841660048301529293506000929091169063c08d52af90602401602060405180830381865afa15801561309d573d6000803e3d6000fd5b505050506040513d601f19601f820116820180604052508101906130c191906148c0565b90506019600582106130d15750601e5b600254602086015186516131229230926001600160a01b039091169160649186916130fc9190614865565b6131069190614a46565b6131109190614a5d565b6001600160a01b038f16929190613bd3565b600254602086015186516001600160a01b039092169163d184befa9161314791614865565b858e8a6040518563ffffffff1660e01b81526004016131699493929190614d3b565b600060405180830381600087803b15801561318357600080fd5b505af1158015613197573d6000803e3d6000fd5b505050505050505b5050505050505050505050565b6000546001600160a01b03163314611be35760405162461bcd60e51b815260206004820181905260248201527f4f776e61626c653a2063616c6c6572206973206e6f7420746865206f776e6572604482015260640161097b565b600061321185613a44565b60020361322057506064613254565b61322985613a44565b60030361323857506032613254565b61324185613a44565b60040361325057506014613254565b50600a5b600854600160a01b900460ff1615613310576000826132805761327b6301e1338086614a5d565b613283565b60035b61328d9083614a46565b6008546040517f2af074240000000000000000000000000000000000000000000000000000000081526001600160a01b03878116600483015260248201849052929350911690632af0742490604401600060405180830381600087803b1580156132f657600080fd5b505af115801561330a573d6000803e3d6000fd5b50505050505b5050505050565b6000818152600460205260409020544290613353907f000000000000000000000000000000000000000000000000000000000000000090614865565b111561338e576040517f5320bcf90000000000000000000000000000000000000000000000000000000081526004810182905260240161097b565b60008181526004602052604090205442906133ca907f000000000000000000000000000000000000000000000000000000000000000090614865565b11613404576040517fcb7690d70000000000000000000000000000000000000000000000000000000081526004810182905260240161097b565b61340d83612909565b61344557826040517f477707e800000000000000000000000000000000000000000000000000000000815260040161097b9190614d6d565b600081815260046020526040812055811580159061346557506224ea0082105b1561349f576040517f9a71997b0000000000000000000000000000000000000000000000000000000081526004810183905260240161097b565b505050565b604080517ff92e9539a836c60f519caef3f817b823139813f56a7a19c9621f7b47f35b340d602080830191909152818301859052825180830384018152606083019384905280519101207fe32954eb0000000000000000000000000000000000000000000000000000000090925284906001600160a01b0382169063e32954eb906135359085908790606401614d80565b6000604051808303816000875af1158015613554573d6000803e3d6000fd5b505050506040513d6000823e601f3d908101601f1916820160405261357c9190810190614d99565b505050505050565b7f00000000000000000000000000000000000000000000000000000000000000006001600160a01b0316637a806d6b338385876040516020016135c79190614e5f565b6040516020818303038152906040526040518563ffffffff1660e01b81526004016135f59493929190614ea0565b6020604051808303816000875af1158015613614573d6000803e3d6000fd5b505050506040513d601f19601f82011682018060405250810190611a1291906148c0565b600254835160208501206040516376d7cfb760e11b815260048101919091526000916001600160a01b03169063edaf9f6e90602401602060405180830381865afa15801561368a573d6000803e3d6000fd5b505050506040513d601f19601f820116820180604052508101906136ae9190614a01565b604080516020808201909252600090528551908601209091507fc5d2460186f7233c927e7db2dcc703c0e500b653ca82273b7bfad8045d85a470146133105760025460405163c08d52af60e01b81526001600160a01b03838116600483015260199260009291169063c08d52af90602401602060405180830381865afa15801561373c573d6000803e3d6000fd5b505050506040513d601f19601f8201168201806040525081019061376091906148c0565b90506005811061376f57601e91505b600254602088015188516001600160a01b0390921691637d31266a91606491869161379991614865565b6137a39190614a46565b6137ad9190614a5d565b8888888c602001518d600001516137c49190614865565b896040518763ffffffff1660e01b81526004016137e5959493929190614b28565b6000604051808303818588803b1580156137fe57600080fd5b505af1158015610e50573d6000803e3d6000fd5b6040516001600160a01b03831660248201526044810182905261349f90849063a9059cbb60e01b906064015b60408051601f198184030181529190526020810180517bffffffffffffffffffffffffffffffffffffffffffffffffffffffff166001600160e01b031990931692909217909152613c24565b600080546001600160a01b038381166001600160a01b0319831681178455604051919092169283917f8be0079c531659141344cd1fd0a4f28419497f9722a3daafe3b4186f6b6457e09190a35050565b8451156138f3576138f3838780519060200120876134a4565b811561357c57613904868433613584565b6002546040517f14723fae0000000000000000000000000000000000000000000000000000000081526000916001600160a01b0316906314723fae90613950908a908990600401613fbd565b6020604051808303816000875af115801561396f573d6000803e3d6000fd5b505050506040513d601f19601f8201168201806040525081019061399391906148d9565b90508015613a0c5760025487516020890120604051631f8e227160e01b815260048101919091526001600160a01b0387811660248301526044820185905290911690631f8e227190606401600060405180830381600087803b1580156139f857600080fd5b505af115801561319f573d6000803e3d6000fd5b50505050505050565b613a40333083602001518460000151613a2e9190614865565b6001600160a01b038616929190613bd3565b5050565b8051600090819081905b80821015613bca576000858381518110613a6a57613a6a614ed4565b01602001516001600160f81b03191690507f8000000000000000000000000000000000000000000000000000000000000000811015613ab557613aae600184614865565b9250613bb7565b7fe0000000000000000000000000000000000000000000000000000000000000006001600160f81b031982161015613af257613aae600284614865565b7ff0000000000000000000000000000000000000000000000000000000000000006001600160f81b031982161015613b2f57613aae600384614865565b7ff8000000000000000000000000000000000000000000000000000000000000006001600160f81b031982161015613b6c57613aae600484614865565b7ffc000000000000000000000000000000000000000000000000000000000000006001600160f81b031982161015613ba957613aae600584614865565b613bb4600684614865565b92505b5082613bc281614eea565b935050613a4e565b50909392505050565b6040516001600160a01b0380851660248301528316604482015260648101829052611a129085907f23b872dd000000000000000000000000000000000000000000000000000000009060840161383e565b6000613c79826040518060400160405280602081526020017f5361666545524332303a206c6f772d6c6576656c2063616c6c206661696c6564815250856001600160a01b0316613d0c9092919063ffffffff16565b9050805160001480613c9a575080806020019051810190613c9a91906148d9565b61349f5760405162461bcd60e51b815260206004820152602a60248201527f5361666545524332303a204552433230206f7065726174696f6e20646964206e60448201527f6f74207375636365656400000000000000000000000000000000000000000000606482015260840161097b565b6060613d1b8484600085613d23565b949350505050565b606082471015613d9b5760405162461bcd60e51b815260206004820152602660248201527f416464726573733a20696e73756666696369656e742062616c616e636520666f60448201527f722063616c6c0000000000000000000000000000000000000000000000000000606482015260840161097b565b600080866001600160a01b03168587604051613db79190614f03565b60006040518083038185875af1925050503d8060008114613df4576040519150601f19603f3d011682016040523d82523d6000602084013e613df9565b606091505b5091509150613e0a87838387613e15565b979650505050505050565b60608315613e84578251600003613e7d576001600160a01b0385163b613e7d5760405162461bcd60e51b815260206004820152601d60248201527f416464726573733a2063616c6c20746f206e6f6e2d636f6e7472616374000000604482015260640161097b565b5081613d1b565b613d1b8383815115613e995781518083602001fd5b8060405162461bcd60e51b815260040161097b9190614d6d565b508054613ebf90614815565b6000825580601f10613ecf575050565b601f01602090049060005260206000209081019061139d91905b80821115613efd5760008155600101613ee9565b5090565b600060208284031215613f1357600080fd5b81356001600160e01b0319811681146129c557600080fd5b6001600160a01b038116811461139d57600080fd5b8035613f4b81613f2b565b919050565b600060208284031215613f6257600080fd5b81356129c581613f2b565b60005b83811015613f88578181015183820152602001613f70565b50506000910152565b60008151808452613fa9816020860160208601613f6d565b601f01601f19169290920160200192915050565b604081526000613fd06040830185613f91565b90506001600160a01b03831660208301529392505050565b634e487b7160e01b600052604160045260246000fd5b604051610100810167ffffffffffffffff8111828210171561402257614022613fe8565b60405290565b6040805190810167ffffffffffffffff8111828210171561402257614022613fe8565b604051601f8201601f1916810167ffffffffffffffff8111828210171561407457614074613fe8565b604052919050565b600067ffffffffffffffff82111561409657614096613fe8565b50601f01601f191660200190565b60006140b76140b28461407c565b61404b565b90508281528383830111156140cb57600080fd5b828260208301376000602084830101529392505050565b600082601f8301126140f357600080fd5b6129c5838335602085016140a4565b600067ffffffffffffffff82111561411c5761411c613fe8565b5060051b60200190565b600082601f83011261413757600080fd5b813560206141476140b283614102565b82815260059290921b8401810191818101908684111561416657600080fd5b8286015b848110156141bb57803567ffffffffffffffff81111561418a5760008081fd5b8701603f8101891361419c5760008081fd5b6141ad8986830135604084016140a4565b84525091830191830161416a565b509695505050505050565b801515811461139d57600080fd5b8035613f4b816141c6565b803561ffff81168114613f4b57600080fd5b6000806000806000806000806000806101408b8d03121561421157600080fd5b8a3567ffffffffffffffff8082111561422957600080fd5b6142358e838f016140e2565b9b5061424360208e01613f40565b9a5060408d0135995060608d0135985061425f60808e01613f40565b975060a08d013591508082111561427557600080fd5b6142818e838f01614126565b965061428f60c08e016141d4565b955061429d60e08e016141df565b94506142ac6101008e016141d4565b93506101208d01359150808211156142c357600080fd5b506142d08d828e016140e2565b9150509295989b9194979a5092959850565b6000602082840312156142f457600080fd5b81356129c5816141c6565b60008083601f84011261431157600080fd5b50813567ffffffffffffffff81111561432957600080fd5b60208301915083602082850101111561434157600080fd5b9250929050565b6000806000806060858703121561435e57600080fd5b843567ffffffffffffffff81111561437557600080fd5b614381878288016142ff565b90955093505060208501359150604085013561439c816141c6565b939692955090935050565b6000806000606084860312156143bc57600080fd5b83356143c781613f2b565b925060208401356143d781613f2b565b929592945050506040919091013590565b6000806000606084860312156143fd57600080fd5b833567ffffffffffffffff81111561441457600080fd5b614420868287016140e2565b935050602084013591506040840135614438816141c6565b809150509250925092565b6000806000806080858703121561445957600080fd5b843567ffffffffffffffff8082111561447157600080fd5b61447d888389016140e2565b955060208701359450604087013591508082111561449a57600080fd5b506144a7878288016140e2565b925050606085013561439c816141c6565b600080600080608085870312156144ce57600080fd5b843567ffffffffffffffff808211156144e657600080fd5b9086019061010082890312156144fb57600080fd5b614503613ffe565b82358281111561451257600080fd5b61451e8a8286016140e2565b82525061452d60208401613f40565b6020820152604083013560408201526060830135606082015261455260808401613f40565b608082015260a08301358281111561456957600080fd5b6145758a828601614126565b60a08301525061458760c084016141d4565b60c082015261459860e084016141df565b60e082015295506145ab60208801613f40565b94506145b9604088016141d4565b935060608701359150808211156145cf57600080fd5b506145dc878288016140e2565b91505092959194509250565b600080604083850312156145fb57600080fd5b823567ffffffffffffffff8082111561461357600080fd5b908401906040828703121561462757600080fd5b61462f614028565b82358281111561463e57600080fd5b61464a888286016140e2565b8252506020830135925061465d83613f2b565b60208181019390935293505083013561467581613f2b565b809150509250929050565b60006020828403121561469257600080fd5b5035919050565b6000602082840312156146ab57600080fd5b813567ffffffffffffffff8111156146c257600080fd5b613d1b848285016140e2565b60008060008060008060008060006101208a8c0312156146ed57600080fd5b893567ffffffffffffffff8082111561470557600080fd5b6147118d838e016140e2565b9a5060208c0135915061472382613f2b565b90985060408b0135975060608b0135965060808b01359061474382613f2b565b90955060a08b0135908082111561475957600080fd5b506147668c828d01614126565b94505061477560c08b016141d4565b925061478360e08b016141df565b91506147926101008b016141d4565b90509295985092959850929598565b6000806000806000608086880312156147b957600080fd5b853567ffffffffffffffff8111156147d057600080fd5b6147dc888289016142ff565b9096509450506020860135925060408601356147f781613f2b565b91506060860135614807816141c6565b809150509295509295909350565b600181811c9082168061482957607f821691505b60208210810361484957634e487b7160e01b600052602260045260246000fd5b50919050565b634e487b7160e01b600052601160045260246000fd5b808201808211156109215761092161484f565b60a08152600061488b60a0830188613f91565b90506001600160a01b03808716602084015285604084015280851660608401525061ffff831660808301529695505050505050565b6000602082840312156148d257600080fd5b5051919050565b6000602082840312156148eb57600080fd5b81516129c5816141c6565b6080815260006149096080830187613f91565b6020830195909552506040810192909252606090910152919050565b818103818111156109215761092161484f565b8183823760009101908152919050565b60006149566140b28461407c565b905082815283838301111561496a57600080fd5b6129c5836020830184613f6d565b60006020828403121561498a57600080fd5b815167ffffffffffffffff8111156149a157600080fd5b8201601f810184136149b257600080fd5b613d1b84825160208401614948565b606081528360608201528385608083013760006080858301015260006080601f19601f870116830101905083602083015282604083015295945050505050565b600060208284031215614a1357600080fd5b81516129c581613f2b565b8381526001600160a01b0383166020820152606060408201526000611bc86060830184613f91565b80820281158282048414176109215761092161484f565b600082614a7a57634e487b7160e01b600052601260045260246000fd5b500490565b608081526000614a926080830187613f91565b60208301959095525060408101929092521515606090910152919050565b600060408284031215614ac257600080fd5b614aca614028565b82518152602083015160208201528091505092915050565b60a081526000614af560a0830188613f91565b8660208401528560408401528281036060840152614b138186613f91565b91505082151560808301529695505050505050565b60a081526000614b3b60a0830188613f91565b8281036020840152614b4d8188613f91565b6001600160a01b03968716604085015260608401959095525050921660809092019190915292915050565b601f82111561349f57600081815260208120601f850160051c81016020861015614b9f5750805b601f850160051c820191505b8181101561357c57828155600101614bab565b815167ffffffffffffffff811115614bd857614bd8613fe8565b614bec81614be68454614815565b84614b78565b602080601f831160018114614c215760008415614c095750858301515b600019600386901b1c1916600185901b17855561357c565b600085815260208120601f198616915b82811015614c5057888601518255948401946001909101908401614c31565b5085821015614c6e5787850151600019600388901b60f8161c191681555b5050505050600190811b01905550565b600081518084526020808501808196508360051b8101915082860160005b85811015614cc6578284038952614cb4848351613f91565b98850198935090840190600101614c9c565b5091979650505050505050565b60006101208b83526001600160a01b03808c1660208501528a60408501528960608501528089166080850152508060a0840152614d1281840188614c7e565b95151560c0840152505061ffff9290921660e08301521515610100909101529695505050505050565b84815260006001600160a01b03808616602084015280851660408401525060806060830152611d816080830184613f91565b6020815260006129c56020830184613f91565b828152604060208201526000613d1b6040830184614c7e565b60006020808385031215614dac57600080fd5b825167ffffffffffffffff80821115614dc457600080fd5b818501915085601f830112614dd857600080fd5b8151614de66140b282614102565b81815260059190911b83018401908481019088831115614e0557600080fd5b8585015b83811015614e5257805185811115614e215760008081fd5b8601603f81018b13614e335760008081fd5b614e448b8983015160408401614948565b845250918601918601614e09565b5098975050505050505050565b60008251614e71818460208701613f6d565b7f2e73616675000000000000000000000000000000000000000000000000000000920191825250600501919050565b60006001600160a01b038087168352808616602084015280851660408401525060806060830152611d816080830184613f91565b634e487b7160e01b600052603260045260246000fd5b600060018201614efc57614efc61484f565b5060010190565b60008251614f15818460208701613f6d565b919091019291505056fea2646970667358221220143073d35af25716261b0a83062383a81a1baa6ab2f8c782198fc83abb7ae3cf64736f6c63430008110033"
}