{
  "address": "0x7eD4Fae5bE2a08E3F16A62567327DA16e59fd0c3",
  "abi": [
    {
      "inputs": [
        {
          "internalType": "contract BaseRegistrarImplementation",
          "name": "_base",
          "type": "address"
        },
        {
          "internalType": "contract TokenPriceOracle",
          "name": "_prices",
          "type": "address"
        },
        {
          "internalType": "uint256",
          "name": "_minCommitmentAge",
          "type": "uint256"
        },
        {
          "internalType": "uint256",
          "name": "_maxCommitmentAge",
          "type": "uint256"
        },
        {
          "internalType": "contract ReverseRegistrar",
          "name": "_reverseRegistrar",
          "type": "address"
        },
        {
          "internalType": "contract INameWrapper",
          "name": "_nameWrapper",
          "type": "address"
        },
        {
          "internalType": "contract ENS",
          "name": "_ens",
          "type": "address"
        },
        {
          "internalType": "contract ReferralController",
          "name": "_referralController",
          "type": "address"
        }
      ],
      "stateMutability": "nonpayable",
      "type": "constructor"
    },
    {
      "inputs": [
        {
          "internalType": "bytes32",
          "name": "commitment",
          "type": "bytes32"
        }
      ],
      "name": "CommitmentTooNew",
      "type": "error"
    },
    {
      "inputs": [
        {
          "internalType": "bytes32",
          "name": "commitment",
          "type": "bytes32"
        }
      ],
      "name": "CommitmentTooOld",
      "type": "error"
    },
    {
      "inputs": [
        {
          "internalType": "uint256",
          "name": "duration",
          "type": "uint256"
        }
      ],
      "name": "DurationTooShort",
      "type": "error"
    },
    {
      "inputs": [],
      "name": "InsufficientValue",
      "type": "error"
    },
    {
      "inputs": [],
      "name": "MaxCommitmentAgeTooHigh",
      "type": "error"
    },
    {
      "inputs": [],
      "name": "MaxCommitmentAgeTooLow",
      "type": "error"
    },
    {
      "inputs": [
        {
          "internalType": "string",
          "name": "name",
          "type": "string"
        }
      ],
      "name": "NameNotAvailable",
      "type": "error"
    },
    {
      "inputs": [],
      "name": "ResolverRequiredWhenDataSupplied",
      "type": "error"
    },
    {
      "inputs": [
        {
          "internalType": "bytes32",
          "name": "commitment",
          "type": "bytes32"
        }
      ],
      "name": "UnexpiredCommitmentExists",
      "type": "error"
    },
    {
      "anonymous": false,
      "inputs": [
        {
          "indexed": false,
          "internalType": "string",
          "name": "name",
          "type": "string"
        },
        {
          "indexed": true,
          "internalType": "bytes32",
          "name": "label",
          "type": "bytes32"
        },
        {
          "indexed": true,
          "internalType": "address",
          "name": "owner",
          "type": "address"
        },
        {
          "indexed": false,
          "internalType": "uint256",
          "name": "baseCost",
          "type": "uint256"
        },
        {
          "indexed": false,
          "internalType": "uint256",
          "name": "premium",
          "type": "uint256"
        },
        {
          "indexed": false,
          "internalType": "uint256",
          "name": "expires",
          "type": "uint256"
        }
      ],
      "name": "NameRegistered",
      "type": "event"
    },
    {
      "anonymous": false,
      "inputs": [
        {
          "indexed": false,
          "internalType": "string",
          "name": "name",
          "type": "string"
        },
        {
          "indexed": true,
          "internalType": "bytes32",
          "name": "label",
          "type": "bytes32"
        },
        {
          "indexed": false,
          "internalType": "uint256",
          "name": "cost",
          "type": "uint256"
        },
        {
          "indexed": false,
          "internalType": "uint256",
          "name": "expires",
          "type": "uint256"
        }
      ],
      "name": "NameRenewed",
      "type": "event"
    },
    {
      "anonymous": false,
      "inputs": [
        {
          "indexed": true,
          "internalType": "address",
          "name": "previousOwner",
          "type": "address"
        },
        {
          "indexed": true,
          "internalType": "address",
          "name": "newOwner",
          "type": "address"
        }
      ],
      "name": "OwnershipTransferred",
      "type": "event"
    },
    {
      "inputs": [],
      "name": "MIN_REGISTRATION_DURATION",
      "outputs": [
        {
          "internalType": "uint256",
          "name": "",
          "type": "uint256"
        }
      ],
      "stateMutability": "view",
      "type": "function"
    },
    {
      "inputs": [
        {
          "internalType": "string",
          "name": "name",
          "type": "string"
        }
      ],
      "name": "available",
      "outputs": [
        {
          "internalType": "bool",
          "name": "",
          "type": "bool"
        }
      ],
      "stateMutability": "view",
      "type": "function"
    },
    {
      "inputs": [],
      "name": "backendWallet",
      "outputs": [
        {
          "internalType": "address",
          "name": "",
          "type": "address"
        }
      ],
      "stateMutability": "view",
      "type": "function"
    },
    {
      "inputs": [
        {
          "internalType": "bytes32",
          "name": "commitment",
          "type": "bytes32"
        }
      ],
      "name": "commit",
      "outputs": [],
      "stateMutability": "nonpayable",
      "type": "function"
    },
    {
      "inputs": [
        {
          "internalType": "bytes32",
          "name": "",
          "type": "bytes32"
        }
      ],
      "name": "commitments",
      "outputs": [
        {
          "internalType": "uint256",
          "name": "",
          "type": "uint256"
        }
      ],
      "stateMutability": "view",
      "type": "function"
    },
    {
      "inputs": [],
      "name": "infoFi",
      "outputs": [
        {
          "internalType": "address",
          "name": "",
          "type": "address"
        }
      ],
      "stateMutability": "view",
      "type": "function"
    },
    {
      "inputs": [
        {
          "internalType": "string",
          "name": "name",
          "type": "string"
        },
        {
          "internalType": "address",
          "name": "owner",
          "type": "address"
        },
        {
          "internalType": "uint256",
          "name": "duration",
          "type": "uint256"
        },
        {
          "internalType": "bytes32",
          "name": "secret",
          "type": "bytes32"
        },
        {
          "internalType": "address",
          "name": "resolver",
          "type": "address"
        },
        {
          "internalType": "bytes[]",
          "name": "data",
          "type": "bytes[]"
        },
        {
          "internalType": "bool",
          "name": "reverseRecord",
          "type": "bool"
        },
        {
          "internalType": "uint16",
          "name": "ownerControlledFuses",
          "type": "uint16"
        },
        {
          "internalType": "bool",
          "name": "lifetime",
          "type": "bool"
        }
      ],
      "name": "makeCommitment",
      "outputs": [
        {
          "internalType": "bytes32",
          "name": "",
          "type": "bytes32"
        }
      ],
      "stateMutability": "pure",
      "type": "function"
    },
    {
      "inputs": [],
      "name": "maxCommitmentAge",
      "outputs": [
        {
          "internalType": "uint256",
          "name": "",
          "type": "uint256"
        }
      ],
      "stateMutability": "view",
      "type": "function"
    },
    {
      "inputs": [],
      "name": "minCommitmentAge",
      "outputs": [
        {
          "internalType": "uint256",
          "name": "",
          "type": "uint256"
        }
      ],
      "stateMutability": "view",
      "type": "function"
    },
    {
      "inputs": [],
      "name": "nameWrapper",
      "outputs": [
        {
          "internalType": "contract INameWrapper",
          "name": "",
          "type": "address"
        }
      ],
      "stateMutability": "view",
      "type": "function"
    },
    {
      "inputs": [],
      "name": "owner",
      "outputs": [
        {
          "internalType": "address",
          "name": "",
          "type": "address"
        }
      ],
      "stateMutability": "view",
      "type": "function"
    },
    {
      "inputs": [],
      "name": "prices",
      "outputs": [
        {
          "internalType": "contract TokenPriceOracle",
          "name": "",
          "type": "address"
        }
      ],
      "stateMutability": "view",
      "type": "function"
    },
    {
      "inputs": [
        {
          "internalType": "address",
          "name": "_token",
          "type": "address"
        },
        {
          "internalType": "address",
          "name": "_to",
          "type": "address"
        },
        {
          "internalType": "uint256",
          "name": "_amount",
          "type": "uint256"
        }
      ],
      "name": "recoverFunds",
      "outputs": [],
      "stateMutability": "nonpayable",
      "type": "function"
    },
    {
      "inputs": [],
      "name": "referralController",
      "outputs": [
        {
          "internalType": "contract ReferralController",
          "name": "",
          "type": "address"
        }
      ],
      "stateMutability": "view",
      "type": "function"
    },
    {
      "inputs": [
        {
          "internalType": "string",
          "name": "name",
          "type": "string"
        },
        {
          "internalType": "address",
          "name": "owner",
          "type": "address"
        },
        {
          "internalType": "uint256",
          "name": "duration",
          "type": "uint256"
        },
        {
          "internalType": "bytes32",
          "name": "secret",
          "type": "bytes32"
        },
        {
          "internalType": "address",
          "name": "resolver",
          "type": "address"
        },
        {
          "internalType": "bytes[]",
          "name": "data",
          "type": "bytes[]"
        },
        {
          "internalType": "bool",
          "name": "reverseRecord",
          "type": "bool"
        },
        {
          "internalType": "uint16",
          "name": "ownerControlledFuses",
          "type": "uint16"
        },
        {
          "internalType": "bool",
          "name": "lifetime",
          "type": "bool"
        },
        {
          "internalType": "string",
          "name": "referree",
          "type": "string"
        }
      ],
      "name": "register",
      "outputs": [],
      "stateMutability": "payable",
      "type": "function"
    },
    {
      "inputs": [
        {
          "internalType": "string",
          "name": "name",
          "type": "string"
        },
        {
          "internalType": "address",
          "name": "owner",
          "type": "address"
        },
        {
          "internalType": "uint256",
          "name": "duration",
          "type": "uint256"
        },
        {
          "internalType": "bytes32",
          "name": "secret",
          "type": "bytes32"
        },
        {
          "internalType": "address",
          "name": "resolver",
          "type": "address"
        },
        {
          "internalType": "bytes[]",
          "name": "data",
          "type": "bytes[]"
        },
        {
          "internalType": "bool",
          "name": "reverseRecord",
          "type": "bool"
        },
        {
          "internalType": "uint16",
          "name": "ownerControlledFuses",
          "type": "uint16"
        },
        {
          "internalType": "bool",
          "name": "lifetime",
          "type": "bool"
        },
        {
          "internalType": "string",
          "name": "referree",
          "type": "string"
        }
      ],
      "name": "registerWithCard",
      "outputs": [],
      "stateMutability": "nonpayable",
      "type": "function"
    },
    {
      "inputs": [
        {
          "components": [
            {
              "internalType": "string",
              "name": "name",
              "type": "string"
            },
            {
              "internalType": "address",
              "name": "owner",
              "type": "address"
            },
            {
              "internalType": "uint256",
              "name": "duration",
              "type": "uint256"
            },
            {
              "internalType": "bytes32",
              "name": "secret",
              "type": "bytes32"
            },
            {
              "internalType": "address",
              "name": "resolver",
              "type": "address"
            },
            {
              "internalType": "bytes[]",
              "name": "data",
              "type": "bytes[]"
            },
            {
              "internalType": "bool",
              "name": "reverseRecord",
              "type": "bool"
            },
            {
              "internalType": "uint16",
              "name": "ownerControlledFuses",
              "type": "uint16"
            }
          ],
          "internalType": "struct IETHRegistrarController.RegisterParams",
          "name": "registerParams",
          "type": "tuple"
        },
        {
          "components": [
            {
              "internalType": "string",
              "name": "token",
              "type": "string"
            },
            {
              "internalType": "address",
              "name": "tokenAddress",
              "type": "address"
            }
          ],
          "internalType": "struct IETHRegistrarController.TokenParams",
          "name": "tokenParams",
          "type": "tuple"
        },
        {
          "internalType": "bool",
          "name": "lifetime",
          "type": "bool"
        },
        {
          "internalType": "string",
          "name": "referree",
          "type": "string"
        }
      ],
      "name": "registerWithToken",
      "outputs": [],
      "stateMutability": "nonpayable",
      "type": "function"
    },
    {
      "inputs": [
        {
          "internalType": "address",
          "name": "tokenAddress",
          "type": "address"
        }
      ],
      "name": "removeToken",
      "outputs": [],
      "stateMutability": "nonpayable",
      "type": "function"
    },
    {
      "inputs": [
        {
          "internalType": "string",
          "name": "name",
          "type": "string"
        },
        {
          "internalType": "uint256",
          "name": "duration",
          "type": "uint256"
        },
        {
          "internalType": "bool",
          "name": "lifetime",
          "type": "bool"
        }
      ],
      "name": "renew",
      "outputs": [],
      "stateMutability": "payable",
      "type": "function"
    },
    {
      "inputs": [
        {
          "internalType": "string",
          "name": "name",
          "type": "string"
        },
        {
          "internalType": "uint256",
          "name": "duration",
          "type": "uint256"
        },
        {
          "internalType": "bool",
          "name": "lifetime",
          "type": "bool"
        }
      ],
      "name": "renewCard",
      "outputs": [],
      "stateMutability": "nonpayable",
      "type": "function"
    },
    {
      "inputs": [
        {
          "internalType": "string",
          "name": "name",
          "type": "string"
        },
        {
          "internalType": "uint256",
          "name": "duration",
          "type": "uint256"
        },
        {
          "internalType": "string",
          "name": "token",
          "type": "string"
        },
        {
          "internalType": "address",
          "name": "tokenAddress",
          "type": "address"
        },
        {
          "internalType": "bool",
          "name": "lifetime",
          "type": "bool"
        }
      ],
      "name": "renewTokens",
      "outputs": [],
      "stateMutability": "nonpayable",
      "type": "function"
    },
    {
      "inputs": [],
      "name": "renounceOwnership",
      "outputs": [],
      "stateMutability": "nonpayable",
      "type": "function"
    },
    {
      "inputs": [
        {
          "internalType": "string",
          "name": "name",
          "type": "string"
        },
        {
          "internalType": "uint256",
          "name": "duration",
          "type": "uint256"
        },
        {
          "internalType": "bool",
          "name": "lifetime",
          "type": "bool"
        }
      ],
      "name": "rentPrice",
      "outputs": [
        {
          "components": [
            {
              "internalType": "uint256",
              "name": "base",
              "type": "uint256"
            },
            {
              "internalType": "uint256",
              "name": "premium",
              "type": "uint256"
            }
          ],
          "internalType": "struct IPriceOracle.Price",
          "name": "price",
          "type": "tuple"
        }
      ],
      "stateMutability": "view",
      "type": "function"
    },
    {
      "inputs": [
        {
          "internalType": "string",
          "name": "name",
          "type": "string"
        },
        {
          "internalType": "uint256",
          "name": "duration",
          "type": "uint256"
        },
        {
          "internalType": "string",
          "name": "token",
          "type": "string"
        },
        {
          "internalType": "bool",
          "name": "lifetime",
          "type": "bool"
        }
      ],
      "name": "rentPriceToken",
      "outputs": [
        {
          "components": [
            {
              "internalType": "uint256",
              "name": "base",
              "type": "uint256"
            },
            {
              "internalType": "uint256",
              "name": "premium",
              "type": "uint256"
            }
          ],
          "internalType": "struct IPriceOracle.Price",
          "name": "price",
          "type": "tuple"
        }
      ],
      "stateMutability": "view",
      "type": "function"
    },
    {
      "inputs": [],
      "name": "resetInfoFi",
      "outputs": [],
      "stateMutability": "payable",
      "type": "function"
    },
    {
      "inputs": [],
      "name": "reverseRegistrar",
      "outputs": [
        {
          "internalType": "contract ReverseRegistrar",
          "name": "",
          "type": "address"
        }
      ],
      "stateMutability": "view",
      "type": "function"
    },
    {
      "inputs": [
        {
          "internalType": "address",
          "name": "wallet",
          "type": "address"
        }
      ],
      "name": "setBackend",
      "outputs": [],
      "stateMutability": "nonpayable",
      "type": "function"
    },
    {
      "inputs": [
        {
          "internalType": "address",
          "name": "_infoFi",
          "type": "address"
        }
      ],
      "name": "setInfoFi",
      "outputs": [],
      "stateMutability": "nonpayable",
      "type": "function"
    },
    {
      "inputs": [
        {
          "internalType": "address",
          "name": "oracle",
          "type": "address"
        }
      ],
      "name": "setOracle",
      "outputs": [],
      "stateMutability": "nonpayable",
      "type": "function"
    },
    {
      "inputs": [
        {
          "internalType": "address",
          "name": "referral",
          "type": "address"
        }
      ],
      "name": "setReferral",
      "outputs": [],
      "stateMutability": "nonpayable",
      "type": "function"
    },
    {
      "inputs": [
        {
          "internalType": "address",
          "name": "tokenAddress",
          "type": "address"
        }
      ],
      "name": "setToken",
      "outputs": [],
      "stateMutability": "nonpayable",
      "type": "function"
    },
    {
      "inputs": [
        {
          "internalType": "bytes4",
          "name": "interfaceID",
          "type": "bytes4"
        }
      ],
      "name": "supportsInterface",
      "outputs": [
        {
          "internalType": "bool",
          "name": "",
          "type": "bool"
        }
      ],
      "stateMutability": "pure",
      "type": "function"
    },
    {
      "inputs": [
        {
          "internalType": "address",
          "name": "newOwner",
          "type": "address"
        }
      ],
      "name": "transferOwnership",
      "outputs": [],
      "stateMutability": "nonpayable",
      "type": "function"
    },
    {
      "inputs": [],
      "name": "untrackedInfoFi",
      "outputs": [
        {
          "internalType": "uint256",
          "name": "",
          "type": "uint256"
        }
      ],
      "stateMutability": "view",
      "type": "function"
    },
    {
      "inputs": [
        {
          "internalType": "string",
          "name": "name",
          "type": "string"
        }
      ],
      "name": "valid",
      "outputs": [
        {
          "internalType": "bool",
          "name": "",
          "type": "bool"
        }
      ],
      "stateMutability": "pure",
      "type": "function"
    },
    {
      "inputs": [
        {
          "internalType": "address",
          "name": "",
          "type": "address"
        }
      ],
      "name": "verifiedTokens",
      "outputs": [
        {
          "internalType": "bool",
          "name": "",
          "type": "bool"
        }
      ],
      "stateMutability": "view",
      "type": "function"
    },
    {
      "inputs": [],
      "name": "withdraw",
      "outputs": [],
      "stateMutability": "nonpayable",
      "type": "function"
    },
    {
      "inputs": [
        {
          "internalType": "address",
          "name": "tokenAddress",
          "type": "address"
        }
      ],
      "name": "withdrawTokens",
      "outputs": [],
      "stateMutability": "nonpayable",
      "type": "function"
    }
  ],
  "transactionHash": "0xa36d18a01ec47407c8856b8fe1006039e0451adb2d6cac85d062627e03185214",
  "args": [
    "0xD0Ad5f279932191ef26165ad5c4dC070F1Aa8A22",
    "0x8934e9F222AFc5A5003C14c6691214dEf5D468F5",
    "60",
    "86400",
    "0x5353E259f47714365743Ab3694908953E7856DbE",
    "0xD8562cD2c580c5f262F4997714539E146e7de3CB",
    "0xC41c1F9d985591Ec55F24b06eF9FBf34cAF5bB16",
    "0xA0898b4cAe4cce752AFD6a24D439739664C79ce2"
  ],
  "numDeployments": 2,
  "solcInputHash": "d2c400e1cd4f444060237191745cebe3",
  "bytecode": "0x6101206040523480156200001257600080fd5b5060405162004c2d38038062004c2d833981016040819052620000359162000242565b81336200004281620001d9565b6040516302571be360e01b81527f91d1777781884d03a6757a803996e38de2a42967fb37eeaca72729271025a9e260048201526000906001600160a01b038416906302571be390602401602060405180830381865afa158015620000aa573d6000803e3d6000fd5b505050506040513d601f19601f82011682018060405250810190620000d09190620002ec565b604051630f41a04d60e11b81526001600160a01b03848116600483015291925090821690631e83409a906024016020604051808303816000875af11580156200011d573d6000803e3d6000fd5b505050506040513d601f19601f8201168201806040525081019062000143919062000313565b5050505085851162000168576040516307cb550760e31b815260040160405180910390fd5b428511156200018a57604051630b4319e560e21b815260040160405180910390fd5b6001600160a01b03978816608052600180549789166001600160a01b031998891617905560a0959095525060c092909252841660e052831661010052600280549190931691161790556200032d565b600080546001600160a01b038381166001600160a01b0319831681178455604051919092169283917f8be0079c531659141344cd1fd0a4f28419497f9722a3daafe3b4186f6b6457e09190a35050565b6001600160a01b03811681146200023f57600080fd5b50565b600080600080600080600080610100898b0312156200026057600080fd5b88516200026d8162000229565b60208a0151909850620002808162000229565b8097505060408901519550606089015194506080890151620002a28162000229565b60a08a0151909450620002b58162000229565b60c08a0151909350620002c88162000229565b60e08a0151909250620002db8162000229565b809150509295985092959890939650565b600060208284031215620002ff57600080fd5b81516200030c8162000229565b9392505050565b6000602082840312156200032657600080fd5b5051919050565b60805160a05160c05160e05161010051614867620003c6600039600081816106a6015281816109d301528181610e71015281816113080152818161185701528181611e5001526127a501526000818161050e015261301b01526000818161071001528181612c530152612e3a0152600081816105b40152612dc3015260008181612375015281816125020152612b8b01526148676000f3fe6080604052600436106102855760003560e01c80638086985311610153578063a31bc89a116100cb578063ce1e09c01161007f578063da7fc24f11610064578063da7fc24f14610752578063f14fcbc814610772578063f2fde38b1461079257600080fd5b8063ce1e09c0146106fe578063d3419bf31461073257600080fd5b8063a8e5fbc0116100b0578063a8e5fbc014610694578063aeb8ce9b146106c8578063c53c0ec1146106e857600080fd5b8063a31bc89a14610654578063a680baaf1461067457600080fd5b80638d839ffe116101225780639791c097116101075780639791c097146105f45780639e5914da14610614578063a0e3aef11461063457600080fd5b80638d839ffe146105a25780638da5cb5b146105d657600080fd5b806380869853146104fc578063839df9451461053057806388cccc091461056b5780638a95b09f1461058b57600080fd5b80634ba694bd116102015780635fa7b584116101b5578063715018a61161019a578063715018a6146104a7578063786d96a1146104bc5780637adbf973146104dc57600080fd5b80635fa7b5841461044c5780636cfc51e21461046c57600080fd5b8063569f8ab3116101e6578063569f8ab3146103ec5780635baef98e1461040c5780635d3590d51461042c57600080fd5b80634ba694bd146103a15780634be2b2ec146103d957600080fd5b806323ed462e116102585780633c3a7d351161023d5780633c3a7d351461034c5780633ccfd60b1461036c57806349df728c1461038157600080fd5b806323ed462e1461031957806327cdd1351461032c57600080fd5b806301ffc9a71461028a578063094f716d146102bf578063144fa6d7146102c95780631baaaffe146102e9575b600080fd5b34801561029657600080fd5b506102aa6102a536600461395c565b6107b2565b60405190151581526020015b60405180910390f35b6102c761081b565b005b3480156102d557600080fd5b506102c76102e43660046139ab565b610923565b3480156102f557600080fd5b506102aa6103043660046139ab565b60076020526000908152604090205460ff1681565b6102c7610327366004613bae565b61094f565b34801561033857600080fd5b506102c7610347366004613d18565b610cc5565b34801561035857600080fd5b506102c7610367366004613ea5565b61119c565b34801561037857600080fd5b506102c76115f7565b34801561038d57600080fd5b506102c761039c3660046139ab565b61169d565b3480156103ad57600080fd5b506002546103c1906001600160a01b031681565b6040516001600160a01b0390911681526020016102b6565b6102c76103e7366004613ea5565b61172b565b3480156103f857600080fd5b506102c7610407366004613f04565b611c18565b34801561041857600080fd5b506102c76104273660046139ab565b6121f0565b34801561043857600080fd5b506102c7610447366004613f9d565b612227565b34801561045857600080fd5b506102c76104673660046139ab565b6122a8565b34801561047857600080fd5b5061048c610487366004613fde565b6122d1565b604080518251815260209283015192810192909252016102b6565b3480156104b357600080fd5b506102c761244a565b3480156104c857600080fd5b5061048c6104d7366004614039565b61245e565b3480156104e857600080fd5b506102c76104f73660046139ab565b6125da565b34801561050857600080fd5b506103c17f000000000000000000000000000000000000000000000000000000000000000081565b34801561053c57600080fd5b5061055d61054b3660046140ae565b60046020526000908152604090205481565b6040519081526020016102b6565b34801561057757600080fd5b506003546103c1906001600160a01b031681565b34801561059757600080fd5b5061055d6224ea0081565b3480156105ae57600080fd5b5061055d7f000000000000000000000000000000000000000000000000000000000000000081565b3480156105e257600080fd5b506000546001600160a01b03166103c1565b34801561060057600080fd5b506102aa61060f3660046140c7565b612611565b34801561062057600080fd5b506102c761062f3660046139ab565b612626565b34801561064057600080fd5b5061055d61064f3660046140fc565b61265d565b34801561066057600080fd5b506102c761066f366004613bae565b6126fd565b34801561068057600080fd5b506005546103c1906001600160a01b031681565b3480156106a057600080fd5b506103c17f000000000000000000000000000000000000000000000000000000000000000081565b3480156106d457600080fd5b506102aa6106e33660046140c7565b612b42565b3480156106f457600080fd5b5061055d60065481565b34801561070a57600080fd5b5061055d7f000000000000000000000000000000000000000000000000000000000000000081565b34801561073e57600080fd5b506001546103c1906001600160a01b031681565b34801561075e57600080fd5b506102c761076d3660046139ab565b612c05565b34801561077e57600080fd5b506102c761078d3660046140ae565b612c3c565b34801561079e57600080fd5b506102c76107ad3660046139ab565b612cc5565b60006001600160e01b031982167f01ffc9a700000000000000000000000000000000000000000000000000000000148061081557506001600160e01b031982167ff2d8c3a500000000000000000000000000000000000000000000000000000000145b92915050565b610823612d52565b600034116108785760405162461bcd60e51b815260206004820152601f60248201527f4d7573742073656e642076616c756520746f20726573657420696e666f46690060448201526064015b60405180910390fd5b6003546040516000916001600160a01b03169034908381818185875af1925050503d80600081146108c5576040519150601f19603f3d011682016040523d82523d6000602084013e6108ca565b606091505b505090508061091b5760405162461bcd60e51b815260206004820152601860248201527f5061796d656e7420746f20696e666f4669206661696c65640000000000000000604482015260640161086f565b506000600655565b61092b612d52565b6001600160a01b03166000908152600760205260409020805460ff19166001179055565b811561095e57640757b12c0097505b600061096b8b8a856122d1565b6020810151815191925061097e916141e5565b34101561099e5760405163044044a560e21b815260040160405180910390fd5b6109b98b8a6109b48e8e8e8e8e8e8e8e8e61265d565b612dac565b604051635200a4c160e11b81526000906001600160a01b037f0000000000000000000000000000000000000000000000000000000000000000169063a401498290610a10908f908f908f908e908c90600401614248565b6020604051808303816000875af1158015610a2f573d6000803e3d6000fd5b505050506040513d601f19601f82011682018060405250810190610a539190614290565b875190915015610a6f57610a6f888d8051906020012089612f39565b8515610b8857610a808c8933613019565b6000600260009054906101000a90046001600160a01b03166001600160a01b03166314723fae8e8e6040518363ffffffff1660e01b8152600401610ac59291906142a9565b6020604051808303816000875af1158015610ae4573d6000803e3d6000fd5b505050506040513d601f19601f82011682018060405250810190610b0891906142d4565b90508015610b86576002548d5160208f0120604051631f8e227160e01b815260048101919091526001600160a01b038e811660248301526044820185905290911690631f8e227190606401600060405180830381600087803b158015610b6d57600080fd5b505af1158015610b81573d6000803e3d6000fd5b505050505b505b8a6001600160a01b03168c805190602001207f69e37f151eb98a09618ddaa80c8cfaf1ce5996867c489f45b555b412271ebf278e8560000151866020015186604051610bd794939291906142f1565b60405180910390a360208201518251610bf091906141e5565b341115610cab57602082015182516000913391610c0d91906141e5565b610c179034614320565b604051600081818185875af1925050503d8060008114610c53576040519150601f19603f3d011682016040523d82523d6000602084013e610c58565b606091505b5050905080610ca95760405162461bcd60e51b815260206004820152600d60248201527f526566756e64206661696c656400000000000000000000000000000000000000604482015260640161086f565b505b610cb782848e8e6130cd565b505050505050505050505050565b6020808401516001600160a01b031660009081526007909152604090205460ff161515600114610d375760405162461bcd60e51b815260206004820152601860248201527f556e6e6163657074656420546f6b656e20416464726573730000000000000000604482015260640161086f565b8115610d4957640757b12c0060408501525b610d87846000015185604001516109b48760000151886020015189604001518a606001518b608001518c60a001518d60c001518e60e001518d61265d565b6000610da18560000151866040015186600001518661245e565b60208101518151919250610db4916141e5565b60208501516040516370a0823160e01b81523360048201526001600160a01b03909116906370a0823190602401602060405180830381865afa158015610dfe573d6000803e3d6000fd5b505050506040513d601f19601f82011682018060405250810190610e229190614290565b1015610e415760405163044044a560e21b815260040160405180910390fd5b84516020860151604080880151608089015160e08a01519251635200a4c160e11b81526000956001600160a01b037f0000000000000000000000000000000000000000000000000000000000000000169563a401498295610ea89592949193600401614248565b6020604051808303816000875af1158015610ec7573d6000803e3d6000fd5b505050506040513d601f19601f82011682018060405250810190610eeb9190614290565b9050610f0f86600001518760a00151886020015189608001518a60c00151866132ae565b610f1d8560200151836133e9565b85602001516001600160a01b03168660000151805190602001207f69e37f151eb98a09618ddaa80c8cfaf1ce5996867c489f45b555b412271ebf2788600001518560000151866020015186604051610f7894939291906142f1565b60405180910390a3600254835160208501206040516376d7cfb760e11b815260048101919091526000916001600160a01b03169063edaf9f6e90602401602060405180830381865afa158015610fd2573d6000803e3d6000fd5b505050506040513d601f19601f82011682018060405250810190610ff69190614333565b60025460405163c08d52af60e01b81526001600160a01b0380841660048301529293506000929091169063c08d52af90602401602060405180830381865afa158015611046573d6000803e3d6000fd5b505050506040513d601f19601f8201168201806040525081019061106a9190614290565b604080516020808201909252600090528651908701209091507fc5d2460186f7233c927e7db2dcc703c0e500b653ca82273b7bfad8045d85a47014611192576019600582106110b75750601e5b60025460208601518651611106926001600160a01b03169160649185916110dd916141e5565b6110e79190614350565b6110f19190614367565b60208b01516001600160a01b03169190613418565b60025489516020808c01519088015188516001600160a01b039094169363ff8f3947938b939092909161113991906141e5565b8d602001516040518663ffffffff1660e01b815260040161115e959493929190614389565b600060405180830381600087803b15801561117857600080fd5b505af115801561118c573d6000803e3d6000fd5b50505050505b5050505050505050565b6005546001600160a01b031633146111f65760405162461bcd60e51b815260206004820152600b60248201527f4e6f74204261636b656e64000000000000000000000000000000000000000000604482015260640161086f565b801561120557640757b12c0091505b600084846040516112179291906143d9565b604080519182900382206020601f880181900481028401810190925286835292508291600091611266919089908990819084018382808284376000920191909152508992508891506122d19050565b600254604051630338bc9760e41b8152600481018690529192506000916001600160a01b039091169063338bc97090602401600060405180830381865afa1580156112b5573d6000803e3d6000fd5b505050506040513d6000823e601f3d908101601f191682016040526112dd9190810190614419565b60405163c475abff60e01b815260048101859052602481018890529091506000906001600160a01b037f0000000000000000000000000000000000000000000000000000000000000000169063c475abff906044016020604051808303816000875af1158015611351573d6000803e3d6000fd5b505050506040513d601f19601f820116820180604052508101906113759190614290565b6002546040519192506001600160a01b031690638b07795b9061139b908c908c906143d9565b60405190819003812060e083901b6001600160e01b0319168252600482015260248101849052604401600060405180830381600087803b1580156113de57600080fd5b505af11580156113f2573d6000803e3d6000fd5b50505050847f3da24c024582931cfaf8267d8ed24d13a82a8068d5bd337d30ec45cea4e506ae8a8a8660000151856040516114309493929190614462565b60405180910390a2600254825160208401206040516376d7cfb760e11b815260048101919091526000916001600160a01b03169063edaf9f6e90602401602060405180830381865afa15801561148a573d6000803e3d6000fd5b505050506040513d601f19601f820116820180604052508101906114ae9190614333565b6001600160a01b0316146115ae57600254825160208401206040516376d7cfb760e11b815260048101919091526000916001600160a01b03169063edaf9f6e90602401602060405180830381865afa15801561150e573d6000803e3d6000fd5b505050506040513d601f19601f820116820180604052508101906115329190614333565b600254602086015186519293506001600160a01b039091169163668c91c89161155a916141e5565b83866040518463ffffffff1660e01b815260040161157a939291906144a2565b600060405180830381600087803b15801561159457600080fd5b505af11580156115a8573d6000803e3d6000fd5b50505050505b602083015183516064916115c1916141e5565b6115cc906023614350565b6115d69190614367565b600660008282546115e791906141e5565b9091555050505050505050505050565b600080546040516001600160a01b039091169047908381818185875af1925050503d8060008114611644576040519150601f19603f3d011682016040523d82523d6000602084013e611649565b606091505b505090508061169a5760405162461bcd60e51b815260206004820152600f60248201527f5472616e73666572206661696c65640000000000000000000000000000000000604482015260640161086f565b50565b61169a6116b26000546001600160a01b031690565b6040516370a0823160e01b81523060048201526001600160a01b038416906370a0823190602401602060405180830381865afa1580156116f6573d6000803e3d6000fd5b505050506040513d601f19601f8201168201806040525081019061171a9190614290565b6001600160a01b0384169190613418565b801561173a57640757b12c0091505b6000848460405161174c9291906143d9565b604080519182900382206020601f88018190048102840181019092528683529250829160009161179b919089908990819084018382808284376000920191909152508992508891506122d19050565b600254604051630338bc9760e41b8152600481018690529192506000916001600160a01b039091169063338bc97090602401600060405180830381865afa1580156117ea573d6000803e3d6000fd5b505050506040513d6000823e601f3d908101601f191682016040526118129190810190614419565b82519091503410156118375760405163044044a560e21b815260040160405180910390fd5b60405163c475abff60e01b815260048101849052602481018790526000907f00000000000000000000000000000000000000000000000000000000000000006001600160a01b03169063c475abff906044016020604051808303816000875af11580156118a8573d6000803e3d6000fd5b505050506040513d601f19601f820116820180604052508101906118cc9190614290565b6002546040519192506001600160a01b031690638b07795b906118f2908c908c906143d9565b60405190819003812060e083901b6001600160e01b0319168252600482015260248101849052604401600060405180830381600087803b15801561193557600080fd5b505af1158015611949573d6000803e3d6000fd5b5050505082600001513411156119ac57825133906119679034614320565b604051600081818185875af1925050503d80600081146119a3576040519150601f19603f3d011682016040523d82523d6000602084013e6119a8565b606091505b5050505b847f3da24c024582931cfaf8267d8ed24d13a82a8068d5bd337d30ec45cea4e506ae8a8a34856040516119e29493929190614462565b60405180910390a2600254825160208401206040516376d7cfb760e11b815260048101919091526000916001600160a01b03169063edaf9f6e90602401602060405180830381865afa158015611a3c573d6000803e3d6000fd5b505050506040513d601f19601f82011682018060405250810190611a609190614333565b6001600160a01b031614611c0d57600254825160208401206040516376d7cfb760e11b815260048101919091526000916001600160a01b03169063edaf9f6e90602401602060405180830381865afa158015611ac0573d6000803e3d6000fd5b505050506040513d601f19601f82011682018060405250810190611ae49190614333565b60025460405163c08d52af60e01b81526001600160a01b0380841660048301529293506000929091169063c08d52af90602401602060405180830381865afa158015611b34573d6000803e3d6000fd5b505050506040513d601f19601f82011682018060405250810190611b589190614290565b9050601960058210611b685750601e5b600254602087015187516001600160a01b039092169163e858db08916064918591611b92916141e5565b611b9c9190614350565b611ba69190614367565b60208901518951611bb791906141e5565b86896040518563ffffffff1660e01b8152600401611bd7939291906144a2565b6000604051808303818588803b158015611bf057600080fd5b505af1158015611c04573d6000803e3d6000fd5b50505050505050505b505050505050505050565b8015611c2757640757b12c0093505b6001600160a01b03821660009081526007602052604090205460ff161515600114611c945760405162461bcd60e51b815260206004820152601860248201527f556e6e6163657074656420546f6b656e20416464726573730000000000000000604482015260640161086f565b60008686604051611ca69291906143d9565b604051908190038120600254630338bc9760e41b83526004830182905290925082916000916001600160a01b03169063338bc97090602401600060405180830381865afa158015611cfb573d6000803e3d6000fd5b505050506040513d6000823e601f3d908101601f19168201604052611d239190810190614419565b90506000611d6b8a8a8080601f0160208091040260200160405190810160405280939291908181526020018383808284376000920191909152508c92508b915089905061245e565b60208101518151919250611d7e916141e5565b6040516370a0823160e01b81523360048201526001600160a01b038816906370a0823190602401602060405180830381865afa158015611dc2573d6000803e3d6000fd5b505050506040513d601f19601f82011682018060405250810190611de69190614290565b1015611e055760405163044044a560e21b815260040160405180910390fd5b611e30333083602001518460000151611e1e91906141e5565b6001600160a01b038a16929190613490565b60405163c475abff60e01b815260048101849052602481018990526000907f00000000000000000000000000000000000000000000000000000000000000006001600160a01b03169063c475abff906044016020604051808303816000875af1158015611ea1573d6000803e3d6000fd5b505050506040513d601f19601f82011682018060405250810190611ec59190614290565b6002546040519192506001600160a01b031690638b07795b90611eeb908e908e906143d9565b60405190819003812060e083901b6001600160e01b0319168252600482015260248101849052604401600060405180830381600087803b158015611f2e57600080fd5b505af1158015611f42573d6000803e3d6000fd5b50505050847f3da24c024582931cfaf8267d8ed24d13a82a8068d5bd337d30ec45cea4e506ae8c8c85602001518660000151611f7e91906141e5565b85604051611f8f9493929190614462565b60405180910390a2600254835160208501206040516376d7cfb760e11b815260048101919091526000916001600160a01b03169063edaf9f6e90602401602060405180830381865afa158015611fe9573d6000803e3d6000fd5b505050506040513d601f19601f8201168201806040525081019061200d9190614333565b6001600160a01b0316146121e357600254835160208501206040516376d7cfb760e11b815260048101919091526000916001600160a01b03169063edaf9f6e90602401602060405180830381865afa15801561206d573d6000803e3d6000fd5b505050506040513d601f19601f820116820180604052508101906120919190614333565b60025460405163c08d52af60e01b81526001600160a01b0380841660048301529293506000929091169063c08d52af90602401602060405180830381865afa1580156120e1573d6000803e3d6000fd5b505050506040513d601f19601f820116820180604052508101906121059190614290565b90506019600582106121155750601e5b600254602086015186516121669230926001600160a01b0390911691606491869161214091906141e5565b61214a9190614350565b6121549190614367565b6001600160a01b038e16929190613490565b600254602086015186516001600160a01b039092169163d184befa9161218b916141e5565b858d8a6040518563ffffffff1660e01b81526004016121ad94939291906144ca565b600060405180830381600087803b1580156121c757600080fd5b505af11580156121db573d6000803e3d6000fd5b505050505050505b5050505050505050505050565b6121f8612d52565b6003805473ffffffffffffffffffffffffffffffffffffffff19166001600160a01b0392909216919091179055565b61222f612d52565b60405163a9059cbb60e01b81526001600160a01b0383811660048301526024820183905284169063a9059cbb906044016020604051808303816000875af115801561227e573d6000803e3d6000fd5b505050506040513d601f19601f820116820180604052508101906122a291906142d4565b50505050565b6122b0612d52565b6001600160a01b03166000908152600760205260409020805460ff19169055565b60408051808201909152600080825260208201528215806122f557506224ea008310155b6123415760405162461bcd60e51b815260206004820152601060248201527f496e76616c6964206475726174696f6e00000000000000000000000000000000604482015260640161086f565b83516020850120600154604051636b727d4360e11b8152600481018390526001600160a01b0391821691638416a3749188917f0000000000000000000000000000000000000000000000000000000000000000169063d6e4fa8690602401602060405180830381865afa1580156123bc573d6000803e3d6000fd5b505050506040513d601f19601f820116820180604052508101906123e09190614290565b87876040518563ffffffff1660e01b815260040161240194939291906144fc565b6040805180830381865afa15801561241d573d6000803e3d6000fd5b505050506040513d601f19601f82011682018060405250810190612441919061452d565b95945050505050565b612452612d52565b61245c60006134e1565b565b604080518082019091526000808252602082015283158061248257506224ea008410155b6124ce5760405162461bcd60e51b815260206004820152601060248201527f496e76616c6964206475726174696f6e00000000000000000000000000000000604482015260640161086f565b84516020860120600154604051636b727d4360e11b8152600481018390526001600160a01b0391821691638361401d9189917f0000000000000000000000000000000000000000000000000000000000000000169063d6e4fa8690602401602060405180830381865afa158015612549573d6000803e3d6000fd5b505050506040513d601f19601f8201168201806040525081019061256d9190614290565b8888886040518663ffffffff1660e01b815260040161259095949392919061457c565b6040805180830381865afa1580156125ac573d6000803e3d6000fd5b505050506040513d601f19601f820116820180604052508101906125d0919061452d565b9695505050505050565b6125e2612d52565b6001805473ffffffffffffffffffffffffffffffffffffffff19166001600160a01b0392909216919091179055565b6000600261261e8361353e565b101592915050565b61262e612d52565b6002805473ffffffffffffffffffffffffffffffffffffffff19166001600160a01b0392909216919091179055565b885160208a01208451600091901580159061267f57506001600160a01b038716155b156126b6576040517fd3f605c400000000000000000000000000000000000000000000000000000000815260040160405180910390fd5b808a8a8a8a8a8a8a8a6040516020016126d799989796959493929190614617565b604051602081830303815290604052805190602001209150509998505050505050505050565b6005546001600160a01b031633146127575760405162461bcd60e51b815260206004820152600b60248201527f4e6f74204261636b656e64000000000000000000000000000000000000000000604482015260640161086f565b811561276657640757b12c0097505b60006127738b8a856122d1565b905061278b8b8a6109b48e8e8e8e8e8e8e8e8e61265d565b604051635200a4c160e11b81526000906001600160a01b037f0000000000000000000000000000000000000000000000000000000000000000169063a4014982906127e2908f908f908f908e908c90600401614248565b6020604051808303816000875af1158015612801573d6000803e3d6000fd5b505050506040513d601f19601f820116820180604052508101906128259190614290565b87519091501561284157612841888d8051906020012089612f39565b851561295a576128528c898d613019565b6000600260009054906101000a90046001600160a01b03166001600160a01b03166314723fae8e8e6040518363ffffffff1660e01b81526004016128979291906142a9565b6020604051808303816000875af11580156128b6573d6000803e3d6000fd5b505050506040513d601f19601f820116820180604052508101906128da91906142d4565b90508015612958576002548d5160208f0120604051631f8e227160e01b815260048101919091526001600160a01b038e811660248301526044820185905290911690631f8e227190606401600060405180830381600087803b15801561293f57600080fd5b505af1158015612953573d6000803e3d6000fd5b505050505b505b8a6001600160a01b03168c805190602001207f69e37f151eb98a09618ddaa80c8cfaf1ce5996867c489f45b555b412271ebf278e85600001518660200151866040516129a994939291906142f1565b60405180910390a3600254835160208501206040516376d7cfb760e11b815260048101919091526000916001600160a01b03169063edaf9f6e90602401602060405180830381865afa158015612a03573d6000803e3d6000fd5b505050506040513d601f19601f82011682018060405250810190612a279190614333565b604080516020808201909252600090528551908601209091507fc5d2460186f7233c927e7db2dcc703c0e500b653ca82273b7bfad8045d85a47014612af557600260009054906101000a90046001600160a01b03166001600160a01b031663898c6495858f8f87602001518860000151612aa191906141e5565b866040518663ffffffff1660e01b8152600401612ac2959493929190614389565b600060405180830381600087803b158015612adc57600080fd5b505af1158015612af0573d6000803e3d6000fd5b505050505b60208301518351606491612b08916141e5565b612b13906023614350565b612b1d9190614367565b60066000828254612b2e91906141e5565b909155505050505050505050505050505050565b80516020820120600090612b5583612611565b8015612bfe57506040517f96e494e8000000000000000000000000000000000000000000000000000000008152600481018290527f00000000000000000000000000000000000000000000000000000000000000006001600160a01b0316906396e494e890602401602060405180830381865afa158015612bda573d6000803e3d6000fd5b505050506040513d601f19601f82011682018060405250810190612bfe91906142d4565b9392505050565b612c0d612d52565b6005805473ffffffffffffffffffffffffffffffffffffffff19166001600160a01b0392909216919091179055565b6000818152600460205260409020544290612c78907f0000000000000000000000000000000000000000000000000000000000000000906141e5565b10612cb2576040517f0a059d710000000000000000000000000000000000000000000000000000000081526004810182905260240161086f565b6000908152600460205260409020429055565b612ccd612d52565b6001600160a01b038116612d495760405162461bcd60e51b815260206004820152602660248201527f4f776e61626c653a206e6577206f776e657220697320746865207a65726f206160448201527f6464726573730000000000000000000000000000000000000000000000000000606482015260840161086f565b61169a816134e1565b6000546001600160a01b0316331461245c5760405162461bcd60e51b815260206004820181905260248201527f4f776e61626c653a2063616c6c6572206973206e6f7420746865206f776e6572604482015260640161086f565b6000818152600460205260409020544290612de8907f0000000000000000000000000000000000000000000000000000000000000000906141e5565b1115612e23576040517f5320bcf90000000000000000000000000000000000000000000000000000000081526004810182905260240161086f565b6000818152600460205260409020544290612e5f907f0000000000000000000000000000000000000000000000000000000000000000906141e5565b11612e99576040517fcb7690d70000000000000000000000000000000000000000000000000000000081526004810182905260240161086f565b612ea283612b42565b612eda57826040517f477707e800000000000000000000000000000000000000000000000000000000815260040161086f919061467f565b6000818152600460205260408120558115801590612efa57506224ea0082105b15612f34576040517f9a71997b0000000000000000000000000000000000000000000000000000000081526004810183905260240161086f565b505050565b604080517fff293b45f66299662aeb213a684a5482a8f50de5558757803b882845eef4fc7d602080830191909152818301859052825180830384018152606083019384905280519101207fe32954eb0000000000000000000000000000000000000000000000000000000090925284906001600160a01b0382169063e32954eb90612fca9085908790606401614692565b6000604051808303816000875af1158015612fe9573d6000803e3d6000fd5b505050506040513d6000823e601f3d908101601f1916820160405261301191908101906146ab565b505050505050565b7f00000000000000000000000000000000000000000000000000000000000000006001600160a01b0316637a806d6b3383858760405160200161305c9190614771565b6040516020818303038152906040526040518563ffffffff1660e01b815260040161308a94939291906147b2565b6020604051808303816000875af11580156130a9573d6000803e3d6000fd5b505050506040513d601f19601f820116820180604052508101906122a29190614290565b600254835160208501206040516376d7cfb760e11b815260048101919091526000916001600160a01b03169063edaf9f6e90602401602060405180830381865afa15801561311f573d6000803e3d6000fd5b505050506040513d601f19601f820116820180604052508101906131439190614333565b604080516020808201909252600090528551908601209091507fc5d2460186f7233c927e7db2dcc703c0e500b653ca82273b7bfad8045d85a470146132a75760025460405163c08d52af60e01b81526001600160a01b03838116600483015260199260009291169063c08d52af90602401602060405180830381865afa1580156131d1573d6000803e3d6000fd5b505050506040513d601f19601f820116820180604052508101906131f59190614290565b90506005811061320457601e91505b600254602088015188516001600160a01b0390921691637d31266a91606491869161322e916141e5565b6132389190614350565b6132429190614367565b8888888c602001518d6000015161325991906141e5565b896040518763ffffffff1660e01b815260040161327a959493929190614389565b6000604051808303818588803b15801561329357600080fd5b505af1158015610cb7573d6000803e3d6000fd5b5050505050565b8451156132c7576132c783878051906020012087612f39565b8115613011576132d8868433613019565b6002546040517f14723fae0000000000000000000000000000000000000000000000000000000081526000916001600160a01b0316906314723fae90613324908a9089906004016142a9565b6020604051808303816000875af1158015613343573d6000803e3d6000fd5b505050506040513d601f19601f8201168201806040525081019061336791906142d4565b905080156133e05760025487516020890120604051631f8e227160e01b815260048101919091526001600160a01b0387811660248301526044820185905290911690631f8e227190606401600060405180830381600087803b1580156133cc57600080fd5b505af11580156121e3573d6000803e3d6000fd5b50505050505050565b61341433308360200151846000015161340291906141e5565b6001600160a01b038616929190613490565b5050565b6040516001600160a01b038316602482015260448101829052612f3490849063a9059cbb60e01b906064015b60408051601f198184030181529190526020810180517bffffffffffffffffffffffffffffffffffffffffffffffffffffffff166001600160e01b0319909316929092179091526136cd565b6040516001600160a01b03808516602483015283166044820152606481018290526122a29085907f23b872dd0000000000000000000000000000000000000000000000000000000090608401613444565b600080546001600160a01b0383811673ffffffffffffffffffffffffffffffffffffffff19831681178455604051919092169283917f8be0079c531659141344cd1fd0a4f28419497f9722a3daafe3b4186f6b6457e09190a35050565b8051600090819081905b808210156136c4576000858381518110613564576135646147e6565b01602001516001600160f81b03191690507f80000000000000000000000000000000000000000000000000000000000000008110156135af576135a86001846141e5565b92506136b1565b7fe0000000000000000000000000000000000000000000000000000000000000006001600160f81b0319821610156135ec576135a86002846141e5565b7ff0000000000000000000000000000000000000000000000000000000000000006001600160f81b031982161015613629576135a86003846141e5565b7ff8000000000000000000000000000000000000000000000000000000000000006001600160f81b031982161015613666576135a86004846141e5565b7ffc000000000000000000000000000000000000000000000000000000000000006001600160f81b0319821610156136a3576135a86005846141e5565b6136ae6006846141e5565b92505b50826136bc816147fc565b935050613548565b50909392505050565b6000613722826040518060400160405280602081526020017f5361666545524332303a206c6f772d6c6576656c2063616c6c206661696c6564815250856001600160a01b03166137b59092919063ffffffff16565b905080516000148061374357508080602001905181019061374391906142d4565b612f345760405162461bcd60e51b815260206004820152602a60248201527f5361666545524332303a204552433230206f7065726174696f6e20646964206e60448201527f6f74207375636365656400000000000000000000000000000000000000000000606482015260840161086f565b60606137c484846000856137cc565b949350505050565b6060824710156138445760405162461bcd60e51b815260206004820152602660248201527f416464726573733a20696e73756666696369656e742062616c616e636520666f60448201527f722063616c6c0000000000000000000000000000000000000000000000000000606482015260840161086f565b600080866001600160a01b031685876040516138609190614815565b60006040518083038185875af1925050503d806000811461389d576040519150601f19603f3d011682016040523d82523d6000602084013e6138a2565b606091505b50915091506138b3878383876138be565b979650505050505050565b6060831561392d578251600003613926576001600160a01b0385163b6139265760405162461bcd60e51b815260206004820152601d60248201527f416464726573733a2063616c6c20746f206e6f6e2d636f6e7472616374000000604482015260640161086f565b50816137c4565b6137c483838151156139425781518083602001fd5b8060405162461bcd60e51b815260040161086f919061467f565b60006020828403121561396e57600080fd5b81356001600160e01b031981168114612bfe57600080fd5b6001600160a01b038116811461169a57600080fd5b80356139a681613986565b919050565b6000602082840312156139bd57600080fd5b8135612bfe81613986565b634e487b7160e01b600052604160045260246000fd5b604051610100810167ffffffffffffffff81118282101715613a0257613a026139c8565b60405290565b604051601f8201601f1916810167ffffffffffffffff81118282101715613a3157613a316139c8565b604052919050565b600067ffffffffffffffff821115613a5357613a536139c8565b50601f01601f191660200190565b6000613a74613a6f84613a39565b613a08565b9050828152838383011115613a8857600080fd5b828260208301376000602084830101529392505050565b600082601f830112613ab057600080fd5b612bfe83833560208501613a61565b600067ffffffffffffffff821115613ad957613ad96139c8565b5060051b60200190565b600082601f830112613af457600080fd5b81356020613b04613a6f83613abf565b82815260059290921b84018101918181019086841115613b2357600080fd5b8286015b84811015613b7857803567ffffffffffffffff811115613b475760008081fd5b8701603f81018913613b595760008081fd5b613b6a898683013560408401613a61565b845250918301918301613b27565b509695505050505050565b801515811461169a57600080fd5b80356139a681613b83565b803561ffff811681146139a657600080fd5b6000806000806000806000806000806101408b8d031215613bce57600080fd5b8a3567ffffffffffffffff80821115613be657600080fd5b613bf28e838f01613a9f565b9b50613c0060208e0161399b565b9a5060408d0135995060608d01359850613c1c60808e0161399b565b975060a08d0135915080821115613c3257600080fd5b613c3e8e838f01613ae3565b9650613c4c60c08e01613b91565b9550613c5a60e08e01613b9c565b9450613c696101008e01613b91565b93506101208d0135915080821115613c8057600080fd5b50613c8d8d828e01613a9f565b9150509295989b9194979a5092959850565b600060408284031215613cb157600080fd5b6040516040810167ffffffffffffffff8282108183111715613cd557613cd56139c8565b816040528293508435915080821115613ced57600080fd5b50613cfa85828601613a9f565b8252506020830135613d0b81613986565b6020919091015292915050565b60008060008060808587031215613d2e57600080fd5b843567ffffffffffffffff80821115613d4657600080fd5b908601906101008289031215613d5b57600080fd5b613d636139de565b823582811115613d7257600080fd5b613d7e8a828601613a9f565b825250613d8d6020840161399b565b60208201526040830135604082015260608301356060820152613db26080840161399b565b608082015260a083013582811115613dc957600080fd5b613dd58a828601613ae3565b60a083015250613de760c08401613b91565b60c0820152613df860e08401613b9c565b60e082015295506020870135915080821115613e1357600080fd5b613e1f88838901613c9f565b9450613e2d60408801613b91565b93506060870135915080821115613e4357600080fd5b50613e5087828801613a9f565b91505092959194509250565b60008083601f840112613e6e57600080fd5b50813567ffffffffffffffff811115613e8657600080fd5b602083019150836020828501011115613e9e57600080fd5b9250929050565b60008060008060608587031215613ebb57600080fd5b843567ffffffffffffffff811115613ed257600080fd5b613ede87828801613e5c565b909550935050602085013591506040850135613ef981613b83565b939692955090935050565b60008060008060008060a08789031215613f1d57600080fd5b863567ffffffffffffffff80821115613f3557600080fd5b613f418a838b01613e5c565b9098509650602089013595506040890135915080821115613f6157600080fd5b50613f6e89828a01613a9f565b9350506060870135613f7f81613986565b91506080870135613f8f81613b83565b809150509295509295509295565b600080600060608486031215613fb257600080fd5b8335613fbd81613986565b92506020840135613fcd81613986565b929592945050506040919091013590565b600080600060608486031215613ff357600080fd5b833567ffffffffffffffff81111561400a57600080fd5b61401686828701613a9f565b93505060208401359150604084013561402e81613b83565b809150509250925092565b6000806000806080858703121561404f57600080fd5b843567ffffffffffffffff8082111561406757600080fd5b61407388838901613a9f565b955060208701359450604087013591508082111561409057600080fd5b5061409d87828801613a9f565b9250506060850135613ef981613b83565b6000602082840312156140c057600080fd5b5035919050565b6000602082840312156140d957600080fd5b813567ffffffffffffffff8111156140f057600080fd5b6137c484828501613a9f565b60008060008060008060008060006101208a8c03121561411b57600080fd5b893567ffffffffffffffff8082111561413357600080fd5b61413f8d838e01613a9f565b9a5060208c0135915061415182613986565b90985060408b0135975060608b0135965060808b01359061417182613986565b90955060a08b0135908082111561418757600080fd5b506141948c828d01613ae3565b9450506141a360c08b01613b91565b92506141b160e08b01613b9c565b91506141c06101008b01613b91565b90509295985092959850929598565b634e487b7160e01b600052601160045260246000fd5b80820180821115610815576108156141cf565b60005b838110156142135781810151838201526020016141fb565b50506000910152565b600081518084526142348160208601602086016141f8565b601f01601f19169290920160200192915050565b60a08152600061425b60a083018861421c565b90506001600160a01b03808716602084015285604084015280851660608401525061ffff831660808301529695505050505050565b6000602082840312156142a257600080fd5b5051919050565b6040815260006142bc604083018561421c565b90506001600160a01b03831660208301529392505050565b6000602082840312156142e657600080fd5b8151612bfe81613b83565b608081526000614304608083018761421c565b6020830195909552506040810192909252606090910152919050565b81810381811115610815576108156141cf565b60006020828403121561434557600080fd5b8151612bfe81613986565b8082028115828204841417610815576108156141cf565b60008261438457634e487b7160e01b600052601260045260246000fd5b500490565b60a08152600061439c60a083018861421c565b82810360208401526143ae818861421c565b6001600160a01b03968716604085015260608401959095525050921660809092019190915292915050565b8183823760009101908152919050565b60006143f7613a6f84613a39565b905082815283838301111561440b57600080fd5b612bfe8360208301846141f8565b60006020828403121561442b57600080fd5b815167ffffffffffffffff81111561444257600080fd5b8201601f8101841361445357600080fd5b6137c4848251602084016143e9565b606081528360608201528385608083013760006080858301015260006080601f19601f870116830101905083602083015282604083015295945050505050565b8381526001600160a01b0383166020820152606060408201526000612441606083018461421c565b84815260006001600160a01b038086166020840152808516604084015250608060608301526125d0608083018461421c565b60808152600061450f608083018761421c565b60208301959095525060408101929092521515606090910152919050565b60006040828403121561453f57600080fd5b6040516040810181811067ffffffffffffffff82111715614562576145626139c8565b604052825181526020928301519281019290925250919050565b60a08152600061458f60a083018861421c565b86602084015285604084015282810360608401526145ad818661421c565b91505082151560808301529695505050505050565b600081518084526020808501808196508360051b8101915082860160005b8581101561460a5782840389526145f884835161421c565b988501989350908401906001016145e0565b5091979650505050505050565b60006101208b83526001600160a01b03808c1660208501528a60408501528960608501528089166080850152508060a0840152614656818401886145c2565b95151560c0840152505061ffff9290921660e08301521515610100909101529695505050505050565b602081526000612bfe602083018461421c565b8281526040602082015260006137c460408301846145c2565b600060208083850312156146be57600080fd5b825167ffffffffffffffff808211156146d657600080fd5b818501915085601f8301126146ea57600080fd5b81516146f8613a6f82613abf565b81815260059190911b8301840190848101908883111561471757600080fd5b8585015b83811015614764578051858111156147335760008081fd5b8601603f81018b136147455760008081fd5b6147568b89830151604084016143e9565b84525091860191860161471b565b5098975050505050505050565b600082516147838184602087016141f8565b7f2e706e7300000000000000000000000000000000000000000000000000000000920191825250600401919050565b60006001600160a01b0380871683528086166020840152808516604084015250608060608301526125d0608083018461421c565b634e487b7160e01b600052603260045260246000fd5b60006001820161480e5761480e6141cf565b5060010190565b600082516148278184602087016141f8565b919091019291505056fea26469706673582212208b44f86bc259641b57ed23a82f1cbf83da0ec06e79421962f9b9a7c45546e89064736f6c63430008110033"
}