{
  "address": "0xA52cAa52b84763bCf3e8E4b0655FeA5feA8650D8",
  "abi": [
    {
      "inputs": [
        {
          "internalType": "contract BaseRegistrarImplementation",
          "name": "_base",
          "type": "address"
        },
        {
          "internalType": "contract TokenPriceOracle",
          "name": "_prices",
          "type": "address"
        },
        {
          "internalType": "uint256",
          "name": "_minCommitmentAge",
          "type": "uint256"
        },
        {
          "internalType": "uint256",
          "name": "_maxCommitmentAge",
          "type": "uint256"
        },
        {
          "internalType": "contract ReverseRegistrar",
          "name": "_reverseRegistrar",
          "type": "address"
        },
        {
          "internalType": "contract INameWrapper",
          "name": "_nameWrapper",
          "type": "address"
        },
        {
          "internalType": "contract ENS",
          "name": "_ens",
          "type": "address"
        },
        {
          "internalType": "contract ReferralController",
          "name": "_referralController",
          "type": "address"
        }
      ],
      "stateMutability": "nonpayable",
      "type": "constructor"
    },
    {
      "inputs": [
        {
          "internalType": "bytes32",
          "name": "commitment",
          "type": "bytes32"
        }
      ],
      "name": "CommitmentTooNew",
      "type": "error"
    },
    {
      "inputs": [
        {
          "internalType": "bytes32",
          "name": "commitment",
          "type": "bytes32"
        }
      ],
      "name": "CommitmentTooOld",
      "type": "error"
    },
    {
      "inputs": [
        {
          "internalType": "uint256",
          "name": "duration",
          "type": "uint256"
        }
      ],
      "name": "DurationTooShort",
      "type": "error"
    },
    {
      "inputs": [],
      "name": "InsufficientValue",
      "type": "error"
    },
    {
      "inputs": [],
      "name": "MaxCommitmentAgeTooHigh",
      "type": "error"
    },
    {
      "inputs": [],
      "name": "MaxCommitmentAgeTooLow",
      "type": "error"
    },
    {
      "inputs": [
        {
          "internalType": "string",
          "name": "name",
          "type": "string"
        }
      ],
      "name": "NameNotAvailable",
      "type": "error"
    },
    {
      "inputs": [],
      "name": "ResolverRequiredWhenDataSupplied",
      "type": "error"
    },
    {
      "inputs": [
        {
          "internalType": "bytes32",
          "name": "commitment",
          "type": "bytes32"
        }
      ],
      "name": "UnexpiredCommitmentExists",
      "type": "error"
    },
    {
      "anonymous": false,
      "inputs": [
        {
          "indexed": false,
          "internalType": "string",
          "name": "name",
          "type": "string"
        },
        {
          "indexed": true,
          "internalType": "bytes32",
          "name": "label",
          "type": "bytes32"
        },
        {
          "indexed": true,
          "internalType": "address",
          "name": "owner",
          "type": "address"
        },
        {
          "indexed": false,
          "internalType": "uint256",
          "name": "baseCost",
          "type": "uint256"
        },
        {
          "indexed": false,
          "internalType": "uint256",
          "name": "premium",
          "type": "uint256"
        },
        {
          "indexed": false,
          "internalType": "uint256",
          "name": "expires",
          "type": "uint256"
        }
      ],
      "name": "NameRegistered",
      "type": "event"
    },
    {
      "anonymous": false,
      "inputs": [
        {
          "indexed": false,
          "internalType": "string",
          "name": "name",
          "type": "string"
        },
        {
          "indexed": true,
          "internalType": "bytes32",
          "name": "label",
          "type": "bytes32"
        },
        {
          "indexed": false,
          "internalType": "uint256",
          "name": "cost",
          "type": "uint256"
        },
        {
          "indexed": false,
          "internalType": "uint256",
          "name": "expires",
          "type": "uint256"
        }
      ],
      "name": "NameRenewed",
      "type": "event"
    },
    {
      "anonymous": false,
      "inputs": [
        {
          "indexed": true,
          "internalType": "address",
          "name": "previousOwner",
          "type": "address"
        },
        {
          "indexed": true,
          "internalType": "address",
          "name": "newOwner",
          "type": "address"
        }
      ],
      "name": "OwnershipTransferred",
      "type": "event"
    },
    {
      "inputs": [],
      "name": "MIN_REGISTRATION_DURATION",
      "outputs": [
        {
          "internalType": "uint256",
          "name": "",
          "type": "uint256"
        }
      ],
      "stateMutability": "view",
      "type": "function"
    },
    {
      "inputs": [
        {
          "internalType": "string",
          "name": "name",
          "type": "string"
        }
      ],
      "name": "available",
      "outputs": [
        {
          "internalType": "bool",
          "name": "",
          "type": "bool"
        }
      ],
      "stateMutability": "view",
      "type": "function"
    },
    {
      "inputs": [],
      "name": "backendWallet",
      "outputs": [
        {
          "internalType": "address",
          "name": "",
          "type": "address"
        }
      ],
      "stateMutability": "view",
      "type": "function"
    },
    {
      "inputs": [
        {
          "internalType": "bytes32",
          "name": "commitment",
          "type": "bytes32"
        }
      ],
      "name": "commit",
      "outputs": [],
      "stateMutability": "nonpayable",
      "type": "function"
    },
    {
      "inputs": [
        {
          "internalType": "bytes32",
          "name": "",
          "type": "bytes32"
        }
      ],
      "name": "commitments",
      "outputs": [
        {
          "internalType": "uint256",
          "name": "",
          "type": "uint256"
        }
      ],
      "stateMutability": "view",
      "type": "function"
    },
    {
      "inputs": [],
      "name": "infoFi",
      "outputs": [
        {
          "internalType": "address",
          "name": "",
          "type": "address"
        }
      ],
      "stateMutability": "view",
      "type": "function"
    },
    {
      "inputs": [
        {
          "internalType": "string",
          "name": "name",
          "type": "string"
        },
        {
          "internalType": "address",
          "name": "owner",
          "type": "address"
        },
        {
          "internalType": "uint256",
          "name": "duration",
          "type": "uint256"
        },
        {
          "internalType": "bytes32",
          "name": "secret",
          "type": "bytes32"
        },
        {
          "internalType": "address",
          "name": "resolver",
          "type": "address"
        },
        {
          "internalType": "bytes[]",
          "name": "data",
          "type": "bytes[]"
        },
        {
          "internalType": "bool",
          "name": "reverseRecord",
          "type": "bool"
        },
        {
          "internalType": "uint16",
          "name": "ownerControlledFuses",
          "type": "uint16"
        },
        {
          "internalType": "bool",
          "name": "lifetime",
          "type": "bool"
        }
      ],
      "name": "makeCommitment",
      "outputs": [
        {
          "internalType": "bytes32",
          "name": "",
          "type": "bytes32"
        }
      ],
      "stateMutability": "pure",
      "type": "function"
    },
    {
      "inputs": [],
      "name": "maxCommitmentAge",
      "outputs": [
        {
          "internalType": "uint256",
          "name": "",
          "type": "uint256"
        }
      ],
      "stateMutability": "view",
      "type": "function"
    },
    {
      "inputs": [],
      "name": "minCommitmentAge",
      "outputs": [
        {
          "internalType": "uint256",
          "name": "",
          "type": "uint256"
        }
      ],
      "stateMutability": "view",
      "type": "function"
    },
    {
      "inputs": [],
      "name": "nameWrapper",
      "outputs": [
        {
          "internalType": "contract INameWrapper",
          "name": "",
          "type": "address"
        }
      ],
      "stateMutability": "view",
      "type": "function"
    },
    {
      "inputs": [],
      "name": "owner",
      "outputs": [
        {
          "internalType": "address",
          "name": "",
          "type": "address"
        }
      ],
      "stateMutability": "view",
      "type": "function"
    },
    {
      "inputs": [],
      "name": "prices",
      "outputs": [
        {
          "internalType": "contract TokenPriceOracle",
          "name": "",
          "type": "address"
        }
      ],
      "stateMutability": "view",
      "type": "function"
    },
    {
      "inputs": [
        {
          "internalType": "address",
          "name": "_token",
          "type": "address"
        },
        {
          "internalType": "address",
          "name": "_to",
          "type": "address"
        },
        {
          "internalType": "uint256",
          "name": "_amount",
          "type": "uint256"
        }
      ],
      "name": "recoverFunds",
      "outputs": [],
      "stateMutability": "nonpayable",
      "type": "function"
    },
    {
      "inputs": [],
      "name": "referralController",
      "outputs": [
        {
          "internalType": "contract ReferralController",
          "name": "",
          "type": "address"
        }
      ],
      "stateMutability": "view",
      "type": "function"
    },
    {
      "inputs": [
        {
          "internalType": "string",
          "name": "name",
          "type": "string"
        },
        {
          "internalType": "address",
          "name": "owner",
          "type": "address"
        },
        {
          "internalType": "uint256",
          "name": "duration",
          "type": "uint256"
        },
        {
          "internalType": "bytes32",
          "name": "secret",
          "type": "bytes32"
        },
        {
          "internalType": "address",
          "name": "resolver",
          "type": "address"
        },
        {
          "internalType": "bytes[]",
          "name": "data",
          "type": "bytes[]"
        },
        {
          "internalType": "bool",
          "name": "reverseRecord",
          "type": "bool"
        },
        {
          "internalType": "uint16",
          "name": "ownerControlledFuses",
          "type": "uint16"
        },
        {
          "internalType": "bool",
          "name": "lifetime",
          "type": "bool"
        },
        {
          "internalType": "string",
          "name": "referree",
          "type": "string"
        }
      ],
      "name": "register",
      "outputs": [],
      "stateMutability": "payable",
      "type": "function"
    },
    {
      "inputs": [
        {
          "internalType": "string",
          "name": "name",
          "type": "string"
        },
        {
          "internalType": "address",
          "name": "owner",
          "type": "address"
        },
        {
          "internalType": "uint256",
          "name": "duration",
          "type": "uint256"
        },
        {
          "internalType": "bytes32",
          "name": "secret",
          "type": "bytes32"
        },
        {
          "internalType": "address",
          "name": "resolver",
          "type": "address"
        },
        {
          "internalType": "bytes[]",
          "name": "data",
          "type": "bytes[]"
        },
        {
          "internalType": "bool",
          "name": "reverseRecord",
          "type": "bool"
        },
        {
          "internalType": "uint16",
          "name": "ownerControlledFuses",
          "type": "uint16"
        },
        {
          "internalType": "bool",
          "name": "lifetime",
          "type": "bool"
        },
        {
          "internalType": "string",
          "name": "referree",
          "type": "string"
        }
      ],
      "name": "registerWithCard",
      "outputs": [],
      "stateMutability": "nonpayable",
      "type": "function"
    },
    {
      "inputs": [
        {
          "components": [
            {
              "internalType": "string",
              "name": "name",
              "type": "string"
            },
            {
              "internalType": "address",
              "name": "owner",
              "type": "address"
            },
            {
              "internalType": "uint256",
              "name": "duration",
              "type": "uint256"
            },
            {
              "internalType": "bytes32",
              "name": "secret",
              "type": "bytes32"
            },
            {
              "internalType": "address",
              "name": "resolver",
              "type": "address"
            },
            {
              "internalType": "bytes[]",
              "name": "data",
              "type": "bytes[]"
            },
            {
              "internalType": "bool",
              "name": "reverseRecord",
              "type": "bool"
            },
            {
              "internalType": "uint16",
              "name": "ownerControlledFuses",
              "type": "uint16"
            }
          ],
          "internalType": "struct IETHRegistrarController.RegisterParams",
          "name": "registerParams",
          "type": "tuple"
        },
        {
          "internalType": "address",
          "name": "tokenAddress",
          "type": "address"
        },
        {
          "internalType": "bool",
          "name": "lifetime",
          "type": "bool"
        },
        {
          "internalType": "string",
          "name": "referree",
          "type": "string"
        }
      ],
      "name": "registerWithToken",
      "outputs": [],
      "stateMutability": "nonpayable",
      "type": "function"
    },
    {
      "inputs": [
        {
          "internalType": "address",
          "name": "tokenAddress",
          "type": "address"
        }
      ],
      "name": "removeToken",
      "outputs": [],
      "stateMutability": "nonpayable",
      "type": "function"
    },
    {
      "inputs": [
        {
          "internalType": "string",
          "name": "name",
          "type": "string"
        },
        {
          "internalType": "uint256",
          "name": "duration",
          "type": "uint256"
        },
        {
          "internalType": "bool",
          "name": "lifetime",
          "type": "bool"
        }
      ],
      "name": "renew",
      "outputs": [],
      "stateMutability": "payable",
      "type": "function"
    },
    {
      "inputs": [
        {
          "internalType": "string",
          "name": "name",
          "type": "string"
        },
        {
          "internalType": "uint256",
          "name": "duration",
          "type": "uint256"
        },
        {
          "internalType": "bool",
          "name": "lifetime",
          "type": "bool"
        }
      ],
      "name": "renewCard",
      "outputs": [],
      "stateMutability": "nonpayable",
      "type": "function"
    },
    {
      "inputs": [
        {
          "internalType": "string",
          "name": "name",
          "type": "string"
        },
        {
          "internalType": "uint256",
          "name": "duration",
          "type": "uint256"
        },
        {
          "internalType": "address",
          "name": "tokenAddress",
          "type": "address"
        },
        {
          "internalType": "bool",
          "name": "lifetime",
          "type": "bool"
        }
      ],
      "name": "renewTokens",
      "outputs": [],
      "stateMutability": "nonpayable",
      "type": "function"
    },
    {
      "inputs": [],
      "name": "renounceOwnership",
      "outputs": [],
      "stateMutability": "nonpayable",
      "type": "function"
    },
    {
      "inputs": [
        {
          "internalType": "string",
          "name": "name",
          "type": "string"
        },
        {
          "internalType": "uint256",
          "name": "duration",
          "type": "uint256"
        },
        {
          "internalType": "bool",
          "name": "lifetime",
          "type": "bool"
        }
      ],
      "name": "rentPrice",
      "outputs": [
        {
          "components": [
            {
              "internalType": "uint256",
              "name": "base",
              "type": "uint256"
            },
            {
              "internalType": "uint256",
              "name": "premium",
              "type": "uint256"
            }
          ],
          "internalType": "struct IPriceOracle.Price",
          "name": "price",
          "type": "tuple"
        }
      ],
      "stateMutability": "view",
      "type": "function"
    },
    {
      "inputs": [
        {
          "internalType": "string",
          "name": "name",
          "type": "string"
        },
        {
          "internalType": "uint256",
          "name": "duration",
          "type": "uint256"
        },
        {
          "internalType": "string",
          "name": "token",
          "type": "string"
        },
        {
          "internalType": "bool",
          "name": "lifetime",
          "type": "bool"
        }
      ],
      "name": "rentPriceToken",
      "outputs": [
        {
          "components": [
            {
              "internalType": "uint256",
              "name": "base",
              "type": "uint256"
            },
            {
              "internalType": "uint256",
              "name": "premium",
              "type": "uint256"
            }
          ],
          "internalType": "struct IPriceOracle.Price",
          "name": "price",
          "type": "tuple"
        }
      ],
      "stateMutability": "view",
      "type": "function"
    },
    {
      "inputs": [],
      "name": "resetInfoFi",
      "outputs": [],
      "stateMutability": "payable",
      "type": "function"
    },
    {
      "inputs": [],
      "name": "reverseRegistrar",
      "outputs": [
        {
          "internalType": "contract ReverseRegistrar",
          "name": "",
          "type": "address"
        }
      ],
      "stateMutability": "view",
      "type": "function"
    },
    {
      "inputs": [
        {
          "internalType": "address",
          "name": "wallet",
          "type": "address"
        }
      ],
      "name": "setBackend",
      "outputs": [],
      "stateMutability": "nonpayable",
      "type": "function"
    },
    {
      "inputs": [
        {
          "internalType": "address",
          "name": "_infoFi",
          "type": "address"
        }
      ],
      "name": "setInfoFi",
      "outputs": [],
      "stateMutability": "nonpayable",
      "type": "function"
    },
    {
      "inputs": [
        {
          "internalType": "address",
          "name": "oracle",
          "type": "address"
        }
      ],
      "name": "setOracle",
      "outputs": [],
      "stateMutability": "nonpayable",
      "type": "function"
    },
    {
      "inputs": [
        {
          "internalType": "address",
          "name": "referral",
          "type": "address"
        }
      ],
      "name": "setReferral",
      "outputs": [],
      "stateMutability": "nonpayable",
      "type": "function"
    },
    {
      "inputs": [
        {
          "components": [
            {
              "internalType": "string",
              "name": "token",
              "type": "string"
            },
            {
              "internalType": "address",
              "name": "tokenAddress",
              "type": "address"
            }
          ],
          "internalType": "struct ETHRegistrarController.Token",
          "name": "token",
          "type": "tuple"
        },
        {
          "internalType": "address",
          "name": "tokenAddress",
          "type": "address"
        }
      ],
      "name": "setToken",
      "outputs": [],
      "stateMutability": "nonpayable",
      "type": "function"
    },
    {
      "inputs": [
        {
          "internalType": "bytes4",
          "name": "interfaceID",
          "type": "bytes4"
        }
      ],
      "name": "supportsInterface",
      "outputs": [
        {
          "internalType": "bool",
          "name": "",
          "type": "bool"
        }
      ],
      "stateMutability": "pure",
      "type": "function"
    },
    {
      "inputs": [
        {
          "internalType": "address",
          "name": "newOwner",
          "type": "address"
        }
      ],
      "name": "transferOwnership",
      "outputs": [],
      "stateMutability": "nonpayable",
      "type": "function"
    },
    {
      "inputs": [],
      "name": "untrackedInfoFi",
      "outputs": [
        {
          "internalType": "uint256",
          "name": "",
          "type": "uint256"
        }
      ],
      "stateMutability": "view",
      "type": "function"
    },
    {
      "inputs": [
        {
          "internalType": "string",
          "name": "name",
          "type": "string"
        }
      ],
      "name": "valid",
      "outputs": [
        {
          "internalType": "bool",
          "name": "",
          "type": "bool"
        }
      ],
      "stateMutability": "pure",
      "type": "function"
    },
    {
      "inputs": [
        {
          "internalType": "address",
          "name": "",
          "type": "address"
        }
      ],
      "name": "verifiedTokens",
      "outputs": [
        {
          "internalType": "string",
          "name": "token",
          "type": "string"
        },
        {
          "internalType": "address",
          "name": "tokenAddress",
          "type": "address"
        }
      ],
      "stateMutability": "view",
      "type": "function"
    },
    {
      "inputs": [],
      "name": "withdraw",
      "outputs": [],
      "stateMutability": "nonpayable",
      "type": "function"
    },
    {
      "inputs": [
        {
          "internalType": "address",
          "name": "tokenAddress",
          "type": "address"
        }
      ],
      "name": "withdrawTokens",
      "outputs": [],
      "stateMutability": "nonpayable",
      "type": "function"
    }
  ],
  "transactionHash": "0x6c5e8edef8790742d0382145947ff2a949e14c38e77d7cd67a2f492a8f56ba81",
  "args": [
    "0x20982a6F5dc6133022266fdFD47F50ee2161c8E4",
    "0xA2ECBC75d71f0bb57d3D07Ac1c6AAa6f1DBe5F3D",
    "60",
    "86400",
    "0xA809305059043e5bF2Df877F6945FCe11F4D6c56",
    "0xfa235B2A078Dc2E9AF1D2943072e1358b983C247",
    "0x3c5a488263618562AeDad48Cb19edc289E93A987",
    "0x9d7ac680729B94894662246EffA8e9F589fA1fe1"
  ],
  "numDeployments": 2,
  "solcInputHash": "6e6b6ed10641ee02bad479f02c27a175",
  "bytecode": "0x6101206040523480156200001257600080fd5b5060405162004fd238038062004fd2833981016040819052620000359162000242565b81336200004281620001d9565b6040516302571be360e01b81527f91d1777781884d03a6757a803996e38de2a42967fb37eeaca72729271025a9e260048201526000906001600160a01b038416906302571be390602401602060405180830381865afa158015620000aa573d6000803e3d6000fd5b505050506040513d601f19601f82011682018060405250810190620000d09190620002ec565b604051630f41a04d60e11b81526001600160a01b03848116600483015291925090821690631e83409a906024016020604051808303816000875af11580156200011d573d6000803e3d6000fd5b505050506040513d601f19601f8201168201806040525081019062000143919062000313565b5050505085851162000168576040516307cb550760e31b815260040160405180910390fd5b428511156200018a57604051630b4319e560e21b815260040160405180910390fd5b6001600160a01b03978816608052600180549789166001600160a01b031998891617905560a0959095525060c092909252841660e052831661010052600280549190931691161790556200032d565b600080546001600160a01b038381166001600160a01b0319831681178455604051919092169283917f8be0079c531659141344cd1fd0a4f28419497f9722a3daafe3b4186f6b6457e09190a35050565b6001600160a01b03811681146200023f57600080fd5b50565b600080600080600080600080610100898b0312156200026057600080fd5b88516200026d8162000229565b60208a0151909850620002808162000229565b8097505060408901519550606089015194506080890151620002a28162000229565b60a08a0151909450620002b58162000229565b60c08a0151909350620002c88162000229565b60e08a0151909250620002db8162000229565b809150509295985092959890939650565b600060208284031215620002ff57600080fd5b81516200030c8162000229565b9392505050565b6000602082840312156200032657600080fd5b5051919050565b60805160a05160c05160e05161010051614c0c620003c66000396000818161068401528181610a5201528181610eb0015281816113ff01528181611e450152818161234a0152612bea0152600081816104ec01526132530152600081816106ee015281816127eb01526130720152600081816105920152612ffb01526000818161194f01528181611adc01526127300152614c0c6000f3fe6080604052600436106102855760003560e01c8063839df94511610153578063a680baaf116100cb578063d3419bf31161007f578063f14fcbc811610064578063f14fcbc814610750578063f2fde38b14610770578063fbd50fa01461079057600080fd5b8063d3419bf314610710578063da7fc24f1461073057600080fd5b8063aeb8ce9b116100b0578063aeb8ce9b146106a6578063c53c0ec1146106c6578063ce1e09c0146106dc57600080fd5b8063a680baaf14610652578063a8e5fbc01461067257600080fd5b80638da5cb5b116101225780639e5914da116101075780639e5914da146105f2578063a0e3aef114610612578063a31bc89a1461063257600080fd5b80638da5cb5b146105b45780639791c097146105d257600080fd5b8063839df9451461050e57806388cccc09146105495780638a95b09f146105695780638d839ffe1461058057600080fd5b80635baef98e11610201578063786d96a1116101b55780637c665bf51161019a5780637c665bf51461049a5780637eb9a50b146104ba57806380869853146104da57600080fd5b8063786d96a11461045a5780637adbf9731461047a57600080fd5b80635fa7b584116101e65780635fa7b584146103ea5780636cfc51e21461040a578063715018a61461044557600080fd5b80635baef98e146103aa5780635d3590d5146103ca57600080fd5b80633c3a7d351161025857806349df728c1161023d57806349df728c1461033f5780634ba694bd1461035f5780634be2b2ec1461039757600080fd5b80633c3a7d351461030a5780633ccfd60b1461032a57600080fd5b806301ffc9a71461028a578063094f716d146102bf5780631baaaffe146102c957806323ed462e146102f7575b600080fd5b34801561029657600080fd5b506102aa6102a5366004613bd5565b6107b0565b60405190151581526020015b60405180910390f35b6102c7610819565b005b3480156102d557600080fd5b506102e96102e4366004613c24565b610921565b6040516102b6929190613c91565b6102c7610305366004613ec5565b6109ce565b34801561031657600080fd5b506102c7610325366004613fff565b610d44565b34801561033657600080fd5b506102c761119f565b34801561034b57600080fd5b506102c761035a366004613c24565b611245565b34801561036b57600080fd5b5060025461037f906001600160a01b031681565b6040516001600160a01b0390911681526020016102b6565b6102c76103a5366004613fff565b6112d3565b3480156103b657600080fd5b506102c76103c5366004613c24565b6117c0565b3480156103d657600080fd5b506102c76103e536600461405e565b6117ea565b3480156103f657600080fd5b506102c7610405366004613c24565b61186b565b34801561041657600080fd5b5061042a61042536600461409f565b6118ab565b604080518251815260209283015192810192909252016102b6565b34801561045157600080fd5b506102c7611a24565b34801561046657600080fd5b5061042a6104753660046140fa565b611a38565b34801561048657600080fd5b506102c7610495366004613c24565b611bb4565b3480156104a657600080fd5b506102c76104b536600461416f565b611bde565b3480156104c657600080fd5b506102c76104d536600461429f565b612164565b3480156104e657600080fd5b5061037f7f000000000000000000000000000000000000000000000000000000000000000081565b34801561051a57600080fd5b5061053b610529366004614337565b60046020526000908152604090205481565b6040519081526020016102b6565b34801561055557600080fd5b5060035461037f906001600160a01b031681565b34801561057557600080fd5b5061053b6224ea0081565b34801561058c57600080fd5b5061053b7f000000000000000000000000000000000000000000000000000000000000000081565b3480156105c057600080fd5b506000546001600160a01b031661037f565b3480156105de57600080fd5b506102aa6105ed366004614350565b6121c3565b3480156105fe57600080fd5b506102c761060d366004613c24565b6121d8565b34801561061e57600080fd5b5061053b61062d366004614385565b612202565b34801561063e57600080fd5b506102c761064d366004613ec5565b6122a2565b34801561065e57600080fd5b5060055461037f906001600160a01b031681565b34801561067e57600080fd5b5061037f7f000000000000000000000000000000000000000000000000000000000000000081565b3480156106b257600080fd5b506102aa6106c1366004614350565b6126e7565b3480156106d257600080fd5b5061053b60065481565b3480156106e857600080fd5b5061053b7f000000000000000000000000000000000000000000000000000000000000000081565b34801561071c57600080fd5b5060015461037f906001600160a01b031681565b34801561073c57600080fd5b506102c761074b366004613c24565b6127aa565b34801561075c57600080fd5b506102c761076b366004614337565b6127d4565b34801561077c57600080fd5b506102c761078b366004613c24565b61285d565b34801561079c57600080fd5b506102c76107ab366004614458565b6128ea565b60006001600160e01b031982167f01ffc9a700000000000000000000000000000000000000000000000000000000148061081357506001600160e01b031982167f0439cc7600000000000000000000000000000000000000000000000000000000145b92915050565b610821612f8a565b600034116108765760405162461bcd60e51b815260206004820152601f60248201527f4d7573742073656e642076616c756520746f20726573657420696e666f46690060448201526064015b60405180910390fd5b6003546040516000916001600160a01b03169034908381818185875af1925050503d80600081146108c3576040519150601f19603f3d011682016040523d82523d6000602084013e6108c8565b606091505b50509050806109195760405162461bcd60e51b815260206004820152601860248201527f5061796d656e7420746f20696e666f4669206661696c65640000000000000000604482015260640161086d565b506000600655565b60076020526000908152604090208054819061093c906144cc565b80601f0160208091040260200160405190810160405280929190818152602001828054610968906144cc565b80156109b55780601f1061098a576101008083540402835291602001916109b5565b820191906000526020600020905b81548152906001019060200180831161099857829003601f168201915b505050600190930154919250506001600160a01b031682565b81156109dd57640757b12c0097505b60006109ea8b8a856118ab565b602081015181519192506109fd9161451c565b341015610a1d5760405163044044a560e21b815260040160405180910390fd5b610a388b8a610a338e8e8e8e8e8e8e8e8e612202565b612fe4565b604051635200a4c160e11b81526000906001600160a01b037f0000000000000000000000000000000000000000000000000000000000000000169063a401498290610a8f908f908f908f908e908c9060040161452f565b6020604051808303816000875af1158015610aae573d6000803e3d6000fd5b505050506040513d601f19601f82011682018060405250810190610ad29190614577565b875190915015610aee57610aee888d8051906020012089613171565b8515610c0757610aff8c8933613251565b6000600260009054906101000a90046001600160a01b03166001600160a01b03166314723fae8e8e6040518363ffffffff1660e01b8152600401610b44929190613c91565b6020604051808303816000875af1158015610b63573d6000803e3d6000fd5b505050506040513d601f19601f82011682018060405250810190610b879190614590565b90508015610c05576002548d5160208f0120604051631f8e227160e01b815260048101919091526001600160a01b038e811660248301526044820185905290911690631f8e227190606401600060405180830381600087803b158015610bec57600080fd5b505af1158015610c00573d6000803e3d6000fd5b505050505b505b8a6001600160a01b03168c805190602001207f69e37f151eb98a09618ddaa80c8cfaf1ce5996867c489f45b555b412271ebf278e8560000151866020015186604051610c5694939291906145ad565b60405180910390a360208201518251610c6f919061451c565b341115610d2a57602082015182516000913391610c8c919061451c565b610c9690346145dc565b604051600081818185875af1925050503d8060008114610cd2576040519150601f19603f3d011682016040523d82523d6000602084013e610cd7565b606091505b5050905080610d285760405162461bcd60e51b815260206004820152600d60248201527f526566756e64206661696c656400000000000000000000000000000000000000604482015260640161086d565b505b610d3682848e8e613305565b505050505050505050505050565b6005546001600160a01b03163314610d9e5760405162461bcd60e51b815260206004820152600b60248201527f4e6f74204261636b656e64000000000000000000000000000000000000000000604482015260640161086d565b8015610dad57640757b12c0091505b60008484604051610dbf9291906145ef565b604080519182900382206020601f880181900481028401810190925286835292508291600091610e0e919089908990819084018382808284376000920191909152508992508891506118ab9050565b600254604051630338bc9760e41b8152600481018690529192506000916001600160a01b039091169063338bc97090602401600060405180830381865afa158015610e5d573d6000803e3d6000fd5b505050506040513d6000823e601f3d908101601f19168201604052610e85919081019061462f565b60405163c475abff60e01b815260048101859052602481018890529091506000906001600160a01b037f0000000000000000000000000000000000000000000000000000000000000000169063c475abff906044016020604051808303816000875af1158015610ef9573d6000803e3d6000fd5b505050506040513d601f19601f82011682018060405250810190610f1d9190614577565b6002546040519192506001600160a01b031690638b07795b90610f43908c908c906145ef565b60405190819003812060e083901b6001600160e01b0319168252600482015260248101849052604401600060405180830381600087803b158015610f8657600080fd5b505af1158015610f9a573d6000803e3d6000fd5b50505050847f3da24c024582931cfaf8267d8ed24d13a82a8068d5bd337d30ec45cea4e506ae8a8a866000015185604051610fd89493929190614678565b60405180910390a2600254825160208401206040516376d7cfb760e11b815260048101919091526000916001600160a01b03169063edaf9f6e90602401602060405180830381865afa158015611032573d6000803e3d6000fd5b505050506040513d601f19601f8201168201806040525081019061105691906146b8565b6001600160a01b03161461115657600254825160208401206040516376d7cfb760e11b815260048101919091526000916001600160a01b03169063edaf9f6e90602401602060405180830381865afa1580156110b6573d6000803e3d6000fd5b505050506040513d601f19601f820116820180604052508101906110da91906146b8565b600254602086015186519293506001600160a01b039091169163668c91c8916111029161451c565b83866040518463ffffffff1660e01b8152600401611122939291906146d5565b600060405180830381600087803b15801561113c57600080fd5b505af1158015611150573d6000803e3d6000fd5b50505050505b602083015183516064916111699161451c565b6111749060236146fd565b61117e9190614714565b6006600082825461118f919061451c565b9091555050505050505050505050565b600080546040516001600160a01b039091169047908381818185875af1925050503d80600081146111ec576040519150601f19603f3d011682016040523d82523d6000602084013e6111f1565b606091505b50509050806112425760405162461bcd60e51b815260206004820152600f60248201527f5472616e73666572206661696c65640000000000000000000000000000000000604482015260640161086d565b50565b61124261125a6000546001600160a01b031690565b6040516370a0823160e01b81523060048201526001600160a01b038416906370a0823190602401602060405180830381865afa15801561129e573d6000803e3d6000fd5b505050506040513d601f19601f820116820180604052508101906112c29190614577565b6001600160a01b03841691906134e6565b80156112e257640757b12c0091505b600084846040516112f49291906145ef565b604080519182900382206020601f880181900481028401810190925286835292508291600091611343919089908990819084018382808284376000920191909152508992508891506118ab9050565b600254604051630338bc9760e41b8152600481018690529192506000916001600160a01b039091169063338bc97090602401600060405180830381865afa158015611392573d6000803e3d6000fd5b505050506040513d6000823e601f3d908101601f191682016040526113ba919081019061462f565b82519091503410156113df5760405163044044a560e21b815260040160405180910390fd5b60405163c475abff60e01b815260048101849052602481018790526000907f00000000000000000000000000000000000000000000000000000000000000006001600160a01b03169063c475abff906044016020604051808303816000875af1158015611450573d6000803e3d6000fd5b505050506040513d601f19601f820116820180604052508101906114749190614577565b6002546040519192506001600160a01b031690638b07795b9061149a908c908c906145ef565b60405190819003812060e083901b6001600160e01b0319168252600482015260248101849052604401600060405180830381600087803b1580156114dd57600080fd5b505af11580156114f1573d6000803e3d6000fd5b505050508260000151341115611554578251339061150f90346145dc565b604051600081818185875af1925050503d806000811461154b576040519150601f19603f3d011682016040523d82523d6000602084013e611550565b606091505b5050505b847f3da24c024582931cfaf8267d8ed24d13a82a8068d5bd337d30ec45cea4e506ae8a8a348560405161158a9493929190614678565b60405180910390a2600254825160208401206040516376d7cfb760e11b815260048101919091526000916001600160a01b03169063edaf9f6e90602401602060405180830381865afa1580156115e4573d6000803e3d6000fd5b505050506040513d601f19601f8201168201806040525081019061160891906146b8565b6001600160a01b0316146117b557600254825160208401206040516376d7cfb760e11b815260048101919091526000916001600160a01b03169063edaf9f6e90602401602060405180830381865afa158015611668573d6000803e3d6000fd5b505050506040513d601f19601f8201168201806040525081019061168c91906146b8565b60025460405163c08d52af60e01b81526001600160a01b0380841660048301529293506000929091169063c08d52af90602401602060405180830381865afa1580156116dc573d6000803e3d6000fd5b505050506040513d601f19601f820116820180604052508101906117009190614577565b90506019600582106117105750601e5b600254602087015187516001600160a01b039092169163e858db0891606491859161173a9161451c565b61174491906146fd565b61174e9190614714565b6020890151895161175f919061451c565b86896040518563ffffffff1660e01b815260040161177f939291906146d5565b6000604051808303818588803b15801561179857600080fd5b505af11580156117ac573d6000803e3d6000fd5b50505050505050505b505050505050505050565b6117c8612f8a565b600380546001600160a01b0319166001600160a01b0392909216919091179055565b6117f2612f8a565b60405163a9059cbb60e01b81526001600160a01b0383811660048301526024820183905284169063a9059cbb906044016020604051808303816000875af1158015611841573d6000803e3d6000fd5b505050506040513d601f19601f820116820180604052508101906118659190614590565b50505050565b611873612f8a565b6001600160a01b0381166000908152600760205260408120906118968282613b87565b5060010180546001600160a01b031916905550565b60408051808201909152600080825260208201528215806118cf57506224ea008310155b61191b5760405162461bcd60e51b815260206004820152601060248201527f496e76616c6964206475726174696f6e00000000000000000000000000000000604482015260640161086d565b83516020850120600154604051636b727d4360e11b8152600481018390526001600160a01b0391821691638416a3749188917f0000000000000000000000000000000000000000000000000000000000000000169063d6e4fa8690602401602060405180830381865afa158015611996573d6000803e3d6000fd5b505050506040513d601f19601f820116820180604052508101906119ba9190614577565b87876040518563ffffffff1660e01b81526004016119db9493929190614736565b6040805180830381865afa1580156119f7573d6000803e3d6000fd5b505050506040513d601f19601f82011682018060405250810190611a1b9190614767565b95945050505050565b611a2c612f8a565b611a36600061355e565b565b6040805180820190915260008082526020820152831580611a5c57506224ea008410155b611aa85760405162461bcd60e51b815260206004820152601060248201527f496e76616c6964206475726174696f6e00000000000000000000000000000000604482015260640161086d565b84516020860120600154604051636b727d4360e11b8152600481018390526001600160a01b0391821691638361401d9189917f0000000000000000000000000000000000000000000000000000000000000000169063d6e4fa8690602401602060405180830381865afa158015611b23573d6000803e3d6000fd5b505050506040513d601f19601f82011682018060405250810190611b479190614577565b8888886040518663ffffffff1660e01b8152600401611b6a959493929190614799565b6040805180830381865afa158015611b86573d6000803e3d6000fd5b505050506040513d601f19601f82011682018060405250810190611baa9190614767565b9695505050505050565b611bbc612f8a565b600180546001600160a01b0319166001600160a01b0392909216919091179055565b6001600160a01b0383811660009081526007602052604090206001015416611c485760405162461bcd60e51b815260206004820152601060248201527f556e616363657074656420546f6b656e00000000000000000000000000000000604482015260640161086d565b6001600160a01b0383166000908152600760205260408082208151808301909252805482908290611c78906144cc565b80601f0160208091040260200160405190810160405280929190818152602001828054611ca4906144cc565b8015611cf15780601f10611cc657610100808354040283529160200191611cf1565b820191906000526020600020905b815481529060010190602001808311611cd457829003601f168201915b5050509183525050600191909101546001600160a01b031660209091015290508215611d2357640757b12c0060408601525b611d6185600001518660400151610a33886000015189602001518a604001518b606001518c608001518d60a001518e60c001518f60e001518e612202565b6000611d7b86600001518760400151846000015187611a38565b60208101518151919250611d8e9161451c565b6040516370a0823160e01b81523360048201526001600160a01b038716906370a0823190602401602060405180830381865afa158015611dd2573d6000803e3d6000fd5b505050506040513d601f19601f82011682018060405250810190611df69190614577565b1015611e155760405163044044a560e21b815260040160405180910390fd5b8551602087015160408089015160808a015160e08b01519251635200a4c160e11b81526000956001600160a01b037f0000000000000000000000000000000000000000000000000000000000000000169563a401498295611e7c959294919360040161452f565b6020604051808303816000875af1158015611e9b573d6000803e3d6000fd5b505050506040513d601f19601f82011682018060405250810190611ebf9190614577565b9050611ee387600001518860a0015189602001518a608001518b60c00151866135ae565b611eed86836136e9565b86602001516001600160a01b03168760000151805190602001207f69e37f151eb98a09618ddaa80c8cfaf1ce5996867c489f45b555b412271ebf2789600001518560000151866020015186604051611f4894939291906145ad565b60405180910390a3600254845160208601206040516376d7cfb760e11b815260048101919091526000916001600160a01b03169063edaf9f6e90602401602060405180830381865afa158015611fa2573d6000803e3d6000fd5b505050506040513d601f19601f82011682018060405250810190611fc691906146b8565b60025460405163c08d52af60e01b81526001600160a01b0380841660048301529293506000929091169063c08d52af90602401602060405180830381865afa158015612016573d6000803e3d6000fd5b505050506040513d601f19601f8201168201806040525081019061203a9190614577565b604080516020808201909252600090528751908801209091507fc5d2460186f7233c927e7db2dcc703c0e500b653ca82273b7bfad8045d85a470146117b5576019600582106120875750601e5b600254602086015186516120d2926001600160a01b03169160649185916120ad9161451c565b6120b791906146fd565b6120c19190614714565b6001600160a01b038c1691906134e6565b6002548a516020808d01519088015188516001600160a01b039094169363ff8f3947938c9390929091612105919061451c565b8e6040518663ffffffff1660e01b81526004016121269594939291906147df565b600060405180830381600087803b15801561214057600080fd5b505af1158015612154573d6000803e3d6000fd5b5050505050505050505050505050565b61216c612f8a565b6001600160a01b0381166000908152600760205260409020825183919081906121959082614875565b5060209190910151600190910180546001600160a01b0319166001600160a01b039092169190911790555050565b600060026121d083613718565b101592915050565b6121e0612f8a565b600280546001600160a01b0319166001600160a01b0392909216919091179055565b885160208a01208451600091901580159061222457506001600160a01b038716155b1561225b576040517fd3f605c400000000000000000000000000000000000000000000000000000000815260040160405180910390fd5b808a8a8a8a8a8a8a8a60405160200161227c9998979695949392919061498a565b604051602081830303815290604052805190602001209150509998505050505050505050565b6005546001600160a01b031633146122fc5760405162461bcd60e51b815260206004820152600b60248201527f4e6f74204261636b656e64000000000000000000000000000000000000000000604482015260640161086d565b811561230b57640757b12c0097505b60006123188b8a856118ab565b90506123308b8a610a338e8e8e8e8e8e8e8e8e612202565b604051635200a4c160e11b81526000906001600160a01b037f0000000000000000000000000000000000000000000000000000000000000000169063a401498290612387908f908f908f908e908c9060040161452f565b6020604051808303816000875af11580156123a6573d6000803e3d6000fd5b505050506040513d601f19601f820116820180604052508101906123ca9190614577565b8751909150156123e6576123e6888d8051906020012089613171565b85156124ff576123f78c898d613251565b6000600260009054906101000a90046001600160a01b03166001600160a01b03166314723fae8e8e6040518363ffffffff1660e01b815260040161243c929190613c91565b6020604051808303816000875af115801561245b573d6000803e3d6000fd5b505050506040513d601f19601f8201168201806040525081019061247f9190614590565b905080156124fd576002548d5160208f0120604051631f8e227160e01b815260048101919091526001600160a01b038e811660248301526044820185905290911690631f8e227190606401600060405180830381600087803b1580156124e457600080fd5b505af11580156124f8573d6000803e3d6000fd5b505050505b505b8a6001600160a01b03168c805190602001207f69e37f151eb98a09618ddaa80c8cfaf1ce5996867c489f45b555b412271ebf278e856000015186602001518660405161254e94939291906145ad565b60405180910390a3600254835160208501206040516376d7cfb760e11b815260048101919091526000916001600160a01b03169063edaf9f6e90602401602060405180830381865afa1580156125a8573d6000803e3d6000fd5b505050506040513d601f19601f820116820180604052508101906125cc91906146b8565b604080516020808201909252600090528551908601209091507fc5d2460186f7233c927e7db2dcc703c0e500b653ca82273b7bfad8045d85a4701461269a57600260009054906101000a90046001600160a01b03166001600160a01b031663898c6495858f8f87602001518860000151612646919061451c565b866040518663ffffffff1660e01b81526004016126679594939291906147df565b600060405180830381600087803b15801561268157600080fd5b505af1158015612695573d6000803e3d6000fd5b505050505b602083015183516064916126ad9161451c565b6126b89060236146fd565b6126c29190614714565b600660008282546126d3919061451c565b909155505050505050505050505050505050565b805160208201206000906126fa836121c3565b80156127a357506040517f96e494e8000000000000000000000000000000000000000000000000000000008152600481018290527f00000000000000000000000000000000000000000000000000000000000000006001600160a01b0316906396e494e890602401602060405180830381865afa15801561277f573d6000803e3d6000fd5b505050506040513d601f19601f820116820180604052508101906127a39190614590565b9392505050565b6127b2612f8a565b600580546001600160a01b0319166001600160a01b0392909216919091179055565b6000818152600460205260409020544290612810907f00000000000000000000000000000000000000000000000000000000000000009061451c565b1061284a576040517f0a059d710000000000000000000000000000000000000000000000000000000081526004810182905260240161086d565b6000908152600460205260409020429055565b612865612f8a565b6001600160a01b0381166128e15760405162461bcd60e51b815260206004820152602660248201527f4f776e61626c653a206e6577206f776e657220697320746865207a65726f206160448201527f6464726573730000000000000000000000000000000000000000000000000000606482015260840161086d565b6112428161355e565b80156128f957640757b12c0092505b6001600160a01b03828116600090815260076020526040902060010154166129635760405162461bcd60e51b815260206004820152601060248201527f556e616363657074656420546f6b656e00000000000000000000000000000000604482015260640161086d565b6001600160a01b0382166000908152600760205260408082208151808301909252805482908290612993906144cc565b80601f01602080910402602001604051908101604052809291908181526020018280546129bf906144cc565b8015612a0c5780601f106129e157610100808354040283529160200191612a0c565b820191906000526020600020905b8154815290600101906020018083116129ef57829003601f168201915b5050509183525050600191909101546001600160a01b0316602090910152604051909150600090612a4090889088906145ef565b604051908190038120600254630338bc9760e41b83526004830182905290925082916000916001600160a01b03169063338bc97090602401600060405180830381865afa158015612a95573d6000803e3d6000fd5b505050506040513d6000823e601f3d908101601f19168201604052612abd919081019061462f565b90506000612b058a8a8080601f0160208091040260200160405190810160405280939291908181526020018383808284376000920191909152505088518c9250905089611a38565b60208101518151919250612b189161451c565b6040516370a0823160e01b81523360048201526001600160a01b038916906370a0823190602401602060405180830381865afa158015612b5c573d6000803e3d6000fd5b505050506040513d601f19601f82011682018060405250810190612b809190614577565b1015612b9f5760405163044044a560e21b815260040160405180910390fd5b612bca333083602001518460000151612bb8919061451c565b6001600160a01b038b169291906138a7565b60405163c475abff60e01b815260048101849052602481018990526000907f00000000000000000000000000000000000000000000000000000000000000006001600160a01b03169063c475abff906044016020604051808303816000875af1158015612c3b573d6000803e3d6000fd5b505050506040513d601f19601f82011682018060405250810190612c5f9190614577565b6002546040519192506001600160a01b031690638b07795b90612c85908e908e906145ef565b60405190819003812060e083901b6001600160e01b0319168252600482015260248101849052604401600060405180830381600087803b158015612cc857600080fd5b505af1158015612cdc573d6000803e3d6000fd5b50505050847f3da24c024582931cfaf8267d8ed24d13a82a8068d5bd337d30ec45cea4e506ae8c8c85602001518660000151612d18919061451c565b85604051612d299493929190614678565b60405180910390a2600254835160208501206040516376d7cfb760e11b815260048101919091526000916001600160a01b03169063edaf9f6e90602401602060405180830381865afa158015612d83573d6000803e3d6000fd5b505050506040513d601f19601f82011682018060405250810190612da791906146b8565b6001600160a01b031614612f7d57600254835160208501206040516376d7cfb760e11b815260048101919091526000916001600160a01b03169063edaf9f6e90602401602060405180830381865afa158015612e07573d6000803e3d6000fd5b505050506040513d601f19601f82011682018060405250810190612e2b91906146b8565b60025460405163c08d52af60e01b81526001600160a01b0380841660048301529293506000929091169063c08d52af90602401602060405180830381865afa158015612e7b573d6000803e3d6000fd5b505050506040513d601f19601f82011682018060405250810190612e9f9190614577565b9050601960058210612eaf5750601e5b60025460208601518651612f009230926001600160a01b03909116916064918691612eda919061451c565b612ee491906146fd565b612eee9190614714565b6001600160a01b038f169291906138a7565b600254602086015186516001600160a01b039092169163d184befa91612f259161451c565b858e8a6040518563ffffffff1660e01b8152600401612f4794939291906149f2565b600060405180830381600087803b158015612f6157600080fd5b505af1158015612f75573d6000803e3d6000fd5b505050505050505b5050505050505050505050565b6000546001600160a01b03163314611a365760405162461bcd60e51b815260206004820181905260248201527f4f776e61626c653a2063616c6c6572206973206e6f7420746865206f776e6572604482015260640161086d565b6000818152600460205260409020544290613020907f00000000000000000000000000000000000000000000000000000000000000009061451c565b111561305b576040517f5320bcf90000000000000000000000000000000000000000000000000000000081526004810182905260240161086d565b6000818152600460205260409020544290613097907f00000000000000000000000000000000000000000000000000000000000000009061451c565b116130d1576040517fcb7690d70000000000000000000000000000000000000000000000000000000081526004810182905260240161086d565b6130da836126e7565b61311257826040517f477707e800000000000000000000000000000000000000000000000000000000815260040161086d9190614a24565b600081815260046020526040812055811580159061313257506224ea0082105b1561316c576040517f9a71997b0000000000000000000000000000000000000000000000000000000081526004810183905260240161086d565b505050565b604080517ff92e9539a836c60f519caef3f817b823139813f56a7a19c9621f7b47f35b340d602080830191909152818301859052825180830384018152606083019384905280519101207fe32954eb0000000000000000000000000000000000000000000000000000000090925284906001600160a01b0382169063e32954eb906132029085908790606401614a37565b6000604051808303816000875af1158015613221573d6000803e3d6000fd5b505050506040513d6000823e601f3d908101601f191682016040526132499190810190614a50565b505050505050565b7f00000000000000000000000000000000000000000000000000000000000000006001600160a01b0316637a806d6b338385876040516020016132949190614b16565b6040516020818303038152906040526040518563ffffffff1660e01b81526004016132c29493929190614b57565b6020604051808303816000875af11580156132e1573d6000803e3d6000fd5b505050506040513d601f19601f820116820180604052508101906118659190614577565b600254835160208501206040516376d7cfb760e11b815260048101919091526000916001600160a01b03169063edaf9f6e90602401602060405180830381865afa158015613357573d6000803e3d6000fd5b505050506040513d601f19601f8201168201806040525081019061337b91906146b8565b604080516020808201909252600090528551908601209091507fc5d2460186f7233c927e7db2dcc703c0e500b653ca82273b7bfad8045d85a470146134df5760025460405163c08d52af60e01b81526001600160a01b03838116600483015260199260009291169063c08d52af90602401602060405180830381865afa158015613409573d6000803e3d6000fd5b505050506040513d601f19601f8201168201806040525081019061342d9190614577565b90506005811061343c57601e91505b600254602088015188516001600160a01b0390921691637d31266a9160649186916134669161451c565b61347091906146fd565b61347a9190614714565b8888888c602001518d60000151613491919061451c565b896040518763ffffffff1660e01b81526004016134b29594939291906147df565b6000604051808303818588803b1580156134cb57600080fd5b505af1158015610d36573d6000803e3d6000fd5b5050505050565b6040516001600160a01b03831660248201526044810182905261316c90849063a9059cbb60e01b906064015b60408051601f198184030181529190526020810180517bffffffffffffffffffffffffffffffffffffffffffffffffffffffff166001600160e01b0319909316929092179091526138f8565b600080546001600160a01b038381166001600160a01b0319831681178455604051919092169283917f8be0079c531659141344cd1fd0a4f28419497f9722a3daafe3b4186f6b6457e09190a35050565b8451156135c7576135c783878051906020012087613171565b8115613249576135d8868433613251565b6002546040517f14723fae0000000000000000000000000000000000000000000000000000000081526000916001600160a01b0316906314723fae90613624908a908990600401613c91565b6020604051808303816000875af1158015613643573d6000803e3d6000fd5b505050506040513d601f19601f820116820180604052508101906136679190614590565b905080156136e05760025487516020890120604051631f8e227160e01b815260048101919091526001600160a01b0387811660248301526044820185905290911690631f8e227190606401600060405180830381600087803b1580156136cc57600080fd5b505af1158015612f7d573d6000803e3d6000fd5b50505050505050565b613714333083602001518460000151613702919061451c565b6001600160a01b0386169291906138a7565b5050565b8051600090819081905b8082101561389e57600085838151811061373e5761373e614b8b565b01602001516001600160f81b03191690507f80000000000000000000000000000000000000000000000000000000000000008110156137895761378260018461451c565b925061388b565b7fe0000000000000000000000000000000000000000000000000000000000000006001600160f81b0319821610156137c65761378260028461451c565b7ff0000000000000000000000000000000000000000000000000000000000000006001600160f81b0319821610156138035761378260038461451c565b7ff8000000000000000000000000000000000000000000000000000000000000006001600160f81b0319821610156138405761378260048461451c565b7ffc000000000000000000000000000000000000000000000000000000000000006001600160f81b03198216101561387d5761378260058461451c565b61388860068461451c565b92505b508261389681614ba1565b935050613722565b50909392505050565b6040516001600160a01b03808516602483015283166044820152606481018290526118659085907f23b872dd0000000000000000000000000000000000000000000000000000000090608401613512565b600061394d826040518060400160405280602081526020017f5361666545524332303a206c6f772d6c6576656c2063616c6c206661696c6564815250856001600160a01b03166139e09092919063ffffffff16565b905080516000148061396e57508080602001905181019061396e9190614590565b61316c5760405162461bcd60e51b815260206004820152602a60248201527f5361666545524332303a204552433230206f7065726174696f6e20646964206e60448201527f6f74207375636365656400000000000000000000000000000000000000000000606482015260840161086d565b60606139ef84846000856139f7565b949350505050565b606082471015613a6f5760405162461bcd60e51b815260206004820152602660248201527f416464726573733a20696e73756666696369656e742062616c616e636520666f60448201527f722063616c6c0000000000000000000000000000000000000000000000000000606482015260840161086d565b600080866001600160a01b03168587604051613a8b9190614bba565b60006040518083038185875af1925050503d8060008114613ac8576040519150601f19603f3d011682016040523d82523d6000602084013e613acd565b606091505b5091509150613ade87838387613ae9565b979650505050505050565b60608315613b58578251600003613b51576001600160a01b0385163b613b515760405162461bcd60e51b815260206004820152601d60248201527f416464726573733a2063616c6c20746f206e6f6e2d636f6e7472616374000000604482015260640161086d565b50816139ef565b6139ef8383815115613b6d5781518083602001fd5b8060405162461bcd60e51b815260040161086d9190614a24565b508054613b93906144cc565b6000825580601f10613ba3575050565b601f01602090049060005260206000209081019061124291905b80821115613bd15760008155600101613bbd565b5090565b600060208284031215613be757600080fd5b81356001600160e01b0319811681146127a357600080fd5b6001600160a01b038116811461124257600080fd5b8035613c1f81613bff565b919050565b600060208284031215613c3657600080fd5b81356127a381613bff565b60005b83811015613c5c578181015183820152602001613c44565b50506000910152565b60008151808452613c7d816020860160208601613c41565b601f01601f19169290920160200192915050565b604081526000613ca46040830185613c65565b90506001600160a01b03831660208301529392505050565b634e487b7160e01b600052604160045260246000fd5b604051610100810167ffffffffffffffff81118282101715613cf657613cf6613cbc565b60405290565b6040805190810167ffffffffffffffff81118282101715613cf657613cf6613cbc565b604051601f8201601f1916810167ffffffffffffffff81118282101715613d4857613d48613cbc565b604052919050565b600067ffffffffffffffff821115613d6a57613d6a613cbc565b50601f01601f191660200190565b6000613d8b613d8684613d50565b613d1f565b9050828152838383011115613d9f57600080fd5b828260208301376000602084830101529392505050565b600082601f830112613dc757600080fd5b6127a383833560208501613d78565b600067ffffffffffffffff821115613df057613df0613cbc565b5060051b60200190565b600082601f830112613e0b57600080fd5b81356020613e1b613d8683613dd6565b82815260059290921b84018101918181019086841115613e3a57600080fd5b8286015b84811015613e8f57803567ffffffffffffffff811115613e5e5760008081fd5b8701603f81018913613e705760008081fd5b613e81898683013560408401613d78565b845250918301918301613e3e565b509695505050505050565b801515811461124257600080fd5b8035613c1f81613e9a565b803561ffff81168114613c1f57600080fd5b6000806000806000806000806000806101408b8d031215613ee557600080fd5b8a3567ffffffffffffffff80821115613efd57600080fd5b613f098e838f01613db6565b9b50613f1760208e01613c14565b9a5060408d0135995060608d01359850613f3360808e01613c14565b975060a08d0135915080821115613f4957600080fd5b613f558e838f01613dfa565b9650613f6360c08e01613ea8565b9550613f7160e08e01613eb3565b9450613f806101008e01613ea8565b93506101208d0135915080821115613f9757600080fd5b50613fa48d828e01613db6565b9150509295989b9194979a5092959850565b60008083601f840112613fc857600080fd5b50813567ffffffffffffffff811115613fe057600080fd5b602083019150836020828501011115613ff857600080fd5b9250929050565b6000806000806060858703121561401557600080fd5b843567ffffffffffffffff81111561402c57600080fd5b61403887828801613fb6565b90955093505060208501359150604085013561405381613e9a565b939692955090935050565b60008060006060848603121561407357600080fd5b833561407e81613bff565b9250602084013561408e81613bff565b929592945050506040919091013590565b6000806000606084860312156140b457600080fd5b833567ffffffffffffffff8111156140cb57600080fd5b6140d786828701613db6565b9350506020840135915060408401356140ef81613e9a565b809150509250925092565b6000806000806080858703121561411057600080fd5b843567ffffffffffffffff8082111561412857600080fd5b61413488838901613db6565b955060208701359450604087013591508082111561415157600080fd5b5061415e87828801613db6565b925050606085013561405381613e9a565b6000806000806080858703121561418557600080fd5b843567ffffffffffffffff8082111561419d57600080fd5b9086019061010082890312156141b257600080fd5b6141ba613cd2565b8235828111156141c957600080fd5b6141d58a828601613db6565b8252506141e460208401613c14565b6020820152604083013560408201526060830135606082015261420960808401613c14565b608082015260a08301358281111561422057600080fd5b61422c8a828601613dfa565b60a08301525061423e60c08401613ea8565b60c082015261424f60e08401613eb3565b60e0820152955061426260208801613c14565b945061427060408801613ea8565b9350606087013591508082111561428657600080fd5b5061429387828801613db6565b91505092959194509250565b600080604083850312156142b257600080fd5b823567ffffffffffffffff808211156142ca57600080fd5b90840190604082870312156142de57600080fd5b6142e6613cfc565b8235828111156142f557600080fd5b61430188828601613db6565b8252506020830135925061431483613bff565b60208181019390935293505083013561432c81613bff565b809150509250929050565b60006020828403121561434957600080fd5b5035919050565b60006020828403121561436257600080fd5b813567ffffffffffffffff81111561437957600080fd5b6139ef84828501613db6565b60008060008060008060008060006101208a8c0312156143a457600080fd5b893567ffffffffffffffff808211156143bc57600080fd5b6143c88d838e01613db6565b9a5060208c013591506143da82613bff565b90985060408b0135975060608b0135965060808b0135906143fa82613bff565b90955060a08b0135908082111561441057600080fd5b5061441d8c828d01613dfa565b94505061442c60c08b01613ea8565b925061443a60e08b01613eb3565b91506144496101008b01613ea8565b90509295985092959850929598565b60008060008060006080868803121561447057600080fd5b853567ffffffffffffffff81111561448757600080fd5b61449388828901613fb6565b9096509450506020860135925060408601356144ae81613bff565b915060608601356144be81613e9a565b809150509295509295909350565b600181811c908216806144e057607f821691505b60208210810361450057634e487b7160e01b600052602260045260246000fd5b50919050565b634e487b7160e01b600052601160045260246000fd5b8082018082111561081357610813614506565b60a08152600061454260a0830188613c65565b90506001600160a01b03808716602084015285604084015280851660608401525061ffff831660808301529695505050505050565b60006020828403121561458957600080fd5b5051919050565b6000602082840312156145a257600080fd5b81516127a381613e9a565b6080815260006145c06080830187613c65565b6020830195909552506040810192909252606090910152919050565b8181038181111561081357610813614506565b8183823760009101908152919050565b600061460d613d8684613d50565b905082815283838301111561462157600080fd5b6127a3836020830184613c41565b60006020828403121561464157600080fd5b815167ffffffffffffffff81111561465857600080fd5b8201601f8101841361466957600080fd5b6139ef848251602084016145ff565b606081528360608201528385608083013760006080858301015260006080601f19601f870116830101905083602083015282604083015295945050505050565b6000602082840312156146ca57600080fd5b81516127a381613bff565b8381526001600160a01b0383166020820152606060408201526000611a1b6060830184613c65565b808202811582820484141761081357610813614506565b60008261473157634e487b7160e01b600052601260045260246000fd5b500490565b6080815260006147496080830187613c65565b60208301959095525060408101929092521515606090910152919050565b60006040828403121561477957600080fd5b614781613cfc565b82518152602083015160208201528091505092915050565b60a0815260006147ac60a0830188613c65565b86602084015285604084015282810360608401526147ca8186613c65565b91505082151560808301529695505050505050565b60a0815260006147f260a0830188613c65565b82810360208401526148048188613c65565b6001600160a01b03968716604085015260608401959095525050921660809092019190915292915050565b601f82111561316c57600081815260208120601f850160051c810160208610156148565750805b601f850160051c820191505b8181101561324957828155600101614862565b815167ffffffffffffffff81111561488f5761488f613cbc565b6148a38161489d84546144cc565b8461482f565b602080601f8311600181146148d857600084156148c05750858301515b600019600386901b1c1916600185901b178555613249565b600085815260208120601f198616915b82811015614907578886015182559484019460019091019084016148e8565b50858210156149255787850151600019600388901b60f8161c191681555b5050505050600190811b01905550565b600081518084526020808501808196508360051b8101915082860160005b8581101561497d57828403895261496b848351613c65565b98850198935090840190600101614953565b5091979650505050505050565b60006101208b83526001600160a01b03808c1660208501528a60408501528960608501528089166080850152508060a08401526149c981840188614935565b95151560c0840152505061ffff9290921660e08301521515610100909101529695505050505050565b84815260006001600160a01b03808616602084015280851660408401525060806060830152611baa6080830184613c65565b6020815260006127a36020830184613c65565b8281526040602082015260006139ef6040830184614935565b60006020808385031215614a6357600080fd5b825167ffffffffffffffff80821115614a7b57600080fd5b818501915085601f830112614a8f57600080fd5b8151614a9d613d8682613dd6565b81815260059190911b83018401908481019088831115614abc57600080fd5b8585015b83811015614b0957805185811115614ad85760008081fd5b8601603f81018b13614aea5760008081fd5b614afb8b89830151604084016145ff565b845250918601918601614ac0565b5098975050505050505050565b60008251614b28818460208701613c41565b7f2e73616675000000000000000000000000000000000000000000000000000000920191825250600501919050565b60006001600160a01b038087168352808616602084015280851660408401525060806060830152611baa6080830184613c65565b634e487b7160e01b600052603260045260246000fd5b600060018201614bb357614bb3614506565b5060010190565b60008251614bcc818460208701613c41565b919091019291505056fea264697066735822122045219255c8eace2edd82d8ac7a5e392b1b641a12660735d17ddc9c4a15b0329164736f6c63430008110033"
}