{
  "address": "0xC902396A4E49914d1266cc80e22Aa182dcF23138",
  "abi": [
    {
      "inputs": [
        {
          "internalType": "contract BaseRegistrarImplementation",
          "name": "_base",
          "type": "address"
        },
        {
          "internalType": "contract TokenPriceOracle",
          "name": "_prices",
          "type": "address"
        },
        {
          "internalType": "uint256",
          "name": "_minCommitmentAge",
          "type": "uint256"
        },
        {
          "internalType": "uint256",
          "name": "_maxCommitmentAge",
          "type": "uint256"
        },
        {
          "internalType": "contract ReverseRegistrar",
          "name": "_reverseRegistrar",
          "type": "address"
        },
        {
          "internalType": "contract INameWrapper",
          "name": "_nameWrapper",
          "type": "address"
        },
        {
          "internalType": "contract ENS",
          "name": "_ens",
          "type": "address"
        },
        {
          "internalType": "contract ReferralVerifier",
          "name": "_referralVerifier",
          "type": "address"
        }
      ],
      "stateMutability": "nonpayable",
      "type": "constructor"
    },
    {
      "inputs": [
        {
          "internalType": "bytes32",
          "name": "commitment",
          "type": "bytes32"
        }
      ],
      "name": "CommitmentTooNew",
      "type": "error"
    },
    {
      "inputs": [
        {
          "internalType": "bytes32",
          "name": "commitment",
          "type": "bytes32"
        }
      ],
      "name": "CommitmentTooOld",
      "type": "error"
    },
    {
      "inputs": [
        {
          "internalType": "uint256",
          "name": "duration",
          "type": "uint256"
        }
      ],
      "name": "DurationTooShort",
      "type": "error"
    },
    {
      "inputs": [],
      "name": "InsufficientValue",
      "type": "error"
    },
    {
      "inputs": [],
      "name": "MaxCommitmentAgeTooHigh",
      "type": "error"
    },
    {
      "inputs": [],
      "name": "MaxCommitmentAgeTooLow",
      "type": "error"
    },
    {
      "inputs": [
        {
          "internalType": "string",
          "name": "name",
          "type": "string"
        }
      ],
      "name": "NameNotAvailable",
      "type": "error"
    },
    {
      "inputs": [],
      "name": "ResolverRequiredWhenDataSupplied",
      "type": "error"
    },
    {
      "inputs": [
        {
          "internalType": "bytes32",
          "name": "commitment",
          "type": "bytes32"
        }
      ],
      "name": "UnexpiredCommitmentExists",
      "type": "error"
    },
    {
      "anonymous": false,
      "inputs": [
        {
          "indexed": false,
          "internalType": "string",
          "name": "name",
          "type": "string"
        },
        {
          "indexed": true,
          "internalType": "bytes32",
          "name": "label",
          "type": "bytes32"
        },
        {
          "indexed": true,
          "internalType": "address",
          "name": "owner",
          "type": "address"
        },
        {
          "indexed": false,
          "internalType": "uint256",
          "name": "baseCost",
          "type": "uint256"
        },
        {
          "indexed": false,
          "internalType": "uint256",
          "name": "premium",
          "type": "uint256"
        },
        {
          "indexed": false,
          "internalType": "uint256",
          "name": "expires",
          "type": "uint256"
        }
      ],
      "name": "NameRegistered",
      "type": "event"
    },
    {
      "anonymous": false,
      "inputs": [
        {
          "indexed": false,
          "internalType": "string",
          "name": "name",
          "type": "string"
        },
        {
          "indexed": true,
          "internalType": "bytes32",
          "name": "label",
          "type": "bytes32"
        },
        {
          "indexed": false,
          "internalType": "uint256",
          "name": "cost",
          "type": "uint256"
        },
        {
          "indexed": false,
          "internalType": "uint256",
          "name": "expires",
          "type": "uint256"
        }
      ],
      "name": "NameRenewed",
      "type": "event"
    },
    {
      "anonymous": false,
      "inputs": [
        {
          "indexed": true,
          "internalType": "address",
          "name": "previousOwner",
          "type": "address"
        },
        {
          "indexed": true,
          "internalType": "address",
          "name": "newOwner",
          "type": "address"
        }
      ],
      "name": "OwnershipTransferred",
      "type": "event"
    },
    {
      "inputs": [],
      "name": "MIN_REGISTRATION_DURATION",
      "outputs": [
        {
          "internalType": "uint256",
          "name": "",
          "type": "uint256"
        }
      ],
      "stateMutability": "view",
      "type": "function"
    },
    {
      "inputs": [],
      "name": "airdrop",
      "outputs": [
        {
          "internalType": "contract Airdrop",
          "name": "",
          "type": "address"
        }
      ],
      "stateMutability": "view",
      "type": "function"
    },
    {
      "inputs": [
        {
          "internalType": "string",
          "name": "name",
          "type": "string"
        }
      ],
      "name": "available",
      "outputs": [
        {
          "internalType": "bool",
          "name": "",
          "type": "bool"
        }
      ],
      "stateMutability": "view",
      "type": "function"
    },
    {
      "inputs": [],
      "name": "backendWallet",
      "outputs": [
        {
          "internalType": "address",
          "name": "",
          "type": "address"
        }
      ],
      "stateMutability": "view",
      "type": "function"
    },
    {
      "inputs": [],
      "name": "base",
      "outputs": [
        {
          "internalType": "contract BaseRegistrarImplementation",
          "name": "",
          "type": "address"
        }
      ],
      "stateMutability": "view",
      "type": "function"
    },
    {
      "inputs": [
        {
          "internalType": "bytes32",
          "name": "commitment",
          "type": "bytes32"
        }
      ],
      "name": "commit",
      "outputs": [],
      "stateMutability": "nonpayable",
      "type": "function"
    },
    {
      "inputs": [
        {
          "internalType": "bytes32",
          "name": "",
          "type": "bytes32"
        }
      ],
      "name": "commitments",
      "outputs": [
        {
          "internalType": "uint256",
          "name": "",
          "type": "uint256"
        }
      ],
      "stateMutability": "view",
      "type": "function"
    },
    {
      "inputs": [
        {
          "internalType": "bool",
          "name": "enabled",
          "type": "bool"
        }
      ],
      "name": "controlAirdrop",
      "outputs": [],
      "stateMutability": "nonpayable",
      "type": "function"
    },
    {
      "inputs": [],
      "name": "getMints",
      "outputs": [
        {
          "internalType": "uint256",
          "name": "",
          "type": "uint256"
        }
      ],
      "stateMutability": "view",
      "type": "function"
    },
    {
      "inputs": [],
      "name": "infoFi",
      "outputs": [
        {
          "internalType": "address",
          "name": "",
          "type": "address"
        }
      ],
      "stateMutability": "view",
      "type": "function"
    },
    {
      "inputs": [
        {
          "components": [
            {
              "internalType": "string",
              "name": "name",
              "type": "string"
            },
            {
              "internalType": "address",
              "name": "owner",
              "type": "address"
            },
            {
              "internalType": "uint256",
              "name": "duration",
              "type": "uint256"
            },
            {
              "internalType": "bytes32",
              "name": "secret",
              "type": "bytes32"
            },
            {
              "internalType": "address",
              "name": "resolver",
              "type": "address"
            },
            {
              "internalType": "bytes[]",
              "name": "data",
              "type": "bytes[]"
            },
            {
              "internalType": "bool",
              "name": "reverseRecord",
              "type": "bool"
            },
            {
              "internalType": "uint16",
              "name": "ownerControlledFuses",
              "type": "uint16"
            },
            {
              "internalType": "bool",
              "name": "lifetime",
              "type": "bool"
            }
          ],
          "internalType": "struct IETHRegistrarController.RegisterRequest",
          "name": "req",
          "type": "tuple"
        }
      ],
      "name": "makeCommitment",
      "outputs": [
        {
          "internalType": "bytes32",
          "name": "",
          "type": "bytes32"
        }
      ],
      "stateMutability": "pure",
      "type": "function"
    },
    {
      "inputs": [],
      "name": "maxCommitmentAge",
      "outputs": [
        {
          "internalType": "uint256",
          "name": "",
          "type": "uint256"
        }
      ],
      "stateMutability": "view",
      "type": "function"
    },
    {
      "inputs": [],
      "name": "minCommitmentAge",
      "outputs": [
        {
          "internalType": "uint256",
          "name": "",
          "type": "uint256"
        }
      ],
      "stateMutability": "view",
      "type": "function"
    },
    {
      "inputs": [],
      "name": "mints",
      "outputs": [
        {
          "internalType": "uint256",
          "name": "",
          "type": "uint256"
        }
      ],
      "stateMutability": "view",
      "type": "function"
    },
    {
      "inputs": [],
      "name": "nameWrapper",
      "outputs": [
        {
          "internalType": "contract INameWrapper",
          "name": "",
          "type": "address"
        }
      ],
      "stateMutability": "view",
      "type": "function"
    },
    {
      "inputs": [],
      "name": "owner",
      "outputs": [
        {
          "internalType": "address",
          "name": "",
          "type": "address"
        }
      ],
      "stateMutability": "view",
      "type": "function"
    },
    {
      "inputs": [],
      "name": "prices",
      "outputs": [
        {
          "internalType": "contract TokenPriceOracle",
          "name": "",
          "type": "address"
        }
      ],
      "stateMutability": "view",
      "type": "function"
    },
    {
      "inputs": [
        {
          "internalType": "address",
          "name": "_token",
          "type": "address"
        },
        {
          "internalType": "address",
          "name": "_to",
          "type": "address"
        },
        {
          "internalType": "uint256",
          "name": "_amount",
          "type": "uint256"
        }
      ],
      "name": "recoverFunds",
      "outputs": [],
      "stateMutability": "nonpayable",
      "type": "function"
    },
    {
      "inputs": [],
      "name": "referralVerifier",
      "outputs": [
        {
          "internalType": "contract ReferralVerifier",
          "name": "",
          "type": "address"
        }
      ],
      "stateMutability": "view",
      "type": "function"
    },
    {
      "inputs": [
        {
          "components": [
            {
              "internalType": "string",
              "name": "name",
              "type": "string"
            },
            {
              "internalType": "address",
              "name": "owner",
              "type": "address"
            },
            {
              "internalType": "uint256",
              "name": "duration",
              "type": "uint256"
            },
            {
              "internalType": "bytes32",
              "name": "secret",
              "type": "bytes32"
            },
            {
              "internalType": "address",
              "name": "resolver",
              "type": "address"
            },
            {
              "internalType": "bytes[]",
              "name": "data",
              "type": "bytes[]"
            },
            {
              "internalType": "bool",
              "name": "reverseRecord",
              "type": "bool"
            },
            {
              "internalType": "uint16",
              "name": "ownerControlledFuses",
              "type": "uint16"
            },
            {
              "internalType": "bool",
              "name": "lifetime",
              "type": "bool"
            }
          ],
          "internalType": "struct IETHRegistrarController.RegisterRequest",
          "name": "req",
          "type": "tuple"
        },
        {
          "components": [
            {
              "internalType": "address",
              "name": "referrer",
              "type": "address"
            },
            {
              "internalType": "address",
              "name": "registrant",
              "type": "address"
            },
            {
              "internalType": "bytes32",
              "name": "nameHash",
              "type": "bytes32"
            },
            {
              "internalType": "bytes32",
              "name": "referrerCodeHash",
              "type": "bytes32"
            },
            {
              "internalType": "uint256",
              "name": "deadline",
              "type": "uint256"
            },
            {
              "internalType": "bytes32",
              "name": "nonce",
              "type": "bytes32"
            }
          ],
          "internalType": "struct ReferralVerifier.ReferralData",
          "name": "referralData",
          "type": "tuple"
        },
        {
          "internalType": "bytes",
          "name": "referralSignature",
          "type": "bytes"
        }
      ],
      "name": "register",
      "outputs": [],
      "stateMutability": "payable",
      "type": "function"
    },
    {
      "inputs": [
        {
          "components": [
            {
              "internalType": "string",
              "name": "name",
              "type": "string"
            },
            {
              "internalType": "address",
              "name": "owner",
              "type": "address"
            },
            {
              "internalType": "uint256",
              "name": "duration",
              "type": "uint256"
            },
            {
              "internalType": "bytes32",
              "name": "secret",
              "type": "bytes32"
            },
            {
              "internalType": "address",
              "name": "resolver",
              "type": "address"
            },
            {
              "internalType": "bytes[]",
              "name": "data",
              "type": "bytes[]"
            },
            {
              "internalType": "bool",
              "name": "reverseRecord",
              "type": "bool"
            },
            {
              "internalType": "uint16",
              "name": "ownerControlledFuses",
              "type": "uint16"
            },
            {
              "internalType": "bool",
              "name": "lifetime",
              "type": "bool"
            }
          ],
          "internalType": "struct IETHRegistrarController.RegisterRequest",
          "name": "req",
          "type": "tuple"
        },
        {
          "components": [
            {
              "internalType": "address",
              "name": "referrer",
              "type": "address"
            },
            {
              "internalType": "address",
              "name": "registrant",
              "type": "address"
            },
            {
              "internalType": "bytes32",
              "name": "nameHash",
              "type": "bytes32"
            },
            {
              "internalType": "bytes32",
              "name": "referrerCodeHash",
              "type": "bytes32"
            },
            {
              "internalType": "uint256",
              "name": "deadline",
              "type": "uint256"
            },
            {
              "internalType": "bytes32",
              "name": "nonce",
              "type": "bytes32"
            }
          ],
          "internalType": "struct ReferralVerifier.ReferralData",
          "name": "referralData",
          "type": "tuple"
        },
        {
          "internalType": "bytes",
          "name": "referralSignature",
          "type": "bytes"
        }
      ],
      "name": "registerWithCard",
      "outputs": [],
      "stateMutability": "nonpayable",
      "type": "function"
    },
    {
      "inputs": [
        {
          "components": [
            {
              "internalType": "string",
              "name": "name",
              "type": "string"
            },
            {
              "internalType": "address",
              "name": "owner",
              "type": "address"
            },
            {
              "internalType": "uint256",
              "name": "duration",
              "type": "uint256"
            },
            {
              "internalType": "bytes32",
              "name": "secret",
              "type": "bytes32"
            },
            {
              "internalType": "address",
              "name": "resolver",
              "type": "address"
            },
            {
              "internalType": "bytes[]",
              "name": "data",
              "type": "bytes[]"
            },
            {
              "internalType": "bool",
              "name": "reverseRecord",
              "type": "bool"
            },
            {
              "internalType": "uint16",
              "name": "ownerControlledFuses",
              "type": "uint16"
            },
            {
              "internalType": "bool",
              "name": "lifetime",
              "type": "bool"
            }
          ],
          "internalType": "struct IETHRegistrarController.RegisterRequest",
          "name": "req",
          "type": "tuple"
        },
        {
          "internalType": "address",
          "name": "tokenAddress",
          "type": "address"
        },
        {
          "components": [
            {
              "internalType": "address",
              "name": "referrer",
              "type": "address"
            },
            {
              "internalType": "address",
              "name": "registrant",
              "type": "address"
            },
            {
              "internalType": "bytes32",
              "name": "nameHash",
              "type": "bytes32"
            },
            {
              "internalType": "bytes32",
              "name": "referrerCodeHash",
              "type": "bytes32"
            },
            {
              "internalType": "uint256",
              "name": "deadline",
              "type": "uint256"
            },
            {
              "internalType": "bytes32",
              "name": "nonce",
              "type": "bytes32"
            }
          ],
          "internalType": "struct ReferralVerifier.ReferralData",
          "name": "referralData",
          "type": "tuple"
        },
        {
          "internalType": "bytes",
          "name": "referralSignature",
          "type": "bytes"
        }
      ],
      "name": "registerWithToken",
      "outputs": [],
      "stateMutability": "nonpayable",
      "type": "function"
    },
    {
      "inputs": [
        {
          "internalType": "address",
          "name": "tokenAddress",
          "type": "address"
        }
      ],
      "name": "removeToken",
      "outputs": [],
      "stateMutability": "nonpayable",
      "type": "function"
    },
    {
      "inputs": [
        {
          "internalType": "string",
          "name": "name",
          "type": "string"
        },
        {
          "internalType": "uint256",
          "name": "duration",
          "type": "uint256"
        },
        {
          "internalType": "bool",
          "name": "lifetime",
          "type": "bool"
        }
      ],
      "name": "renew",
      "outputs": [],
      "stateMutability": "payable",
      "type": "function"
    },
    {
      "inputs": [
        {
          "internalType": "string",
          "name": "name",
          "type": "string"
        },
        {
          "internalType": "uint256",
          "name": "duration",
          "type": "uint256"
        },
        {
          "internalType": "bool",
          "name": "lifetime",
          "type": "bool"
        }
      ],
      "name": "renewCard",
      "outputs": [],
      "stateMutability": "nonpayable",
      "type": "function"
    },
    {
      "inputs": [
        {
          "internalType": "string",
          "name": "name",
          "type": "string"
        },
        {
          "internalType": "uint256",
          "name": "duration",
          "type": "uint256"
        },
        {
          "internalType": "address",
          "name": "tokenAddress",
          "type": "address"
        },
        {
          "internalType": "bool",
          "name": "lifetime",
          "type": "bool"
        }
      ],
      "name": "renewTokens",
      "outputs": [],
      "stateMutability": "nonpayable",
      "type": "function"
    },
    {
      "inputs": [],
      "name": "renounceOwnership",
      "outputs": [],
      "stateMutability": "nonpayable",
      "type": "function"
    },
    {
      "inputs": [
        {
          "internalType": "string",
          "name": "name",
          "type": "string"
        },
        {
          "internalType": "uint256",
          "name": "duration",
          "type": "uint256"
        },
        {
          "internalType": "bool",
          "name": "lifetime",
          "type": "bool"
        }
      ],
      "name": "rentPrice",
      "outputs": [
        {
          "components": [
            {
              "internalType": "uint256",
              "name": "base",
              "type": "uint256"
            },
            {
              "internalType": "uint256",
              "name": "premium",
              "type": "uint256"
            }
          ],
          "internalType": "struct IPriceOracle.Price",
          "name": "",
          "type": "tuple"
        }
      ],
      "stateMutability": "view",
      "type": "function"
    },
    {
      "inputs": [
        {
          "internalType": "string",
          "name": "name",
          "type": "string"
        },
        {
          "internalType": "uint256",
          "name": "duration",
          "type": "uint256"
        },
        {
          "internalType": "string",
          "name": "token",
          "type": "string"
        },
        {
          "internalType": "bool",
          "name": "lifetime",
          "type": "bool"
        }
      ],
      "name": "rentPriceToken",
      "outputs": [
        {
          "components": [
            {
              "internalType": "uint256",
              "name": "base",
              "type": "uint256"
            },
            {
              "internalType": "uint256",
              "name": "premium",
              "type": "uint256"
            }
          ],
          "internalType": "struct IPriceOracle.Price",
          "name": "",
          "type": "tuple"
        }
      ],
      "stateMutability": "view",
      "type": "function"
    },
    {
      "inputs": [],
      "name": "resetInfoFi",
      "outputs": [],
      "stateMutability": "payable",
      "type": "function"
    },
    {
      "inputs": [],
      "name": "reverseRegistrar",
      "outputs": [
        {
          "internalType": "contract ReverseRegistrar",
          "name": "",
          "type": "address"
        }
      ],
      "stateMutability": "view",
      "type": "function"
    },
    {
      "inputs": [
        {
          "internalType": "contract Airdrop",
          "name": "_airdrop",
          "type": "address"
        }
      ],
      "name": "setAirdrop",
      "outputs": [],
      "stateMutability": "nonpayable",
      "type": "function"
    },
    {
      "inputs": [
        {
          "internalType": "address",
          "name": "wallet",
          "type": "address"
        }
      ],
      "name": "setBackend",
      "outputs": [],
      "stateMutability": "nonpayable",
      "type": "function"
    },
    {
      "inputs": [
        {
          "internalType": "address",
          "name": "_infoFi",
          "type": "address"
        }
      ],
      "name": "setInfoFi",
      "outputs": [],
      "stateMutability": "nonpayable",
      "type": "function"
    },
    {
      "inputs": [
        {
          "internalType": "address",
          "name": "oracle",
          "type": "address"
        }
      ],
      "name": "setOracle",
      "outputs": [],
      "stateMutability": "nonpayable",
      "type": "function"
    },
    {
      "inputs": [
        {
          "internalType": "address",
          "name": "_verifier",
          "type": "address"
        }
      ],
      "name": "setReferralVerifier",
      "outputs": [],
      "stateMutability": "nonpayable",
      "type": "function"
    },
    {
      "inputs": [
        {
          "components": [
            {
              "internalType": "string",
              "name": "token",
              "type": "string"
            },
            {
              "internalType": "address",
              "name": "tokenAddress",
              "type": "address"
            }
          ],
          "internalType": "struct ETHRegistrarController.Token",
          "name": "token",
          "type": "tuple"
        },
        {
          "internalType": "address",
          "name": "tokenAddress",
          "type": "address"
        }
      ],
      "name": "setToken",
      "outputs": [],
      "stateMutability": "nonpayable",
      "type": "function"
    },
    {
      "inputs": [
        {
          "internalType": "bytes4",
          "name": "interfaceID",
          "type": "bytes4"
        }
      ],
      "name": "supportsInterface",
      "outputs": [
        {
          "internalType": "bool",
          "name": "",
          "type": "bool"
        }
      ],
      "stateMutability": "pure",
      "type": "function"
    },
    {
      "inputs": [
        {
          "internalType": "address",
          "name": "newOwner",
          "type": "address"
        }
      ],
      "name": "transferOwnership",
      "outputs": [],
      "stateMutability": "nonpayable",
      "type": "function"
    },
    {
      "inputs": [],
      "name": "untrackedInfoFi",
      "outputs": [
        {
          "internalType": "uint256",
          "name": "",
          "type": "uint256"
        }
      ],
      "stateMutability": "view",
      "type": "function"
    },
    {
      "inputs": [],
      "name": "useAirdrop",
      "outputs": [
        {
          "internalType": "bool",
          "name": "",
          "type": "bool"
        }
      ],
      "stateMutability": "view",
      "type": "function"
    },
    {
      "inputs": [
        {
          "internalType": "string",
          "name": "name",
          "type": "string"
        }
      ],
      "name": "valid",
      "outputs": [
        {
          "internalType": "bool",
          "name": "",
          "type": "bool"
        }
      ],
      "stateMutability": "pure",
      "type": "function"
    },
    {
      "inputs": [
        {
          "internalType": "address",
          "name": "",
          "type": "address"
        }
      ],
      "name": "verifiedTokens",
      "outputs": [
        {
          "internalType": "string",
          "name": "token",
          "type": "string"
        },
        {
          "internalType": "address",
          "name": "tokenAddress",
          "type": "address"
        }
      ],
      "stateMutability": "view",
      "type": "function"
    },
    {
      "inputs": [],
      "name": "withdraw",
      "outputs": [],
      "stateMutability": "nonpayable",
      "type": "function"
    },
    {
      "inputs": [
        {
          "internalType": "address",
          "name": "tokenAddress",
          "type": "address"
        }
      ],
      "name": "withdrawTokens",
      "outputs": [],
      "stateMutability": "nonpayable",
      "type": "function"
    }
  ],
  "transactionHash": "0x3d56870f7c2e821a99e7df41a3bc387e1740d38a87966640281db68d01de3273",
  "args": [
    "0x4c797EbaA64Cc7f1bD2a82A36bEE5Cf335D1830c",
    "0x6918d17082DE4C58117D3f35830421d3292b7bb1",
    "60",
    "86400",
    "0x1D0831eA9486Fada3887a737E8d6f8C6Ad72a125",
    "0xbf4B53F867dfE5A78Cf268AfBfC1f334044e61ae",
    "0xa886B8897814193f99A88701d70b31b4a8E27a1E",
    "0x92149696fDDC858A76253F71268D34147e662410"
  ],
  "numDeployments": 2,
  "solcInputHash": "075faeea0804d59911940f8d88a596ef",
  "bytecode": "0x6101206040523480156200001257600080fd5b50604051620049cb380380620049cb833981016040819052620000359162000229565b600080546001600160a01b031916339081178255604051849282918291907f8be0079c531659141344cd1fd0a4f28419497f9722a3daafe3b4186f6b6457e0908290a3506040516302571be360e01b81527f91d1777781884d03a6757a803996e38de2a42967fb37eeaca72729271025a9e260048201526000906001600160a01b038416906302571be390602401602060405180830381865afa158015620000e1573d6000803e3d6000fd5b505050506040513d601f19601f82011682018060405250810190620001079190620002d3565b604051630f41a04d60e11b81526001600160a01b03848116600483015291925090821690631e83409a906024016020604051808303816000875af115801562000154573d6000803e3d6000fd5b505050506040513d601f19601f820116820180604052508101906200017a9190620002fa565b505050508585116200019f576040516307cb550760e31b815260040160405180910390fd5b42851115620001c157604051630b4319e560e21b815260040160405180910390fd5b6001600160a01b03978816608052600180549789166001600160a01b031998891617905560a0959095525060c092909252841660e0528316610100526002805491909316911617905562000314565b6001600160a01b03811681146200022657600080fd5b50565b600080600080600080600080610100898b0312156200024757600080fd5b8851620002548162000210565b60208a0151909850620002678162000210565b8097505060408901519550606089015194506080890151620002898162000210565b60a08a01519094506200029c8162000210565b60c08a0151909350620002af8162000210565b60e08a0151909250620002c28162000210565b809150509295985092959890939650565b600060208284031215620002e657600080fd5b8151620002f38162000210565b9392505050565b6000602082840312156200030d57600080fd5b5051919050565b60805160a05160c05160e0516101005161461e620003ad600039600081816107bb01528181610ec7015281816112560152818161208a0152818161226f0152612b0d01526000818161063c015261330601526000818161082501528181611c750152612e7b0152600081816106f40152612e040152600081816104970152818161157b015281816117f20152611b81015261461e6000f3fe6080604052600436106102f25760003560e01c80637adbf9731161018f578063a57b5d2c116100e1578063d3419bf31161008a578063f14fcbc811610064578063f14fcbc81461089d578063f2fde38b146108bd578063fbd50fa0146108dd57600080fd5b8063d3419bf314610847578063da7fc24f14610867578063dfc7379d1461088757600080fd5b8063aeb8ce9b116100bb578063aeb8ce9b146107dd578063c53c0ec1146107fd578063ce1e09c01461081357600080fd5b8063a57b5d2c14610769578063a680baaf14610789578063a8e5fbc0146107a957600080fd5b80638a2c4836116101435780638da5cb5b1161011d5780638da5cb5b146107165780639791c097146107345780639dbd768e1461075457600080fd5b80638a2c4836146106ab5780638a95b09f146106cb5780638d839ffe146106e257600080fd5b80638086985311610174578063808698531461062a578063839df9451461065e57806388cccc091461068b57600080fd5b80637adbf973146105ea5780637eb9a50b1461060a57600080fd5b80634be2b2ec116102485780635fa7b584116101fc578063715018a6116101d6578063715018a61461059557806372820dbc146105aa578063786d96a1146105ca57600080fd5b80635fa7b5841461051957806367547287146105395780636cfc51e21461055a57600080fd5b806359cf683c1161022d57806359cf683c146104b95780635baef98e146104d95780635d3590d5146104f957600080fd5b80634be2b2ec146104725780635001f3b51461048557600080fd5b806327a71ef3116102aa5780633c3a7d35116102845780633c3a7d351461041d5780633ccfd60b1461043d57806349df728c1461045257600080fd5b806327a71ef3146103a5578063330386b6146103c55780633884d635146103e557600080fd5b80631baaaffe116102db5780631baaaffe146103365780631c95331314610364578063215d1ba61461037757600080fd5b806301ffc9a7146102f7578063094f716d1461032c575b600080fd5b34801561030357600080fd5b5061031761031236600461360b565b6108fd565b60405190151581526020015b60405180910390f35b610334610966565b005b34801561034257600080fd5b5061035661035136600461364a565b610aae565b6040516103239291906136b7565b610334610372366004613756565b610b5b565b34801561038357600080fd5b506103976103923660046137cf565b610b9f565b604051908152602001610323565b3480156103b157600080fd5b506103346103c036600461364a565b610cd0565b3480156103d157600080fd5b506103346103e036600461381a565b610d3a565b3480156103f157600080fd5b50600554610405906001600160a01b031681565b6040516001600160a01b039091168152602001610323565b34801561042957600080fd5b50610334610438366004613837565b610dbb565b34801561044957600080fd5b50610334610fc0565b34801561045e57600080fd5b5061033461046d36600461364a565b6110ae565b610334610480366004613837565b611184565b34801561049157600080fd5b506104057f000000000000000000000000000000000000000000000000000000000000000081565b3480156104c557600080fd5b50600254610405906001600160a01b031681565b3480156104e557600080fd5b506103346104f436600461364a565b61132b565b34801561050557600080fd5b50610334610514366004613896565b611395565b34801561052557600080fd5b5061033461053436600461364a565b611456565b34801561054557600080fd5b5060055461031790600160a01b900460ff1681565b34801561056657600080fd5b5061057a6105753660046139cd565b6114d6565b60408051825181526020928301519281019290925201610323565b3480156105a157600080fd5b50610334611651565b3480156105b657600080fd5b506103346105c536600461364a565b6116e3565b3480156105d657600080fd5b5061057a6105e5366004613a28565b61174d565b3480156105f657600080fd5b5061033461060536600461364a565b6118c9565b34801561061657600080fd5b50610334610625366004613a9d565b611933565b34801561063657600080fd5b506104057f000000000000000000000000000000000000000000000000000000000000000081565b34801561066a57600080fd5b50610397610679366004613b35565b60086020526000908152604090205481565b34801561069757600080fd5b50600454610405906001600160a01b031681565b3480156106b757600080fd5b506103346106c6366004613756565b6119d2565b3480156106d757600080fd5b506103976224ea0081565b3480156106ee57600080fd5b506103977f000000000000000000000000000000000000000000000000000000000000000081565b34801561072257600080fd5b506000546001600160a01b0316610405565b34801561074057600080fd5b5061031761074f366004613b4e565b611a9d565b34801561076057600080fd5b50600654610397565b34801561077557600080fd5b50610334610784366004613b83565b611ab2565b34801561079557600080fd5b50600354610405906001600160a01b031681565b3480156107b557600080fd5b506104057f000000000000000000000000000000000000000000000000000000000000000081565b3480156107e957600080fd5b506103176107f8366004613b4e565b611b38565b34801561080957600080fd5b5061039760075481565b34801561081f57600080fd5b506103977f000000000000000000000000000000000000000000000000000000000000000081565b34801561085357600080fd5b50600154610405906001600160a01b031681565b34801561087357600080fd5b5061033461088236600461364a565b611bf4565b34801561089357600080fd5b5061039760065481565b3480156108a957600080fd5b506103346108b8366004613b35565b611c5e565b3480156108c957600080fd5b506103346108d836600461364a565b611ce7565b3480156108e957600080fd5b506103346108f8366004613c17565b611e06565b60006001600160e01b031982167f01ffc9a700000000000000000000000000000000000000000000000000000000148061096057506001600160e01b031982167f1b8f9c6400000000000000000000000000000000000000000000000000000000145b92915050565b6000546001600160a01b031633146109b35760405162461bcd60e51b815260206004820181905260248201526000805160206145c983398151915260448201526064015b60405180910390fd5b60003411610a035760405162461bcd60e51b815260206004820152600f60248201527f4d7573742073656e642076616c7565000000000000000000000000000000000060448201526064016109aa565b6004546040516000916001600160a01b03169034908381818185875af1925050503d8060008114610a50576040519150601f19603f3d011682016040523d82523d6000602084013e610a55565b606091505b5050905080610aa65760405162461bcd60e51b815260206004820152600e60248201527f5061796d656e74206661696c656400000000000000000000000000000000000060448201526064016109aa565b506000600755565b600960205260009081526040902080548190610ac990613c8b565b80601f0160208091040260200160405190810160405280929190818152602001828054610af590613c8b565b8015610b425780601f10610b1757610100808354040283529160200191610b42565b820191906000526020600020905b815481529060010190602001808311610b2557829003601f168201915b505050600190930154919250506001600160a01b031682565b600080610b6786612157565b91509150610b79858585856000612348565b610b828261249e565b60068054906000610b9283613cd5565b9190505550505050505050565b600080610baf60a0840184613cee565b9050118015610bd657506000610bcb60a084016080850161364a565b6001600160a01b0316145b15610c0d576040517fd3f605c400000000000000000000000000000000000000000000000000000000815260040160405180910390fd5b610c178280613d38565b604051610c25929190613d7f565b6040518091039020826020016020810190610c40919061364a565b60408401356060850135610c5a60a087016080880161364a565b610c6760a0880188613cee565b610c7760e08a0160c08b0161381a565b610c886101008b0160e08c01613d8f565b610c9a6101208c016101008d0161381a565b604051602001610cb39a99989796959493929190613ddc565b604051602081830303815290604052805190602001209050919050565b6000546001600160a01b03163314610d185760405162461bcd60e51b815260206004820181905260248201526000805160206145c983398151915260448201526064016109aa565b600280546001600160a01b0319166001600160a01b0392909216919091179055565b6000546001600160a01b03163314610d825760405162461bcd60e51b815260206004820181905260248201526000805160206145c983398151915260448201526064016109aa565b60058054911515600160a01b027fffffffffffffffffffffff00ffffffffffffffffffffffffffffffffffffffff909216919091179055565b6003546001600160a01b03163314610e155760405162461bcd60e51b815260206004820152600b60248201527f4e6f74204261636b656e6400000000000000000000000000000000000000000060448201526064016109aa565b600081610e225782610e29565b640757b12c005b905060008585604051610e3d929190613d7f565b604051809103902090506000610e8c87878080601f0160208091040260200160405190810160405280939291908181526020018383808284376000920191909152508792508891506114d69050565b9050600081602001518260000151610ea49190613ed8565b60405163c475abff60e01b815260048101859052602481018690529091506000907f00000000000000000000000000000000000000000000000000000000000000006001600160a01b03169063c475abff906044016020604051808303816000875af1158015610f18573d6000803e3d6000fd5b505050506040513d601f19601f82011682018060405250810190610f3c9190613eeb565b9050837f3da24c024582931cfaf8267d8ed24d13a82a8068d5bd337d30ec45cea4e506ae8a8a8585604051610f749493929190613f04565b60405180910390a2610f8884836001612549565b6064610f95836023613f2b565b610f9f9190613f42565b60076000828254610fb09190613ed8565b9091555050505050505050505050565b6000546001600160a01b031633146110085760405162461bcd60e51b815260206004820181905260248201526000805160206145c983398151915260448201526064016109aa565b600080546040516001600160a01b039091169047908381818185875af1925050503d8060008114611055576040519150601f19603f3d011682016040523d82523d6000602084013e61105a565b606091505b50509050806110ab5760405162461bcd60e51b815260206004820152600f60248201527f5472616e73666572206661696c6564000000000000000000000000000000000060448201526064016109aa565b50565b6000546001600160a01b031633146110f65760405162461bcd60e51b815260206004820181905260248201526000805160206145c983398151915260448201526064016109aa565b6110ab61110b6000546001600160a01b031690565b6040516370a0823160e01b81523060048201526001600160a01b038416906370a0823190602401602060405180830381865afa15801561114f573d6000803e3d6000fd5b505050506040513d601f19601f820116820180604052508101906111739190613eeb565b6001600160a01b0384169190612693565b6000816111915782611198565b640757b12c005b9050600085856040516111ac929190613d7f565b6040518091039020905060006111fb87878080601f0160208091040260200160405190810160405280939291908181526020018383808284376000920191909152508792508891506114d69050565b90506000816020015182600001516112139190613ed8565b9050803410156112365760405163044044a560e21b815260040160405180910390fd5b60405163c475abff60e01b815260048101849052602481018590526000907f00000000000000000000000000000000000000000000000000000000000000006001600160a01b03169063c475abff906044016020604051808303816000875af11580156112a7573d6000803e3d6000fd5b505050506040513d601f19601f820116820180604052508101906112cb9190613eeb565b9050837f3da24c024582931cfaf8267d8ed24d13a82a8068d5bd337d30ec45cea4e506ae8a8a85856040516113039493929190613f04565b60405180910390a261131784836000612549565b6113208261249e565b505050505050505050565b6000546001600160a01b031633146113735760405162461bcd60e51b815260206004820181905260248201526000805160206145c983398151915260448201526064016109aa565b600480546001600160a01b0319166001600160a01b0392909216919091179055565b6000546001600160a01b031633146113dd5760405162461bcd60e51b815260206004820181905260248201526000805160206145c983398151915260448201526064016109aa565b60405163a9059cbb60e01b81526001600160a01b0383811660048301526024820183905284169063a9059cbb906044016020604051808303816000875af115801561142c573d6000803e3d6000fd5b505050506040513d601f19601f820116820180604052508101906114509190613f64565b50505050565b6000546001600160a01b0316331461149e5760405162461bcd60e51b815260206004820181905260248201526000805160206145c983398151915260448201526064016109aa565b6001600160a01b0381166000908152600960205260408120906114c182826135bd565b5060010180546001600160a01b031916905550565b60408051808201909152600080825260208201528215806114fa57506224ea008310155b6115465760405162461bcd60e51b815260206004820152601060248201527f496e76616c6964206475726174696f6e0000000000000000000000000000000060448201526064016109aa565b60015484516020860120604051636b727d4360e11b815260048101919091526001600160a01b0391821691638416a3749187917f0000000000000000000000000000000000000000000000000000000000000000169063d6e4fa8690602401602060405180830381865afa1580156115c2573d6000803e3d6000fd5b505050506040513d601f19601f820116820180604052508101906115e69190613eeb565b86866040518563ffffffff1660e01b81526004016116079493929190613f81565b6040805180830381865afa158015611623573d6000803e3d6000fd5b505050506040513d601f19601f820116820180604052508101906116479190613fb2565b90505b9392505050565b6000546001600160a01b031633146116995760405162461bcd60e51b815260206004820181905260248201526000805160206145c983398151915260448201526064016109aa565b600080546040516001600160a01b03909116907f8be0079c531659141344cd1fd0a4f28419497f9722a3daafe3b4186f6b6457e0908390a3600080546001600160a01b0319169055565b6000546001600160a01b0316331461172b5760405162461bcd60e51b815260206004820181905260248201526000805160206145c983398151915260448201526064016109aa565b600580546001600160a01b0319166001600160a01b0392909216919091179055565b604080518082019091526000808252602082015283158061177157506224ea008410155b6117bd5760405162461bcd60e51b815260206004820152601060248201527f496e76616c6964206475726174696f6e0000000000000000000000000000000060448201526064016109aa565b60015485516020870120604051636b727d4360e11b815260048101919091526001600160a01b0391821691638361401d9188917f0000000000000000000000000000000000000000000000000000000000000000169063d6e4fa8690602401602060405180830381865afa158015611839573d6000803e3d6000fd5b505050506040513d601f19601f8201168201806040525081019061185d9190613eeb565b8787876040518663ffffffff1660e01b8152600401611880959493929190613fe4565b6040805180830381865afa15801561189c573d6000803e3d6000fd5b505050506040513d601f19601f820116820180604052508101906118c09190613fb2565b95945050505050565b6000546001600160a01b031633146119115760405162461bcd60e51b815260206004820181905260248201526000805160206145c983398151915260448201526064016109aa565b600180546001600160a01b0319166001600160a01b0392909216919091179055565b6000546001600160a01b0316331461197b5760405162461bcd60e51b815260206004820181905260248201526000805160206145c983398151915260448201526064016109aa565b6001600160a01b0381166000908152600960205260409020825183919081906119a49082614070565b5060209190910151600190910180546001600160a01b0319166001600160a01b039092169190911790555050565b6003546001600160a01b03163314611a2c5760405162461bcd60e51b815260206004820152600b60248201527f4e6f74204261636b656e6400000000000000000000000000000000000000000060448201526064016109aa565b6000611a3785612157565b5090506103e86006541115611a5457611a54848484846001612348565b6064611a61826023613f2b565b611a6b9190613f42565b60076000828254611a7c9190613ed8565b909155505060068054906000611a9183613cd5565b91905055505050505050565b60006002611aaa83612710565b101592915050565b6001600160a01b0384811660009081526009602052604090206001015416611b1c5760405162461bcd60e51b815260206004820152601060248201527f556e616363657074656420546f6b656e0000000000000000000000000000000060448201526064016109aa565b6000611b28868661289f565b509050610b828484848489612beb565b80516020820120600090611b4b83611a9d565b801561164a57506040517f96e494e8000000000000000000000000000000000000000000000000000000008152600481018290527f00000000000000000000000000000000000000000000000000000000000000006001600160a01b0316906396e494e890602401602060405180830381865afa158015611bd0573d6000803e3d6000fd5b505050506040513d601f19601f8201168201806040525081019061164a9190613f64565b6000546001600160a01b03163314611c3c5760405162461bcd60e51b815260206004820181905260248201526000805160206145c983398151915260448201526064016109aa565b600380546001600160a01b0319166001600160a01b0392909216919091179055565b6000818152600860205260409020544290611c9a907f000000000000000000000000000000000000000000000000000000000000000090613ed8565b10611cd4576040517f0a059d71000000000000000000000000000000000000000000000000000000008152600481018290526024016109aa565b6000908152600860205260409020429055565b6000546001600160a01b03163314611d2f5760405162461bcd60e51b815260206004820181905260248201526000805160206145c983398151915260448201526064016109aa565b6001600160a01b038116611dab5760405162461bcd60e51b815260206004820152602660248201527f4f776e61626c653a206e6577206f776e657220697320746865207a65726f206160448201527f646472657373000000000000000000000000000000000000000000000000000060648201526084016109aa565b600080546040516001600160a01b03808516939216917f8be0079c531659141344cd1fd0a4f28419497f9722a3daafe3b4186f6b6457e091a3600080546001600160a01b0319166001600160a01b0392909216919091179055565b6001600160a01b0382811660009081526009602052604090206001015416611e705760405162461bcd60e51b815260206004820152601060248201527f556e616363657074656420546f6b656e0000000000000000000000000000000060448201526064016109aa565b600081611e7d5783611e84565b640757b12c005b905060008686604051611e98929190613d7f565b604080519182900382206001600160a01b03871660009081526009602052828120848401909352825491945092919082908290611ed490613c8b565b80601f0160208091040260200160405190810160405280929190818152602001828054611f0090613c8b565b8015611f4d5780601f10611f2257610100808354040283529160200191611f4d565b820191906000526020600020905b815481529060010190602001808311611f3057829003601f168201915b5050509183525050600191909101546001600160a01b031660209182015260408051601f8b01839004830281018301909152898152919250600091611fb1918b908b908190840183828082843760009201919091525050855188925090508861174d565b9050600081602001518260000151611fc99190613ed8565b6040516370a0823160e01b815233600482015290915081906001600160a01b038916906370a0823190602401602060405180830381865afa158015612012573d6000803e3d6000fd5b505050506040513d601f19601f820116820180604052508101906120369190613eeb565b10156120555760405163044044a560e21b815260040160405180910390fd5b61206a6001600160a01b038816333084612c82565b60405163c475abff60e01b815260048101859052602481018690526000907f00000000000000000000000000000000000000000000000000000000000000006001600160a01b03169063c475abff906044016020604051808303816000875af11580156120db573d6000803e3d6000fd5b505050506040513d601f19601f820116820180604052508101906120ff9190613eeb565b9050847f3da24c024582931cfaf8267d8ed24d13a82a8068d5bd337d30ec45cea4e506ae8c8c85856040516121379493929190613f04565b60405180910390a261214a85838a612cd3565b5050505050505050505050565b6000808061216d6101208501610100860161381a565b61217b578360400135612182565b640757b12c005b905060006121dc6121938680613d38565b8080601f01602080910402602001604051908101604052809392919081815260200183838082843760009201919091525086925061057591505061012089016101008a0161381a565b602081015181519192506121ef91613ed8565b9350833410156122125760405163044044a560e21b815260040160405180910390fd5b61226561221f8680613d38565b8080601f0160208091040260200160405190810160405280939291908181526020018383808284376000920191909152508692506122609150899050610b9f565b612ded565b6001600160a01b037f00000000000000000000000000000000000000000000000000000000000000001663a401498261229e8780613d38565b6122ae60408a0160208b0161364a565b866122bf60a08c0160808d0161364a565b6122d06101008d0160e08e01613d8f565b6040518763ffffffff1660e01b81526004016122f196959493929190614130565b6020604051808303816000875af1158015612310573d6000803e3d6000fd5b505050506040513d601f19601f820116820180604052508101906123349190613eeb565b9250612341858285612f75565b5050915091565b6000612357602087018761364a565b6001600160a01b0316148061236a575082155b612497576000606461237d601e85613f2b565b6123879190613f42565b9050816124145760025460405163044a5a8160e41b81526001600160a01b03909116906344a5a8109083906123cb908a908a908a908a90600090819060040161417a565b60206040518083038185885af11580156123e9573d6000803e3d6000fd5b50505050506040513d601f19601f8201168201806040525081019061240e9190613eeb565b50612495565b60025460405163044a5a8160e41b81526001600160a01b03909116906344a5a8109061245090899089908990899060009060019060040161417a565b6020604051808303816000875af115801561246f573d6000803e3d6000fd5b505050506040513d601f19601f820116820180604052508101906124939190613eeb565b505b505b5050505050565b803411156110ab576000336124b3833461421e565b604051600081818185875af1925050503d80600081146124ef576040519150601f19603f3d011682016040523d82523d6000602084013e6124f4565b606091505b50509050806125455760405162461bcd60e51b815260206004820152600d60248201527f526566756e64206661696c65640000000000000000000000000000000000000060448201526064016109aa565b5050565b600254604051630952393560e41b81526004810185905260009182916001600160a01b0390911690639523935090602401600060405180830381865afa158015612597573d6000803e3d6000fd5b505050506040513d6000823e601f3d908101601f191682016040526125bf9190810190614261565b50919450925050506001600160a01b03821615806125db575080155b156125e7575050505050565b600060646125f6601e87613f2b565b6126009190613f42565b90508361264e57600254604051622edce760e71b8152600481018890526024810187905260006044820181905260648201526001600160a01b039091169063176e73809083906084016123cb565b600254604051622edce760e71b8152600481018890526024810187905260006044820152600160648201526001600160a01b039091169063176e738090608401612450565b6040516001600160a01b03831660248201526044810182905261270b90849063a9059cbb60e01b906064015b60408051601f198184030181529190526020810180517bffffffffffffffffffffffffffffffffffffffffffffffffffffffff166001600160e01b031990931692909217909152613149565b505050565b8051600090819081905b80821015612896576000858381518110612736576127366142f7565b01602001516001600160f81b03191690507f80000000000000000000000000000000000000000000000000000000000000008110156127815761277a600184613ed8565b9250612883565b7fe0000000000000000000000000000000000000000000000000000000000000006001600160f81b0319821610156127be5761277a600284613ed8565b7ff0000000000000000000000000000000000000000000000000000000000000006001600160f81b0319821610156127fb5761277a600384613ed8565b7ff8000000000000000000000000000000000000000000000000000000000000006001600160f81b0319821610156128385761277a600484613ed8565b7ffc000000000000000000000000000000000000000000000000000000000000006001600160f81b0319821610156128755761277a600584613ed8565b612880600684613ed8565b92505b508261288e81613cd5565b93505061271a565b50909392505050565b600080806128b56101208601610100870161381a565b6128c35784604001356128ca565b640757b12c005b9050600060096000866001600160a01b03166001600160a01b0316815260200190815260200160002060405180604001604052908160008201805461290e90613c8b565b80601f016020809104026020016040519081016040528092919081815260200182805461293a90613c8b565b80156129875780601f1061295c57610100808354040283529160200191612987565b820191906000526020600020905b81548152906001019060200180831161296a57829003601f168201915b5050509183525050600191909101546001600160a01b031660209091015290506000612a016129b68880613d38565b8080601f01602080910402602001604051908101604052809392919081815260200183838082843760009201919091525050855187925090506105e56101208c016101008d0161381a565b60208101518151919250612a1491613ed8565b6040516370a0823160e01b815233600482015290955085906001600160a01b038816906370a0823190602401602060405180830381865afa158015612a5d573d6000803e3d6000fd5b505050506040513d601f19601f82011682018060405250810190612a819190613eeb565b1015612aa05760405163044044a560e21b815260040160405180910390fd5b612aee612aad8880613d38565b8080601f01602080910402602001604051908101604052809392919081815260200183838082843760009201919091525087925061226091508b9050610b9f565b612b036001600160a01b038716333088612c82565b6001600160a01b037f00000000000000000000000000000000000000000000000000000000000000001663a4014982612b3c8980613d38565b612b4c60408c0160208d0161364a565b87612b5d60a08e0160808f0161364a565b8d60e0016020810190612b709190613d8f565b6040518763ffffffff1660e01b8152600401612b9196959493929190614130565b6020604051808303816000875af1158015612bb0573d6000803e3d6000fd5b505050506040513d601f19601f82011682018060405250810190612bd49190613eeb565b9350612be1878286612f75565b5050509250929050565b6000612bfa602087018761364a565b6001600160a01b03161480612c0d575082155b6124975760006064612c20601e85613f2b565b612c2a9190613f42565b600254909150612c47906001600160a01b03848116911683612693565b60025460405163044a5a8160e41b81526001600160a01b03909116906344a5a81090612450908990899089908990899060009060040161417a565b6040516001600160a01b03808516602483015283166044820152606481018290526114509085907f23b872dd00000000000000000000000000000000000000000000000000000000906084016126bf565b600254604051630952393560e41b81526004810185905260009182916001600160a01b0390911690639523935090602401600060405180830381865afa158015612d21573d6000803e3d6000fd5b505050506040513d6000823e601f3d908101601f19168201604052612d499190810190614261565b50919450925050506001600160a01b0382161580612d65575080155b15612d71575050505050565b60006064612d80601e87613f2b565b612d8a9190613f42565b600254909150612da7906001600160a01b03868116911683612693565b600254604051622edce760e71b815260048101889052602481018790526001600160a01b038681166044830152600060648301529091169063176e738090608401612450565b6000818152600860205260409020544290612e29907f000000000000000000000000000000000000000000000000000000000000000090613ed8565b1115612e64576040517f5320bcf9000000000000000000000000000000000000000000000000000000008152600481018290526024016109aa565b6000818152600860205260409020544290612ea0907f000000000000000000000000000000000000000000000000000000000000000090613ed8565b11612eda576040517fcb7690d7000000000000000000000000000000000000000000000000000000008152600481018290526024016109aa565b612ee383611b38565b612f1b57826040517f477707e80000000000000000000000000000000000000000000000000000000081526004016109aa919061430d565b6000818152600860205260408120558115801590612f3b57506224ea0082105b1561270b576040517f9a71997b000000000000000000000000000000000000000000000000000000008152600481018390526024016109aa565b6000612f818480613d38565b604051612f8f929190613d7f565b60405190819003902090506000612fa960a0860186613cee565b90501115612fe057612fe0612fc460a086016080870161364a565b82612fd260a0880188613cee565b612fdb91614344565b61322e565b612ff060e0850160c0860161381a565b1561304d5761304d6130028580613d38565b8080601f0160208091040260200160405190810160405280939291908181526020018383808284376000920191909152506130479250505060a087016080880161364a565b33613304565b6130dd61305a8580613d38565b8080601f0160208091040260200160405190810160405280939291908181526020018383808284376000920191909152506130a1925050506101208701610100880161381a565b6130af5785604001356130b6565b640757b12c005b6130c6604088016020890161364a565b6130d861012089016101008a0161381a565b6133b8565b6130ed604085016020860161364a565b6001600160a01b0316817f69e37f151eb98a09618ddaa80c8cfaf1ce5996867c489f45b555b412271ebf276131228780613d38565b8751602089015160405161313b94939291908a906143cc565b60405180910390a350505050565b600061319e826040518060400160405280602081526020017f5361666545524332303a206c6f772d6c6576656c2063616c6c206661696c6564815250856001600160a01b03166134b29092919063ffffffff16565b80519091501561270b57808060200190518101906131bc9190613f64565b61270b5760405162461bcd60e51b815260206004820152602a60248201527f5361666545524332303a204552433230206f7065726174696f6e20646964206e60448201527f6f7420737563636565640000000000000000000000000000000000000000000060648201526084016109aa565b604080517ff92e9539a836c60f519caef3f817b823139813f56a7a19c9621f7b47f35b340d602080830191909152818301859052825180830384018152606083019384905280519101207fe32954eb000000000000000000000000000000000000000000000000000000009092526001600160a01b0385169063e32954eb906132bd90849086906064016143fd565b6000604051808303816000875af11580156132dc573d6000803e3d6000fd5b505050506040513d6000823e601f3d908101601f191682016040526124979190810190614467565b7f00000000000000000000000000000000000000000000000000000000000000006001600160a01b0316637a806d6b33838587604051602001613347919061452d565b6040516020818303038152906040526040518563ffffffff1660e01b8152600401613375949392919061456e565b6020604051808303816000875af1158015613394573d6000803e3d6000fd5b505050506040513d601f19601f820116820180604052508101906114509190613eeb565b600554600160a01b900460ff16156114505760006133d585612710565b905060008160021461340657816003146133ff57816004146133f857600a613409565b6014613409565b6032613409565b60645b60ff169050600083613428576134236301e1338087613f42565b61342b565b60035b6134359083613f2b565b6005546040517f2af074240000000000000000000000000000000000000000000000000000000081526001600160a01b03888116600483015260248201849052929350911690632af0742490604401600060405180830381600087803b15801561349e57600080fd5b505af115801561214a573d6000803e3d6000fd5b6060611647848460008585843b61350b5760405162461bcd60e51b815260206004820152601d60248201527f416464726573733a2063616c6c20746f206e6f6e2d636f6e747261637400000060448201526064016109aa565b600080866001600160a01b0316858760405161352791906145ac565b60006040518083038185875af1925050503d8060008114613564576040519150601f19603f3d011682016040523d82523d6000602084013e613569565b606091505b5091509150613579828286613584565b979650505050505050565b6060831561359357508161164a565b8251156135a35782518084602001fd5b8160405162461bcd60e51b81526004016109aa919061430d565b5080546135c990613c8b565b6000825580601f106135d9575050565b601f0160209004906000526020600020908101906110ab91905b8082111561360757600081556001016135f3565b5090565b60006020828403121561361d57600080fd5b81356001600160e01b03198116811461164a57600080fd5b6001600160a01b03811681146110ab57600080fd5b60006020828403121561365c57600080fd5b813561164a81613635565b60005b8381101561368257818101518382015260200161366a565b50506000910152565b600081518084526136a3816020860160208601613667565b601f01601f19169290920160200192915050565b6040815260006136ca604083018561368b565b90506001600160a01b03831660208301529392505050565b600061012082840312156136f557600080fd5b50919050565b600060c082840312156136f557600080fd5b60008083601f84011261371f57600080fd5b50813567ffffffffffffffff81111561373757600080fd5b60208301915083602082850101111561374f57600080fd5b9250929050565b600080600080610100858703121561376d57600080fd5b843567ffffffffffffffff8082111561378557600080fd5b613791888389016136e2565b95506137a088602089016136fb565b945060e08701359150808211156137b657600080fd5b506137c38782880161370d565b95989497509550505050565b6000602082840312156137e157600080fd5b813567ffffffffffffffff8111156137f857600080fd5b613804848285016136e2565b949350505050565b80151581146110ab57600080fd5b60006020828403121561382c57600080fd5b813561164a8161380c565b6000806000806060858703121561384d57600080fd5b843567ffffffffffffffff81111561386457600080fd5b6138708782880161370d565b90955093505060208501359150604085013561388b8161380c565b939692955090935050565b6000806000606084860312156138ab57600080fd5b83356138b681613635565b925060208401356138c681613635565b929592945050506040919091013590565b634e487b7160e01b600052604160045260246000fd5b6040805190810167ffffffffffffffff81118282101715613910576139106138d7565b60405290565b604051601f8201601f1916810167ffffffffffffffff8111828210171561393f5761393f6138d7565b604052919050565b600067ffffffffffffffff821115613961576139616138d7565b50601f01601f191660200190565b600061398261397d84613947565b613916565b905082815283838301111561399657600080fd5b828260208301376000602084830101529392505050565b600082601f8301126139be57600080fd5b61164a8383356020850161396f565b6000806000606084860312156139e257600080fd5b833567ffffffffffffffff8111156139f957600080fd5b613a05868287016139ad565b935050602084013591506040840135613a1d8161380c565b809150509250925092565b60008060008060808587031215613a3e57600080fd5b843567ffffffffffffffff80821115613a5657600080fd5b613a62888389016139ad565b9550602087013594506040870135915080821115613a7f57600080fd5b50613a8c878288016139ad565b925050606085013561388b8161380c565b60008060408385031215613ab057600080fd5b823567ffffffffffffffff80821115613ac857600080fd5b9084019060408287031215613adc57600080fd5b613ae46138ed565b823582811115613af357600080fd5b613aff888286016139ad565b82525060208301359250613b1283613635565b602081810193909352935050830135613b2a81613635565b809150509250929050565b600060208284031215613b4757600080fd5b5035919050565b600060208284031215613b6057600080fd5b813567ffffffffffffffff811115613b7757600080fd5b613804848285016139ad565b60008060008060006101208688031215613b9c57600080fd5b853567ffffffffffffffff80821115613bb457600080fd5b613bc089838a016136e2565b965060208801359150613bd282613635565b819550613be28960408a016136fb565b9450610100880135915080821115613bf957600080fd5b50613c068882890161370d565b969995985093965092949392505050565b600080600080600060808688031215613c2f57600080fd5b853567ffffffffffffffff811115613c4657600080fd5b613c528882890161370d565b909650945050602086013592506040860135613c6d81613635565b91506060860135613c7d8161380c565b809150509295509295909350565b600181811c90821680613c9f57607f821691505b6020821081036136f557634e487b7160e01b600052602260045260246000fd5b634e487b7160e01b600052601160045260246000fd5b600060018201613ce757613ce7613cbf565b5060010190565b6000808335601e19843603018112613d0557600080fd5b83018035915067ffffffffffffffff821115613d2057600080fd5b6020019150600581901b360382131561374f57600080fd5b6000808335601e19843603018112613d4f57600080fd5b83018035915067ffffffffffffffff821115613d6a57600080fd5b60200191503681900382131561374f57600080fd5b8183823760009101908152919050565b600060208284031215613da157600080fd5b813561ffff8116811461164a57600080fd5b81835281816020850137506000828201602090810191909152601f909101601f19169091010190565b60006101208083018d845260206001600160a01b03808f16828701528d60408701528c6060870152808c166080870152508260a086015281925088825261014091508185019250818960051b86010191508960005b8a811015613ea25786840361013f190185528135368d9003601e19018112613e5857600080fd5b8c01838101903567ffffffffffffffff811115613e7457600080fd5b803603821315613e8357600080fd5b613e8e868284613db3565b968501969550505090820190600101613e31565b50505086151560c08501529150613eb69050565b61ffff841660e08301528215156101008301529b9a5050505050505050505050565b8082018082111561096057610960613cbf565b600060208284031215613efd57600080fd5b5051919050565b606081526000613f18606083018688613db3565b6020830194909452506040015292915050565b808202811582820484141761096057610960613cbf565b600082613f5f57634e487b7160e01b600052601260045260246000fd5b500490565b600060208284031215613f7657600080fd5b815161164a8161380c565b608081526000613f94608083018761368b565b60208301959095525060408101929092521515606090910152919050565b600060408284031215613fc457600080fd5b613fcc6138ed565b82518152602083015160208201528091505092915050565b60a081526000613ff760a083018861368b565b8660208401528560408401528281036060840152614015818661368b565b91505082151560808301529695505050505050565b601f82111561270b57600081815260208120601f850160051c810160208610156140515750805b601f850160051c820191505b818110156124955782815560010161405d565b815167ffffffffffffffff81111561408a5761408a6138d7565b61409e816140988454613c8b565b8461402a565b602080601f8311600181146140d357600084156140bb5750858301515b600019600386901b1c1916600185901b178555612495565b600085815260208120601f198616915b82811015614102578886015182559484019460019091019084016140e3565b50858210156141205787850151600019600388901b60f8161c191681555b5050505050600190811b01905550565b60a08152600061414460a08301888a613db3565b90506001600160a01b03808716602084015285604084015280851660608401525061ffff83166080830152979650505050505050565b6000610140883561418a81613635565b6001600160a01b03908116845260208a0135906141a682613635565b8082166020860152505060408901356040840152606089013560608401526080890135608084015260a089013560a08401528060c08401526141eb818401888a613db3565b9150508460e083015261420a6101008301856001600160a01b03169052565b821515610120830152979650505050505050565b8181038181111561096057610960613cbf565b600061423f61397d84613947565b905082815283838301111561425357600080fd5b61164a836020830184613667565b600080600080600060a0868803121561427957600080fd5b85519450602086015161428b81613635565b604087015190945061429c8161380c565b60608701519093506142ad81613635565b608087015190925067ffffffffffffffff8111156142ca57600080fd5b8601601f810188136142db57600080fd5b6142ea88825160208401614231565b9150509295509295909350565b634e487b7160e01b600052603260045260246000fd5b60208152600061164a602083018461368b565b600067ffffffffffffffff82111561433a5761433a6138d7565b5060051b60200190565b600061435261397d84614320565b80848252602080830192508560051b85013681111561437057600080fd5b855b818110156143c057803567ffffffffffffffff8111156143925760008081fd5b870136601f8201126143a45760008081fd5b6143b236823586840161396f565b865250938201938201614372565b50919695505050505050565b6080815260006143e0608083018789613db3565b602083019590955250604081019290925260609091015292915050565b600060408201848352602060408185015281855180845260608601915060608160051b870101935082870160005b8281101561445957605f1988870301845261444786835161368b565b9550928401929084019060010161442b565b509398975050505050505050565b6000602080838503121561447a57600080fd5b825167ffffffffffffffff8082111561449257600080fd5b818501915085601f8301126144a657600080fd5b81516144b461397d82614320565b81815260059190911b830184019084810190888311156144d357600080fd5b8585015b83811015614520578051858111156144ef5760008081fd5b8601603f81018b136145015760008081fd5b6145128b8983015160408401614231565b8452509186019186016144d7565b5098975050505050505050565b6000825161453f818460208701613667565b7f2e73616675000000000000000000000000000000000000000000000000000000920191825250600501919050565b60006001600160a01b0380871683528086166020840152808516604084015250608060608301526145a2608083018461368b565b9695505050505050565b600082516145be818460208701613667565b919091019291505056fe4f776e61626c653a2063616c6c6572206973206e6f7420746865206f776e6572a2646970667358221220df0dcf5896230680683f994be281e3763e0f9240a9513643e2a24bfb702edce964736f6c63430008110033"
}