{
  "address": "0x48511b6c15fe1F89bAf6b30dBFA35bF0eAaEB751",
  "abi": [
    {
      "inputs": [
        {
          "internalType": "contract BaseRegistrarImplementation",
          "name": "_base",
          "type": "address"
        },
        {
          "internalType": "contract TokenPriceOracle",
          "name": "_prices",
          "type": "address"
        },
        {
          "internalType": "uint256",
          "name": "_minCommitmentAge",
          "type": "uint256"
        },
        {
          "internalType": "uint256",
          "name": "_maxCommitmentAge",
          "type": "uint256"
        },
        {
          "internalType": "contract ReverseRegistrar",
          "name": "_reverseRegistrar",
          "type": "address"
        },
        {
          "internalType": "contract INameWrapper",
          "name": "_nameWrapper",
          "type": "address"
        },
        {
          "internalType": "contract ENS",
          "name": "_ens",
          "type": "address"
        },
        {
          "internalType": "contract ReferralController",
          "name": "_referralController",
          "type": "address"
        }
      ],
      "stateMutability": "nonpayable",
      "type": "constructor"
    },
    {
      "inputs": [
        {
          "internalType": "bytes32",
          "name": "commitment",
          "type": "bytes32"
        }
      ],
      "name": "CommitmentTooNew",
      "type": "error"
    },
    {
      "inputs": [
        {
          "internalType": "bytes32",
          "name": "commitment",
          "type": "bytes32"
        }
      ],
      "name": "CommitmentTooOld",
      "type": "error"
    },
    {
      "inputs": [
        {
          "internalType": "uint256",
          "name": "duration",
          "type": "uint256"
        }
      ],
      "name": "DurationTooShort",
      "type": "error"
    },
    {
      "inputs": [],
      "name": "InsufficientValue",
      "type": "error"
    },
    {
      "inputs": [],
      "name": "MaxCommitmentAgeTooHigh",
      "type": "error"
    },
    {
      "inputs": [],
      "name": "MaxCommitmentAgeTooLow",
      "type": "error"
    },
    {
      "inputs": [
        {
          "internalType": "string",
          "name": "name",
          "type": "string"
        }
      ],
      "name": "NameNotAvailable",
      "type": "error"
    },
    {
      "inputs": [],
      "name": "ResolverRequiredWhenDataSupplied",
      "type": "error"
    },
    {
      "inputs": [
        {
          "internalType": "bytes32",
          "name": "commitment",
          "type": "bytes32"
        }
      ],
      "name": "UnexpiredCommitmentExists",
      "type": "error"
    },
    {
      "anonymous": false,
      "inputs": [
        {
          "indexed": false,
          "internalType": "string",
          "name": "name",
          "type": "string"
        },
        {
          "indexed": true,
          "internalType": "bytes32",
          "name": "label",
          "type": "bytes32"
        },
        {
          "indexed": true,
          "internalType": "address",
          "name": "owner",
          "type": "address"
        },
        {
          "indexed": false,
          "internalType": "uint256",
          "name": "baseCost",
          "type": "uint256"
        },
        {
          "indexed": false,
          "internalType": "uint256",
          "name": "premium",
          "type": "uint256"
        },
        {
          "indexed": false,
          "internalType": "uint256",
          "name": "expires",
          "type": "uint256"
        }
      ],
      "name": "NameRegistered",
      "type": "event"
    },
    {
      "anonymous": false,
      "inputs": [
        {
          "indexed": false,
          "internalType": "string",
          "name": "name",
          "type": "string"
        },
        {
          "indexed": true,
          "internalType": "bytes32",
          "name": "label",
          "type": "bytes32"
        },
        {
          "indexed": false,
          "internalType": "uint256",
          "name": "cost",
          "type": "uint256"
        },
        {
          "indexed": false,
          "internalType": "uint256",
          "name": "expires",
          "type": "uint256"
        }
      ],
      "name": "NameRenewed",
      "type": "event"
    },
    {
      "anonymous": false,
      "inputs": [
        {
          "indexed": true,
          "internalType": "address",
          "name": "previousOwner",
          "type": "address"
        },
        {
          "indexed": true,
          "internalType": "address",
          "name": "newOwner",
          "type": "address"
        }
      ],
      "name": "OwnershipTransferred",
      "type": "event"
    },
    {
      "inputs": [],
      "name": "MIN_REGISTRATION_DURATION",
      "outputs": [
        {
          "internalType": "uint256",
          "name": "",
          "type": "uint256"
        }
      ],
      "stateMutability": "view",
      "type": "function"
    },
    {
      "inputs": [],
      "name": "airdrop",
      "outputs": [
        {
          "internalType": "contract Airdrop",
          "name": "",
          "type": "address"
        }
      ],
      "stateMutability": "view",
      "type": "function"
    },
    {
      "inputs": [
        {
          "internalType": "string",
          "name": "name",
          "type": "string"
        }
      ],
      "name": "available",
      "outputs": [
        {
          "internalType": "bool",
          "name": "",
          "type": "bool"
        }
      ],
      "stateMutability": "view",
      "type": "function"
    },
    {
      "inputs": [],
      "name": "backendWallet",
      "outputs": [
        {
          "internalType": "address",
          "name": "",
          "type": "address"
        }
      ],
      "stateMutability": "view",
      "type": "function"
    },
    {
      "inputs": [
        {
          "internalType": "bytes32",
          "name": "commitment",
          "type": "bytes32"
        }
      ],
      "name": "commit",
      "outputs": [],
      "stateMutability": "nonpayable",
      "type": "function"
    },
    {
      "inputs": [
        {
          "internalType": "bytes32",
          "name": "",
          "type": "bytes32"
        }
      ],
      "name": "commitments",
      "outputs": [
        {
          "internalType": "uint256",
          "name": "",
          "type": "uint256"
        }
      ],
      "stateMutability": "view",
      "type": "function"
    },
    {
      "inputs": [
        {
          "internalType": "bool",
          "name": "enabled",
          "type": "bool"
        }
      ],
      "name": "controlAirdrop",
      "outputs": [],
      "stateMutability": "nonpayable",
      "type": "function"
    },
    {
      "inputs": [],
      "name": "getMints",
      "outputs": [
        {
          "internalType": "uint256",
          "name": "",
          "type": "uint256"
        }
      ],
      "stateMutability": "view",
      "type": "function"
    },
    {
      "inputs": [],
      "name": "infoFi",
      "outputs": [
        {
          "internalType": "address",
          "name": "",
          "type": "address"
        }
      ],
      "stateMutability": "view",
      "type": "function"
    },
    {
      "inputs": [
        {
          "internalType": "string",
          "name": "name",
          "type": "string"
        },
        {
          "internalType": "address",
          "name": "owner",
          "type": "address"
        },
        {
          "internalType": "uint256",
          "name": "duration",
          "type": "uint256"
        },
        {
          "internalType": "bytes32",
          "name": "secret",
          "type": "bytes32"
        },
        {
          "internalType": "address",
          "name": "resolver",
          "type": "address"
        },
        {
          "internalType": "bytes[]",
          "name": "data",
          "type": "bytes[]"
        },
        {
          "internalType": "bool",
          "name": "reverseRecord",
          "type": "bool"
        },
        {
          "internalType": "uint16",
          "name": "ownerControlledFuses",
          "type": "uint16"
        },
        {
          "internalType": "bool",
          "name": "lifetime",
          "type": "bool"
        }
      ],
      "name": "makeCommitment",
      "outputs": [
        {
          "internalType": "bytes32",
          "name": "",
          "type": "bytes32"
        }
      ],
      "stateMutability": "pure",
      "type": "function"
    },
    {
      "inputs": [],
      "name": "maxCommitmentAge",
      "outputs": [
        {
          "internalType": "uint256",
          "name": "",
          "type": "uint256"
        }
      ],
      "stateMutability": "view",
      "type": "function"
    },
    {
      "inputs": [],
      "name": "minCommitmentAge",
      "outputs": [
        {
          "internalType": "uint256",
          "name": "",
          "type": "uint256"
        }
      ],
      "stateMutability": "view",
      "type": "function"
    },
    {
      "inputs": [],
      "name": "mints",
      "outputs": [
        {
          "internalType": "uint256",
          "name": "",
          "type": "uint256"
        }
      ],
      "stateMutability": "view",
      "type": "function"
    },
    {
      "inputs": [],
      "name": "nameWrapper",
      "outputs": [
        {
          "internalType": "contract INameWrapper",
          "name": "",
          "type": "address"
        }
      ],
      "stateMutability": "view",
      "type": "function"
    },
    {
      "inputs": [],
      "name": "owner",
      "outputs": [
        {
          "internalType": "address",
          "name": "",
          "type": "address"
        }
      ],
      "stateMutability": "view",
      "type": "function"
    },
    {
      "inputs": [],
      "name": "prices",
      "outputs": [
        {
          "internalType": "contract TokenPriceOracle",
          "name": "",
          "type": "address"
        }
      ],
      "stateMutability": "view",
      "type": "function"
    },
    {
      "inputs": [
        {
          "internalType": "address",
          "name": "_token",
          "type": "address"
        },
        {
          "internalType": "address",
          "name": "_to",
          "type": "address"
        },
        {
          "internalType": "uint256",
          "name": "_amount",
          "type": "uint256"
        }
      ],
      "name": "recoverFunds",
      "outputs": [],
      "stateMutability": "nonpayable",
      "type": "function"
    },
    {
      "inputs": [],
      "name": "referralController",
      "outputs": [
        {
          "internalType": "contract ReferralController",
          "name": "",
          "type": "address"
        }
      ],
      "stateMutability": "view",
      "type": "function"
    },
    {
      "inputs": [
        {
          "internalType": "string",
          "name": "name",
          "type": "string"
        },
        {
          "internalType": "address",
          "name": "owner",
          "type": "address"
        },
        {
          "internalType": "uint256",
          "name": "duration",
          "type": "uint256"
        },
        {
          "internalType": "bytes32",
          "name": "secret",
          "type": "bytes32"
        },
        {
          "internalType": "address",
          "name": "resolver",
          "type": "address"
        },
        {
          "internalType": "bytes[]",
          "name": "data",
          "type": "bytes[]"
        },
        {
          "internalType": "bool",
          "name": "reverseRecord",
          "type": "bool"
        },
        {
          "internalType": "uint16",
          "name": "ownerControlledFuses",
          "type": "uint16"
        },
        {
          "internalType": "bool",
          "name": "lifetime",
          "type": "bool"
        },
        {
          "internalType": "string",
          "name": "referree",
          "type": "string"
        }
      ],
      "name": "register",
      "outputs": [],
      "stateMutability": "payable",
      "type": "function"
    },
    {
      "inputs": [
        {
          "internalType": "string",
          "name": "name",
          "type": "string"
        },
        {
          "internalType": "address",
          "name": "owner",
          "type": "address"
        },
        {
          "internalType": "uint256",
          "name": "duration",
          "type": "uint256"
        },
        {
          "internalType": "bytes32",
          "name": "secret",
          "type": "bytes32"
        },
        {
          "internalType": "address",
          "name": "resolver",
          "type": "address"
        },
        {
          "internalType": "bytes[]",
          "name": "data",
          "type": "bytes[]"
        },
        {
          "internalType": "bool",
          "name": "reverseRecord",
          "type": "bool"
        },
        {
          "internalType": "uint16",
          "name": "ownerControlledFuses",
          "type": "uint16"
        },
        {
          "internalType": "bool",
          "name": "lifetime",
          "type": "bool"
        },
        {
          "internalType": "string",
          "name": "referree",
          "type": "string"
        }
      ],
      "name": "registerWithCard",
      "outputs": [],
      "stateMutability": "nonpayable",
      "type": "function"
    },
    {
      "inputs": [
        {
          "components": [
            {
              "internalType": "string",
              "name": "name",
              "type": "string"
            },
            {
              "internalType": "address",
              "name": "owner",
              "type": "address"
            },
            {
              "internalType": "uint256",
              "name": "duration",
              "type": "uint256"
            },
            {
              "internalType": "bytes32",
              "name": "secret",
              "type": "bytes32"
            },
            {
              "internalType": "address",
              "name": "resolver",
              "type": "address"
            },
            {
              "internalType": "bytes[]",
              "name": "data",
              "type": "bytes[]"
            },
            {
              "internalType": "bool",
              "name": "reverseRecord",
              "type": "bool"
            },
            {
              "internalType": "uint16",
              "name": "ownerControlledFuses",
              "type": "uint16"
            }
          ],
          "internalType": "struct IETHRegistrarController.RegisterParams",
          "name": "registerParams",
          "type": "tuple"
        },
        {
          "internalType": "address",
          "name": "tokenAddress",
          "type": "address"
        },
        {
          "internalType": "bool",
          "name": "lifetime",
          "type": "bool"
        },
        {
          "internalType": "string",
          "name": "referree",
          "type": "string"
        }
      ],
      "name": "registerWithToken",
      "outputs": [],
      "stateMutability": "nonpayable",
      "type": "function"
    },
    {
      "inputs": [
        {
          "internalType": "address",
          "name": "tokenAddress",
          "type": "address"
        }
      ],
      "name": "removeToken",
      "outputs": [],
      "stateMutability": "nonpayable",
      "type": "function"
    },
    {
      "inputs": [
        {
          "internalType": "string",
          "name": "name",
          "type": "string"
        },
        {
          "internalType": "uint256",
          "name": "duration",
          "type": "uint256"
        },
        {
          "internalType": "bool",
          "name": "lifetime",
          "type": "bool"
        }
      ],
      "name": "renew",
      "outputs": [],
      "stateMutability": "payable",
      "type": "function"
    },
    {
      "inputs": [
        {
          "internalType": "string",
          "name": "name",
          "type": "string"
        },
        {
          "internalType": "uint256",
          "name": "duration",
          "type": "uint256"
        },
        {
          "internalType": "bool",
          "name": "lifetime",
          "type": "bool"
        }
      ],
      "name": "renewCard",
      "outputs": [],
      "stateMutability": "nonpayable",
      "type": "function"
    },
    {
      "inputs": [
        {
          "internalType": "string",
          "name": "name",
          "type": "string"
        },
        {
          "internalType": "uint256",
          "name": "duration",
          "type": "uint256"
        },
        {
          "internalType": "address",
          "name": "tokenAddress",
          "type": "address"
        },
        {
          "internalType": "bool",
          "name": "lifetime",
          "type": "bool"
        }
      ],
      "name": "renewTokens",
      "outputs": [],
      "stateMutability": "nonpayable",
      "type": "function"
    },
    {
      "inputs": [],
      "name": "renounceOwnership",
      "outputs": [],
      "stateMutability": "nonpayable",
      "type": "function"
    },
    {
      "inputs": [
        {
          "internalType": "string",
          "name": "name",
          "type": "string"
        },
        {
          "internalType": "uint256",
          "name": "duration",
          "type": "uint256"
        },
        {
          "internalType": "bool",
          "name": "lifetime",
          "type": "bool"
        }
      ],
      "name": "rentPrice",
      "outputs": [
        {
          "components": [
            {
              "internalType": "uint256",
              "name": "base",
              "type": "uint256"
            },
            {
              "internalType": "uint256",
              "name": "premium",
              "type": "uint256"
            }
          ],
          "internalType": "struct IPriceOracle.Price",
          "name": "price",
          "type": "tuple"
        }
      ],
      "stateMutability": "view",
      "type": "function"
    },
    {
      "inputs": [
        {
          "internalType": "string",
          "name": "name",
          "type": "string"
        },
        {
          "internalType": "uint256",
          "name": "duration",
          "type": "uint256"
        },
        {
          "internalType": "string",
          "name": "token",
          "type": "string"
        },
        {
          "internalType": "bool",
          "name": "lifetime",
          "type": "bool"
        }
      ],
      "name": "rentPriceToken",
      "outputs": [
        {
          "components": [
            {
              "internalType": "uint256",
              "name": "base",
              "type": "uint256"
            },
            {
              "internalType": "uint256",
              "name": "premium",
              "type": "uint256"
            }
          ],
          "internalType": "struct IPriceOracle.Price",
          "name": "price",
          "type": "tuple"
        }
      ],
      "stateMutability": "view",
      "type": "function"
    },
    {
      "inputs": [],
      "name": "resetInfoFi",
      "outputs": [],
      "stateMutability": "payable",
      "type": "function"
    },
    {
      "inputs": [],
      "name": "reverseRegistrar",
      "outputs": [
        {
          "internalType": "contract ReverseRegistrar",
          "name": "",
          "type": "address"
        }
      ],
      "stateMutability": "view",
      "type": "function"
    },
    {
      "inputs": [
        {
          "internalType": "contract Airdrop",
          "name": "_airdrop",
          "type": "address"
        }
      ],
      "name": "setAirdrop",
      "outputs": [],
      "stateMutability": "nonpayable",
      "type": "function"
    },
    {
      "inputs": [
        {
          "internalType": "address",
          "name": "wallet",
          "type": "address"
        }
      ],
      "name": "setBackend",
      "outputs": [],
      "stateMutability": "nonpayable",
      "type": "function"
    },
    {
      "inputs": [
        {
          "internalType": "address",
          "name": "_infoFi",
          "type": "address"
        }
      ],
      "name": "setInfoFi",
      "outputs": [],
      "stateMutability": "nonpayable",
      "type": "function"
    },
    {
      "inputs": [
        {
          "internalType": "address",
          "name": "oracle",
          "type": "address"
        }
      ],
      "name": "setOracle",
      "outputs": [],
      "stateMutability": "nonpayable",
      "type": "function"
    },
    {
      "inputs": [
        {
          "internalType": "address",
          "name": "referral",
          "type": "address"
        }
      ],
      "name": "setReferral",
      "outputs": [],
      "stateMutability": "nonpayable",
      "type": "function"
    },
    {
      "inputs": [
        {
          "components": [
            {
              "internalType": "string",
              "name": "token",
              "type": "string"
            },
            {
              "internalType": "address",
              "name": "tokenAddress",
              "type": "address"
            }
          ],
          "internalType": "struct ETHRegistrarController.Token",
          "name": "token",
          "type": "tuple"
        },
        {
          "internalType": "address",
          "name": "tokenAddress",
          "type": "address"
        }
      ],
      "name": "setToken",
      "outputs": [],
      "stateMutability": "nonpayable",
      "type": "function"
    },
    {
      "inputs": [
        {
          "internalType": "bytes4",
          "name": "interfaceID",
          "type": "bytes4"
        }
      ],
      "name": "supportsInterface",
      "outputs": [
        {
          "internalType": "bool",
          "name": "",
          "type": "bool"
        }
      ],
      "stateMutability": "pure",
      "type": "function"
    },
    {
      "inputs": [
        {
          "internalType": "address",
          "name": "newOwner",
          "type": "address"
        }
      ],
      "name": "transferOwnership",
      "outputs": [],
      "stateMutability": "nonpayable",
      "type": "function"
    },
    {
      "inputs": [],
      "name": "untrackedInfoFi",
      "outputs": [
        {
          "internalType": "uint256",
          "name": "",
          "type": "uint256"
        }
      ],
      "stateMutability": "view",
      "type": "function"
    },
    {
      "inputs": [],
      "name": "useAirdrop",
      "outputs": [
        {
          "internalType": "bool",
          "name": "",
          "type": "bool"
        }
      ],
      "stateMutability": "view",
      "type": "function"
    },
    {
      "inputs": [
        {
          "internalType": "string",
          "name": "name",
          "type": "string"
        }
      ],
      "name": "valid",
      "outputs": [
        {
          "internalType": "bool",
          "name": "",
          "type": "bool"
        }
      ],
      "stateMutability": "pure",
      "type": "function"
    },
    {
      "inputs": [
        {
          "internalType": "address",
          "name": "",
          "type": "address"
        }
      ],
      "name": "verifiedTokens",
      "outputs": [
        {
          "internalType": "string",
          "name": "token",
          "type": "string"
        },
        {
          "internalType": "address",
          "name": "tokenAddress",
          "type": "address"
        }
      ],
      "stateMutability": "view",
      "type": "function"
    },
    {
      "inputs": [],
      "name": "withdraw",
      "outputs": [],
      "stateMutability": "nonpayable",
      "type": "function"
    },
    {
      "inputs": [
        {
          "internalType": "address",
          "name": "tokenAddress",
          "type": "address"
        }
      ],
      "name": "withdrawTokens",
      "outputs": [],
      "stateMutability": "nonpayable",
      "type": "function"
    }
  ],
  "transactionHash": "0x64d48b4dc4ef89d71b54c8d2eefbc8332e51faf4b9e69facd9d36589faf39a76",
  "args": [
    "0xc85f95FCe09b582D546606f591CEEC88D88714f5",
    "0xf662D3693228212B50fD5eCf45e0E80Bf9B91cE2",
    "60",
    "86400",
    "0xc070aAcE207ad5eb2A460D059785ffC9D4D2C536",
    "0x86a930d1931C11e3Ec46b3A050E27F29bF94B612",
    "0x6aEFc7ac590096c08187a9052030dA59dEd7E996",
    "0x182690bD985ef02Ae44A6F8a2e71666bDe1196E2"
  ],
  "numDeployments": 2,
  "solcInputHash": "2470dabb0e9d88900b9f6041ff760784",
  "bytecode": "0x6101206040523480156200001257600080fd5b506040516200532738038062005327833981016040819052620000359162000242565b81336200004281620001d9565b6040516302571be360e01b81527f91d1777781884d03a6757a803996e38de2a42967fb37eeaca72729271025a9e260048201526000906001600160a01b038416906302571be390602401602060405180830381865afa158015620000aa573d6000803e3d6000fd5b505050506040513d601f19601f82011682018060405250810190620000d09190620002ec565b604051630f41a04d60e11b81526001600160a01b03848116600483015291925090821690631e83409a906024016020604051808303816000875af11580156200011d573d6000803e3d6000fd5b505050506040513d601f19601f8201168201806040525081019062000143919062000313565b5050505085851162000168576040516307cb550760e31b815260040160405180910390fd5b428511156200018a57604051630b4319e560e21b815260040160405180910390fd5b6001600160a01b03978816608052600180549789166001600160a01b031998891617905560a0959095525060c092909252841660e052831661010052600280549190931691161790556200032d565b600080546001600160a01b038381166001600160a01b0319831681178455604051919092169283917f8be0079c531659141344cd1fd0a4f28419497f9722a3daafe3b4186f6b6457e09190a35050565b6001600160a01b03811681146200023f57600080fd5b50565b600080600080600080600080610100898b0312156200026057600080fd5b88516200026d8162000229565b60208a0151909850620002808162000229565b8097505060408901519550606089015194506080890151620002a28162000229565b60a08a0151909450620002b58162000229565b60c08a0151909350620002c88162000229565b60e08a0151909250620002db8162000229565b809150509295985092959890939650565b600060208284031215620002ff57600080fd5b81516200030c8162000229565b9392505050565b6000602082840312156200032657600080fd5b5051919050565b60805160a05160c05160e05161010051614f61620003c66000396000818161077c01528181610b6c0152818161100b0152818161155a01528181612034015281816125510152612e180152600081816105cf01526135920152600081816107e601528181612a1901526133b1015260008181610675015261333a015260008181611afc01528181611cb3015261295e0152614f616000f3fe6080604052600436106102e75760003560e01c80638086985311610184578063a680baaf116100d6578063d3419bf31161008a578063f14fcbc811610064578063f14fcbc81461085e578063f2fde38b1461087e578063fbd50fa01461089e57600080fd5b8063d3419bf314610808578063da7fc24f14610828578063dfc7379d1461084857600080fd5b8063aeb8ce9b116100bb578063aeb8ce9b1461079e578063c53c0ec1146107be578063ce1e09c0146107d457600080fd5b8063a680baaf1461074a578063a8e5fbc01461076a57600080fd5b80638da5cb5b116101385780639e5914da116101125780639e5914da146106ea578063a0e3aef11461070a578063a31bc89a1461072a57600080fd5b80638da5cb5b146106975780639791c097146106b55780639dbd768e146106d557600080fd5b806388cccc091161016957806388cccc091461062c5780638a95b09f1461064c5780638d839ffe1461066357600080fd5b806380869853146105bd578063839df945146105f157600080fd5b80635baef98e1161023d578063715018a6116101f15780637adbf973116101cb5780637adbf9731461055d5780637c665bf51461057d5780637eb9a50b1461059d57600080fd5b8063715018a61461050857806372820dbc1461051d578063786d96a11461053d57600080fd5b80635fa7b584116102225780635fa7b5841461048c57806367547287146104ac5780636cfc51e2146104cd57600080fd5b80635baef98e1461044c5780635d3590d51461046c57600080fd5b80633884d6351161029f57806349df728c1161027957806349df728c146103f95780634ba694bd146104195780634be2b2ec1461043957600080fd5b80633884d6351461038c5780633c3a7d35146103c45780633ccfd60b146103e457600080fd5b80631baaaffe116102d05780631baaaffe1461032b57806323ed462e14610359578063330386b61461036c57600080fd5b806301ffc9a7146102ec578063094f716d14610321575b600080fd5b3480156102f857600080fd5b5061030c610307366004613f0d565b6108be565b60405190151581526020015b60405180910390f35b610329610927565b005b34801561033757600080fd5b5061034b610346366004613f5c565b610a2f565b604051610318929190613fc9565b6103296103673660046141fd565b610adc565b34801561037857600080fd5b506103296103873660046142ee565b610e5e565b34801561039857600080fd5b506008546103ac906001600160a01b031681565b6040516001600160a01b039091168152602001610318565b3480156103d057600080fd5b506103296103df366004614354565b610e9f565b3480156103f057600080fd5b506103296112fa565b34801561040557600080fd5b50610329610414366004613f5c565b6113a0565b34801561042557600080fd5b506002546103ac906001600160a01b031681565b610329610447366004614354565b61142e565b34801561045857600080fd5b50610329610467366004613f5c565b61196d565b34801561047857600080fd5b506103296104873660046143b3565b611997565b34801561049857600080fd5b506103296104a7366004613f5c565b611a18565b3480156104b857600080fd5b5060085461030c90600160a01b900460ff1681565b3480156104d957600080fd5b506104ed6104e83660046143f4565b611a58565b60408051825181526020928301519281019290925201610318565b34801561051457600080fd5b50610329611bd1565b34801561052957600080fd5b50610329610538366004613f5c565b611be5565b34801561054957600080fd5b506104ed61055836600461444f565b611c0f565b34801561056957600080fd5b50610329610578366004613f5c565b611d8b565b34801561058957600080fd5b506103296105983660046144c4565b611db5565b3480156105a957600080fd5b506103296105b83660046145f4565b612353565b3480156105c957600080fd5b506103ac7f000000000000000000000000000000000000000000000000000000000000000081565b3480156105fd57600080fd5b5061061e61060c36600461468c565b60046020526000908152604090205481565b604051908152602001610318565b34801561063857600080fd5b506003546103ac906001600160a01b031681565b34801561065857600080fd5b5061061e6224ea0081565b34801561066f57600080fd5b5061061e7f000000000000000000000000000000000000000000000000000000000000000081565b3480156106a357600080fd5b506000546001600160a01b03166103ac565b3480156106c157600080fd5b5061030c6106d03660046146a5565b6123b2565b3480156106e157600080fd5b5060095461061e565b3480156106f657600080fd5b50610329610705366004613f5c565b6123c7565b34801561071657600080fd5b5061061e6107253660046146da565b6123f1565b34801561073657600080fd5b506103296107453660046141fd565b612491565b34801561075657600080fd5b506005546103ac906001600160a01b031681565b34801561077657600080fd5b506103ac7f000000000000000000000000000000000000000000000000000000000000000081565b3480156107aa57600080fd5b5061030c6107b93660046146a5565b612915565b3480156107ca57600080fd5b5061061e60065481565b3480156107e057600080fd5b5061061e7f000000000000000000000000000000000000000000000000000000000000000081565b34801561081457600080fd5b506001546103ac906001600160a01b031681565b34801561083457600080fd5b50610329610843366004613f5c565b6129d8565b34801561085457600080fd5b5061061e60095481565b34801561086a57600080fd5b5061032961087936600461468c565b612a02565b34801561088a57600080fd5b50610329610899366004613f5c565b612a8b565b3480156108aa57600080fd5b506103296108b93660046147ad565b612b18565b60006001600160e01b031982167f01ffc9a700000000000000000000000000000000000000000000000000000000148061092157506001600160e01b031982167f0439cc7600000000000000000000000000000000000000000000000000000000145b92915050565b61092f6131b8565b600034116109845760405162461bcd60e51b815260206004820152601f60248201527f4d7573742073656e642076616c756520746f20726573657420696e666f46690060448201526064015b60405180910390fd5b6003546040516000916001600160a01b03169034908381818185875af1925050503d80600081146109d1576040519150601f19603f3d011682016040523d82523d6000602084013e6109d6565b606091505b5050905080610a275760405162461bcd60e51b815260206004820152601860248201527f5061796d656e7420746f20696e666f4669206661696c65640000000000000000604482015260640161097b565b506000600655565b600760205260009081526040902080548190610a4a90614821565b80601f0160208091040260200160405190810160405280929190818152602001828054610a7690614821565b8015610ac35780601f10610a9857610100808354040283529160200191610ac3565b820191906000526020600020905b815481529060010190602001808311610aa657829003601f168201915b505050600190930154919250506001600160a01b031682565b8115610aeb57640757b12c0097505b610af78a898b85613212565b6000610b048b8a85611a58565b60208101518151919250610b1791614871565b341015610b375760405163044044a560e21b815260040160405180910390fd5b610b528b8a610b4d8e8e8e8e8e8e8e8e8e6123f1565b613323565b604051635200a4c160e11b81526000906001600160a01b037f0000000000000000000000000000000000000000000000000000000000000000169063a401498290610ba9908f908f908f908e908c90600401614884565b6020604051808303816000875af1158015610bc8573d6000803e3d6000fd5b505050506040513d601f19601f82011682018060405250810190610bec91906148cc565b875190915015610c0857610c08888d80519060200120896134b0565b8515610d2157610c198c8933613590565b6000600260009054906101000a90046001600160a01b03166001600160a01b03166314723fae8e8e6040518363ffffffff1660e01b8152600401610c5e929190613fc9565b6020604051808303816000875af1158015610c7d573d6000803e3d6000fd5b505050506040513d601f19601f82011682018060405250810190610ca191906148e5565b90508015610d1f576002548d5160208f0120604051631f8e227160e01b815260048101919091526001600160a01b038e811660248301526044820185905290911690631f8e227190606401600060405180830381600087803b158015610d0657600080fd5b505af1158015610d1a573d6000803e3d6000fd5b505050505b505b8a6001600160a01b03168c805190602001207f69e37f151eb98a09618ddaa80c8cfaf1ce5996867c489f45b555b412271ebf278e8560000151866020015186604051610d709493929190614902565b60405180910390a360208201518251610d899190614871565b341115610e4457602082015182516000913391610da69190614871565b610db09034614931565b604051600081818185875af1925050503d8060008114610dec576040519150601f19603f3d011682016040523d82523d6000602084013e610df1565b606091505b5050905080610e425760405162461bcd60e51b815260206004820152600d60248201527f526566756e64206661696c656400000000000000000000000000000000000000604482015260640161097b565b505b610e5082848e8e613644565b505050505050505050505050565b610e666131b8565b60088054911515600160a01b027fffffffffffffffffffffff00ffffffffffffffffffffffffffffffffffffffff909216919091179055565b6005546001600160a01b03163314610ef95760405162461bcd60e51b815260206004820152600b60248201527f4e6f74204261636b656e64000000000000000000000000000000000000000000604482015260640161097b565b8015610f0857640757b12c0091505b60008484604051610f1a929190614944565b604080519182900382206020601f880181900481028401810190925286835292508291600091610f6991908990899081908401838280828437600092019190915250899250889150611a589050565b600254604051630338bc9760e41b8152600481018690529192506000916001600160a01b039091169063338bc97090602401600060405180830381865afa158015610fb8573d6000803e3d6000fd5b505050506040513d6000823e601f3d908101601f19168201604052610fe09190810190614984565b60405163c475abff60e01b815260048101859052602481018890529091506000906001600160a01b037f0000000000000000000000000000000000000000000000000000000000000000169063c475abff906044016020604051808303816000875af1158015611054573d6000803e3d6000fd5b505050506040513d601f19601f8201168201806040525081019061107891906148cc565b6002546040519192506001600160a01b031690638b07795b9061109e908c908c90614944565b60405190819003812060e083901b6001600160e01b0319168252600482015260248101849052604401600060405180830381600087803b1580156110e157600080fd5b505af11580156110f5573d6000803e3d6000fd5b50505050847f3da24c024582931cfaf8267d8ed24d13a82a8068d5bd337d30ec45cea4e506ae8a8a86600001518560405161113394939291906149cd565b60405180910390a2600254825160208401206040516376d7cfb760e11b815260048101919091526000916001600160a01b03169063edaf9f6e90602401602060405180830381865afa15801561118d573d6000803e3d6000fd5b505050506040513d601f19601f820116820180604052508101906111b19190614a0d565b6001600160a01b0316146112b157600254825160208401206040516376d7cfb760e11b815260048101919091526000916001600160a01b03169063edaf9f6e90602401602060405180830381865afa158015611211573d6000803e3d6000fd5b505050506040513d601f19601f820116820180604052508101906112359190614a0d565b600254602086015186519293506001600160a01b039091169163668c91c89161125d91614871565b83866040518463ffffffff1660e01b815260040161127d93929190614a2a565b600060405180830381600087803b15801561129757600080fd5b505af11580156112ab573d6000803e3d6000fd5b50505050505b602083015183516064916112c491614871565b6112cf906023614a52565b6112d99190614a69565b600660008282546112ea9190614871565b9091555050505050505050505050565b600080546040516001600160a01b039091169047908381818185875af1925050503d8060008114611347576040519150601f19603f3d011682016040523d82523d6000602084013e61134c565b606091505b505090508061139d5760405162461bcd60e51b815260206004820152600f60248201527f5472616e73666572206661696c65640000000000000000000000000000000000604482015260640161097b565b50565b61139d6113b56000546001600160a01b031690565b6040516370a0823160e01b81523060048201526001600160a01b038416906370a0823190602401602060405180830381865afa1580156113f9573d6000803e3d6000fd5b505050506040513d601f19601f8201168201806040525081019061141d91906148cc565b6001600160a01b038416919061381e565b801561143d57640757b12c0091505b6000848460405161144f929190614944565b604080519182900382206020601f88018190048102840181019092528683529250829160009161149e91908990899081908401838280828437600092019190915250899250889150611a589050565b600254604051630338bc9760e41b8152600481018690529192506000916001600160a01b039091169063338bc97090602401600060405180830381865afa1580156114ed573d6000803e3d6000fd5b505050506040513d6000823e601f3d908101601f191682016040526115159190810190614984565b825190915034101561153a5760405163044044a560e21b815260040160405180910390fd5b60405163c475abff60e01b815260048101849052602481018790526000907f00000000000000000000000000000000000000000000000000000000000000006001600160a01b03169063c475abff906044016020604051808303816000875af11580156115ab573d6000803e3d6000fd5b505050506040513d601f19601f820116820180604052508101906115cf91906148cc565b6002546040519192506001600160a01b031690638b07795b906115f5908c908c90614944565b60405190819003812060e083901b6001600160e01b0319168252600482015260248101849052604401600060405180830381600087803b15801561163857600080fd5b505af115801561164c573d6000803e3d6000fd5b505050508260000151341115611701578251600090339061166d9034614931565b604051600081818185875af1925050503d80600081146116a9576040519150601f19603f3d011682016040523d82523d6000602084013e6116ae565b606091505b50509050806116ff5760405162461bcd60e51b815260206004820152600d60248201527f526566756e64204661696c656400000000000000000000000000000000000000604482015260640161097b565b505b847f3da24c024582931cfaf8267d8ed24d13a82a8068d5bd337d30ec45cea4e506ae8a8a348560405161173794939291906149cd565b60405180910390a2600254825160208401206040516376d7cfb760e11b815260048101919091526000916001600160a01b03169063edaf9f6e90602401602060405180830381865afa158015611791573d6000803e3d6000fd5b505050506040513d601f19601f820116820180604052508101906117b59190614a0d565b6001600160a01b03161461196257600254825160208401206040516376d7cfb760e11b815260048101919091526000916001600160a01b03169063edaf9f6e90602401602060405180830381865afa158015611815573d6000803e3d6000fd5b505050506040513d601f19601f820116820180604052508101906118399190614a0d565b60025460405163c08d52af60e01b81526001600160a01b0380841660048301529293506000929091169063c08d52af90602401602060405180830381865afa158015611889573d6000803e3d6000fd5b505050506040513d601f19601f820116820180604052508101906118ad91906148cc565b90506019600582106118bd5750601e5b600254602087015187516001600160a01b039092169163e858db089160649185916118e791614871565b6118f19190614a52565b6118fb9190614a69565b6020890151895161190c9190614871565b86896040518563ffffffff1660e01b815260040161192c93929190614a2a565b6000604051808303818588803b15801561194557600080fd5b505af1158015611959573d6000803e3d6000fd5b50505050505050505b505050505050505050565b6119756131b8565b600380546001600160a01b0319166001600160a01b0392909216919091179055565b61199f6131b8565b60405163a9059cbb60e01b81526001600160a01b0383811660048301526024820183905284169063a9059cbb906044016020604051808303816000875af11580156119ee573d6000803e3d6000fd5b505050506040513d601f19601f82011682018060405250810190611a1291906148e5565b50505050565b611a206131b8565b6001600160a01b038116600090815260076020526040812090611a438282613ebf565b5060010180546001600160a01b031916905550565b6040805180820190915260008082526020820152821580611a7c57506224ea008310155b611ac85760405162461bcd60e51b815260206004820152601060248201527f496e76616c6964206475726174696f6e00000000000000000000000000000000604482015260640161097b565b83516020850120600154604051636b727d4360e11b8152600481018390526001600160a01b0391821691638416a3749188917f0000000000000000000000000000000000000000000000000000000000000000169063d6e4fa8690602401602060405180830381865afa158015611b43573d6000803e3d6000fd5b505050506040513d601f19601f82011682018060405250810190611b6791906148cc565b87876040518563ffffffff1660e01b8152600401611b889493929190614a8b565b6040805180830381865afa158015611ba4573d6000803e3d6000fd5b505050506040513d601f19601f82011682018060405250810190611bc89190614abc565b95945050505050565b611bd96131b8565b611be36000613896565b565b611bed6131b8565b600880546001600160a01b0319166001600160a01b0392909216919091179055565b6040805180820190915260008082526020820152831580611c3357506224ea008410155b611c7f5760405162461bcd60e51b815260206004820152601060248201527f496e76616c6964206475726174696f6e00000000000000000000000000000000604482015260640161097b565b84516020860120600154604051636b727d4360e11b8152600481018390526001600160a01b0391821691638361401d9189917f0000000000000000000000000000000000000000000000000000000000000000169063d6e4fa8690602401602060405180830381865afa158015611cfa573d6000803e3d6000fd5b505050506040513d601f19601f82011682018060405250810190611d1e91906148cc565b8888886040518663ffffffff1660e01b8152600401611d41959493929190614aee565b6040805180830381865afa158015611d5d573d6000803e3d6000fd5b505050506040513d601f19601f82011682018060405250810190611d819190614abc565b9695505050505050565b611d936131b8565b600180546001600160a01b0319166001600160a01b0392909216919091179055565b6001600160a01b0383811660009081526007602052604090206001015416611e1f5760405162461bcd60e51b815260206004820152601060248201527f556e616363657074656420546f6b656e00000000000000000000000000000000604482015260640161097b565b611e3784600001518560400151866020015185613212565b6001600160a01b0383166000908152600760205260408082208151808301909252805482908290611e6790614821565b80601f0160208091040260200160405190810160405280929190818152602001828054611e9390614821565b8015611ee05780601f10611eb557610100808354040283529160200191611ee0565b820191906000526020600020905b815481529060010190602001808311611ec357829003601f168201915b5050509183525050600191909101546001600160a01b031660209091015290508215611f1257640757b12c0060408601525b611f5085600001518660400151610b4d886000015189602001518a604001518b606001518c608001518d60a001518e60c001518f60e001518e6123f1565b6000611f6a86600001518760400151846000015187611c0f565b60208101518151919250611f7d91614871565b6040516370a0823160e01b81523360048201526001600160a01b038716906370a0823190602401602060405180830381865afa158015611fc1573d6000803e3d6000fd5b505050506040513d601f19601f82011682018060405250810190611fe591906148cc565b10156120045760405163044044a560e21b815260040160405180910390fd5b8551602087015160408089015160808a015160e08b01519251635200a4c160e11b81526000956001600160a01b037f0000000000000000000000000000000000000000000000000000000000000000169563a40149829561206b9592949193600401614884565b6020604051808303816000875af115801561208a573d6000803e3d6000fd5b505050506040513d601f19601f820116820180604052508101906120ae91906148cc565b90506120d287600001518860a0015189602001518a608001518b60c00151866138e6565b6120dc8683613a21565b86602001516001600160a01b03168760000151805190602001207f69e37f151eb98a09618ddaa80c8cfaf1ce5996867c489f45b555b412271ebf27896000015185600001518660200151866040516121379493929190614902565b60405180910390a3600254845160208601206040516376d7cfb760e11b815260048101919091526000916001600160a01b03169063edaf9f6e90602401602060405180830381865afa158015612191573d6000803e3d6000fd5b505050506040513d601f19601f820116820180604052508101906121b59190614a0d565b60025460405163c08d52af60e01b81526001600160a01b0380841660048301529293506000929091169063c08d52af90602401602060405180830381865afa158015612205573d6000803e3d6000fd5b505050506040513d601f19601f8201168201806040525081019061222991906148cc565b604080516020808201909252600090528751908801209091507fc5d2460186f7233c927e7db2dcc703c0e500b653ca82273b7bfad8045d85a47014611962576019600582106122765750601e5b600254602086015186516122c1926001600160a01b031691606491859161229c91614871565b6122a69190614a52565b6122b09190614a69565b6001600160a01b038c16919061381e565b6002548a516020808d01519088015188516001600160a01b039094169363ff8f3947938c93909290916122f49190614871565b8e6040518663ffffffff1660e01b8152600401612315959493929190614b34565b600060405180830381600087803b15801561232f57600080fd5b505af1158015612343573d6000803e3d6000fd5b5050505050505050505050505050565b61235b6131b8565b6001600160a01b0381166000908152600760205260409020825183919081906123849082614bca565b5060209190910151600190910180546001600160a01b0319166001600160a01b039092169190911790555050565b600060026123bf83613a50565b101592915050565b6123cf6131b8565b600280546001600160a01b0319166001600160a01b0392909216919091179055565b885160208a01208451600091901580159061241357506001600160a01b038716155b1561244a576040517fd3f605c400000000000000000000000000000000000000000000000000000000815260040160405180910390fd5b808a8a8a8a8a8a8a8a60405160200161246b99989796959493929190614cdf565b604051602081830303815290604052805190602001209150509998505050505050505050565b81156124a057640757b12c0097505b6103e86009541115612506576005546001600160a01b031633146125065760405162461bcd60e51b815260206004820152600b60248201527f4e6f74204261636b656e64000000000000000000000000000000000000000000604482015260640161097b565b6125128a898b85613212565b600061251f8b8a85611a58565b90506125378b8a610b4d8e8e8e8e8e8e8e8e8e6123f1565b604051635200a4c160e11b81526000906001600160a01b037f0000000000000000000000000000000000000000000000000000000000000000169063a40149829061258e908f908f908f908e908c90600401614884565b6020604051808303816000875af11580156125ad573d6000803e3d6000fd5b505050506040513d601f19601f820116820180604052508101906125d191906148cc565b8751909150156125ed576125ed888d80519060200120896134b0565b8515612706576125fe8c898d613590565b6000600260009054906101000a90046001600160a01b03166001600160a01b03166314723fae8e8e6040518363ffffffff1660e01b8152600401612643929190613fc9565b6020604051808303816000875af1158015612662573d6000803e3d6000fd5b505050506040513d601f19601f8201168201806040525081019061268691906148e5565b90508015612704576002548d5160208f0120604051631f8e227160e01b815260048101919091526001600160a01b038e811660248301526044820185905290911690631f8e227190606401600060405180830381600087803b1580156126eb57600080fd5b505af11580156126ff573d6000803e3d6000fd5b505050505b505b8a6001600160a01b03168c805190602001207f69e37f151eb98a09618ddaa80c8cfaf1ce5996867c489f45b555b412271ebf278e85600001518660200151866040516127559493929190614902565b60405180910390a36103e860095411156128af57600254835160208501206040516376d7cfb760e11b815260048101919091526000916001600160a01b03169063edaf9f6e90602401602060405180830381865afa1580156127bb573d6000803e3d6000fd5b505050506040513d601f19601f820116820180604052508101906127df9190614a0d565b604080516020808201909252600090528551908601209091507fc5d2460186f7233c927e7db2dcc703c0e500b653ca82273b7bfad8045d85a470146128ad57600260009054906101000a90046001600160a01b03166001600160a01b031663898c6495858f8f876020015188600001516128599190614871565b866040518663ffffffff1660e01b815260040161287a959493929190614b34565b600060405180830381600087803b15801561289457600080fd5b505af11580156128a8573d6000803e3d6000fd5b505050505b505b602082015182516064916128c291614871565b6128cd906023614a52565b6128d79190614a69565b600660008282546128e89190614871565b925050819055506001600960008282546129029190614871565b9091555050505050505050505050505050565b80516020820120600090612928836123b2565b80156129d157506040517f96e494e8000000000000000000000000000000000000000000000000000000008152600481018290527f00000000000000000000000000000000000000000000000000000000000000006001600160a01b0316906396e494e890602401602060405180830381865afa1580156129ad573d6000803e3d6000fd5b505050506040513d601f19601f820116820180604052508101906129d191906148e5565b9392505050565b6129e06131b8565b600580546001600160a01b0319166001600160a01b0392909216919091179055565b6000818152600460205260409020544290612a3e907f000000000000000000000000000000000000000000000000000000000000000090614871565b10612a78576040517f0a059d710000000000000000000000000000000000000000000000000000000081526004810182905260240161097b565b6000908152600460205260409020429055565b612a936131b8565b6001600160a01b038116612b0f5760405162461bcd60e51b815260206004820152602660248201527f4f776e61626c653a206e6577206f776e657220697320746865207a65726f206160448201527f6464726573730000000000000000000000000000000000000000000000000000606482015260840161097b565b61139d81613896565b8015612b2757640757b12c0092505b6001600160a01b0382811660009081526007602052604090206001015416612b915760405162461bcd60e51b815260206004820152601060248201527f556e616363657074656420546f6b656e00000000000000000000000000000000604482015260640161097b565b6001600160a01b0382166000908152600760205260408082208151808301909252805482908290612bc190614821565b80601f0160208091040260200160405190810160405280929190818152602001828054612bed90614821565b8015612c3a5780601f10612c0f57610100808354040283529160200191612c3a565b820191906000526020600020905b815481529060010190602001808311612c1d57829003601f168201915b5050509183525050600191909101546001600160a01b0316602090910152604051909150600090612c6e9088908890614944565b604051908190038120600254630338bc9760e41b83526004830182905290925082916000916001600160a01b03169063338bc97090602401600060405180830381865afa158015612cc3573d6000803e3d6000fd5b505050506040513d6000823e601f3d908101601f19168201604052612ceb9190810190614984565b90506000612d338a8a8080601f0160208091040260200160405190810160405280939291908181526020018383808284376000920191909152505088518c9250905089611c0f565b60208101518151919250612d4691614871565b6040516370a0823160e01b81523360048201526001600160a01b038916906370a0823190602401602060405180830381865afa158015612d8a573d6000803e3d6000fd5b505050506040513d601f19601f82011682018060405250810190612dae91906148cc565b1015612dcd5760405163044044a560e21b815260040160405180910390fd5b612df8333083602001518460000151612de69190614871565b6001600160a01b038b16929190613bdf565b60405163c475abff60e01b815260048101849052602481018990526000907f00000000000000000000000000000000000000000000000000000000000000006001600160a01b03169063c475abff906044016020604051808303816000875af1158015612e69573d6000803e3d6000fd5b505050506040513d601f19601f82011682018060405250810190612e8d91906148cc565b6002546040519192506001600160a01b031690638b07795b90612eb3908e908e90614944565b60405190819003812060e083901b6001600160e01b0319168252600482015260248101849052604401600060405180830381600087803b158015612ef657600080fd5b505af1158015612f0a573d6000803e3d6000fd5b50505050847f3da24c024582931cfaf8267d8ed24d13a82a8068d5bd337d30ec45cea4e506ae8c8c85602001518660000151612f469190614871565b85604051612f5794939291906149cd565b60405180910390a2600254835160208501206040516376d7cfb760e11b815260048101919091526000916001600160a01b03169063edaf9f6e90602401602060405180830381865afa158015612fb1573d6000803e3d6000fd5b505050506040513d601f19601f82011682018060405250810190612fd59190614a0d565b6001600160a01b0316146131ab57600254835160208501206040516376d7cfb760e11b815260048101919091526000916001600160a01b03169063edaf9f6e90602401602060405180830381865afa158015613035573d6000803e3d6000fd5b505050506040513d601f19601f820116820180604052508101906130599190614a0d565b60025460405163c08d52af60e01b81526001600160a01b0380841660048301529293506000929091169063c08d52af90602401602060405180830381865afa1580156130a9573d6000803e3d6000fd5b505050506040513d601f19601f820116820180604052508101906130cd91906148cc565b90506019600582106130dd5750601e5b6002546020860151865161312e9230926001600160a01b039091169160649186916131089190614871565b6131129190614a52565b61311c9190614a69565b6001600160a01b038f16929190613bdf565b600254602086015186516001600160a01b039092169163d184befa9161315391614871565b858e8a6040518563ffffffff1660e01b81526004016131759493929190614d47565b600060405180830381600087803b15801561318f57600080fd5b505af11580156131a3573d6000803e3d6000fd5b505050505050505b5050505050505050505050565b6000546001600160a01b03163314611be35760405162461bcd60e51b815260206004820181905260248201527f4f776e61626c653a2063616c6c6572206973206e6f7420746865206f776e6572604482015260640161097b565b600061321d85613a50565b60020361322c57506064613260565b61323585613a50565b60030361324457506032613260565b61324d85613a50565b60040361325c57506014613260565b50600a5b600854600160a01b900460ff161561331c5760008261328c576132876301e1338086614a69565b61328f565b60035b6132999083614a52565b6008546040517f2af074240000000000000000000000000000000000000000000000000000000081526001600160a01b03878116600483015260248201849052929350911690632af0742490604401600060405180830381600087803b15801561330257600080fd5b505af1158015613316573d6000803e3d6000fd5b50505050505b5050505050565b600081815260046020526040902054429061335f907f000000000000000000000000000000000000000000000000000000000000000090614871565b111561339a576040517f5320bcf90000000000000000000000000000000000000000000000000000000081526004810182905260240161097b565b60008181526004602052604090205442906133d6907f000000000000000000000000000000000000000000000000000000000000000090614871565b11613410576040517fcb7690d70000000000000000000000000000000000000000000000000000000081526004810182905260240161097b565b61341983612915565b61345157826040517f477707e800000000000000000000000000000000000000000000000000000000815260040161097b9190614d79565b600081815260046020526040812055811580159061347157506224ea0082105b156134ab576040517f9a71997b0000000000000000000000000000000000000000000000000000000081526004810183905260240161097b565b505050565b604080517ff92e9539a836c60f519caef3f817b823139813f56a7a19c9621f7b47f35b340d602080830191909152818301859052825180830384018152606083019384905280519101207fe32954eb0000000000000000000000000000000000000000000000000000000090925284906001600160a01b0382169063e32954eb906135419085908790606401614d8c565b6000604051808303816000875af1158015613560573d6000803e3d6000fd5b505050506040513d6000823e601f3d908101601f191682016040526135889190810190614da5565b505050505050565b7f00000000000000000000000000000000000000000000000000000000000000006001600160a01b0316637a806d6b338385876040516020016135d39190614e6b565b6040516020818303038152906040526040518563ffffffff1660e01b81526004016136019493929190614eac565b6020604051808303816000875af1158015613620573d6000803e3d6000fd5b505050506040513d601f19601f82011682018060405250810190611a1291906148cc565b600254835160208501206040516376d7cfb760e11b815260048101919091526000916001600160a01b03169063edaf9f6e90602401602060405180830381865afa158015613696573d6000803e3d6000fd5b505050506040513d601f19601f820116820180604052508101906136ba9190614a0d565b604080516020808201909252600090528551908601209091507fc5d2460186f7233c927e7db2dcc703c0e500b653ca82273b7bfad8045d85a4701461331c5760025460405163c08d52af60e01b81526001600160a01b03838116600483015260199260009291169063c08d52af90602401602060405180830381865afa158015613748573d6000803e3d6000fd5b505050506040513d601f19601f8201168201806040525081019061376c91906148cc565b90506005811061377b57601e91505b600254602088015188516001600160a01b0390921691637d31266a9160649186916137a591614871565b6137af9190614a52565b6137b99190614a69565b8888888c602001518d600001516137d09190614871565b896040518763ffffffff1660e01b81526004016137f1959493929190614b34565b6000604051808303818588803b15801561380a57600080fd5b505af1158015610e50573d6000803e3d6000fd5b6040516001600160a01b0383166024820152604481018290526134ab90849063a9059cbb60e01b906064015b60408051601f198184030181529190526020810180517bffffffffffffffffffffffffffffffffffffffffffffffffffffffff166001600160e01b031990931692909217909152613c30565b600080546001600160a01b038381166001600160a01b0319831681178455604051919092169283917f8be0079c531659141344cd1fd0a4f28419497f9722a3daafe3b4186f6b6457e09190a35050565b8451156138ff576138ff838780519060200120876134b0565b811561358857613910868433613590565b6002546040517f14723fae0000000000000000000000000000000000000000000000000000000081526000916001600160a01b0316906314723fae9061395c908a908990600401613fc9565b6020604051808303816000875af115801561397b573d6000803e3d6000fd5b505050506040513d601f19601f8201168201806040525081019061399f91906148e5565b90508015613a185760025487516020890120604051631f8e227160e01b815260048101919091526001600160a01b0387811660248301526044820185905290911690631f8e227190606401600060405180830381600087803b158015613a0457600080fd5b505af11580156131ab573d6000803e3d6000fd5b50505050505050565b613a4c333083602001518460000151613a3a9190614871565b6001600160a01b038616929190613bdf565b5050565b8051600090819081905b80821015613bd6576000858381518110613a7657613a76614ee0565b01602001516001600160f81b03191690507f8000000000000000000000000000000000000000000000000000000000000000811015613ac157613aba600184614871565b9250613bc3565b7fe0000000000000000000000000000000000000000000000000000000000000006001600160f81b031982161015613afe57613aba600284614871565b7ff0000000000000000000000000000000000000000000000000000000000000006001600160f81b031982161015613b3b57613aba600384614871565b7ff8000000000000000000000000000000000000000000000000000000000000006001600160f81b031982161015613b7857613aba600484614871565b7ffc000000000000000000000000000000000000000000000000000000000000006001600160f81b031982161015613bb557613aba600584614871565b613bc0600684614871565b92505b5082613bce81614ef6565b935050613a5a565b50909392505050565b6040516001600160a01b0380851660248301528316604482015260648101829052611a129085907f23b872dd000000000000000000000000000000000000000000000000000000009060840161384a565b6000613c85826040518060400160405280602081526020017f5361666545524332303a206c6f772d6c6576656c2063616c6c206661696c6564815250856001600160a01b0316613d189092919063ffffffff16565b9050805160001480613ca6575080806020019051810190613ca691906148e5565b6134ab5760405162461bcd60e51b815260206004820152602a60248201527f5361666545524332303a204552433230206f7065726174696f6e20646964206e60448201527f6f74207375636365656400000000000000000000000000000000000000000000606482015260840161097b565b6060613d278484600085613d2f565b949350505050565b606082471015613da75760405162461bcd60e51b815260206004820152602660248201527f416464726573733a20696e73756666696369656e742062616c616e636520666f60448201527f722063616c6c0000000000000000000000000000000000000000000000000000606482015260840161097b565b600080866001600160a01b03168587604051613dc39190614f0f565b60006040518083038185875af1925050503d8060008114613e00576040519150601f19603f3d011682016040523d82523d6000602084013e613e05565b606091505b5091509150613e1687838387613e21565b979650505050505050565b60608315613e90578251600003613e89576001600160a01b0385163b613e895760405162461bcd60e51b815260206004820152601d60248201527f416464726573733a2063616c6c20746f206e6f6e2d636f6e7472616374000000604482015260640161097b565b5081613d27565b613d278383815115613ea55781518083602001fd5b8060405162461bcd60e51b815260040161097b9190614d79565b508054613ecb90614821565b6000825580601f10613edb575050565b601f01602090049060005260206000209081019061139d91905b80821115613f095760008155600101613ef5565b5090565b600060208284031215613f1f57600080fd5b81356001600160e01b0319811681146129d157600080fd5b6001600160a01b038116811461139d57600080fd5b8035613f5781613f37565b919050565b600060208284031215613f6e57600080fd5b81356129d181613f37565b60005b83811015613f94578181015183820152602001613f7c565b50506000910152565b60008151808452613fb5816020860160208601613f79565b601f01601f19169290920160200192915050565b604081526000613fdc6040830185613f9d565b90506001600160a01b03831660208301529392505050565b634e487b7160e01b600052604160045260246000fd5b604051610100810167ffffffffffffffff8111828210171561402e5761402e613ff4565b60405290565b6040805190810167ffffffffffffffff8111828210171561402e5761402e613ff4565b604051601f8201601f1916810167ffffffffffffffff8111828210171561408057614080613ff4565b604052919050565b600067ffffffffffffffff8211156140a2576140a2613ff4565b50601f01601f191660200190565b60006140c36140be84614088565b614057565b90508281528383830111156140d757600080fd5b828260208301376000602084830101529392505050565b600082601f8301126140ff57600080fd5b6129d1838335602085016140b0565b600067ffffffffffffffff82111561412857614128613ff4565b5060051b60200190565b600082601f83011261414357600080fd5b813560206141536140be8361410e565b82815260059290921b8401810191818101908684111561417257600080fd5b8286015b848110156141c757803567ffffffffffffffff8111156141965760008081fd5b8701603f810189136141a85760008081fd5b6141b98986830135604084016140b0565b845250918301918301614176565b509695505050505050565b801515811461139d57600080fd5b8035613f57816141d2565b803561ffff81168114613f5757600080fd5b6000806000806000806000806000806101408b8d03121561421d57600080fd5b8a3567ffffffffffffffff8082111561423557600080fd5b6142418e838f016140ee565b9b5061424f60208e01613f4c565b9a5060408d0135995060608d0135985061426b60808e01613f4c565b975060a08d013591508082111561428157600080fd5b61428d8e838f01614132565b965061429b60c08e016141e0565b95506142a960e08e016141eb565b94506142b86101008e016141e0565b93506101208d01359150808211156142cf57600080fd5b506142dc8d828e016140ee565b9150509295989b9194979a5092959850565b60006020828403121561430057600080fd5b81356129d1816141d2565b60008083601f84011261431d57600080fd5b50813567ffffffffffffffff81111561433557600080fd5b60208301915083602082850101111561434d57600080fd5b9250929050565b6000806000806060858703121561436a57600080fd5b843567ffffffffffffffff81111561438157600080fd5b61438d8782880161430b565b9095509350506020850135915060408501356143a8816141d2565b939692955090935050565b6000806000606084860312156143c857600080fd5b83356143d381613f37565b925060208401356143e381613f37565b929592945050506040919091013590565b60008060006060848603121561440957600080fd5b833567ffffffffffffffff81111561442057600080fd5b61442c868287016140ee565b935050602084013591506040840135614444816141d2565b809150509250925092565b6000806000806080858703121561446557600080fd5b843567ffffffffffffffff8082111561447d57600080fd5b614489888389016140ee565b95506020870135945060408701359150808211156144a657600080fd5b506144b3878288016140ee565b92505060608501356143a8816141d2565b600080600080608085870312156144da57600080fd5b843567ffffffffffffffff808211156144f257600080fd5b90860190610100828903121561450757600080fd5b61450f61400a565b82358281111561451e57600080fd5b61452a8a8286016140ee565b82525061453960208401613f4c565b6020820152604083013560408201526060830135606082015261455e60808401613f4c565b608082015260a08301358281111561457557600080fd5b6145818a828601614132565b60a08301525061459360c084016141e0565b60c08201526145a460e084016141eb565b60e082015295506145b760208801613f4c565b94506145c5604088016141e0565b935060608701359150808211156145db57600080fd5b506145e8878288016140ee565b91505092959194509250565b6000806040838503121561460757600080fd5b823567ffffffffffffffff8082111561461f57600080fd5b908401906040828703121561463357600080fd5b61463b614034565b82358281111561464a57600080fd5b614656888286016140ee565b8252506020830135925061466983613f37565b60208181019390935293505083013561468181613f37565b809150509250929050565b60006020828403121561469e57600080fd5b5035919050565b6000602082840312156146b757600080fd5b813567ffffffffffffffff8111156146ce57600080fd5b613d27848285016140ee565b60008060008060008060008060006101208a8c0312156146f957600080fd5b893567ffffffffffffffff8082111561471157600080fd5b61471d8d838e016140ee565b9a5060208c0135915061472f82613f37565b90985060408b0135975060608b0135965060808b01359061474f82613f37565b90955060a08b0135908082111561476557600080fd5b506147728c828d01614132565b94505061478160c08b016141e0565b925061478f60e08b016141eb565b915061479e6101008b016141e0565b90509295985092959850929598565b6000806000806000608086880312156147c557600080fd5b853567ffffffffffffffff8111156147dc57600080fd5b6147e88882890161430b565b90965094505060208601359250604086013561480381613f37565b91506060860135614813816141d2565b809150509295509295909350565b600181811c9082168061483557607f821691505b60208210810361485557634e487b7160e01b600052602260045260246000fd5b50919050565b634e487b7160e01b600052601160045260246000fd5b808201808211156109215761092161485b565b60a08152600061489760a0830188613f9d565b90506001600160a01b03808716602084015285604084015280851660608401525061ffff831660808301529695505050505050565b6000602082840312156148de57600080fd5b5051919050565b6000602082840312156148f757600080fd5b81516129d1816141d2565b6080815260006149156080830187613f9d565b6020830195909552506040810192909252606090910152919050565b818103818111156109215761092161485b565b8183823760009101908152919050565b60006149626140be84614088565b905082815283838301111561497657600080fd5b6129d1836020830184613f79565b60006020828403121561499657600080fd5b815167ffffffffffffffff8111156149ad57600080fd5b8201601f810184136149be57600080fd5b613d2784825160208401614954565b606081528360608201528385608083013760006080858301015260006080601f19601f870116830101905083602083015282604083015295945050505050565b600060208284031215614a1f57600080fd5b81516129d181613f37565b8381526001600160a01b0383166020820152606060408201526000611bc86060830184613f9d565b80820281158282048414176109215761092161485b565b600082614a8657634e487b7160e01b600052601260045260246000fd5b500490565b608081526000614a9e6080830187613f9d565b60208301959095525060408101929092521515606090910152919050565b600060408284031215614ace57600080fd5b614ad6614034565b82518152602083015160208201528091505092915050565b60a081526000614b0160a0830188613f9d565b8660208401528560408401528281036060840152614b1f8186613f9d565b91505082151560808301529695505050505050565b60a081526000614b4760a0830188613f9d565b8281036020840152614b598188613f9d565b6001600160a01b03968716604085015260608401959095525050921660809092019190915292915050565b601f8211156134ab57600081815260208120601f850160051c81016020861015614bab5750805b601f850160051c820191505b8181101561358857828155600101614bb7565b815167ffffffffffffffff811115614be457614be4613ff4565b614bf881614bf28454614821565b84614b84565b602080601f831160018114614c2d5760008415614c155750858301515b600019600386901b1c1916600185901b178555613588565b600085815260208120601f198616915b82811015614c5c57888601518255948401946001909101908401614c3d565b5085821015614c7a5787850151600019600388901b60f8161c191681555b5050505050600190811b01905550565b600081518084526020808501808196508360051b8101915082860160005b85811015614cd2578284038952614cc0848351613f9d565b98850198935090840190600101614ca8565b5091979650505050505050565b60006101208b83526001600160a01b03808c1660208501528a60408501528960608501528089166080850152508060a0840152614d1e81840188614c8a565b95151560c0840152505061ffff9290921660e08301521515610100909101529695505050505050565b84815260006001600160a01b03808616602084015280851660408401525060806060830152611d816080830184613f9d565b6020815260006129d16020830184613f9d565b828152604060208201526000613d276040830184614c8a565b60006020808385031215614db857600080fd5b825167ffffffffffffffff80821115614dd057600080fd5b818501915085601f830112614de457600080fd5b8151614df26140be8261410e565b81815260059190911b83018401908481019088831115614e1157600080fd5b8585015b83811015614e5e57805185811115614e2d5760008081fd5b8601603f81018b13614e3f5760008081fd5b614e508b8983015160408401614954565b845250918601918601614e15565b5098975050505050505050565b60008251614e7d818460208701613f79565b7f2e73616675000000000000000000000000000000000000000000000000000000920191825250600501919050565b60006001600160a01b038087168352808616602084015280851660408401525060806060830152611d816080830184613f9d565b634e487b7160e01b600052603260045260246000fd5b600060018201614f0857614f0861485b565b5060010190565b60008251614f21818460208701613f79565b919091019291505056fea2646970667358221220f37d293a6088410f2545fadc9352fd600147f8dacb841085bebcd4e68342d43364736f6c63430008110033"
}