{
  "address": "0x92149696fDDC858A76253F71268D34147e662410",
  "abi": [
    {
      "inputs": [
        {
          "internalType": "address",
          "name": "_signer",
          "type": "address"
        },
        {
          "internalType": "address",
          "name": "_nameWrapper",
          "type": "address"
        },
        {
          "internalType": "address",
          "name": "_baseRegistrar",
          "type": "address"
        }
      ],
      "stateMutability": "nonpayable",
      "type": "constructor"
    },
    {
      "inputs": [],
      "name": "ExpiredSignature",
      "type": "error"
    },
    {
      "inputs": [],
      "name": "InvalidAddress",
      "type": "error"
    },
    {
      "inputs": [],
      "name": "InvalidSignature",
      "type": "error"
    },
    {
      "inputs": [],
      "name": "NonceAlreadyUsed",
      "type": "error"
    },
    {
      "inputs": [],
      "name": "NotController",
      "type": "error"
    },
    {
      "inputs": [],
      "name": "SelfReferral",
      "type": "error"
    },
    {
      "inputs": [],
      "name": "TransferFailed",
      "type": "error"
    },
    {
      "anonymous": false,
      "inputs": [
        {
          "indexed": true,
          "internalType": "address",
          "name": "controller",
          "type": "address"
        },
        {
          "indexed": false,
          "internalType": "bool",
          "name": "allowed",
          "type": "bool"
        }
      ],
      "name": "ControllerUpdated",
      "type": "event"
    },
    {
      "anonymous": false,
      "inputs": [
        {
          "indexed": true,
          "internalType": "address",
          "name": "to",
          "type": "address"
        },
        {
          "indexed": false,
          "internalType": "uint256",
          "name": "amount",
          "type": "uint256"
        }
      ],
      "name": "ExcessRefunded",
      "type": "event"
    },
    {
      "anonymous": false,
      "inputs": [
        {
          "indexed": true,
          "internalType": "address",
          "name": "previousOwner",
          "type": "address"
        },
        {
          "indexed": true,
          "internalType": "address",
          "name": "newOwner",
          "type": "address"
        }
      ],
      "name": "OwnershipTransferred",
      "type": "event"
    },
    {
      "anonymous": false,
      "inputs": [
        {
          "indexed": true,
          "internalType": "address",
          "name": "referrer",
          "type": "address"
        },
        {
          "indexed": true,
          "internalType": "address",
          "name": "registrant",
          "type": "address"
        },
        {
          "indexed": true,
          "internalType": "bytes32",
          "name": "nameHash",
          "type": "bytes32"
        },
        {
          "indexed": false,
          "internalType": "uint256",
          "name": "amount",
          "type": "uint256"
        },
        {
          "indexed": false,
          "internalType": "address",
          "name": "token",
          "type": "address"
        },
        {
          "indexed": false,
          "internalType": "bool",
          "name": "isFiat",
          "type": "bool"
        }
      ],
      "name": "ReferralPaid",
      "type": "event"
    },
    {
      "anonymous": false,
      "inputs": [
        {
          "indexed": true,
          "internalType": "bytes32",
          "name": "nameHash",
          "type": "bytes32"
        },
        {
          "indexed": true,
          "internalType": "bytes32",
          "name": "referrerCodeHash",
          "type": "bytes32"
        },
        {
          "indexed": true,
          "internalType": "address",
          "name": "referrer",
          "type": "address"
        }
      ],
      "name": "ReferrerAssigned",
      "type": "event"
    },
    {
      "anonymous": false,
      "inputs": [
        {
          "indexed": true,
          "internalType": "address",
          "name": "referrer",
          "type": "address"
        },
        {
          "indexed": true,
          "internalType": "bytes32",
          "name": "nameHash",
          "type": "bytes32"
        },
        {
          "indexed": true,
          "internalType": "bytes32",
          "name": "referrerCodeHash",
          "type": "bytes32"
        },
        {
          "indexed": false,
          "internalType": "uint256",
          "name": "amount",
          "type": "uint256"
        },
        {
          "indexed": false,
          "internalType": "address",
          "name": "token",
          "type": "address"
        },
        {
          "indexed": false,
          "internalType": "bool",
          "name": "isFiat",
          "type": "bool"
        }
      ],
      "name": "RenewalReferralPaid",
      "type": "event"
    },
    {
      "anonymous": false,
      "inputs": [
        {
          "indexed": true,
          "internalType": "bytes32",
          "name": "nameHash",
          "type": "bytes32"
        },
        {
          "indexed": true,
          "internalType": "bytes32",
          "name": "referrerCodeHash",
          "type": "bytes32"
        },
        {
          "indexed": false,
          "internalType": "address",
          "name": "originalReferrer",
          "type": "address"
        },
        {
          "indexed": false,
          "internalType": "address",
          "name": "currentOwner",
          "type": "address"
        },
        {
          "indexed": false,
          "internalType": "string",
          "name": "reason",
          "type": "string"
        }
      ],
      "name": "RenewalReferralSkipped",
      "type": "event"
    },
    {
      "anonymous": false,
      "inputs": [
        {
          "indexed": false,
          "internalType": "address",
          "name": "oldSigner",
          "type": "address"
        },
        {
          "indexed": false,
          "internalType": "address",
          "name": "newSigner",
          "type": "address"
        }
      ],
      "name": "SignerUpdated",
      "type": "event"
    },
    {
      "inputs": [],
      "name": "BASE_PCT",
      "outputs": [
        {
          "internalType": "uint256",
          "name": "",
          "type": "uint256"
        }
      ],
      "stateMutability": "view",
      "type": "function"
    },
    {
      "inputs": [],
      "name": "BONUS_PCT",
      "outputs": [
        {
          "internalType": "uint256",
          "name": "",
          "type": "uint256"
        }
      ],
      "stateMutability": "view",
      "type": "function"
    },
    {
      "inputs": [],
      "name": "BONUS_THRESHOLD",
      "outputs": [
        {
          "internalType": "uint256",
          "name": "",
          "type": "uint256"
        }
      ],
      "stateMutability": "view",
      "type": "function"
    },
    {
      "inputs": [],
      "name": "baseRegistrar",
      "outputs": [
        {
          "internalType": "contract IBaseRegistrar",
          "name": "",
          "type": "address"
        }
      ],
      "stateMutability": "view",
      "type": "function"
    },
    {
      "inputs": [
        {
          "internalType": "address",
          "name": "",
          "type": "address"
        }
      ],
      "name": "controllers",
      "outputs": [
        {
          "internalType": "bool",
          "name": "",
          "type": "bool"
        }
      ],
      "stateMutability": "view",
      "type": "function"
    },
    {
      "inputs": [
        {
          "internalType": "address[]",
          "name": "referrers",
          "type": "address[]"
        },
        {
          "internalType": "uint256[]",
          "name": "amounts",
          "type": "uint256[]"
        }
      ],
      "name": "distributeFiatEarnings",
      "outputs": [],
      "stateMutability": "payable",
      "type": "function"
    },
    {
      "inputs": [
        {
          "internalType": "bytes32",
          "name": "",
          "type": "bytes32"
        }
      ],
      "name": "domainReferrals",
      "outputs": [
        {
          "internalType": "bytes32",
          "name": "referrerCodeHash",
          "type": "bytes32"
        },
        {
          "internalType": "address",
          "name": "originalReferrer",
          "type": "address"
        }
      ],
      "stateMutability": "view",
      "type": "function"
    },
    {
      "inputs": [
        {
          "internalType": "bytes32",
          "name": "nameHash",
          "type": "bytes32"
        }
      ],
      "name": "getDomainReferralInfo",
      "outputs": [
        {
          "internalType": "bytes32",
          "name": "referrerCodeHash",
          "type": "bytes32"
        },
        {
          "internalType": "address",
          "name": "originalReferrer",
          "type": "address"
        },
        {
          "internalType": "bool",
          "name": "isCurrentlyValid",
          "type": "bool"
        },
        {
          "internalType": "address",
          "name": "currentCodeOwner",
          "type": "address"
        },
        {
          "internalType": "string",
          "name": "validityReason",
          "type": "string"
        }
      ],
      "stateMutability": "view",
      "type": "function"
    },
    {
      "inputs": [
        {
          "internalType": "address",
          "name": "referrer",
          "type": "address"
        }
      ],
      "name": "getReferralPct",
      "outputs": [
        {
          "internalType": "uint256",
          "name": "",
          "type": "uint256"
        }
      ],
      "stateMutability": "view",
      "type": "function"
    },
    {
      "inputs": [
        {
          "internalType": "bytes32",
          "name": "referrerCodeHash",
          "type": "bytes32"
        },
        {
          "internalType": "address",
          "name": "originalReferrer",
          "type": "address"
        }
      ],
      "name": "isReferrerValid",
      "outputs": [
        {
          "internalType": "bool",
          "name": "valid",
          "type": "bool"
        },
        {
          "internalType": "address",
          "name": "currentOwner",
          "type": "address"
        },
        {
          "internalType": "string",
          "name": "reason",
          "type": "string"
        }
      ],
      "stateMutability": "view",
      "type": "function"
    },
    {
      "inputs": [],
      "name": "nameWrapper",
      "outputs": [
        {
          "internalType": "contract INameWrapper",
          "name": "",
          "type": "address"
        }
      ],
      "stateMutability": "view",
      "type": "function"
    },
    {
      "inputs": [],
      "name": "owner",
      "outputs": [
        {
          "internalType": "address",
          "name": "",
          "type": "address"
        }
      ],
      "stateMutability": "view",
      "type": "function"
    },
    {
      "inputs": [
        {
          "internalType": "address",
          "name": "",
          "type": "address"
        }
      ],
      "name": "pendingFiatEarnings",
      "outputs": [
        {
          "internalType": "uint256",
          "name": "",
          "type": "uint256"
        }
      ],
      "stateMutability": "view",
      "type": "function"
    },
    {
      "inputs": [
        {
          "components": [
            {
              "internalType": "address",
              "name": "referrer",
              "type": "address"
            },
            {
              "internalType": "address",
              "name": "registrant",
              "type": "address"
            },
            {
              "internalType": "bytes32",
              "name": "nameHash",
              "type": "bytes32"
            },
            {
              "internalType": "bytes32",
              "name": "referrerCodeHash",
              "type": "bytes32"
            },
            {
              "internalType": "uint256",
              "name": "deadline",
              "type": "uint256"
            },
            {
              "internalType": "bytes32",
              "name": "nonce",
              "type": "bytes32"
            }
          ],
          "internalType": "struct ReferralVerifier.ReferralData",
          "name": "data",
          "type": "tuple"
        },
        {
          "internalType": "bytes",
          "name": "signature",
          "type": "bytes"
        },
        {
          "internalType": "uint256",
          "name": "totalPrice",
          "type": "uint256"
        },
        {
          "internalType": "address",
          "name": "token",
          "type": "address"
        },
        {
          "internalType": "bool",
          "name": "isFiat",
          "type": "bool"
        }
      ],
      "name": "processReferral",
      "outputs": [
        {
          "internalType": "uint256",
          "name": "paidAmount",
          "type": "uint256"
        }
      ],
      "stateMutability": "payable",
      "type": "function"
    },
    {
      "inputs": [
        {
          "internalType": "bytes32",
          "name": "nameHash",
          "type": "bytes32"
        },
        {
          "internalType": "uint256",
          "name": "totalPrice",
          "type": "uint256"
        },
        {
          "internalType": "address",
          "name": "token",
          "type": "address"
        },
        {
          "internalType": "bool",
          "name": "isFiat",
          "type": "bool"
        }
      ],
      "name": "processRenewalReferral",
      "outputs": [
        {
          "internalType": "uint256",
          "name": "paidAmount",
          "type": "uint256"
        }
      ],
      "stateMutability": "payable",
      "type": "function"
    },
    {
      "inputs": [
        {
          "internalType": "address",
          "name": "",
          "type": "address"
        }
      ],
      "name": "referralCount",
      "outputs": [
        {
          "internalType": "uint256",
          "name": "",
          "type": "uint256"
        }
      ],
      "stateMutability": "view",
      "type": "function"
    },
    {
      "inputs": [],
      "name": "renounceOwnership",
      "outputs": [],
      "stateMutability": "nonpayable",
      "type": "function"
    },
    {
      "inputs": [
        {
          "internalType": "address",
          "name": "_baseRegistrar",
          "type": "address"
        }
      ],
      "name": "setBaseRegistrar",
      "outputs": [],
      "stateMutability": "nonpayable",
      "type": "function"
    },
    {
      "inputs": [
        {
          "internalType": "address",
          "name": "controller",
          "type": "address"
        },
        {
          "internalType": "bool",
          "name": "allowed",
          "type": "bool"
        }
      ],
      "name": "setController",
      "outputs": [],
      "stateMutability": "nonpayable",
      "type": "function"
    },
    {
      "inputs": [
        {
          "internalType": "address",
          "name": "_nameWrapper",
          "type": "address"
        }
      ],
      "name": "setNameWrapper",
      "outputs": [],
      "stateMutability": "nonpayable",
      "type": "function"
    },
    {
      "inputs": [
        {
          "internalType": "address",
          "name": "_signer",
          "type": "address"
        }
      ],
      "name": "setSigner",
      "outputs": [],
      "stateMutability": "nonpayable",
      "type": "function"
    },
    {
      "inputs": [],
      "name": "signer",
      "outputs": [
        {
          "internalType": "address",
          "name": "",
          "type": "address"
        }
      ],
      "stateMutability": "view",
      "type": "function"
    },
    {
      "inputs": [
        {
          "internalType": "address",
          "name": "",
          "type": "address"
        }
      ],
      "name": "totalEarnings",
      "outputs": [
        {
          "internalType": "uint256",
          "name": "",
          "type": "uint256"
        }
      ],
      "stateMutability": "view",
      "type": "function"
    },
    {
      "inputs": [
        {
          "internalType": "address",
          "name": "newOwner",
          "type": "address"
        }
      ],
      "name": "transferOwnership",
      "outputs": [],
      "stateMutability": "nonpayable",
      "type": "function"
    },
    {
      "inputs": [],
      "name": "untrackedFiatEarnings",
      "outputs": [
        {
          "internalType": "uint256",
          "name": "",
          "type": "uint256"
        }
      ],
      "stateMutability": "view",
      "type": "function"
    },
    {
      "inputs": [
        {
          "internalType": "bytes32",
          "name": "",
          "type": "bytes32"
        }
      ],
      "name": "usedNonces",
      "outputs": [
        {
          "internalType": "bool",
          "name": "",
          "type": "bool"
        }
      ],
      "stateMutability": "view",
      "type": "function"
    },
    {
      "inputs": [
        {
          "components": [
            {
              "internalType": "address",
              "name": "referrer",
              "type": "address"
            },
            {
              "internalType": "address",
              "name": "registrant",
              "type": "address"
            },
            {
              "internalType": "bytes32",
              "name": "nameHash",
              "type": "bytes32"
            },
            {
              "internalType": "bytes32",
              "name": "referrerCodeHash",
              "type": "bytes32"
            },
            {
              "internalType": "uint256",
              "name": "deadline",
              "type": "uint256"
            },
            {
              "internalType": "bytes32",
              "name": "nonce",
              "type": "bytes32"
            }
          ],
          "internalType": "struct ReferralVerifier.ReferralData",
          "name": "data",
          "type": "tuple"
        },
        {
          "internalType": "bytes",
          "name": "signature",
          "type": "bytes"
        }
      ],
      "name": "verifySignature",
      "outputs": [
        {
          "internalType": "bool",
          "name": "",
          "type": "bool"
        }
      ],
      "stateMutability": "view",
      "type": "function"
    },
    {
      "inputs": [],
      "name": "withdrawStuckETH",
      "outputs": [],
      "stateMutability": "nonpayable",
      "type": "function"
    },
    {
      "inputs": [
        {
          "internalType": "address",
          "name": "token",
          "type": "address"
        }
      ],
      "name": "withdrawStuckTokens",
      "outputs": [],
      "stateMutability": "nonpayable",
      "type": "function"
    },
    {
      "stateMutability": "payable",
      "type": "receive"
    }
  ],
  "transactionHash": "0x9dfb4cc1854c621d5d4928bd532ac282e26a7aa17d321f04242583cbefa78c48",
  "args": [
    "0xD83deFbA240568040b39bb2C8B4DB7dB02d40593",
    "0x4c797EbaA64Cc7f1bD2a82A36bEE5Cf335D1830c",
    "0xbf4B53F867dfE5A78Cf268AfBfC1f334044e61ae"
  ],
  "numDeployments": 1,
  "solcInputHash": "c83b232ab349ffed8d3b82303aaed037",
  "bytecode": "0x60806040523480156200001157600080fd5b5060405162002ab438038062002ab483398101604081905262000034916200014d565b600080546001600160a01b031916339081178255604051909182917f8be0079c531659141344cd1fd0a4f28419497f9722a3daafe3b4186f6b6457e0908290a3506001600160a01b0383166200009d5760405163e6c4247b60e01b815260040160405180910390fd5b6001600160a01b038216620000c55760405163e6c4247b60e01b815260040160405180910390fd5b6001600160a01b038116620000ed5760405163e6c4247b60e01b815260040160405180910390fd5b600180546001600160a01b039485166001600160a01b03199182161790915560028054938516938216939093179092556003805491909316911617905562000197565b80516001600160a01b03811681146200014857600080fd5b919050565b6000806000606084860312156200016357600080fd5b6200016e8462000130565b92506200017e6020850162000130565b91506200018e6040850162000130565b90509250925092565b61290d80620001a76000396000f3fe6080604052600436106101c65760003560e01c806374f04565116100f7578063cb96372811610095578063e0dba60f11610064578063e0dba60f14610561578063f2fde38b14610581578063f5648a4f146105a1578063feb61724146105b657600080fd5b8063cb963728146104c4578063d5e2c0cd146104e4578063da8c229e14610504578063db74559b1461053457600080fd5b80638da5cb5b116100d15780638da5cb5b1461043f578063952393501461045d578063a8e5fbc01461048e578063b72e8edd146104ae57600080fd5b806374f04565146103985780637c44e651146103b8578063851170051461041257600080fd5b806344a5a810116101645780636a8be89e1161013e5780636a8be89e1461032e5780636c19e7831461034e5780636f6a61391461036e578063715018a61461038357600080fd5b806344a5a810146102d757806357ddc25a146102ea5780635bb74a401461031957600080fd5b806322db4143116101a057806322db41431461023a578063238ac9331461024f578063246cdac914610287578063371412f1146102b757600080fd5b806302ab9706146101d2578063176e7380146102125780631abe9bd91461022557600080fd5b366101cd57005b600080fd5b3480156101de57600080fd5b506101ff6101ed3660046123f8565b60096020526000908152604090205481565b6040519081526020015b60405180910390f35b6101ff610220366004612423565b6105e6565b6102386102333660046124b9565b610807565b005b34801561024657600080fd5b506101ff600581565b34801561025b57600080fd5b5060015461026f906001600160a01b031681565b6040516001600160a01b039091168152602001610209565b34801561029357600080fd5b506102a76102a236600461257f565b610a6a565b6040519015158152602001610209565b3480156102c357600080fd5b506102386102d23660046123f8565b610bc4565b6101ff6102e53660046125d3565b610c67565b3480156102f657600080fd5b5061030a61030536600461265a565b6111c8565b604051610209939291906126da565b34801561032557600080fd5b506101ff601981565b34801561033a57600080fd5b506102386103493660046123f8565b6113eb565b34801561035a57600080fd5b506102386103693660046123f8565b61148e565b34801561037a57600080fd5b506101ff601e81565b34801561038f57600080fd5b50610238611578565b3480156103a457600080fd5b5060035461026f906001600160a01b031681565b3480156103c457600080fd5b506103f56103d3366004612704565b600760205260009081526040902080546001909101546001600160a01b031682565b604080519283526001600160a01b03909116602083015201610209565b34801561041e57600080fd5b506101ff61042d3660046123f8565b60066020526000908152604090205481565b34801561044b57600080fd5b506000546001600160a01b031661026f565b34801561046957600080fd5b5061047d610478366004612704565b61161c565b60405161020995949392919061271d565b34801561049a57600080fd5b5060025461026f906001600160a01b031681565b3480156104ba57600080fd5b506101ff60085481565b3480156104d057600080fd5b506102386104df3660046123f8565b611678565b3480156104f057600080fd5b506101ff6104ff3660046123f8565b611763565b34801561051057600080fd5b506102a761051f3660046123f8565b600a6020526000908152604090205460ff1681565b34801561054057600080fd5b506101ff61054f3660046123f8565b60056020526000908152604090205481565b34801561056d57600080fd5b5061023861057c366004612757565b611794565b34801561058d57600080fd5b5061023861059c3660046123f8565b611874565b3480156105ad57600080fd5b506102386119a5565b3480156105c257600080fd5b506102a76105d1366004612704565b60046020526000908152604090205460ff1681565b336000908152600a602052604081205460ff1615801561061157506000546001600160a01b03163314155b1561062f576040516323019e6760e01b815260040160405180910390fd5b600085815260076020908152604091829020825180840190935280548352600101546001600160a01b03169082018190526106775761066d84611aa2565b60009150506107ff565b600080600061068e846000015185602001516111c8565b925092509250826106f4578360000151897f05cce9fb524e8faf93cbaf78512a9e3e73a0658cfdc3cb26b86e4b4f30ce67ec866020015185856040516106d693929190612785565b60405180910390a36106e787611aa2565b60009450505050506107ff565b6020808501516001600160a01b03166000908152600591829052604081205490911115610722576019610725565b601e5b90506064610733828b6127c7565b61073d91906127de565b9550856006600087602001516001600160a01b03166001600160a01b0316815260200190815260200160002060008282546107789190612800565b9091555050602085015161078e90878a8a611bd9565b84600001518a86602001516001600160a01b03167fea55646bc5ccc9edb50cbc57abd9e73a073f771979b80d2086f16360c848f2a5898c8c6040516107f1939291909283526001600160a01b039190911660208301521515604082015260600190565b60405180910390a450505050505b949350505050565b6000546001600160a01b031633146108665760405162461bcd60e51b815260206004820181905260248201527f4f776e61626c653a2063616c6c6572206973206e6f7420746865206f776e657260448201526064015b60405180910390fd5b8281146108b55760405162461bcd60e51b815260206004820152600f60248201527f4c656e677468206d69736d617463680000000000000000000000000000000000604482015260640161085d565b6000805b84811015610a4b5760008686838181106108d5576108d5612813565b90506020020160208101906108ea91906123f8565b9050600085858481811061090057610900612813565b90506020020135905060096000836001600160a01b03166001600160a01b031681526020019081526020016000205481111561095157506001600160a01b0381166000908152600960205260409020545b8015610a36576001600160a01b0382166000908152600960205260408120805483929061097f908490612829565b9091555061098f90508185612800565b93506000826001600160a01b03168260405160006040518083038185875af1925050503d80600081146109de576040519150601f19603f3d011682016040523d82523d6000602084013e6109e3565b606091505b5050905080610a345760405162461bcd60e51b815260206004820152600f60248201527f5472616e73666572206661696c65640000000000000000000000000000000000604482015260640161085d565b505b50508080610a439061283c565b9150506108b9565b508060086000828254610a5e9190612829565b90915550505050505050565b600080610a7a60208601866123f8565b610a8a60408701602088016123f8565b604080516bffffffffffffffffffffffff19606094851b8116602083015292841b831660348201529088013560488201528288013560688201526080880135608882015260a088013560a88201524660c88201523090921b1660e882015260fc016040516020818303038152906040528051906020012090506000610b5c826040517f19457468657265756d205369676e6564204d6573736167653a0a3332000000006020820152603c8101829052600090605c01604051602081830303815290604052805190602001209050919050565b600154604080516020601f89018190048102820181019092528781529293506001600160a01b0390911691610bae918491908990899081908401838280828437600092019190915250611f0292505050565b6001600160a01b031614925050505b9392505050565b6000546001600160a01b03163314610c1e5760405162461bcd60e51b815260206004820181905260248201527f4f776e61626c653a2063616c6c6572206973206e6f7420746865206f776e6572604482015260640161085d565b6001600160a01b038116610c455760405163e6c4247b60e01b815260040160405180910390fd5b600280546001600160a01b0319166001600160a01b0392909216919091179055565b336000908152600a602052604081205460ff16158015610c9257506000546001600160a01b03163314155b15610cb0576040516323019e6760e01b815260040160405180910390fd5b6000610cbf60208901896123f8565b6001600160a01b031603610cde57610cd683611aa2565b5060006111be565b610cee60408801602089016123f8565b6001600160a01b0316610d0460208901896123f8565b6001600160a01b031603610d44576040517f55e8f70e00000000000000000000000000000000000000000000000000000000815260040160405180910390fd5b8660800135421115610d82576040517fdf4cc36d00000000000000000000000000000000000000000000000000000000815260040160405180910390fd5b60a087013560009081526004602052604090205460ff1615610dd0576040517f1fb09b8000000000000000000000000000000000000000000000000000000000815260040160405180910390fd5b6000610ddf60208901896123f8565b610def60408a0160208b016123f8565b604080516bffffffffffffffffffffffff19606094851b8116602083015292841b83166034820152908b01356048820152828b0135606882015260808b0135608882015260a08b013560a88201524660c88201523090921b1660e882015260fc016040516020818303038152906040528051906020012090506000610ec1826040517f19457468657265756d205369676e6564204d6573736167653a0a3332000000006020820152603c8101829052600090605c01604051602081830303815290604052805190602001209050919050565b90506000610f05828a8a8080601f016020809104026020016040519081016040528093929190818152602001838380828437600092019190915250611f0292505050565b6001549091506001600160a01b03808316911614610f4f576040517f8baa579f00000000000000000000000000000000000000000000000000000000815260040160405180910390fd5b60a08a01356000908152600460209081526040808320805460ff19166001908117909155818e01358452600790925290912001546001600160a01b0316611045576040805180820190915260608b01358152602080820190610fb3908d018d6123f8565b6001600160a01b0390811690915260408c8101356000908152600760209081529190208351815592810151600190930180546001600160a01b03191693909216929092179055611005908b018b6123f8565b6001600160a01b03168a606001358b604001357f99871367a2a52c63a90d0acf1752ff1e30b56e1e9a19a428af0877f8ee485c7460405160405180910390a45b60006005808261105860208f018f6123f8565b6001600160a01b03166001600160a01b03168152602001908152602001600020541015611086576019611089565b601e5b90506064611097828a6127c7565b6110a191906127de565b9450600560006110b460208e018e6123f8565b6001600160a01b03168152602081019190915260400160009081208054916110db8361283c565b90915550859050600660006110f360208f018f6123f8565b6001600160a01b03166001600160a01b0316815260200190815260200160002060008282546111229190612800565b90915550611140905061113860208d018d6123f8565b868989611bd9565b60408b018035906111549060208e016123f8565b6001600160a01b031661116a60208e018e6123f8565b604080518981526001600160a01b038c811660208301528b151582840152915192909116917f14c8a59c54eb13a2e230089d31e60d7f059c16dda5c37dcc8488eb667ed5cad69181900360600190a4505050505b9695505050505050565b6002546040517f6352211e00000000000000000000000000000000000000000000000000000000815260048101849052600091829160609186916001600160a01b0390911690636352211e90602401602060405180830381865afa925050508015611250575060408051601f3d908101601f1916820190925261124d91810190612855565b60015b61129657505060408051808201909152601581527f446f6d61696e20646f6573206e6f7420657869737400000000000000000000006020820152600092508291506113e4565b92506003546040517fd6e4fa860000000000000000000000000000000000000000000000000000000081526000916001600160a01b03169063d6e4fa86906112e690859060040190815260200190565b602060405180830381865afa158015611303573d6000803e3d6000fd5b505050506040513d601f19601f820116820180604052508101906113279190612872565b90508042111561137257505060408051808201909152601781527f526566657272616c20646f6d61696e206578706972656400000000000000000060208201526000935090506113e4565b856001600160a01b0316846001600160a01b0316146113cc57505060408051808201909152601e81527f5265666572726572206e6f206c6f6e676572206f776e7320646f6d61696e000060208201526000935090506113e4565b50506040805160208101909152600081526001935090505b9250925092565b6000546001600160a01b031633146114455760405162461bcd60e51b815260206004820181905260248201527f4f776e61626c653a2063616c6c6572206973206e6f7420746865206f776e6572604482015260640161085d565b6001600160a01b03811661146c5760405163e6c4247b60e01b815260040160405180910390fd5b600380546001600160a01b0319166001600160a01b0392909216919091179055565b6000546001600160a01b031633146114e85760405162461bcd60e51b815260206004820181905260248201527f4f776e61626c653a2063616c6c6572206973206e6f7420746865206f776e6572604482015260640161085d565b6001600160a01b03811661150f5760405163e6c4247b60e01b815260040160405180910390fd5b600154604080516001600160a01b03928316815291831660208301527f2d025324f0a785e8c12d0a0d91a9caa49df4ef20ff87e0df7213a1d4f3157beb910160405180910390a1600180546001600160a01b0319166001600160a01b0392909216919091179055565b6000546001600160a01b031633146115d25760405162461bcd60e51b815260206004820181905260248201527f4f776e61626c653a2063616c6c6572206973206e6f7420746865206f776e6572604482015260640161085d565b600080546040516001600160a01b03909116907f8be0079c531659141344cd1fd0a4f28419497f9722a3daafe3b4186f6b6457e0908390a3600080546001600160a01b0319169055565b6000818152600760209081526040808320815180830190925280548083526001909101546001600160a01b031692820183905292908190606090841561166e5761166686866111c8565b919550935091505b5091939590929450565b6000546001600160a01b031633146116d25760405162461bcd60e51b815260206004820181905260248201527f4f776e61626c653a2063616c6c6572206973206e6f7420746865206f776e6572604482015260640161085d565b6117606116e76000546001600160a01b031690565b6040516370a0823160e01b81523060048201526001600160a01b038416906370a0823190602401602060405180830381865afa15801561172b573d6000803e3d6000fd5b505050506040513d601f19601f8201168201806040525081019061174f9190612872565b6001600160a01b0384169190611fc5565b50565b6001600160a01b0381166000908152600560208190526040822054101561178b57601961178e565b601e5b92915050565b6000546001600160a01b031633146117ee5760405162461bcd60e51b815260206004820181905260248201527f4f776e61626c653a2063616c6c6572206973206e6f7420746865206f776e6572604482015260640161085d565b6001600160a01b0382166118155760405163e6c4247b60e01b815260040160405180910390fd5b6001600160a01b0382166000818152600a6020908152604091829020805460ff191685151590811790915591519182527ff6d2c45d43180fa060c7458a5fe9d3e06119fac321af298342df4db8919bd2ee910160405180910390a25050565b6000546001600160a01b031633146118ce5760405162461bcd60e51b815260206004820181905260248201527f4f776e61626c653a2063616c6c6572206973206e6f7420746865206f776e6572604482015260640161085d565b6001600160a01b03811661194a5760405162461bcd60e51b815260206004820152602660248201527f4f776e61626c653a206e6577206f776e657220697320746865207a65726f206160448201527f6464726573730000000000000000000000000000000000000000000000000000606482015260840161085d565b600080546040516001600160a01b03808516939216917f8be0079c531659141344cd1fd0a4f28419497f9722a3daafe3b4186f6b6457e091a3600080546001600160a01b0319166001600160a01b0392909216919091179055565b6000546001600160a01b031633146119ff5760405162461bcd60e51b815260206004820181905260248201527f4f776e61626c653a2063616c6c6572206973206e6f7420746865206f776e6572604482015260640161085d565b600080546040516001600160a01b039091169047908381818185875af1925050503d8060008114611a4c576040519150601f19603f3d011682016040523d82523d6000602084013e611a51565b606091505b50509050806117605760405162461bcd60e51b815260206004820152600f60248201527f5769746864726177206661696c65640000000000000000000000000000000000604482015260640161085d565b6001600160a01b038116611b5257341561176057604051600090339034908381818185875af1925050503d8060008114611af8576040519150601f19603f3d011682016040523d82523d6000602084013e611afd565b606091505b5050905080611b4e5760405162461bcd60e51b815260206004820152600d60248201527f526566756e64206661696c656400000000000000000000000000000000000000604482015260640161085d565b5050565b6040516370a0823160e01b81523060048201526000906001600160a01b038316906370a0823190602401602060405180830381865afa158015611b99573d6000803e3d6000fd5b505050506040513d601f19601f82011682018060405250810190611bbd9190612872565b90508015611b4e57611b4e6001600160a01b0383163383611fc5565b8015611c2b576001600160a01b03841660009081526009602052604081208054859290611c07908490612800565b925050819055508260086000828254611c209190612800565b90915550611efc9050565b6001600160a01b038216611e005782341015611c895760405162461bcd60e51b815260206004820152601d60248201527f496e73756666696369656e742045544820666f7220726566657272616c000000604482015260640161085d565b6000846001600160a01b03168460405160006040518083038185875af1925050503d8060008114611cd6576040519150601f19603f3d011682016040523d82523d6000602084013e611cdb565b606091505b5050905080611d16576040517f90b8ec1800000000000000000000000000000000000000000000000000000000815260040160405180910390fd5b6000611d228534612829565b90508015611df957604051600090339083908381818185875af1925050503d8060008114611d6c576040519150601f19603f3d011682016040523d82523d6000602084013e611d71565b606091505b5050905080611dc25760405162461bcd60e51b815260206004820152601460248201527f45786365737320726566756e64206661696c6564000000000000000000000000604482015260640161085d565b60405182815233907f2c003babc9bab745cd44b6d4ba45ddf77bdbda4a59d52e1fc805dfb0d8895c7e9060200160405180910390a2505b5050611efc565b6040516370a0823160e01b81523060048201526000906001600160a01b038416906370a0823190602401602060405180830381865afa158015611e47573d6000803e3d6000fd5b505050506040513d601f19601f82011682018060405250810190611e6b9190612872565b905083811015611ebd5760405162461bcd60e51b815260206004820181905260248201527f496e73756666696369656e7420746f6b656e7320666f7220726566657272616c604482015260640161085d565b611ed16001600160a01b0384168686611fc5565b6000611edd8583612829565b90508015611ef957611ef96001600160a01b0385163383611fc5565b50505b50505050565b6000806000808451604103611f2b5750505060208201516040830151606084015160001a611fb9565b8451604003611f715750505060408201516020830151907f7fffffffffffffffffffffffffffffffffffffffffffffffffffffffffffffff81169060ff1c601b01611fb9565b60405162461bcd60e51b815260206004820152601f60248201527f45434453413a20696e76616c6964207369676e6174757265206c656e67746800604482015260640161085d565b6111be8682858561204a565b604080516001600160a01b038416602482015260448082018490528251808303909101815260649091019091526020810180517bffffffffffffffffffffffffffffffffffffffffffffffffffffffff167fa9059cbb000000000000000000000000000000000000000000000000000000001790526120459084906121f3565b505050565b60007f7fffffffffffffffffffffffffffffff5d576e7357a4501ddfe92f46681b20a08211156120c75760405162461bcd60e51b815260206004820152602260248201527f45434453413a20696e76616c6964207369676e6174757265202773272076616c604482015261756560f01b606482015260840161085d565b8360ff16601b14806120dc57508360ff16601c145b6121335760405162461bcd60e51b815260206004820152602260248201527f45434453413a20696e76616c6964207369676e6174757265202776272076616c604482015261756560f01b606482015260840161085d565b6040805160008082526020820180845288905260ff871692820192909252606081018590526080810184905260019060a0016020604051602081039080840390855afa158015612187573d6000803e3d6000fd5b5050604051601f1901519150506001600160a01b0381166121ea5760405162461bcd60e51b815260206004820152601860248201527f45434453413a20696e76616c6964207369676e61747572650000000000000000604482015260640161085d565b95945050505050565b6000612248826040518060400160405280602081526020017f5361666545524332303a206c6f772d6c6576656c2063616c6c206661696c6564815250856001600160a01b03166122d89092919063ffffffff16565b8051909150156120455780806020019051810190612266919061288b565b6120455760405162461bcd60e51b815260206004820152602a60248201527f5361666545524332303a204552433230206f7065726174696f6e20646964206e60448201527f6f74207375636365656400000000000000000000000000000000000000000000606482015260840161085d565b60606107ff848460008585843b6123315760405162461bcd60e51b815260206004820152601d60248201527f416464726573733a2063616c6c20746f206e6f6e2d636f6e7472616374000000604482015260640161085d565b600080866001600160a01b0316858760405161234d91906128a8565b60006040518083038185875af1925050503d806000811461238a576040519150601f19603f3d011682016040523d82523d6000602084013e61238f565b606091505b509150915061239f8282866123aa565b979650505050505050565b606083156123b9575081610bbd565b8251156123c95782518084602001fd5b8160405162461bcd60e51b815260040161085d91906128c4565b6001600160a01b038116811461176057600080fd5b60006020828403121561240a57600080fd5b8135610bbd816123e3565b801515811461176057600080fd5b6000806000806080858703121561243957600080fd5b84359350602085013592506040850135612452816123e3565b9150606085013561246281612415565b939692955090935050565b60008083601f84011261247f57600080fd5b50813567ffffffffffffffff81111561249757600080fd5b6020830191508360208260051b85010111156124b257600080fd5b9250929050565b600080600080604085870312156124cf57600080fd5b843567ffffffffffffffff808211156124e757600080fd5b6124f38883890161246d565b9096509450602087013591508082111561250c57600080fd5b506125198782880161246d565b95989497509550505050565b600060c0828403121561253757600080fd5b50919050565b60008083601f84011261254f57600080fd5b50813567ffffffffffffffff81111561256757600080fd5b6020830191508360208285010111156124b257600080fd5b600080600060e0848603121561259457600080fd5b61259e8585612525565b925060c084013567ffffffffffffffff8111156125ba57600080fd5b6125c68682870161253d565b9497909650939450505050565b60008060008060008061014087890312156125ed57600080fd5b6125f78888612525565b955060c087013567ffffffffffffffff81111561261357600080fd5b61261f89828a0161253d565b90965094505060e0870135925061010087013561263b816123e3565b915061012087013561264c81612415565b809150509295509295509295565b6000806040838503121561266d57600080fd5b82359150602083013561267f816123e3565b809150509250929050565b60005b838110156126a557818101518382015260200161268d565b50506000910152565b600081518084526126c681602086016020860161268a565b601f01601f19169290920160200192915050565b83151581526001600160a01b03831660208201526060604082015260006121ea60608301846126ae565b60006020828403121561271657600080fd5b5035919050565b85815260006001600160a01b038087166020840152851515604084015280851660608401525060a0608083015261239f60a08301846126ae565b6000806040838503121561276a57600080fd5b8235612775816123e3565b9150602083013561267f81612415565b60006001600160a01b038086168352808516602084015250606060408301526121ea60608301846126ae565b634e487b7160e01b600052601160045260246000fd5b808202811582820484141761178e5761178e6127b1565b6000826127fb57634e487b7160e01b600052601260045260246000fd5b500490565b8082018082111561178e5761178e6127b1565b634e487b7160e01b600052603260045260246000fd5b8181038181111561178e5761178e6127b1565b60006001820161284e5761284e6127b1565b5060010190565b60006020828403121561286757600080fd5b8151610bbd816123e3565b60006020828403121561288457600080fd5b5051919050565b60006020828403121561289d57600080fd5b8151610bbd81612415565b600082516128ba81846020870161268a565b9190910192915050565b602081526000610bbd60208301846126ae56fea2646970667358221220bcdae8f4518ae7b664e52775de7efc5ee3b890ed761476afd0ff0f328f100c6864736f6c63430008110033",
  "devdoc": {
    "kind": "dev",
    "methods": {
      "owner()": {
        "details": "Returns the address of the current owner."
      },
      "renounceOwnership()": {
        "details": "Leaves the contract without owner. It will not be possible to call `onlyOwner` functions anymore. Can only be called by the current owner. NOTE: Renouncing ownership will leave the contract without an owner, thereby removing any functionality that is only available to the owner."
      },
      "transferOwnership(address)": {
        "details": "Transfers ownership of the contract to a new account (`newOwner`). Can only be called by the current owner."
      }
    },
    "version": 1
  },
  "userdoc": {
    "kind": "user",
    "methods": {
      "distributeFiatEarnings(address[],uint256[])": {
        "notice": "Batch distribute fiat earnings"
      },
      "isReferrerValid(bytes32,address)": {
        "notice": "Check if a referrer still owns their referral code domain"
      },
      "processReferral((address,address,bytes32,bytes32,uint256,bytes32),bytes,uint256,address,bool)": {
        "notice": "Process referral for NEW registrations (requires signature)"
      },
      "processRenewalReferral(bytes32,uint256,address,bool)": {
        "notice": "Process referral for RENEWALS (checks if referrer still owns their domain)"
      }
    },
    "version": 1
  },
  "storageLayout": {
    "storage": [
      {
        "astId": 491,
        "contract": "contracts/ethregistrar/ReferralVerifier.sol:ReferralVerifier",
        "label": "_owner",
        "offset": 0,
        "slot": "0",
        "type": "t_address"
      },
      {
        "astId": 14093,
        "contract": "contracts/ethregistrar/ReferralVerifier.sol:ReferralVerifier",
        "label": "signer",
        "offset": 0,
        "slot": "1",
        "type": "t_address"
      },
      {
        "astId": 14096,
        "contract": "contracts/ethregistrar/ReferralVerifier.sol:ReferralVerifier",
        "label": "nameWrapper",
        "offset": 0,
        "slot": "2",
        "type": "t_contract(INameWrapper)14068"
      },
      {
        "astId": 14099,
        "contract": "contracts/ethregistrar/ReferralVerifier.sol:ReferralVerifier",
        "label": "baseRegistrar",
        "offset": 0,
        "slot": "3",
        "type": "t_contract(IBaseRegistrar)14076"
      },
      {
        "astId": 14103,
        "contract": "contracts/ethregistrar/ReferralVerifier.sol:ReferralVerifier",
        "label": "usedNonces",
        "offset": 0,
        "slot": "4",
        "type": "t_mapping(t_bytes32,t_bool)"
      },
      {
        "astId": 14107,
        "contract": "contracts/ethregistrar/ReferralVerifier.sol:ReferralVerifier",
        "label": "referralCount",
        "offset": 0,
        "slot": "5",
        "type": "t_mapping(t_address,t_uint256)"
      },
      {
        "astId": 14111,
        "contract": "contracts/ethregistrar/ReferralVerifier.sol:ReferralVerifier",
        "label": "totalEarnings",
        "offset": 0,
        "slot": "6",
        "type": "t_mapping(t_address,t_uint256)"
      },
      {
        "astId": 14121,
        "contract": "contracts/ethregistrar/ReferralVerifier.sol:ReferralVerifier",
        "label": "domainReferrals",
        "offset": 0,
        "slot": "7",
        "type": "t_mapping(t_bytes32,t_struct(ReferralInfo)14116_storage)"
      },
      {
        "astId": 14123,
        "contract": "contracts/ethregistrar/ReferralVerifier.sol:ReferralVerifier",
        "label": "untrackedFiatEarnings",
        "offset": 0,
        "slot": "8",
        "type": "t_uint256"
      },
      {
        "astId": 14127,
        "contract": "contracts/ethregistrar/ReferralVerifier.sol:ReferralVerifier",
        "label": "pendingFiatEarnings",
        "offset": 0,
        "slot": "9",
        "type": "t_mapping(t_address,t_uint256)"
      },
      {
        "astId": 14131,
        "contract": "contracts/ethregistrar/ReferralVerifier.sol:ReferralVerifier",
        "label": "controllers",
        "offset": 0,
        "slot": "10",
        "type": "t_mapping(t_address,t_bool)"
      }
    ],
    "types": {
      "t_address": {
        "encoding": "inplace",
        "label": "address",
        "numberOfBytes": "20"
      },
      "t_bool": {
        "encoding": "inplace",
        "label": "bool",
        "numberOfBytes": "1"
      },
      "t_bytes32": {
        "encoding": "inplace",
        "label": "bytes32",
        "numberOfBytes": "32"
      },
      "t_contract(IBaseRegistrar)14076": {
        "encoding": "inplace",
        "label": "contract IBaseRegistrar",
        "numberOfBytes": "20"
      },
      "t_contract(INameWrapper)14068": {
        "encoding": "inplace",
        "label": "contract INameWrapper",
        "numberOfBytes": "20"
      },
      "t_mapping(t_address,t_bool)": {
        "encoding": "mapping",
        "key": "t_address",
        "label": "mapping(address => bool)",
        "numberOfBytes": "32",
        "value": "t_bool"
      },
      "t_mapping(t_address,t_uint256)": {
        "encoding": "mapping",
        "key": "t_address",
        "label": "mapping(address => uint256)",
        "numberOfBytes": "32",
        "value": "t_uint256"
      },
      "t_mapping(t_bytes32,t_bool)": {
        "encoding": "mapping",
        "key": "t_bytes32",
        "label": "mapping(bytes32 => bool)",
        "numberOfBytes": "32",
        "value": "t_bool"
      },
      "t_mapping(t_bytes32,t_struct(ReferralInfo)14116_storage)": {
        "encoding": "mapping",
        "key": "t_bytes32",
        "label": "mapping(bytes32 => struct ReferralVerifier.ReferralInfo)",
        "numberOfBytes": "32",
        "value": "t_struct(ReferralInfo)14116_storage"
      },
      "t_struct(ReferralInfo)14116_storage": {
        "encoding": "inplace",
        "label": "struct ReferralVerifier.ReferralInfo",
        "members": [
          {
            "astId": 14113,
            "contract": "contracts/ethregistrar/ReferralVerifier.sol:ReferralVerifier",
            "label": "referrerCodeHash",
            "offset": 0,
            "slot": "0",
            "type": "t_bytes32"
          },
          {
            "astId": 14115,
            "contract": "contracts/ethregistrar/ReferralVerifier.sol:ReferralVerifier",
            "label": "originalReferrer",
            "offset": 0,
            "slot": "1",
            "type": "t_address"
          }
        ],
        "numberOfBytes": "64"
      },
      "t_uint256": {
        "encoding": "inplace",
        "label": "uint256",
        "numberOfBytes": "32"
      }
    }
  }
}