{
  "address": "0x6918d17082DE4C58117D3f35830421d3292b7bb1",
  "abi": [
    {
      "inputs": [
        {
          "internalType": "contract AggregatorV3Interface",
          "name": "_usdOracle",
          "type": "address"
        },
        {
          "internalType": "contract AggregatorV3Interface",
          "name": "_cakeOracle",
          "type": "address"
        },
        {
          "internalType": "contract AggregatorV3Interface",
          "name": "_usd1Oracle",
          "type": "address"
        },
        {
          "internalType": "uint256[]",
          "name": "_rentPrices",
          "type": "uint256[]"
        },
        {
          "internalType": "uint256",
          "name": "_startPremium",
          "type": "uint256"
        },
        {
          "internalType": "uint256",
          "name": "totalDays",
          "type": "uint256"
        }
      ],
      "stateMutability": "nonpayable",
      "type": "constructor"
    },
    {
      "anonymous": false,
      "inputs": [
        {
          "indexed": false,
          "internalType": "uint256[]",
          "name": "prices",
          "type": "uint256[]"
        }
      ],
      "name": "RentPriceChanged",
      "type": "event"
    },
    {
      "inputs": [
        {
          "internalType": "uint256",
          "name": "startPremium",
          "type": "uint256"
        },
        {
          "internalType": "uint256",
          "name": "elapsed",
          "type": "uint256"
        }
      ],
      "name": "decayedPremium",
      "outputs": [
        {
          "internalType": "uint256",
          "name": "",
          "type": "uint256"
        }
      ],
      "stateMutability": "pure",
      "type": "function"
    },
    {
      "inputs": [
        {
          "internalType": "string",
          "name": "name",
          "type": "string"
        },
        {
          "internalType": "uint256",
          "name": "expires",
          "type": "uint256"
        },
        {
          "internalType": "uint256",
          "name": "duration",
          "type": "uint256"
        }
      ],
      "name": "premium",
      "outputs": [
        {
          "internalType": "uint256",
          "name": "",
          "type": "uint256"
        }
      ],
      "stateMutability": "view",
      "type": "function"
    },
    {
      "inputs": [
        {
          "internalType": "string",
          "name": "name",
          "type": "string"
        },
        {
          "internalType": "uint256",
          "name": "expires",
          "type": "uint256"
        },
        {
          "internalType": "uint256",
          "name": "duration",
          "type": "uint256"
        },
        {
          "internalType": "bool",
          "name": "lifetime",
          "type": "bool"
        }
      ],
      "name": "price",
      "outputs": [
        {
          "components": [
            {
              "internalType": "uint256",
              "name": "base",
              "type": "uint256"
            },
            {
              "internalType": "uint256",
              "name": "premium",
              "type": "uint256"
            }
          ],
          "internalType": "struct IPriceOracle.Price",
          "name": "",
          "type": "tuple"
        }
      ],
      "stateMutability": "view",
      "type": "function"
    },
    {
      "inputs": [],
      "name": "price1Letter",
      "outputs": [
        {
          "internalType": "uint256",
          "name": "",
          "type": "uint256"
        }
      ],
      "stateMutability": "view",
      "type": "function"
    },
    {
      "inputs": [],
      "name": "price2Letter",
      "outputs": [
        {
          "internalType": "uint256",
          "name": "",
          "type": "uint256"
        }
      ],
      "stateMutability": "view",
      "type": "function"
    },
    {
      "inputs": [],
      "name": "price3Letter",
      "outputs": [
        {
          "internalType": "uint256",
          "name": "",
          "type": "uint256"
        }
      ],
      "stateMutability": "view",
      "type": "function"
    },
    {
      "inputs": [],
      "name": "price4Letter",
      "outputs": [
        {
          "internalType": "uint256",
          "name": "",
          "type": "uint256"
        }
      ],
      "stateMutability": "view",
      "type": "function"
    },
    {
      "inputs": [],
      "name": "price5Letter",
      "outputs": [
        {
          "internalType": "uint256",
          "name": "",
          "type": "uint256"
        }
      ],
      "stateMutability": "view",
      "type": "function"
    },
    {
      "inputs": [
        {
          "internalType": "string",
          "name": "name",
          "type": "string"
        },
        {
          "internalType": "uint256",
          "name": "expires",
          "type": "uint256"
        },
        {
          "internalType": "uint256",
          "name": "duration",
          "type": "uint256"
        },
        {
          "internalType": "string",
          "name": "token",
          "type": "string"
        },
        {
          "internalType": "bool",
          "name": "lifetime",
          "type": "bool"
        }
      ],
      "name": "priceToken",
      "outputs": [
        {
          "components": [
            {
              "internalType": "uint256",
              "name": "base",
              "type": "uint256"
            },
            {
              "internalType": "uint256",
              "name": "premium",
              "type": "uint256"
            }
          ],
          "internalType": "struct IPriceOracle.Price",
          "name": "",
          "type": "tuple"
        }
      ],
      "stateMutability": "view",
      "type": "function"
    },
    {
      "inputs": [
        {
          "internalType": "bytes4",
          "name": "interfaceID",
          "type": "bytes4"
        }
      ],
      "name": "supportsInterface",
      "outputs": [
        {
          "internalType": "bool",
          "name": "",
          "type": "bool"
        }
      ],
      "stateMutability": "view",
      "type": "function"
    }
  ],
  "transactionHash": "0x3bbbda01fe34a96c491a17de6c4c16d08abc64684017fda28381385a6d37f312",
  "args": [
    "0x0567F2323251f0Aab15c8dFb1967E4e8A7D42aeE",
    "0xB6064eD41d4f67e353768aA239cA86f4F73665a1",
    "0xaD8b4e59A7f25B68945fAf0f3a3EAF027832FFB0",
    [
      "0",
      "3170979198377",
      "1585489599188",
      "792744799594",
      "317097919838"
    ],
    "100000000000000000000000000",
    "21"
  ],
  "numDeployments": 2,
  "solcInputHash": "c83b232ab349ffed8d3b82303aaed037",
  "bytecode": "0x6101606040523480156200001257600080fd5b50604051620019ae380380620019ae833981016040819052620000359162000190565b600080546001600160a01b0319166001600160a01b0388161781558351879185918591859185918591829190620000705762000070620002a6565b60200260200101516080818152505080600181518110620000955762000095620002a6565b602002602001015160a0818152505080600281518110620000ba57620000ba620002a6565b602002602001015160c0818152505080600381518110620000df57620000df620002a6565b602002602001015160e0818152505080600481518110620001045762000104620002a6565b60209081029190910101516101005250506101208290521c610140525050600280546001600160a01b039586166001600160a01b031991821617909155600180549690951695169490941790925550620002bc92505050565b80516001600160a01b03811681146200017557600080fd5b919050565b634e487b7160e01b600052604160045260246000fd5b60008060008060008060c08789031215620001aa57600080fd5b620001b5876200015d565b95506020620001c68189016200015d565b9550620001d6604089016200015d565b60608901519095506001600160401b0380821115620001f457600080fd5b818a0191508a601f8301126200020957600080fd5b8151818111156200021e576200021e6200017a565b8060051b604051601f19603f830116810181811085821117156200024657620002466200017a565b60405291825284820192508381018501918d8311156200026557600080fd5b938501935b8285101562000285578451845293850193928501926200026a565b8098505050505050506080870151915060a087015190509295509295509295565b634e487b7160e01b600052603260045260246000fd5b60805160a05160c05160e051610100516101205161014051611605620003a9600039600081816110fb0152611125015260006110d201526000818161012501528181610340015281816104ab0152818161076301526108ce01526000818161020101528181610392015281816104e8015281816107b5015261090b0152600081816101a0015281816103d201528181610525015281816107f501526109480152600081816101da0152818161041d0152818161056201528181610840015261098501526000818160f0015281816104680152818161058c0152818161088b01526109af01526116056000f3fe608060405234801561001057600080fd5b50600436106100be5760003560e01c80638416a37411610076578063a34e35961161005b578063a34e3596146101c2578063cd5d2c74146101d5578063d820ed42146101fc57600080fd5b80638416a37414610188578063a200e1531461019b57600080fd5b806359b6b86c116100a757806359b6b86c1461012057806359e1777c146101475780638361401d1461015a57600080fd5b806301ffc9a7146100c35780632c0fd74c146100eb575b600080fd5b6100d66100d136600461123f565b610223565b60405190151581526020015b60405180910390f35b6101127f000000000000000000000000000000000000000000000000000000000000000081565b6040519081526020016100e2565b6101127f000000000000000000000000000000000000000000000000000000000000000081565b610112610155366004611281565b610234565b61016d610168366004611317565b6102cf565b604080518251815260209283015192810192909252016100e2565b61016d610196366004611415565b6106f2565b6101127f000000000000000000000000000000000000000000000000000000000000000081565b6101126101d036600461147c565b610a48565b6101127f000000000000000000000000000000000000000000000000000000000000000081565b6101127f000000000000000000000000000000000000000000000000000000000000000081565b600061022e82610a99565b92915050565b6000806201518061024d670de0b6b3a7640000856114e3565b61025791906114fa565b9050600061026d670de0b6b3a7640000836114fa565b905084811c6000610286670de0b6b3a7640000846114e3565b610290908561151c565b90506000670de0b6b3a76400006102aa83620100006114e3565b6102b491906114fa565b905060006102c28285610b31565b9998505050505050505050565b6040805180820190915260008082526020820152600061032488888080601f016020809104026020016040519081016040528093929190818152602001838380828437600092019190915250610e5192505050565b90506000600582101580156103365750835b1561037b576103697f00000000000000000000000000000000000000000000000000000000000000006301e133806114e3565b6103749060046114e3565b90506105b3565b8160041480156103885750835b156103bb576103697f00000000000000000000000000000000000000000000000000000000000000006301e133806114e3565b8160031480156103c85750835b15610406576103fb7f00000000000000000000000000000000000000000000000000000000000000006301e133806114e3565b6103749060066114e3565b8160021480156104135750835b15610451576104467f00000000000000000000000000000000000000000000000000000000000000006301e133806114e3565b61037490600a6114e3565b81600114801561045e5750835b15610491576103747f00000000000000000000000000000000000000000000000000000000000000006301e133806114e3565b600582101580156104a0575083155b156104cf57610374867f00000000000000000000000000000000000000000000000000000000000000006114e3565b8160041480156104dd575083155b1561050c57610374867f00000000000000000000000000000000000000000000000000000000000000006114e3565b81600314801561051a575083155b1561054957610374867f00000000000000000000000000000000000000000000000000000000000000006114e3565b816002148015610557575083155b1561058657610374867f00000000000000000000000000000000000000000000000000000000000000006114e3565b6105b0867f00000000000000000000000000000000000000000000000000000000000000006114e3565b90505b60408051808201909152600481527f63616b65000000000000000000000000000000000000000000000000000000006020918201528551908601207fd638d242b45c8aba8055c7b1781a7b0ac9dabf4a46aaede0b3bc1daec8c68d630161068457604051806040016040528061062883610fe0565b81526020016106786106738c8c8080601f0160208091040260200160405190810160405280939291908181526020018383808284376000920191909152508e92508d915061109c9050565b610fe0565b815250925050506106e8565b60405180604001604052806106988361115f565b81526020016106786106e38c8c8080601f0160208091040260200160405190810160405280939291908181526020018383808284376000920191909152508e92508d915061109c9050565b61115f565b9695505050505050565b6040805180820190915260008082526020820152600061074787878080601f016020809104026020016040519081016040528093929190818152602001838380828437600092019190915250610e5192505050565b90506000600582101580156107595750835b1561079e5761078c7f00000000000000000000000000000000000000000000000000000000000000006301e133806114e3565b6107979060046114e3565b90506109d6565b8160041480156107ab5750835b156107de5761078c7f00000000000000000000000000000000000000000000000000000000000000006301e133806114e3565b8160031480156107eb5750835b156108295761081e7f00000000000000000000000000000000000000000000000000000000000000006301e133806114e3565b6107979060066114e3565b8160021480156108365750835b15610874576108697f00000000000000000000000000000000000000000000000000000000000000006301e133806114e3565b61079790600a6114e3565b8160011480156108815750835b156108b4576107977f00000000000000000000000000000000000000000000000000000000000000006301e133806114e3565b600582101580156108c3575083155b156108f257610797857f00000000000000000000000000000000000000000000000000000000000000006114e3565b816004148015610900575083155b1561092f57610797857f00000000000000000000000000000000000000000000000000000000000000006114e3565b81600314801561093d575083155b1561096c57610797857f00000000000000000000000000000000000000000000000000000000000000006114e3565b81600214801561097a575083155b156109a957610797857f00000000000000000000000000000000000000000000000000000000000000006114e3565b6109d3857f00000000000000000000000000000000000000000000000000000000000000006114e3565b90505b60405180604001604052806109ea836111cf565b8152602001610a3a610a358b8b8080601f0160208091040260200160405190810160405280939291908181526020018383808284376000920191909152508d92508c915061109c9050565b6111cf565b905298975050505050505050565b6000610a90610a3586868080601f01602080910402602001604051908101604052809392919081815260200183838082843760009201919091525088925087915061109c9050565b95945050505050565b60007fffffffff0000000000000000000000000000000000000000000000000000000082167f01ffc9a700000000000000000000000000000000000000000000000000000000148061022e57507fffffffff0000000000000000000000000000000000000000000000000000000082167f8416a374000000000000000000000000000000000000000000000000000000001492915050565b60006001831615610b6457670de0b6b3a7640000610b57670de0ad151d094180846114e3565b610b6191906114fa565b91505b6002831615610b9557670de0b6b3a7640000610b88670de0a37699596800846114e3565b610b9291906114fa565b91505b6004831615610bc657670de0b6b3a7640000610bb9670de09039a5fa5100846114e3565b610bc391906114fa565b91505b6008831615610bf757670de0b6b3a7640000610bea670de069c00f3e1200846114e3565b610bf491906114fa565b91505b6010831615610c2857670de0b6b3a7640000610c1b670de01cce21c94400846114e3565b610c2591906114fa565b91505b6020831615610c5957670de0b6b3a7640000610c4c670ddf82ef46ce1000846114e3565b610c5691906114fa565b91505b6040831615610c8a57670de0b6b3a7640000610c7d670dde4f458f8e8d80846114e3565b610c8791906114fa565b91505b6080831615610cbb57670de0b6b3a7640000610cae670ddbe84213d5f080846114e3565b610cb891906114fa565b91505b610100831615610ced57670de0b6b3a7640000610ce0670dd71b7aa6df5b80846114e3565b610cea91906114fa565b91505b610200831615610d1f57670de0b6b3a7640000610d12670dcd86e7f28cde00846114e3565b610d1c91906114fa565b91505b610400831615610d5157670de0b6b3a7640000610d44670dba71a3084ad680846114e3565b610d4e91906114fa565b91505b610800831615610d8357670de0b6b3a7640000610d76670d94961b13dbde80846114e3565b610d8091906114fa565b91505b611000831615610db557670de0b6b3a7640000610da8670d4a171c35c98380846114e3565b610db291906114fa565b91505b612000831615610de757670de0b6b3a7640000610dda670cb9da519ccfb700846114e3565b610de491906114fa565b91505b614000831615610e1957670de0b6b3a7640000610e0c670bab76d59c18d680846114e3565b610e1691906114fa565b91505b618000831615610e4b57670de0b6b3a7640000610e3e6709d025defee4df80846114e3565b610e4891906114fa565b91505b50919050565b8051600090819081905b80821015610fd7576000858381518110610e7757610e7761152f565b01602001516001600160f81b03191690507f8000000000000000000000000000000000000000000000000000000000000000811015610ec257610ebb600184611545565b9250610fc4565b7fe0000000000000000000000000000000000000000000000000000000000000006001600160f81b031982161015610eff57610ebb600284611545565b7ff0000000000000000000000000000000000000000000000000000000000000006001600160f81b031982161015610f3c57610ebb600384611545565b7ff8000000000000000000000000000000000000000000000000000000000000006001600160f81b031982161015610f7957610ebb600484611545565b7ffc000000000000000000000000000000000000000000000000000000000000006001600160f81b031982161015610fb657610ebb600584611545565b610fc1600684611545565b92505b5082610fcf81611558565b935050610e5b565b50909392505050565b600080600160009054906101000a900473ffffffffffffffffffffffffffffffffffffffff1673ffffffffffffffffffffffffffffffffffffffff1663feaf968c6040518163ffffffff1660e01b815260040160a060405180830381865afa158015611050573d6000803e3d6000fd5b505050506040513d601f19601f82011682018060405250810190611074919061158b565b50505091505080836305f5e10061108b91906114e3565b61109591906114fa565b9392505050565b60006110ab6276a70084611545565b9250428311156110bd57506000611095565b60006110c9844261151c565b905060006110f77f000000000000000000000000000000000000000000000000000000000000000083610234565b90507f000000000000000000000000000000000000000000000000000000000000000081106111535761114a7f00000000000000000000000000000000000000000000000000000000000000008261151c565b92505050611095565b50600095945050505050565b600080600260009054906101000a900473ffffffffffffffffffffffffffffffffffffffff1673ffffffffffffffffffffffffffffffffffffffff1663feaf968c6040518163ffffffff1660e01b815260040160a060405180830381865afa158015611050573d6000803e3d6000fd5b60008054604080517ffeaf968c0000000000000000000000000000000000000000000000000000000081529051839273ffffffffffffffffffffffffffffffffffffffff169163feaf968c9160048083019260a09291908290030181865afa158015611050573d6000803e3d6000fd5b60006020828403121561125157600080fd5b81357fffffffff000000000000000000000000000000000000000000000000000000008116811461109557600080fd5b6000806040838503121561129457600080fd5b50508035926020909101359150565b60008083601f8401126112b557600080fd5b50813567ffffffffffffffff8111156112cd57600080fd5b6020830191508360208285010111156112e557600080fd5b9250929050565b634e487b7160e01b600052604160045260246000fd5b8035801515811461131257600080fd5b919050565b60008060008060008060a0878903121561133057600080fd5b863567ffffffffffffffff8082111561134857600080fd5b6113548a838b016112a3565b90985096506020890135955060408901359450606089013591508082111561137b57600080fd5b818901915089601f83011261138f57600080fd5b8135818111156113a1576113a16112ec565b604051601f8201601f19908116603f011681019083821181831017156113c9576113c96112ec565b816040528281528c60208487010111156113e257600080fd5b82602086016020830137600060208483010152809650505050505061140960808801611302565b90509295509295509295565b60008060008060006080868803121561142d57600080fd5b853567ffffffffffffffff81111561144457600080fd5b611450888289016112a3565b909650945050602086013592506040860135915061147060608701611302565b90509295509295909350565b6000806000806060858703121561149257600080fd5b843567ffffffffffffffff8111156114a957600080fd5b6114b5878288016112a3565b90989097506020870135966040013595509350505050565b634e487b7160e01b600052601160045260246000fd5b808202811582820484141761022e5761022e6114cd565b60008261151757634e487b7160e01b600052601260045260246000fd5b500490565b8181038181111561022e5761022e6114cd565b634e487b7160e01b600052603260045260246000fd5b8082018082111561022e5761022e6114cd565b60006001820161156a5761156a6114cd565b5060010190565b805169ffffffffffffffffffff8116811461131257600080fd5b600080600080600060a086880312156115a357600080fd5b6115ac86611571565b94506020860151935060408601519250606086015191506114706080870161157156fea26469706673582212209b2af39d25b188a9194e44b96facf218753b6330cc9dbd45af01e4c4dcee558464736f6c63430008110033",
  "devdoc": {
    "kind": "dev",
    "methods": {
      "decayedPremium(uint256,uint256)": {
        "details": "Returns the premium price at current time elapsed",
        "params": {
          "elapsed": "time past since expiry",
          "startPremium": "starting price"
        }
      },
      "premium(string,uint256,uint256)": {
        "details": "Returns the pricing premium in wei."
      },
      "price(string,uint256,uint256,bool)": {
        "details": "Returns the price to register or renew a name.",
        "params": {
          "duration": "How long the name is being registered or extended for, in seconds.",
          "expires": "When the name presently expires (0 if this is a new registration).",
          "name": "The name being registered or renewed."
        },
        "returns": {
          "_0": "base premium tuple of base price + premium price"
        }
      }
    },
    "version": 1
  },
  "userdoc": {
    "kind": "user",
    "methods": {},
    "version": 1
  },
  "storageLayout": {
    "storage": [
      {
        "astId": 15448,
        "contract": "contracts/ethregistrar/TokenPriceOracle.sol:TokenPriceOracle",
        "label": "usdOracle",
        "offset": 0,
        "slot": "0",
        "type": "t_contract(AggregatorV3Interface)45"
      },
      {
        "astId": 16172,
        "contract": "contracts/ethregistrar/TokenPriceOracle.sol:TokenPriceOracle",
        "label": "cakeOracle",
        "offset": 0,
        "slot": "1",
        "type": "t_contract(AggregatorV3Interface)45"
      },
      {
        "astId": 16175,
        "contract": "contracts/ethregistrar/TokenPriceOracle.sol:TokenPriceOracle",
        "label": "usd1Oracle",
        "offset": 0,
        "slot": "2",
        "type": "t_contract(AggregatorV3Interface)45"
      }
    ],
    "types": {
      "t_contract(AggregatorV3Interface)45": {
        "encoding": "inplace",
        "label": "contract AggregatorV3Interface",
        "numberOfBytes": "20"
      }
    }
  }
}